-- Extracted from AdventureWorks2022 using:
--
-- DBCC TRACEON(3604);
-- DBCC PAGE('AdventureWorks2022', 1, 100, 2)

DBCC execution completed. If DBCC printed error messages, contact your system administrator.

PAGE: (1:100)


BUFFER:


BUF @0x000001D43E6F7800

bpage = 0x000001C966BEE000          bPmmpage = 0x0000000000000000       bsort_r_nextbP = 0x000001D43E6F7750
bsort_r_prevbP = 0x0000000000000000 bhash = 0x0000000000000000          bpageno = (1:100)
bpart = 16                          bstat = 0x9                         breferences = 0
berrcode = 0                        bUse1 = 27911                       bstat2 = 0x0
blog = 0x15ab215a                   bsampleCount = 0                    bIoCount = 0
resPoolId = 0                       bcputicks = 0                       bReadMicroSec = 827
bDirtyPendingCount = 0              bDirtyContext = 0x0000000000000000  bDbPageBroker = 0x0000000000000000
bdbid = 9                           bpru = 0x000001C93D728040           

PAGE HEADER:


Page @0x000001C966BEE000

m_pageId = (1:100)                  m_headerVersion = 1                 m_type = 10
m_typeFlagBits = 0x0                m_level = 0                         m_flagBits = 0x200
m_objId (AllocUnitId.idObj) = 74    m_indexId (AllocUnitId.idInd) = 2   Metadata: AllocUnitId = 562949958270976
Metadata: PartitionId = 562949958270976                                  Metadata: IndexId = 2
Metadata: ObjectId = 74             m_prevPage = (0:0)                  m_nextPage = (0:0)
pminlen = 90                        m_slotCnt = 2                       m_freeCnt = 6
m_freeData = 8182                   m_reservedCnt = 0                   m_lsn = (50:808:82)
m_xactReserved = 0                  m_xdesId = (0:0)                    m_ghostRecCnt = 0
m_tornBits = 728608471              DB Frag ID = 1                      

Allocation Status

GAM (1:2) = ALLOCATED               SGAM (1:3) = NOT ALLOCATED          PFS (1:1) = 0x70 IAM_PG MIXED_EXT ALLOCATED   0_PCT_FULL
DIFF (1:6) = NOT CHANGED            ML (1:7) = NOT MIN_LOGGED           

DATA:


Memory Dump @0x000000073D7F6000

000000073D7F6000:   010a0000 00020200 00000000 00005a00 00000000  ..............Z.....
000000073D7F6014:   00000200 4a000000 0600f61f 64000000 01000000  ....J.....ö.d.......
000000073D7F6028:   32000000 28030000 52000000 00000000 00000000  2...(...R...........
000000073D7F603C:   d7ae6d2b 00000000 00000000 00000000 00000000  ×®m+................
000000073D7F6050:   00000000 00000000 00000000 00000000 00005e00  ..................^.
000000073D7F6064:   00000000 00000000 00000000 00000000 00000000  ....................
000000073D7F6078:   00000000 00000000 00000000 00000000 00000000  ....................
000000073D7F608C:   01006300 00000100 00000000 00000000 00000000  ..c.................
000000073D7F60A0:   00000000 00000000 00000000 00000000 00000000  ....................
000000073D7F60B4:   00000000 00000000 00000000 381f0000 00000000  ............8.......
000000073D7F60C8:   00000001 00000000 00000000 00000000 00000000  ....................
000000073D7F60DC:   00000000 00000000 00000000 00000000 00000000  ....................
000000073D7F60F0:   00000000 00000000 00000000 00000000 00000000  ....................
000000073D7F6104:   00000000 00000000 00000000 00000000 00000000  ....................
000000073D7F6118:   00000000 00000000 00000000 00000000 00000000  ....................
000000073D7F612C:   00000000 00000000 00000000 00000000 00000000  ....................
000000073D7F6140:   00000000 00000000 00000000 00000000 00000000  ....................
000000073D7F6154:   00000000 00000000 00000000 00000000 00000000  ....................
000000073D7F6168:   00000000 00000000 00000000 00000000 00000000  ....................
000000073D7F617C:   00000000 00000000 00000000 00000000 00000000  ....................
000000073D7F6190:   00000000 00000000 00000000 00000000 00000000  ....................
000000073D7F61A4:   00000000 00000000 00000000 00000000 00000000  ....................
000000073D7F61B8:   00000000 00000000 00000000 00000000 00000000  ....................
000000073D7F61CC:   00000000 00000000 00000000 00000000 00000000  ....................
000000073D7F61E0:   00000000 00000000 00000000 00000000 00000000  ....................
000000073D7F61F4:   00000000 00000000 00000000 00000000 00000000  ....................
000000073D7F6208:   00000000 00000000 00000000 00000000 00000000  ....................
000000073D7F621C:   00000000 00000000 00000000 00000000 00000000  ....................
000000073D7F6230:   00000000 00000000 00000000 00000000 00000000  ....................
000000073D7F6244:   00000000 00000000 00000000 00000000 00000000  ....................
000000073D7F6258:   00000000 00000000 00000000 00000000 00000000  ....................
000000073D7F626C:   00000000 00000000 00000000 00000000 00000000  ....................
000000073D7F6280:   00000000 00000000 00000000 00000000 00000000  ....................
000000073D7F6294:   00000000 00000000 00000000 00000000 00000000  ....................
000000073D7F62A8:   00000000 00000000 00000000 00000000 00000000  ....................
000000073D7F62BC:   00000000 00000000 00000000 00000000 00000000  ....................
000000073D7F62D0:   00000000 00000000 00000000 00000000 00000000  ....................
000000073D7F62E4:   00000000 00000000 00000000 00000000 00000000  ....................
000000073D7F62F8:   00000000 00000000 00000000 00000000 00000000  ....................
000000073D7F630C:   00000000 00000000 00000000 00000000 00000000  ....................
000000073D7F6320:   00000000 00000000 00000000 00000000 00000000  ....................
000000073D7F6334:   00000000 00000000 00000000 00000000 00000000  ....................
000000073D7F6348:   00000000 00000000 00000000 00000000 00000000  ....................
000000073D7F635C:   00000000 00000000 00000000 00000000 00000000  ....................
000000073D7F6370:   00000000 00000000 00000000 00000000 00000000  ....................
000000073D7F6384:   00000000 00000000 00000000 00000000 00000000  ....................
000000073D7F6398:   00000000 00000000 00000000 00000000 00000000  ....................
000000073D7F63AC:   00000000 00000000 00000000 00000000 00000000  ....................
000000073D7F63C0:   00000000 00000000 00000000 00000000 00000000  ....................
000000073D7F63D4:   00000000 00000000 00000000 00000000 00000000  ....................
000000073D7F63E8:   00000000 00000000 00000000 00000000 00000000  ....................
000000073D7F63FC:   00000000 00000000 00000000 00000000 00000000  ....................
000000073D7F6410:   00000000 00000000 00000000 00000000 00000000  ....................
000000073D7F6424:   00000000 00000000 00000000 00000000 00000000  ....................
000000073D7F6438:   00000000 00000000 00000000 00000000 00000000  ....................
000000073D7F644C:   00000000 00000000 00000000 00000000 00000000  ....................
000000073D7F6460:   00000000 00000000 00000000 00000000 00000000  ....................
000000073D7F6474:   00000000 00000000 00000000 00000000 00000000  ....................
000000073D7F6488:   00000000 00000000 00000000 00000000 00000000  ....................
000000073D7F649C:   00000000 00000000 00000000 00000000 00000000  ....................
000000073D7F64B0:   00000000 00000000 00000000 00000000 00000000  ....................
000000073D7F64C4:   00000000 00000000 00000000 00000000 00000000  ....................
000000073D7F64D8:   00000000 00000000 00000000 00000000 00000000  ....................
000000073D7F64EC:   00000000 00000000 00000000 00000000 00000000  ....................
000000073D7F6500:   00000000 00000000 00000000 00000000 00000000  ....................
000000073D7F6514:   00000000 00000000 00000000 00000000 00000000  ....................
000000073D7F6528:   00000000 00000000 00000000 00000000 00000000  ....................
000000073D7F653C:   00000000 00000000 00000000 00000000 00000000  ....................
000000073D7F6550:   00000000 00000000 00000000 00000000 00000000  ....................
000000073D7F6564:   00000000 00000000 00000000 00000000 00000000  ....................
000000073D7F6578:   00000000 00000000 00000000 00000000 00000000  ....................
000000073D7F658C:   00000000 00000000 00000000 00000000 00000000  ....................
000000073D7F65A0:   00000000 00000000 00000000 00000000 00000000  ....................
000000073D7F65B4:   00000000 00000000 00000000 00000000 00000000  ....................
000000073D7F65C8:   00000000 00000000 00000000 00000000 00000000  ....................
000000073D7F65DC:   00000000 00000000 00000000 00000000 00000000  ....................
000000073D7F65F0:   00000000 00000000 00000000 00000000 00000000  ....................
000000073D7F6604:   00000000 00000000 00000000 00000000 00000000  ....................
000000073D7F6618:   00000000 00000000 00000000 00000000 00000000  ....................
000000073D7F662C:   00000000 00000000 00000000 00000000 00000000  ....................
000000073D7F6640:   00000000 00000000 00000000 00000000 00000000  ....................
000000073D7F6654:   00000000 00000000 00000000 00000000 00000000  ....................
000000073D7F6668:   00000000 00000000 00000000 00000000 00000000  ....................
000000073D7F667C:   00000000 00000000 00000000 00000000 00000000  ....................
000000073D7F6690:   00000000 00000000 00000000 00000000 00000000  ....................
000000073D7F66A4:   00000000 00000000 00000000 00000000 00000000  ....................
000000073D7F66B8:   00000000 00000000 00000000 00000000 00000000  ....................
000000073D7F66CC:   00000000 00000000 00000000 00000000 00000000  ....................
000000073D7F66E0:   00000000 00000000 00000000 00000000 00000000  ....................
000000073D7F66F4:   00000000 00000000 00000000 00000000 00000000  ....................
000000073D7F6708:   00000000 00000000 00000000 00000000 00000000  ....................
000000073D7F671C:   00000000 00000000 00000000 00000000 00000000  ....................
000000073D7F6730:   00000000 00000000 00000000 00000000 00000000  ....................
000000073D7F6744:   00000000 00000000 00000000 00000000 00000000  ....................
000000073D7F6758:   00000000 00000000 00000000 00000000 00000000  ....................
000000073D7F676C:   00000000 00000000 00000000 00000000 00000000  ....................
000000073D7F6780:   00000000 00000000 00000000 00000000 00000000  ....................
000000073D7F6794:   00000000 00000000 00000000 00000000 00000000  ....................
000000073D7F67A8:   00000000 00000000 00000000 00000000 00000000  ....................
000000073D7F67BC:   00000000 00000000 00000000 00000000 00000000  ....................
000000073D7F67D0:   00000000 00000000 00000000 00000000 00000000  ....................
000000073D7F67E4:   00000000 00000000 00000000 00000000 00000000  ....................
000000073D7F67F8:   00000000 00000000 00000000 00000000 00000000  ....................
000000073D7F680C:   00000000 00000000 00000000 00000000 00000000  ....................
000000073D7F6820:   00000000 00000000 00000000 00000000 00000000  ....................
000000073D7F6834:   00000000 00000000 00000000 00000000 00000000  ....................
000000073D7F6848:   00000000 00000000 00000000 00000000 00000000  ....................
000000073D7F685C:   00000000 00000000 00000000 00000000 00000000  ....................
000000073D7F6870:   00000000 00000000 00000000 00000000 00000000  ....................
000000073D7F6884:   00000000 00000000 00000000 00000000 00000000  ....................
000000073D7F6898:   00000000 00000000 00000000 00000000 00000000  ....................
000000073D7F68AC:   00000000 00000000 00000000 00000000 00000000  ....................
000000073D7F68C0:   00000000 00000000 00000000 00000000 00000000  ....................
000000073D7F68D4:   00000000 00000000 00000000 00000000 00000000  ....................
000000073D7F68E8:   00000000 00000000 00000000 00000000 00000000  ....................
000000073D7F68FC:   00000000 00000000 00000000 00000000 00000000  ....................
000000073D7F6910:   00000000 00000000 00000000 00000000 00000000  ....................
000000073D7F6924:   00000000 00000000 00000000 00000000 00000000  ....................
000000073D7F6938:   00000000 00000000 00000000 00000000 00000000  ....................
000000073D7F694C:   00000000 00000000 00000000 00000000 00000000  ....................
000000073D7F6960:   00000000 00000000 00000000 00000000 00000000  ....................
000000073D7F6974:   00000000 00000000 00000000 00000000 00000000  ....................
000000073D7F6988:   00000000 00000000 00000000 00000000 00000000  ....................
000000073D7F699C:   00000000 00000000 00000000 00000000 00000000  ....................
000000073D7F69B0:   00000000 00000000 00000000 00000000 00000000  ....................
000000073D7F69C4:   00000000 00000000 00000000 00000000 00000000  ....................
000000073D7F69D8:   00000000 00000000 00000000 00000000 00000000  ....................
000000073D7F69EC:   00000000 00000000 00000000 00000000 00000000  ....................
000000073D7F6A00:   00000000 00000000 00000000 00000000 00000000  ....................
000000073D7F6A14:   00000000 00000000 00000000 00000000 00000000  ....................
000000073D7F6A28:   00000000 00000000 00000000 00000000 00000000  ....................
000000073D7F6A3C:   00000000 00000000 00000000 00000000 00000000  ....................
000000073D7F6A50:   00000000 00000000 00000000 00000000 00000000  ....................
000000073D7F6A64:   00000000 00000000 00000000 00000000 00000000  ....................
000000073D7F6A78:   00000000 00000000 00000000 00000000 00000000  ....................
000000073D7F6A8C:   00000000 00000000 00000000 00000000 00000000  ....................
000000073D7F6AA0:   00000000 00000000 00000000 00000000 00000000  ....................
000000073D7F6AB4:   00000000 00000000 00000000 00000000 00000000  ....................
000000073D7F6AC8:   00000000 00000000 00000000 00000000 00000000  ....................
000000073D7F6ADC:   00000000 00000000 00000000 00000000 00000000  ....................
000000073D7F6AF0:   00000000 00000000 00000000 00000000 00000000  ....................
000000073D7F6B04:   00000000 00000000 00000000 00000000 00000000  ....................
000000073D7F6B18:   00000000 00000000 00000000 00000000 00000000  ....................
000000073D7F6B2C:   00000000 00000000 00000000 00000000 00000000  ....................
000000073D7F6B40:   00000000 00000000 00000000 00000000 00000000  ....................
000000073D7F6B54:   00000000 00000000 00000000 00000000 00000000  ....................
000000073D7F6B68:   00000000 00000000 00000000 00000000 00000000  ....................
000000073D7F6B7C:   00000000 00000000 00000000 00000000 00000000  ....................
000000073D7F6B90:   00000000 00000000 00000000 00000000 00000000  ....................
000000073D7F6BA4:   00000000 00000000 00000000 00000000 00000000  ....................
000000073D7F6BB8:   00000000 00000000 00000000 00000000 00000000  ....................
000000073D7F6BCC:   00000000 00000000 00000000 00000000 00000000  ....................
000000073D7F6BE0:   00000000 00000000 00000000 00000000 00000000  ....................
000000073D7F6BF4:   00000000 00000000 00000000 00000000 00000000  ....................
000000073D7F6C08:   00000000 00000000 00000000 00000000 00000000  ....................
000000073D7F6C1C:   00000000 00000000 00000000 00000000 00000000  ....................
000000073D7F6C30:   00000000 00000000 00000000 00000000 00000000  ....................
000000073D7F6C44:   00000000 00000000 00000000 00000000 00000000  ....................
000000073D7F6C58:   00000000 00000000 00000000 00000000 00000000  ....................
000000073D7F6C6C:   00000000 00000000 00000000 00000000 00000000  ....................
000000073D7F6C80:   00000000 00000000 00000000 00000000 00000000  ....................
000000073D7F6C94:   00000000 00000000 00000000 00000000 00000000  ....................
000000073D7F6CA8:   00000000 00000000 00000000 00000000 00000000  ....................
000000073D7F6CBC:   00000000 00000000 00000000 00000000 00000000  ....................
000000073D7F6CD0:   00000000 00000000 00000000 00000000 00000000  ....................
000000073D7F6CE4:   00000000 00000000 00000000 00000000 00000000  ....................
000000073D7F6CF8:   00000000 00000000 00000000 00000000 00000000  ....................
000000073D7F6D0C:   00000000 00000000 00000000 00000000 00000000  ....................
000000073D7F6D20:   00000000 00000000 00000000 00000000 00000000  ....................
000000073D7F6D34:   00000000 00000000 00000000 00000000 00000000  ....................
000000073D7F6D48:   00000000 00000000 00000000 00000000 00000000  ....................
000000073D7F6D5C:   00000000 00000000 00000000 00000000 00000000  ....................
000000073D7F6D70:   00000000 00000000 00000000 00000000 00000000  ....................
000000073D7F6D84:   00000000 00000000 00000000 00000000 00000000  ....................
000000073D7F6D98:   00000000 00000000 00000000 00000000 00000000  ....................
000000073D7F6DAC:   00000000 00000000 00000000 00000000 00000000  ....................
000000073D7F6DC0:   00000000 00000000 00000000 00000000 00000000  ....................
000000073D7F6DD4:   00000000 00000000 00000000 00000000 00000000  ....................
000000073D7F6DE8:   00000000 00000000 00000000 00000000 00000000  ....................
000000073D7F6DFC:   00000000 00000000 00000000 00000000 00000000  ....................
000000073D7F6E10:   00000000 00000000 00000000 00000000 00000000  ....................
000000073D7F6E24:   00000000 00000000 00000000 00000000 00000000  ....................
000000073D7F6E38:   00000000 00000000 00000000 00000000 00000000  ....................
000000073D7F6E4C:   00000000 00000000 00000000 00000000 00000000  ....................
000000073D7F6E60:   00000000 00000000 00000000 00000000 00000000  ....................
000000073D7F6E74:   00000000 00000000 00000000 00000000 00000000  ....................
000000073D7F6E88:   00000000 00000000 00000000 00000000 00000000  ....................
000000073D7F6E9C:   00000000 00000000 00000000 00000000 00000000  ....................
000000073D7F6EB0:   00000000 00000000 00000000 00000000 00000000  ....................
000000073D7F6EC4:   00000000 00000000 00000000 00000000 00000000  ....................
000000073D7F6ED8:   00000000 00000000 00000000 00000000 00000000  ....................
000000073D7F6EEC:   00000000 00000000 00000000 00000000 00000000  ....................
000000073D7F6F00:   00000000 00000000 00000000 00000000 00000000  ....................
000000073D7F6F14:   00000000 00000000 00000000 00000000 00000000  ....................
000000073D7F6F28:   00000000 00000000 00000000 00000000 00000000  ....................
000000073D7F6F3C:   00000000 00000000 00000000 00000000 00000000  ....................
000000073D7F6F50:   00000000 00000000 00000000 00000000 00000000  ....................
000000073D7F6F64:   00000000 00000000 00000000 00000000 00000000  ....................
000000073D7F6F78:   00000000 00000000 00000000 00000000 00000000  ....................
000000073D7F6F8C:   00000000 00000000 00000000 00000000 00000000  ....................
000000073D7F6FA0:   00000000 00000000 00000000 00000000 00000000  ....................
000000073D7F6FB4:   00000000 00000000 00000000 00000000 00000000  ....................
000000073D7F6FC8:   00000000 00000000 00000000 00000000 00000000  ....................
000000073D7F6FDC:   00000000 00000000 00000000 00000000 00000000  ....................
000000073D7F6FF0:   00000000 00000000 00000000 00000000 00000000  ....................
000000073D7F7004:   00000000 00000000 00000000 00000000 00000000  ....................
000000073D7F7018:   00000000 00000000 00000000 00000000 00000000  ....................
000000073D7F702C:   00000000 00000000 00000000 00000000 00000000  ....................
000000073D7F7040:   00000000 00000000 00000000 00000000 00000000  ....................
000000073D7F7054:   00000000 00000000 00000000 00000000 00000000  ....................
000000073D7F7068:   00000000 00000000 00000000 00000000 00000000  ....................
000000073D7F707C:   00000000 00000000 00000000 00000000 00000000  ....................
000000073D7F7090:   00000000 00000000 00000000 00000000 00000000  ....................
000000073D7F70A4:   00000000 00000000 00000000 00000000 00000000  ....................
000000073D7F70B8:   00000000 00000000 00000000 00000000 00000000  ....................
000000073D7F70CC:   00000000 00000000 00000000 00000000 00000000  ....................
000000073D7F70E0:   00000000 00000000 00000000 00000000 00000000  ....................
000000073D7F70F4:   00000000 00000000 00000000 00000000 00000000  ....................
000000073D7F7108:   00000000 00000000 00000000 00000000 00000000  ....................
000000073D7F711C:   00000000 00000000 00000000 00000000 00000000  ....................
000000073D7F7130:   00000000 00000000 00000000 00000000 00000000  ....................
000000073D7F7144:   00000000 00000000 00000000 00000000 00000000  ....................
000000073D7F7158:   00000000 00000000 00000000 00000000 00000000  ....................
000000073D7F716C:   00000000 00000000 00000000 00000000 00000000  ....................
000000073D7F7180:   00000000 00000000 00000000 00000000 00000000  ....................
000000073D7F7194:   00000000 00000000 00000000 00000000 00000000  ....................
000000073D7F71A8:   00000000 00000000 00000000 00000000 00000000  ....................
000000073D7F71BC:   00000000 00000000 00000000 00000000 00000000  ....................
000000073D7F71D0:   00000000 00000000 00000000 00000000 00000000  ....................
000000073D7F71E4:   00000000 00000000 00000000 00000000 00000000  ....................
000000073D7F71F8:   00000000 00000000 00000000 00000000 00000000  ....................
000000073D7F720C:   00000000 00000000 00000000 00000000 00000000  ....................
000000073D7F7220:   00000000 00000000 00000000 00000000 00000000  ....................
000000073D7F7234:   00000000 00000000 00000000 00000000 00000000  ....................
000000073D7F7248:   00000000 00000000 00000000 00000000 00000000  ....................
000000073D7F725C:   00000000 00000000 00000000 00000000 00000000  ....................
000000073D7F7270:   00000000 00000000 00000000 00000000 00000000  ....................
000000073D7F7284:   00000000 00000000 00000000 00000000 00000000  ....................
000000073D7F7298:   00000000 00000000 00000000 00000000 00000000  ....................
000000073D7F72AC:   00000000 00000000 00000000 00000000 00000000  ....................
000000073D7F72C0:   00000000 00000000 00000000 00000000 00000000  ....................
000000073D7F72D4:   00000000 00000000 00000000 00000000 00000000  ....................
000000073D7F72E8:   00000000 00000000 00000000 00000000 00000000  ....................
000000073D7F72FC:   00000000 00000000 00000000 00000000 00000000  ....................
000000073D7F7310:   00000000 00000000 00000000 00000000 00000000  ....................
000000073D7F7324:   00000000 00000000 00000000 00000000 00000000  ....................
000000073D7F7338:   00000000 00000000 00000000 00000000 00000000  ....................
000000073D7F734C:   00000000 00000000 00000000 00000000 00000000  ....................
000000073D7F7360:   00000000 00000000 00000000 00000000 00000000  ....................
000000073D7F7374:   00000000 00000000 00000000 00000000 00000000  ....................
000000073D7F7388:   00000000 00000000 00000000 00000000 00000000  ....................
000000073D7F739C:   00000000 00000000 00000000 00000000 00000000  ....................
000000073D7F73B0:   00000000 00000000 00000000 00000000 00000000  ....................
000000073D7F73C4:   00000000 00000000 00000000 00000000 00000000  ....................
000000073D7F73D8:   00000000 00000000 00000000 00000000 00000000  ....................
000000073D7F73EC:   00000000 00000000 00000000 00000000 00000000  ....................
000000073D7F7400:   00000000 00000000 00000000 00000000 00000000  ....................
000000073D7F7414:   00000000 00000000 00000000 00000000 00000000  ....................
000000073D7F7428:   00000000 00000000 00000000 00000000 00000000  ....................
000000073D7F743C:   00000000 00000000 00000000 00000000 00000000  ....................
000000073D7F7450:   00000000 00000000 00000000 00000000 00000000  ....................
000000073D7F7464:   00000000 00000000 00000000 00000000 00000000  ....................
000000073D7F7478:   00000000 00000000 00000000 00000000 00000000  ....................
000000073D7F748C:   00000000 00000000 00000000 00000000 00000000  ....................
000000073D7F74A0:   00000000 00000000 00000000 00000000 00000000  ....................
000000073D7F74B4:   00000000 00000000 00000000 00000000 00000000  ....................
000000073D7F74C8:   00000000 00000000 00000000 00000000 00000000  ....................
000000073D7F74DC:   00000000 00000000 00000000 00000000 00000000  ....................
000000073D7F74F0:   00000000 00000000 00000000 00000000 00000000  ....................
000000073D7F7504:   00000000 00000000 00000000 00000000 00000000  ....................
000000073D7F7518:   00000000 00000000 00000000 00000000 00000000  ....................
000000073D7F752C:   00000000 00000000 00000000 00000000 00000000  ....................
000000073D7F7540:   00000000 00000000 00000000 00000000 00000000  ....................
000000073D7F7554:   00000000 00000000 00000000 00000000 00000000  ....................
000000073D7F7568:   00000000 00000000 00000000 00000000 00000000  ....................
000000073D7F757C:   00000000 00000000 00000000 00000000 00000000  ....................
000000073D7F7590:   00000000 00000000 00000000 00000000 00000000  ....................
000000073D7F75A4:   00000000 00000000 00000000 00000000 00000000  ....................
000000073D7F75B8:   00000000 00000000 00000000 00000000 00000000  ....................
000000073D7F75CC:   00000000 00000000 00000000 00000000 00000000  ....................
000000073D7F75E0:   00000000 00000000 00000000 00000000 00000000  ....................
000000073D7F75F4:   00000000 00000000 00000000 00000000 00000000  ....................
000000073D7F7608:   00000000 00000000 00000000 00000000 00000000  ....................
000000073D7F761C:   00000000 00000000 00000000 00000000 00000000  ....................
000000073D7F7630:   00000000 00000000 00000000 00000000 00000000  ....................
000000073D7F7644:   00000000 00000000 00000000 00000000 00000000  ....................
000000073D7F7658:   00000000 00000000 00000000 00000000 00000000  ....................
000000073D7F766C:   00000000 00000000 00000000 00000000 00000000  ....................
000000073D7F7680:   00000000 00000000 00000000 00000000 00000000  ....................
000000073D7F7694:   00000000 00000000 00000000 00000000 00000000  ....................
000000073D7F76A8:   00000000 00000000 00000000 00000000 00000000  ....................
000000073D7F76BC:   00000000 00000000 00000000 00000000 00000000  ....................
000000073D7F76D0:   00000000 00000000 00000000 00000000 00000000  ....................
000000073D7F76E4:   00000000 00000000 00000000 00000000 00000000  ....................
000000073D7F76F8:   00000000 00000000 00000000 00000000 00000000  ....................
000000073D7F770C:   00000000 00000000 00000000 00000000 00000000  ....................
000000073D7F7720:   00000000 00000000 00000000 00000000 00000000  ....................
000000073D7F7734:   00000000 00000000 00000000 00000000 00000000  ....................
000000073D7F7748:   00000000 00000000 00000000 00000000 00000000  ....................
000000073D7F775C:   00000000 00000000 00000000 00000000 00000000  ....................
000000073D7F7770:   00000000 00000000 00000000 00000000 00000000  ....................
000000073D7F7784:   00000000 00000000 00000000 00000000 00000000  ....................
000000073D7F7798:   00000000 00000000 00000000 00000000 00000000  ....................
000000073D7F77AC:   00000000 00000000 00000000 00000000 00000000  ....................
000000073D7F77C0:   00000000 00000000 00000000 00000000 00000000  ....................
000000073D7F77D4:   00000000 00000000 00000000 00000000 00000000  ....................
000000073D7F77E8:   00000000 00000000 00000000 00000000 00000000  ....................
000000073D7F77FC:   00000000 00000000 00000000 00000000 00000000  ....................
000000073D7F7810:   00000000 00000000 00000000 00000000 00000000  ....................
000000073D7F7824:   00000000 00000000 00000000 00000000 00000000  ....................
000000073D7F7838:   00000000 00000000 00000000 00000000 00000000  ....................
000000073D7F784C:   00000000 00000000 00000000 00000000 00000000  ....................
000000073D7F7860:   00000000 00000000 00000000 00000000 00000000  ....................
000000073D7F7874:   00000000 00000000 00000000 00000000 00000000  ....................
000000073D7F7888:   00000000 00000000 00000000 00000000 00000000  ....................
000000073D7F789C:   00000000 00000000 00000000 00000000 00000000  ....................
000000073D7F78B0:   00000000 00000000 00000000 00000000 00000000  ....................
000000073D7F78C4:   00000000 00000000 00000000 00000000 00000000  ....................
000000073D7F78D8:   00000000 00000000 00000000 00000000 00000000  ....................
000000073D7F78EC:   00000000 00000000 00000000 00000000 00000000  ....................
000000073D7F7900:   00000000 00000000 00000000 00000000 00000000  ....................
000000073D7F7914:   00000000 00000000 00000000 00000000 00000000  ....................
000000073D7F7928:   00000000 00000000 00000000 00000000 00000000  ....................
000000073D7F793C:   00000000 00000000 00000000 00000000 00000000  ....................
000000073D7F7950:   00000000 00000000 00000000 00000000 00000000  ....................
000000073D7F7964:   00000000 00000000 00000000 00000000 00000000  ....................
000000073D7F7978:   00000000 00000000 00000000 00000000 00000000  ....................
000000073D7F798C:   00000000 00000000 00000000 00000000 00000000  ....................
000000073D7F79A0:   00000000 00000000 00000000 00000000 00000000  ....................
000000073D7F79B4:   00000000 00000000 00000000 00000000 00000000  ....................
000000073D7F79C8:   00000000 00000000 00000000 00000000 00000000  ....................
000000073D7F79DC:   00000000 00000000 00000000 00000000 00000000  ....................
000000073D7F79F0:   00000000 00000000 00000000 00000000 00000000  ....................
000000073D7F7A04:   00000000 00000000 00000000 00000000 00000000  ....................
000000073D7F7A18:   00000000 00000000 00000000 00000000 00000000  ....................
000000073D7F7A2C:   00000000 00000000 00000000 00000000 00000000  ....................
000000073D7F7A40:   00000000 00000000 00000000 00000000 00000000  ....................
000000073D7F7A54:   00000000 00000000 00000000 00000000 00000000  ....................
000000073D7F7A68:   00000000 00000000 00000000 00000000 00000000  ....................
000000073D7F7A7C:   00000000 00000000 00000000 00000000 00000000  ....................
000000073D7F7A90:   00000000 00000000 00000000 00000000 00000000  ....................
000000073D7F7AA4:   00000000 00000000 00000000 00000000 00000000  ....................
000000073D7F7AB8:   00000000 00000000 00000000 00000000 00000000  ....................
000000073D7F7ACC:   00000000 00000000 00000000 00000000 00000000  ....................
000000073D7F7AE0:   00000000 00000000 00000000 00000000 00000000  ....................
000000073D7F7AF4:   00000000 00000000 00000000 00000000 00000000  ....................
000000073D7F7B08:   00000000 00000000 00000000 00000000 00000000  ....................
000000073D7F7B1C:   00000000 00000000 00000000 00000000 00000000  ....................
000000073D7F7B30:   00000000 00000000 00000000 00000000 00000000  ....................
000000073D7F7B44:   00000000 00000000 00000000 00000000 00000000  ....................
000000073D7F7B58:   00000000 00000000 00000000 00000000 00000000  ....................
000000073D7F7B6C:   00000000 00000000 00000000 00000000 00000000  ....................
000000073D7F7B80:   00000000 00000000 00000000 00000000 00000000  ....................
000000073D7F7B94:   00000000 00000000 00000000 00000000 00000000  ....................
000000073D7F7BA8:   00000000 00000000 00000000 00000000 00000000  ....................
000000073D7F7BBC:   00000000 00000000 00000000 00000000 00000000  ....................
000000073D7F7BD0:   00000000 00000000 00000000 00000000 00000000  ....................
000000073D7F7BE4:   00000000 00000000 00000000 00000000 00000000  ....................
000000073D7F7BF8:   00000000 00000000 00000000 00000000 00000000  ....................
000000073D7F7C0C:   00000000 00000000 00000000 00000000 00000000  ....................
000000073D7F7C20:   00000000 00000000 00000000 00000000 00000000  ....................
000000073D7F7C34:   00000000 00000000 00000000 00000000 00000000  ....................
000000073D7F7C48:   00000000 00000000 00000000 00000000 00000000  ....................
000000073D7F7C5C:   00000000 00000000 00000000 00000000 00000000  ....................
000000073D7F7C70:   00000000 00000000 00000000 00000000 00000000  ....................
000000073D7F7C84:   00000000 00000000 00000000 00000000 00000000  ....................
000000073D7F7C98:   00000000 00000000 00000000 00000000 00000000  ....................
000000073D7F7CAC:   00000000 00000000 00000000 00000000 00000000  ....................
000000073D7F7CC0:   00000000 00000000 00000000 00000000 00000000  ....................
000000073D7F7CD4:   00000000 00000000 00000000 00000000 00000000  ....................
000000073D7F7CE8:   00000000 00000000 00000000 00000000 00000000  ....................
000000073D7F7CFC:   00000000 00000000 00000000 00000000 00000000  ....................
000000073D7F7D10:   00000000 00000000 00000000 00000000 00000000  ....................
000000073D7F7D24:   00000000 00000000 00000000 00000000 00000000  ....................
000000073D7F7D38:   00000000 00000000 00000000 00000000 00000000  ....................
000000073D7F7D4C:   00000000 00000000 00000000 00000000 00000000  ....................
000000073D7F7D60:   00000000 00000000 00000000 00000000 00000000  ....................
000000073D7F7D74:   00000000 00000000 00000000 00000000 00000000  ....................
000000073D7F7D88:   00000000 00000000 00000000 00000000 00000000  ....................
000000073D7F7D9C:   00000000 00000000 00000000 00000000 00000000  ....................
000000073D7F7DB0:   00000000 00000000 00000000 00000000 00000000  ....................
000000073D7F7DC4:   00000000 00000000 00000000 00000000 00000000  ....................
000000073D7F7DD8:   00000000 00000000 00000000 00000000 00000000  ....................
000000073D7F7DEC:   00000000 00000000 00000000 00000000 00000000  ....................
000000073D7F7E00:   00000000 00000000 00000000 00000000 00000000  ....................
000000073D7F7E14:   00000000 00000000 00000000 00000000 00000000  ....................
000000073D7F7E28:   00000000 00000000 00000000 00000000 00000000  ....................
000000073D7F7E3C:   00000000 00000000 00000000 00000000 00000000  ....................
000000073D7F7E50:   00000000 00000000 00000000 00000000 00000000  ....................
000000073D7F7E64:   00000000 00000000 00000000 00000000 00000000  ....................
000000073D7F7E78:   00000000 00000000 00000000 00000000 00000000  ....................
000000073D7F7E8C:   00000000 00000000 00000000 00000000 00000000  ....................
000000073D7F7EA0:   00000000 00000000 00000000 00000000 00000000  ....................
000000073D7F7EB4:   00000000 00000000 00000000 00000000 00000000  ....................
000000073D7F7EC8:   00000000 00000000 00000000 00000000 00000000  ....................
000000073D7F7EDC:   00000000 00000000 00000000 00000000 00000000  ....................
000000073D7F7EF0:   00000000 00000000 00000000 00000000 00000000  ....................
000000073D7F7F04:   00000000 00000000 00000000 00000000 00000000  ....................
000000073D7F7F18:   00000000 00000000 00000000 00000000 00000000  ....................
000000073D7F7F2C:   00000000 00000000 00000000 00000000 00000000  ....................
000000073D7F7F40:   00000000 00000000 00000000 00000000 00000000  ....................
000000073D7F7F54:   00000000 00000000 00000000 00000000 00000000  ....................
000000073D7F7F68:   00000000 00000000 00000000 00000000 00000000  ....................
000000073D7F7F7C:   00000000 00000000 00000000 00000000 00000000  ....................
000000073D7F7F90:   00000000 00000000 00000000 00000000 00000000  ....................
000000073D7F7FA4:   00000000 00000000 00000000 00000000 00000000  ....................
000000073D7F7FB8:   00000000 00000000 00000000 00000000 00000000  ....................
000000073D7F7FCC:   00000000 00000000 00000000 00000000 00000000  ....................
000000073D7F7FE0:   00000000 00000000 00000000 00000000 00000000  ....................
000000073D7F7FF4:   00000000 21212121 be006000                    ....!!!!¾.`.


DBCC execution completed. If DBCC printed error messages, contact your system administrator.

Completion time: 2023-12-13T17:04:29.0695630+00:00
