DBCC execution completed. If DBCC printed error messages, contact your system administrator.

PAGE: (1:1)


BUFFER:


BUF @0x000001D43E776A80

bpage = 0x000001C95D53C000          bPmmpage = 0x0000000000000000       bsort_r_nextbP = 0x000001D43E776910
bsort_r_prevbP = 0x000001D43E776B40 bhash = 0x0000000000000000          bpageno = (1:1)
bpart = 16                          bstat = 0x9                         breferences = 0
berrcode = 0                        bUse1 = 15584                       bstat2 = 0x8
blog = 0x15ab215a                   bsampleCount = 0                    bIoCount = 0
resPoolId = 0                       bcputicks = 0                       bReadMicroSec = 10166
bDirtyPendingCount = 0              bDirtyContext = 0x0000000000000000  bDbPageBroker = 0x0000000000000000
bdbid = 9                           bpru = 0x000001C93D728040           

PAGE HEADER:


Page @0x000001C95D53C000

m_pageId = (1:1)                    m_headerVersion = 1                 m_type = 11
m_typeFlagBits = 0x0                m_level = 0                         m_flagBits = 0x200
m_objId (AllocUnitId.idObj) = 99    m_indexId (AllocUnitId.idInd) = 0   Metadata: AllocUnitId = 6488064
Metadata: PartitionId = 0           Metadata: IndexId = 0               Metadata: ObjectId = 99
m_prevPage = (0:0)                  m_nextPage = (0:0)                  pminlen = 0
m_slotCnt = 1                       m_freeCnt = 2                       m_freeData = 8188
m_reservedCnt = 0                   m_lsn = (53:29972:1)                m_xactReserved = 0
m_xdesId = (0:0)                    m_ghostRecCnt = 0                   m_tornBits = -516330046
DB Frag ID = 1                      

Allocation Status

GAM (1:2) = ALLOCATED               SGAM (1:3) = NOT ALLOCATED          PFS (1:1) = 0x44 ALLOCATED 100_PCT_FULL
DIFF (1:6) = CHANGED                ML (1:7) = NOT MIN_LOGGED           

DATA:


Memory Dump @0x00000007409F6000

00000007409F6000:   010b0000 00020000 00000000 00000000 00000000  ....................
00000007409F6014:   00000100 63000000 0200fc1f 01000000 01000000  ....c.....ü.........
00000007409F6028:   35000000 14750000 01000000 00000000 00000000  5....u..............
00000007409F603C:   c26d39e1 00000000 00000000 00000000 00000000  Âm9á................
00000007409F6050:   00000000 00000000 00000000 00000000 00009c1f  ...................
00000007409F6064:   44444444 00004444 60647060 74706070 60607060  DDDD..DD`dp`tp`p``p`
00000007409F6078:   60707060 40404040 40404040 61706070 60606070  `pp`@@@@@@@@ap`p```p
00000007409F608C:   60706060 60706060 60706060 60606070 40404040  `p```p```p`````p@@@@
00000007409F60A0:   40404040 40404040 40404040 60706060 70607070  @@@@@@@@@@@@`p``p`pp
00000007409F60B4:   70706070 70606060 70706060 70706060 70607060  pp`pp```pp``pp``p`p`
00000007409F60C8:   70607060 70607060 70606060 60607060 60707070  p`p`p`p`p`````p``ppp
00000007409F60DC:   70606070 60707070 60707070 60607060 60706060  p``p`ppp`ppp``p``p``
00000007409F60F0:   60707060 70707070 60607060 70607060 70706060  `pp`pppp``p`p`p`pp``
00000007409F6104:   60607060 60607060 40404040 40404040 40404040  ``p```p`@@@@@@@@@@@@
00000007409F6118:   40404040 60606060 70707070 40404040 00000000  @@@@````pppp@@@@....
00000007409F612C:   60607070 60707060 70707070 70706060 40404040  ``pp`pp`pppppp``@@@@
00000007409F6140:   40404040 60606070 70707070 40404040 40404040  @@@@```ppppp@@@@@@@@
00000007409F6154:   40000000 00000000 40404040 40404040 40404040  @.......@@@@@@@@@@@@
00000007409F6168:   40404040 40404000 00000000 40404040 40404040  @@@@@@@.....@@@@@@@@
00000007409F617C:   40000000 00000000 40400000 00000000 40404040  @.......@@......@@@@
00000007409F6190:   40404040 40404020 20203020 40404020 30203020  @@@@@@@   0 @@@ 0 0 
00000007409F61A4:   43434343 44434343 43434344 42444244 40404040  CCCCDCCCCCCDBDBD@@@@
00000007409F61B8:   00000000 40404040 40400000 40404040 40400000  ....@@@@@@..@@@@@@..
00000007409F61CC:   40400000 00000000 43434343 43424241 40400000  @@......CCCCCBBA@@..
00000007409F61E0:   00000000 42444244 42424242 40404040 40000000  ....BDBDBBBB@@@@@...
00000007409F61F4:   42424242 42424243 42424142 41424242 40404040  BBBBBBBCBBABABBB@@@@
00000007409F6208:   40404040 40404040 40404040 40000000 00000000  @@@@@@@@@@@@@.......
00000007409F621C:   40000000 00000000 42414242 42424242 43424242  @.......BABBBBBBCBBB
00000007409F6230:   42434242 40404040 40404040 40404040 40000000  BCBB@@@@@@@@@@@@@...
00000007409F6244:   40000000 00000000 40000000 00000000 40000000  @.......@.......@...
00000007409F6258:   00000000 40000000 00000000 40000000 00000000  ....@.......@.......
00000007409F626C:   40404040 40404040 40404040 40404040 40404040  @@@@@@@@@@@@@@@@@@@@
00000007409F6280:   40404040 40404040 40404040 40404040 40404040  @@@@@@@@@@@@@@@@@@@@
00000007409F6294:   40404040 40404040 41424242 43434343 40404040  @@@@@@@@ABBBCCCC@@@@
00000007409F62A8:   40000000 40404040 40404040 40404040 40404040  @...@@@@@@@@@@@@@@@@
00000007409F62BC:   40404040 40404040 40404040 00000000 40404040  @@@@@@@@@@@@....@@@@
00000007409F62D0:   40000000 40404040 40404040 40040404 04040404  @...@@@@@@@@@.......
00000007409F62E4:   40404040 40404040 44444344 43444444 40404040  @@@@@@@@DDCDCDDD@@@@
00000007409F62F8:   40404040 40404040 40404040 40404040 40404040  @@@@@@@@@@@@@@@@@@@@
00000007409F630C:   40404040 40404040 40404040 40404040 40000000  @@@@@@@@@@@@@@@@@...
00000007409F6320:   00000000 40000000 00000000 40000000 00000000  ....@.......@.......
00000007409F6334:   40000000 00000000 40404040 40404040 40404040  @.......@@@@@@@@@@@@
00000007409F6348:   40404040 40404040 40404040 40404040 40404040  @@@@@@@@@@@@@@@@@@@@
00000007409F635C:   40404040 40404040 40404040 40404040 40404040  @@@@@@@@@@@@@@@@@@@@
00000007409F6370:   40404040 40404040 40404040 40404040 40404040  @@@@@@@@@@@@@@@@@@@@
00000007409F6384:   40404040 40400000 40000000 00000000 40404040  @@@@@@..@.......@@@@
00000007409F6398:   40404040 40404040 40404040 40040404 04040404  @@@@@@@@@@@@@.......
00000007409F63AC:   40404040 40404040 40404040 40404040 40040404  @@@@@@@@@@@@@@@@@...
00000007409F63C0:   04040404 40404040 40404040 40404040 40404040  ....@@@@@@@@@@@@@@@@
00000007409F63D4:   40404040 40404040 40404040 40404040 40404040  @@@@@@@@@@@@@@@@@@@@
00000007409F63E8:   40404040 40404040 40404040 40404040 40404040  @@@@@@@@@@@@@@@@@@@@
00000007409F63FC:   40404040 40404040 40404040 40404040 40040404  @@@@@@@@@@@@@@@@@...
00000007409F6410:   04040404 40404040 40404040 40404040 40404040  ....@@@@@@@@@@@@@@@@
00000007409F6424:   40404040 40404040 40404040 40404040 40000000  @@@@@@@@@@@@@@@@@...
00000007409F6438:   00000000 40000000 00000000 40000000 00000000  ....@.......@.......
00000007409F644C:   40000000 00000000 40404040 40404040 40404040  @.......@@@@@@@@@@@@
00000007409F6460:   40404040 40404040 40404040 40000000 00000000  @@@@@@@@@@@@@.......
00000007409F6474:   40404040 40404040 40404040 40404040 40404040  @@@@@@@@@@@@@@@@@@@@
00000007409F6488:   40404040 40404040 40404040 40404040 40404040  @@@@@@@@@@@@@@@@@@@@
00000007409F649C:   40404040 40404040 40404040 40404040 40404040  @@@@@@@@@@@@@@@@@@@@
00000007409F64B0:   40404040 40404040 40404040 40404040 40404040  @@@@@@@@@@@@@@@@@@@@
00000007409F64C4:   40404040 40404040 40404040 40404040 40404040  @@@@@@@@@@@@@@@@@@@@
00000007409F64D8:   40404040 40404040 40404040 40404040 40404040  @@@@@@@@@@@@@@@@@@@@
00000007409F64EC:   40404040 40404040 40404040 40404040 40404040  @@@@@@@@@@@@@@@@@@@@
00000007409F6500:   40404040 40404040 40404040 40404040 40404040  @@@@@@@@@@@@@@@@@@@@
00000007409F6514:   40404040 40404040 40404040 40404040 40404040  @@@@@@@@@@@@@@@@@@@@
00000007409F6528:   40404040 40404040 40404040 40404040 40404040  @@@@@@@@@@@@@@@@@@@@
00000007409F653C:   40404040 40404040 40404040 40404040 40000000  @@@@@@@@@@@@@@@@@...
00000007409F6550:   00000000 43424242 42444243 40000000 00000000  ....CBBBBDBC@.......
00000007409F6564:   40040404 04040404 40404040 40404040 40040404  @.......@@@@@@@@@...
00000007409F6578:   04040404 40404040 40404040 40404040 40404040  ....@@@@@@@@@@@@@@@@
00000007409F658C:   40404040 40404040 40404040 40404040 40404040  @@@@@@@@@@@@@@@@@@@@
00000007409F65A0:   40404040 40404040 40404040 40404040 40404040  @@@@@@@@@@@@@@@@@@@@
00000007409F65B4:   40404040 40404040 40404040 40404040 40404040  @@@@@@@@@@@@@@@@@@@@
00000007409F65C8:   40404040 40404040 40404040 40404040 40404040  @@@@@@@@@@@@@@@@@@@@
00000007409F65DC:   40404040 40404040 40404040 40404040 40404040  @@@@@@@@@@@@@@@@@@@@
00000007409F65F0:   40404040 40404040 40404040 40404040 40404040  @@@@@@@@@@@@@@@@@@@@
00000007409F6604:   40404040 40404040 40404040 40404040 40404040  @@@@@@@@@@@@@@@@@@@@
00000007409F6618:   40404040 40404040 40404040 40404040 40404040  @@@@@@@@@@@@@@@@@@@@
00000007409F662C:   40404040 40404040 40404040 40404040 40404040  @@@@@@@@@@@@@@@@@@@@
00000007409F6640:   40404040 40404040 40404040 40404040 40404040  @@@@@@@@@@@@@@@@@@@@
00000007409F6654:   40404040 40404040 40404040 40404040 40404040  @@@@@@@@@@@@@@@@@@@@
00000007409F6668:   40404040 40404040 40404040 40404040 40404040  @@@@@@@@@@@@@@@@@@@@
00000007409F667C:   40040403 00000000 40000000 00000000 40000000  @.......@.......@...
00000007409F6690:   00000000 40040404 04040404 40404040 40404040  ....@.......@@@@@@@@
00000007409F66A4:   40404040 40404040 40404040 40404040 40404040  @@@@@@@@@@@@@@@@@@@@
00000007409F66B8:   40404040 40404040 40404040 40404040 40404040  @@@@@@@@@@@@@@@@@@@@
00000007409F66CC:   40404040 40404040 40404040 40404040 40404040  @@@@@@@@@@@@@@@@@@@@
00000007409F66E0:   40404040 40404040 40404040 40404040 40404040  @@@@@@@@@@@@@@@@@@@@
00000007409F66F4:   40404040 40404040 40404040 40404040 40404040  @@@@@@@@@@@@@@@@@@@@
00000007409F6708:   40404040 40404040 40404040 40404040 40404040  @@@@@@@@@@@@@@@@@@@@
00000007409F671C:   40404040 40404040 40404040 40404040 40404040  @@@@@@@@@@@@@@@@@@@@
00000007409F6730:   40404040 40404040 40404040 40404040 40404040  @@@@@@@@@@@@@@@@@@@@
00000007409F6744:   40404040 40404040 40404040 40404040 40404040  @@@@@@@@@@@@@@@@@@@@
00000007409F6758:   40404040 40404040 40404040 40404040 40404040  @@@@@@@@@@@@@@@@@@@@
00000007409F676C:   40404040 40404040 40404040 40404040 40404040  @@@@@@@@@@@@@@@@@@@@
00000007409F6780:   40404040 40404040 40404040 40404040 40404040  @@@@@@@@@@@@@@@@@@@@
00000007409F6794:   40404040 40404040 40404040 40404040 40404040  @@@@@@@@@@@@@@@@@@@@
00000007409F67A8:   40404040 40404040 40404040 40404040 40404040  @@@@@@@@@@@@@@@@@@@@
00000007409F67BC:   40404040 40404040 40404040 40404040 40404040  @@@@@@@@@@@@@@@@@@@@
00000007409F67D0:   40404040 40404040 40404040 40404040 40404040  @@@@@@@@@@@@@@@@@@@@
00000007409F67E4:   40404040 40404040 40404040 40404040 40404040  @@@@@@@@@@@@@@@@@@@@
00000007409F67F8:   40404040 40404040 40404040 40404040 40404040  @@@@@@@@@@@@@@@@@@@@
00000007409F680C:   40404040 40404040 40404040 40404040 40404040  @@@@@@@@@@@@@@@@@@@@
00000007409F6820:   40404040 40404040 40404040 40404040 40404040  @@@@@@@@@@@@@@@@@@@@
00000007409F6834:   40404040 40404040 40404040 40404040 40404040  @@@@@@@@@@@@@@@@@@@@
00000007409F6848:   40404040 40404040 40404040 40404040 40404040  @@@@@@@@@@@@@@@@@@@@
00000007409F685C:   40404040 40404040 40404040 40404040 40404040  @@@@@@@@@@@@@@@@@@@@
00000007409F6870:   40404040 40404040 40404040 40404040 40404040  @@@@@@@@@@@@@@@@@@@@
00000007409F6884:   40404040 40404040 40404040 40404040 40404040  @@@@@@@@@@@@@@@@@@@@
00000007409F6898:   40404040 40404040 40404040 40404040 40404040  @@@@@@@@@@@@@@@@@@@@
00000007409F68AC:   40404040 40404040 40404040 40404040 40404040  @@@@@@@@@@@@@@@@@@@@
00000007409F68C0:   40404040 40404040 40404040 40404040 40404040  @@@@@@@@@@@@@@@@@@@@
00000007409F68D4:   40404040 40404040 40404040 40404040 40404040  @@@@@@@@@@@@@@@@@@@@
00000007409F68E8:   40404040 40404040 40404040 40404040 40404040  @@@@@@@@@@@@@@@@@@@@
00000007409F68FC:   40404040 40404040 40404040 40404040 40404040  @@@@@@@@@@@@@@@@@@@@
00000007409F6910:   40404040 40404040 40404040 40404040 40404040  @@@@@@@@@@@@@@@@@@@@
00000007409F6924:   40404040 40404040 40404040 40404040 40404040  @@@@@@@@@@@@@@@@@@@@
00000007409F6938:   40404040 40404040 40404040 40404040 40404040  @@@@@@@@@@@@@@@@@@@@
00000007409F694C:   40404040 40404040 40404040 40404040 40404040  @@@@@@@@@@@@@@@@@@@@
00000007409F6960:   40404040 40404040 40404040 40404040 40404040  @@@@@@@@@@@@@@@@@@@@
00000007409F6974:   40404040 40404040 40404040 40404040 40404040  @@@@@@@@@@@@@@@@@@@@
00000007409F6988:   40404040 40404040 40404040 40404040 40404040  @@@@@@@@@@@@@@@@@@@@
00000007409F699C:   40404040 40404040 40404040 40404040 40404040  @@@@@@@@@@@@@@@@@@@@
00000007409F69B0:   40404040 40000000 00000000 44444443 44444444  @@@@@.......DDDCDDDD
00000007409F69C4:   44444244 44434444 44444144 44444444 44424444  DDBDDCDDDDADDDDDDBDD
00000007409F69D8:   44424444 44444344 44444200 40404040 40404040  DBDDDDCDDDB.@@@@@@@@
00000007409F69EC:   40404040 40404040 40404040 40404040 40404040  @@@@@@@@@@@@@@@@@@@@
00000007409F6A00:   40404040 40404040 40404040 40404040 40404040  @@@@@@@@@@@@@@@@@@@@
00000007409F6A14:   40404040 40404040 40404040 40404040 40404040  @@@@@@@@@@@@@@@@@@@@
00000007409F6A28:   40404040 40404040 40404040 40404040 40404040  @@@@@@@@@@@@@@@@@@@@
00000007409F6A3C:   40404040 40404040 40404040 40404040 40404040  @@@@@@@@@@@@@@@@@@@@
00000007409F6A50:   40404040 40404040 40404040 40404040 40404040  @@@@@@@@@@@@@@@@@@@@
00000007409F6A64:   40404040 40404040 40404040 40404040 40404040  @@@@@@@@@@@@@@@@@@@@
00000007409F6A78:   40404040 40404040 40404040 40404040 40404040  @@@@@@@@@@@@@@@@@@@@
00000007409F6A8C:   40404040 40404040 40404040 40404040 40404040  @@@@@@@@@@@@@@@@@@@@
00000007409F6AA0:   40404040 40404040 40404040 40404040 40404040  @@@@@@@@@@@@@@@@@@@@
00000007409F6AB4:   40404040 40404040 40404040 40404040 40404040  @@@@@@@@@@@@@@@@@@@@
00000007409F6AC8:   40404040 40404040 40404040 40404040 40404040  @@@@@@@@@@@@@@@@@@@@
00000007409F6ADC:   40404040 40404040 40404040 40404040 40404040  @@@@@@@@@@@@@@@@@@@@
00000007409F6AF0:   40404040 40404040 40404040 40404040 40404040  @@@@@@@@@@@@@@@@@@@@
00000007409F6B04:   40404040 40404040 40404040 40404040 40404040  @@@@@@@@@@@@@@@@@@@@
00000007409F6B18:   40404040 40404040 40404040 40404040 40404040  @@@@@@@@@@@@@@@@@@@@
00000007409F6B2C:   40000000 00000000 44444441 44444444 44444444  @.......DDDADDDDDDDD
00000007409F6B40:   44444444 44444144 44444344 44444200 00000000  DDDDDDADDDCDDDB.....
00000007409F6B54:   40404040 40404040 40000000 00000000 70707070  @@@@@@@@@.......pppp
00000007409F6B68:   70707070 44414400 00000000 40404040 40404040  ppppDAD.....@@@@@@@@
00000007409F6B7C:   40404040 40404040 40404040 40404040 40404040  @@@@@@@@@@@@@@@@@@@@
00000007409F6B90:   40404040 40404040 40404040 40404040 40404040  @@@@@@@@@@@@@@@@@@@@
00000007409F6BA4:   40404040 40404040 40404040 40404040 40404040  @@@@@@@@@@@@@@@@@@@@
00000007409F6BB8:   40404040 40404040 40404040 40404040 40404040  @@@@@@@@@@@@@@@@@@@@
00000007409F6BCC:   40404040 40404040 40404040 40404040 40404040  @@@@@@@@@@@@@@@@@@@@
00000007409F6BE0:   40404040 40404040 40404040 40404040 40404040  @@@@@@@@@@@@@@@@@@@@
00000007409F6BF4:   40404040 40404040 40404040 40404040 40404040  @@@@@@@@@@@@@@@@@@@@
00000007409F6C08:   40404040 40404040 40404040 40404040 40404040  @@@@@@@@@@@@@@@@@@@@
00000007409F6C1C:   40404040 40404040 40404040 40404040 40404040  @@@@@@@@@@@@@@@@@@@@
00000007409F6C30:   40404040 40404040 40404040 40404040 40404040  @@@@@@@@@@@@@@@@@@@@
00000007409F6C44:   40404040 40404040 40404040 40404040 40404040  @@@@@@@@@@@@@@@@@@@@
00000007409F6C58:   40404040 40404040 40404040 40404040 40404040  @@@@@@@@@@@@@@@@@@@@
00000007409F6C6C:   40404040 40404040 40404040 40404040 40404040  @@@@@@@@@@@@@@@@@@@@
00000007409F6C80:   40404040 40404040 40404040 40404040 40404040  @@@@@@@@@@@@@@@@@@@@
00000007409F6C94:   40404040 40404040 40404040 40404040 40404040  @@@@@@@@@@@@@@@@@@@@
00000007409F6CA8:   40404040 40404040 40404040 40404040 40404040  @@@@@@@@@@@@@@@@@@@@
00000007409F6CBC:   40404040 40404040 40404040 40404040 40404040  @@@@@@@@@@@@@@@@@@@@
00000007409F6CD0:   40404040 40404040 40404040 40404040 40404040  @@@@@@@@@@@@@@@@@@@@
00000007409F6CE4:   40404040 40404040 40404040 40404040 40404040  @@@@@@@@@@@@@@@@@@@@
00000007409F6CF8:   40404040 40404040 40404040 40404040 40404040  @@@@@@@@@@@@@@@@@@@@
00000007409F6D0C:   40404040 40404040 40404040 40404040 40404040  @@@@@@@@@@@@@@@@@@@@
00000007409F6D20:   40404040 40404040 40404040 40404040 40404040  @@@@@@@@@@@@@@@@@@@@
00000007409F6D34:   40404040 40404040 40404040 40404040 40404040  @@@@@@@@@@@@@@@@@@@@
00000007409F6D48:   40404040 40404040 40404040 40404040 40404040  @@@@@@@@@@@@@@@@@@@@
00000007409F6D5C:   40404040 40404040 40404040 40404040 40404040  @@@@@@@@@@@@@@@@@@@@
00000007409F6D70:   40404040 40404040 40404040 40404040 40404040  @@@@@@@@@@@@@@@@@@@@
00000007409F6D84:   40404040 40404040 40404040 40404040 40404040  @@@@@@@@@@@@@@@@@@@@
00000007409F6D98:   40404040 40404040 40404040 40404040 40404040  @@@@@@@@@@@@@@@@@@@@
00000007409F6DAC:   40404040 40404040 40404040 40404040 40404040  @@@@@@@@@@@@@@@@@@@@
00000007409F6DC0:   40404040 40404040 40404040 40404040 40404040  @@@@@@@@@@@@@@@@@@@@
00000007409F6DD4:   40404040 40404040 40404040 40404040 40404040  @@@@@@@@@@@@@@@@@@@@
00000007409F6DE8:   40404040 40404040 40404040 40404040 40404040  @@@@@@@@@@@@@@@@@@@@
00000007409F6DFC:   40404040 40404040 40404040 40404040 40404040  @@@@@@@@@@@@@@@@@@@@
00000007409F6E10:   40404040 40404040 40404040 40404040 40404040  @@@@@@@@@@@@@@@@@@@@
00000007409F6E24:   40404040 40404040 40404040 40404040 40404040  @@@@@@@@@@@@@@@@@@@@
00000007409F6E38:   40404040 40404040 40404040 40404040 40404040  @@@@@@@@@@@@@@@@@@@@
00000007409F6E4C:   40404040 40404040 40404040 40404040 40404040  @@@@@@@@@@@@@@@@@@@@
00000007409F6E60:   40404040 40404040 40404040 40404040 40404040  @@@@@@@@@@@@@@@@@@@@
00000007409F6E74:   40404040 40404040 40404040 40404040 40404040  @@@@@@@@@@@@@@@@@@@@
00000007409F6E88:   40404040 40404040 40404040 40404040 40404040  @@@@@@@@@@@@@@@@@@@@
00000007409F6E9C:   40404040 40404040 40404040 40404040 40404040  @@@@@@@@@@@@@@@@@@@@
00000007409F6EB0:   40404040 40404040 40404040 40404040 40404040  @@@@@@@@@@@@@@@@@@@@
00000007409F6EC4:   40404040 40404040 40404040 40404040 40000000  @@@@@@@@@@@@@@@@@...
00000007409F6ED8:   00000000 40404040 40404040 40404040 40404040  ....@@@@@@@@@@@@@@@@
00000007409F6EEC:   40404040 40404040 40404040 40404040 40404000  @@@@@@@@@@@@@@@@@@@.
00000007409F6F00:   00000000 40404040 40404040 40404040 40404040  ....@@@@@@@@@@@@@@@@
00000007409F6F14:   40404040 40404040 40404040 40404040 40404040  @@@@@@@@@@@@@@@@@@@@
00000007409F6F28:   40404040 40404040 40404040 40404040 40404040  @@@@@@@@@@@@@@@@@@@@
00000007409F6F3C:   40404040 40404040 40404040 40404040 40404040  @@@@@@@@@@@@@@@@@@@@
00000007409F6F50:   40404040 40404040 40404040 40404040 40404040  @@@@@@@@@@@@@@@@@@@@
00000007409F6F64:   40404040 40404040 40404040 40404040 40404040  @@@@@@@@@@@@@@@@@@@@
00000007409F6F78:   40404040 40404040 40404040 40404040 40404040  @@@@@@@@@@@@@@@@@@@@
00000007409F6F8C:   40404040 40404040 40404040 40404040 40404040  @@@@@@@@@@@@@@@@@@@@
00000007409F6FA0:   40404040 40404040 40404040 40404040 40404040  @@@@@@@@@@@@@@@@@@@@
00000007409F6FB4:   40404040 40404040 40404040 40404040 40404040  @@@@@@@@@@@@@@@@@@@@
00000007409F6FC8:   40404040 40404040 40404040 40404040 40404040  @@@@@@@@@@@@@@@@@@@@
00000007409F6FDC:   40404040 40404040 40404040 40404040 40404040  @@@@@@@@@@@@@@@@@@@@
00000007409F6FF0:   40404040 40404040 40404040 40404040 40404040  @@@@@@@@@@@@@@@@@@@@
00000007409F7004:   40404040 40404040 40404040 40404040 40404040  @@@@@@@@@@@@@@@@@@@@
00000007409F7018:   40404040 40404040 40404040 40404040 40404040  @@@@@@@@@@@@@@@@@@@@
00000007409F702C:   40404040 40404040 40404040 40404040 40404040  @@@@@@@@@@@@@@@@@@@@
00000007409F7040:   40404040 40404040 40404040 40404040 40404040  @@@@@@@@@@@@@@@@@@@@
00000007409F7054:   40404040 40404040 40404040 40404040 40404040  @@@@@@@@@@@@@@@@@@@@
00000007409F7068:   40404040 40404040 40404040 40404040 40404040  @@@@@@@@@@@@@@@@@@@@
00000007409F707C:   40404040 40404040 40404040 40404040 40404040  @@@@@@@@@@@@@@@@@@@@
00000007409F7090:   40404040 40404040 40404040 40404040 40404040  @@@@@@@@@@@@@@@@@@@@
00000007409F70A4:   40404040 40404040 40404040 40404040 40404040  @@@@@@@@@@@@@@@@@@@@
00000007409F70B8:   40404040 40404040 40404040 40404040 40404040  @@@@@@@@@@@@@@@@@@@@
00000007409F70CC:   40404040 40404040 40404040 40404040 40404040  @@@@@@@@@@@@@@@@@@@@
00000007409F70E0:   40404040 40404040 40404040 40404040 40404040  @@@@@@@@@@@@@@@@@@@@
00000007409F70F4:   40404040 40404040 40404040 40404040 40404040  @@@@@@@@@@@@@@@@@@@@
00000007409F7108:   40404040 40404040 40404040 40404040 40404040  @@@@@@@@@@@@@@@@@@@@
00000007409F711C:   40404040 40404040 40404040 40404040 40404040  @@@@@@@@@@@@@@@@@@@@
00000007409F7130:   40404040 40404040 40404040 40404040 40404040  @@@@@@@@@@@@@@@@@@@@
00000007409F7144:   40404040 40404040 40404040 40404040 40404040  @@@@@@@@@@@@@@@@@@@@
00000007409F7158:   40404040 40404040 40404040 40404040 40404040  @@@@@@@@@@@@@@@@@@@@
00000007409F716C:   40404040 40404040 40404040 40404040 40404040  @@@@@@@@@@@@@@@@@@@@
00000007409F7180:   40404040 40404040 40404040 40404040 40404040  @@@@@@@@@@@@@@@@@@@@
00000007409F7194:   40404040 40404040 40404040 40404040 40400000  @@@@@@@@@@@@@@@@@@..
00000007409F71A8:   00000000 40404040 40404040 40000000 00000000  ....@@@@@@@@@.......
00000007409F71BC:   40000000 00000000 40000000 00000000 40000000  @.......@.......@...
00000007409F71D0:   00000000 40404040 40404040 40404040 40404040  ....@@@@@@@@@@@@@@@@
00000007409F71E4:   40404040 40404040 40404040 40404040 40404040  @@@@@@@@@@@@@@@@@@@@
00000007409F71F8:   40404040 40404040 40404040 40404040 40400000  @@@@@@@@@@@@@@@@@@..
00000007409F720C:   40000000 00000000 40404003 03030303 40000000  @.......@@@.....@...
00000007409F7220:   00000000 40000000 00000000 40030303 03030303  ....@.......@.......
00000007409F7234:   40030303 03030303 40030303 03030303 40030303  @.......@.......@...
00000007409F7248:   03030303 40030303 03030303 40030303 03030303  ....@.......@.......
00000007409F725C:   40030303 03030303 40030303 03030303 40400000  @.......@.......@@..
00000007409F7270:   00000000 40000000 00000000 40000000 00000000  ....@.......@.......
00000007409F7284:   40404040 40404040 40030303 03030303 40404040  @@@@@@@@@.......@@@@
00000007409F7298:   40404040 40404040 40404040 40030303 03030303  @@@@@@@@@@@@@.......
00000007409F72AC:   40404040 40404040 40030303 03030303 40404040  @@@@@@@@@.......@@@@
00000007409F72C0:   40404040 40404040 40404040 40404040 40404040  @@@@@@@@@@@@@@@@@@@@
00000007409F72D4:   40404040 40404040 40404040 40404040 40404040  @@@@@@@@@@@@@@@@@@@@
00000007409F72E8:   40404040 40404040 40404040 40404040 40404040  @@@@@@@@@@@@@@@@@@@@
00000007409F72FC:   40404040 40000000 40404040 40404040 40404040  @@@@@...@@@@@@@@@@@@
00000007409F7310:   40404040 40404040 40404040 40404040 40404040  @@@@@@@@@@@@@@@@@@@@
00000007409F7324:   43434343 43444342 40404040 40404040 40404000  CCCCCDCB@@@@@@@@@@@.
00000007409F7338:   00000000 40404040 40404040 40404040 40404040  ....@@@@@@@@@@@@@@@@
00000007409F734C:   40404040 40404040 40404040 40404040 40404040  @@@@@@@@@@@@@@@@@@@@
00000007409F7360:   40404040 40404040 40404040 40404040 40404040  @@@@@@@@@@@@@@@@@@@@
00000007409F7374:   40404040 40404040 40404040 40404040 40404040  @@@@@@@@@@@@@@@@@@@@
00000007409F7388:   40404040 40404040 40404040 40404040 40404040  @@@@@@@@@@@@@@@@@@@@
00000007409F739C:   40404040 40404040 40404040 40404040 40404040  @@@@@@@@@@@@@@@@@@@@
00000007409F73B0:   40404040 40404040 40404040 40404040 40404040  @@@@@@@@@@@@@@@@@@@@
00000007409F73C4:   40404040 40404040 40404040 40404040 40404040  @@@@@@@@@@@@@@@@@@@@
00000007409F73D8:   40404040 40404040 40404040 40404040 40404040  @@@@@@@@@@@@@@@@@@@@
00000007409F73EC:   40404040 40404040 40404040 40404040 40404040  @@@@@@@@@@@@@@@@@@@@
00000007409F7400:   40404040 40404040 40404040 40404040 40404040  @@@@@@@@@@@@@@@@@@@@
00000007409F7414:   40404040 40404040 40404040 40404040 40404040  @@@@@@@@@@@@@@@@@@@@
00000007409F7428:   40404040 40404040 40404040 40404040 40404040  @@@@@@@@@@@@@@@@@@@@
00000007409F743C:   40404040 40404040 40404040 40404040 40404040  @@@@@@@@@@@@@@@@@@@@
00000007409F7450:   40404040 40404040 40404040 40404040 40404040  @@@@@@@@@@@@@@@@@@@@
00000007409F7464:   40404040 40404040 40404040 40404040 40404040  @@@@@@@@@@@@@@@@@@@@
00000007409F7478:   40404040 40404040 40404040 40404040 40404040  @@@@@@@@@@@@@@@@@@@@
00000007409F748C:   40404040 40404040 40404040 40404040 40404040  @@@@@@@@@@@@@@@@@@@@
00000007409F74A0:   40404040 40404040 40404040 40404040 40404040  @@@@@@@@@@@@@@@@@@@@
00000007409F74B4:   40404040 40404040 40404040 40404040 40404040  @@@@@@@@@@@@@@@@@@@@
00000007409F74C8:   40404040 40404040 40404040 40404040 40404040  @@@@@@@@@@@@@@@@@@@@
00000007409F74DC:   40404040 40404040 40404040 40404040 40404040  @@@@@@@@@@@@@@@@@@@@
00000007409F74F0:   40404040 40404040 40404040 40404040 40404040  @@@@@@@@@@@@@@@@@@@@
00000007409F7504:   40404040 40404040 40404040 40404040 40404040  @@@@@@@@@@@@@@@@@@@@
00000007409F7518:   40404040 40404040 40404040 40404040 40404040  @@@@@@@@@@@@@@@@@@@@
00000007409F752C:   40404040 40404040 40404040 40404040 40404040  @@@@@@@@@@@@@@@@@@@@
00000007409F7540:   40404040 40404040 40404040 40404040 40404040  @@@@@@@@@@@@@@@@@@@@
00000007409F7554:   40404040 40404040 40404040 40404040 40404040  @@@@@@@@@@@@@@@@@@@@
00000007409F7568:   40404040 40404040 40404040 40404040 40404040  @@@@@@@@@@@@@@@@@@@@
00000007409F757C:   40404040 40404040 40404040 40404040 40404040  @@@@@@@@@@@@@@@@@@@@
00000007409F7590:   40404040 40404040 40404040 40404040 40404040  @@@@@@@@@@@@@@@@@@@@
00000007409F75A4:   40404040 40404040 40404040 40404040 40404040  @@@@@@@@@@@@@@@@@@@@
00000007409F75B8:   40404040 40404040 40404040 40404040 40404040  @@@@@@@@@@@@@@@@@@@@
00000007409F75CC:   40404040 40404040 40404040 40404040 40404040  @@@@@@@@@@@@@@@@@@@@
00000007409F75E0:   40404040 40404040 40404040 40404040 40404040  @@@@@@@@@@@@@@@@@@@@
00000007409F75F4:   40404040 40404040 40404040 40404040 40404040  @@@@@@@@@@@@@@@@@@@@
00000007409F7608:   40404040 40404040 40404040 40404040 40404040  @@@@@@@@@@@@@@@@@@@@
00000007409F761C:   40404040 40404040 40404040 40404040 40404040  @@@@@@@@@@@@@@@@@@@@
00000007409F7630:   40404040 40404040 40404040 40404040 40404040  @@@@@@@@@@@@@@@@@@@@
00000007409F7644:   40404040 00000000 40404040 40404040 40000000  @@@@....@@@@@@@@@...
00000007409F7658:   00000000 40000000 00000000 40000000 00000000  ....@.......@.......
00000007409F766C:   40000000 00000000 40404040 40404040 40404040  @.......@@@@@@@@@@@@
00000007409F7680:   40404040 40404040 40404040 40404040 40404040  @@@@@@@@@@@@@@@@@@@@
00000007409F7694:   40404040 40404040 40404040 40404040 40404040  @@@@@@@@@@@@@@@@@@@@
00000007409F76A8:   40404040 40404040 40404040 40404040 40404040  @@@@@@@@@@@@@@@@@@@@
00000007409F76BC:   40404040 40404040 40404040 40404040 40404040  @@@@@@@@@@@@@@@@@@@@
00000007409F76D0:   40404040 40404040 40404040 40404040 40404040  @@@@@@@@@@@@@@@@@@@@
00000007409F76E4:   40404040 40404040 40404040 40404040 40404040  @@@@@@@@@@@@@@@@@@@@
00000007409F76F8:   40404040 40404040 40404040 40404040 40404040  @@@@@@@@@@@@@@@@@@@@
00000007409F770C:   40404040 40404040 40404040 40404040 40404040  @@@@@@@@@@@@@@@@@@@@
00000007409F7720:   40404040 40404040 40404040 40404040 40404040  @@@@@@@@@@@@@@@@@@@@
00000007409F7734:   40404040 40404040 40404040 40404040 40404040  @@@@@@@@@@@@@@@@@@@@
00000007409F7748:   40404040 40404040 40404040 40404040 40404040  @@@@@@@@@@@@@@@@@@@@
00000007409F775C:   40404040 40404040 40404040 40404040 40404040  @@@@@@@@@@@@@@@@@@@@
00000007409F7770:   40404040 40404040 40404040 40404040 40404040  @@@@@@@@@@@@@@@@@@@@
00000007409F7784:   40404040 40404040 40404040 40404040 40404040  @@@@@@@@@@@@@@@@@@@@
00000007409F7798:   40404040 40404040 40404040 40404040 40404040  @@@@@@@@@@@@@@@@@@@@
00000007409F77AC:   40404040 40404040 40404040 40404040 40404040  @@@@@@@@@@@@@@@@@@@@
00000007409F77C0:   40404040 40404040 40404040 40404040 40404040  @@@@@@@@@@@@@@@@@@@@
00000007409F77D4:   40404040 40404040 40404040 40404040 40404040  @@@@@@@@@@@@@@@@@@@@
00000007409F77E8:   40404040 40404040 40404040 40404040 40404040  @@@@@@@@@@@@@@@@@@@@
00000007409F77FC:   40404040 40404040 40404040 40404040 40404040  @@@@@@@@@@@@@@@@@@@@
00000007409F7810:   40404040 40404040 40404040 40404040 40404040  @@@@@@@@@@@@@@@@@@@@
00000007409F7824:   40404040 40404040 40404040 40404040 40404040  @@@@@@@@@@@@@@@@@@@@
00000007409F7838:   40404040 40404040 40404040 40404040 40404040  @@@@@@@@@@@@@@@@@@@@
00000007409F784C:   40404040 40404040 40404040 40404040 40404040  @@@@@@@@@@@@@@@@@@@@
00000007409F7860:   40404040 40404040 40404040 40404040 40404040  @@@@@@@@@@@@@@@@@@@@
00000007409F7874:   40404040 40404040 40404040 40404040 40404040  @@@@@@@@@@@@@@@@@@@@
00000007409F7888:   40404040 40404040 40404040 40404040 40404040  @@@@@@@@@@@@@@@@@@@@
00000007409F789C:   40404040 40404040 40404040 40404040 40404040  @@@@@@@@@@@@@@@@@@@@
00000007409F78B0:   40404040 40404040 40404040 40404040 00000000  @@@@@@@@@@@@@@@@....
00000007409F78C4:   40404040 40404040 40404040 40404040 40404040  @@@@@@@@@@@@@@@@@@@@
00000007409F78D8:   40404040 40030303 03030303 40404040 40404040  @@@@@.......@@@@@@@@
00000007409F78EC:   40000000 00000000 40404040 40404040 40404040  @.......@@@@@@@@@@@@
00000007409F7900:   40404040 40404040 40404040 40404040 40404040  @@@@@@@@@@@@@@@@@@@@
00000007409F7914:   40404040 40404040 40404040 40404040 40404040  @@@@@@@@@@@@@@@@@@@@
00000007409F7928:   40404040 40404040 40404040 40404040 40404040  @@@@@@@@@@@@@@@@@@@@
00000007409F793C:   40404040 40404040 40404040 40404040 40404040  @@@@@@@@@@@@@@@@@@@@
00000007409F7950:   40404040 40404040 40404040 40404040 40404040  @@@@@@@@@@@@@@@@@@@@
00000007409F7964:   40404040 40404040 40404040 40404040 40404040  @@@@@@@@@@@@@@@@@@@@
00000007409F7978:   40404040 40404040 40404040 40404040 40404040  @@@@@@@@@@@@@@@@@@@@
00000007409F798C:   40404040 40404040 40404040 40404040 40404040  @@@@@@@@@@@@@@@@@@@@
00000007409F79A0:   40404040 40000000 00000000 40000000 00000000  @@@@@.......@.......
00000007409F79B4:   40000000 00000000 40404040 40404040 40404040  @.......@@@@@@@@@@@@
00000007409F79C8:   40404040 40404040 40404040 40404040 40404040  @@@@@@@@@@@@@@@@@@@@
00000007409F79DC:   40404040 40404040 40404040 40404040 40400000  @@@@@@@@@@@@@@@@@@..
00000007409F79F0:   00000000 40000000 00000000 40040404 04040404  ....@.......@.......
00000007409F7A04:   40404040 40400000 40404040 40404040 40404040  @@@@@@..@@@@@@@@@@@@
00000007409F7A18:   00000000 40000000 00000000 40040404 04040404  ....@.......@.......
00000007409F7A2C:   40404000 00000000 40040404 04040404 40404040  @@@.....@.......@@@@
00000007409F7A40:   40404040 40404040 40404040 40400000 00000000  @@@@@@@@@@@@@@......
00000007409F7A54:   40040404 04040404 40000000 00000000 40000000  @.......@.......@...
00000007409F7A68:   00000000 40000000 00000000 40000000 00000000  ....@.......@.......
00000007409F7A7C:   40000000 00000000 40040404 04040404 40404040  @.......@.......@@@@
00000007409F7A90:   40404040 40000000 00000000 40404040 00000000  @@@@@.......@@@@....
00000007409F7AA4:   40040404 04040404 40404040 40404040 70707070  @.......@@@@@@@@pppp
00000007409F7AB8:   70707070 40404040 40404040 40404040 40404040  pppp@@@@@@@@@@@@@@@@
00000007409F7ACC:   40040404 04040404 43434343 43434343 40404040  @.......CCCCCCCC@@@@
00000007409F7AE0:   40404040 40000000 00000000 40404040 40404040  @@@@@.......@@@@@@@@
00000007409F7AF4:   40404040 40404040 40404040 40404040 40404040  @@@@@@@@@@@@@@@@@@@@
00000007409F7B08:   40404040 40404040 40404040 70707070 70707070  @@@@@@@@@@@@pppppppp
00000007409F7B1C:   40404040 40404040 40404040 40404040 40404040  @@@@@@@@@@@@@@@@@@@@
00000007409F7B30:   40404040 40030303 03030303 40404040 40404040  @@@@@.......@@@@@@@@
00000007409F7B44:   40400000 00000000 40404040 40404040 40404040  @@......@@@@@@@@@@@@
00000007409F7B58:   40404040 40404040 40404040 44444100 00000000  @@@@@@@@@@@@DDA.....
00000007409F7B6C:   40404040 40404040 40404040 00000000 40404040  @@@@@@@@@@@@....@@@@
00000007409F7B80:   40404040 70707070 70707070 40404040 40404040  @@@@pppppppp@@@@@@@@
00000007409F7B94:   40404040 40404040 40404040 40404040 40404040  @@@@@@@@@@@@@@@@@@@@
00000007409F7BA8:   40404040 40404040 40404040 40404040 40404040  @@@@@@@@@@@@@@@@@@@@
00000007409F7BBC:   40404040 40404040 40404040 40404040 40404040  @@@@@@@@@@@@@@@@@@@@
00000007409F7BD0:   40404040 40404040 40404040 40404040 40404040  @@@@@@@@@@@@@@@@@@@@
00000007409F7BE4:   40404040 40404040 40404040 40404040 40404040  @@@@@@@@@@@@@@@@@@@@
00000007409F7BF8:   40404040 40404040 40404040 40404040 40404040  @@@@@@@@@@@@@@@@@@@@
00000007409F7C0C:   40404040 40404040 40404040 40404040 40404040  @@@@@@@@@@@@@@@@@@@@
00000007409F7C20:   40404040 40404040 40404040 40404040 40404040  @@@@@@@@@@@@@@@@@@@@
00000007409F7C34:   40000000 00000000 40404040 40404040 40404040  @.......@@@@@@@@@@@@
00000007409F7C48:   40404040 40404040 40404040 40404040 40404040  @@@@@@@@@@@@@@@@@@@@
00000007409F7C5C:   40404040 40404040 40404040 40404000 40404040  @@@@@@@@@@@@@@@.@@@@
00000007409F7C70:   40404040 40000000 00000000 40000000 00000000  @@@@@.......@.......
00000007409F7C84:   40000000 00000000 40000000 00000000 40404040  @.......@.......@@@@
00000007409F7C98:   40404040 40404040 40404040 40404040 40404000  @@@@@@@@@@@@@@@@@@@.
00000007409F7CAC:   70707070 70707070 40040404 04040404 40040404  pppppppp@.......@...
00000007409F7CC0:   04040404 40040404 04040404 40404004 04040404  ....@.......@@@.....
00000007409F7CD4:   40040404 04040404 40040404 04040404 40040404  @.......@.......@...
00000007409F7CE8:   04040404 40404040 40404040 40040404 04040404  ....@@@@@@@@@.......
00000007409F7CFC:   40040404 04040404 40000000 00000000 44424444  @.......@.......DBDD
00000007409F7D10:   00000000 70707070 70707070 40040404 04040404  ....pppppppp@.......
00000007409F7D24:   40040404 04040404 40040404 04040404 40040404  @.......@.......@...
00000007409F7D38:   04040404 40000000 00000000 44444244 44424444  ....@.......DDBDDBDD
00000007409F7D4C:   42444442 44444244 44434444 44444144 44424444  BDDBDDBDDCDDDDADDBDD
00000007409F7D60:   44444144 44424444 44444144 44434444 44444444  DDADDBDDDDADDCDDDDDD
00000007409F7D74:   41444444 44444444 44424444 44444444 42444444  ADDDDDDDDBDDDDDDBDDD
00000007409F7D88:   44424444 43444444 44414444 44444144 44444441  DBDDCDDDDADDDDADDDDA
00000007409F7D9C:   44444244 44444441 44444244 44444442 44444244  DDBDDDDADDBDDDDBDDBD
00000007409F7DB0:   44444444 44414444 44444444 41444444 44424444  DDDDDADDDDDDADDDDBDD
00000007409F7DC4:   44444244 44444441 44444344 44424444 44434444  DDBDDDDADDCDDBDDDCDD
00000007409F7DD8:   44414443 44444144 44444441 44444144 44444441  DADCDDADDDDADDADDDDA
00000007409F7DEC:   44434441 44444444 44444444 44444244 44434444  DCDADDDDDDDDDDBDDCDD
00000007409F7E00:   41444444 43444244 44444444 42434343 00000000  ADDDCDBDDDDDBCCC....
00000007409F7E14:   44444344 44444444 42444244 42444444 42444442  DDCDDDDDBDBDBDDDBDDB
00000007409F7E28:   44444244 44424444 42000000 40000000 00000000  DDBDDBDDB...@.......
00000007409F7E3C:   40000000 00000000 40000000 00000000 40000000  @.......@.......@...
00000007409F7E50:   00000000 40040404 04040404 44444244 44444444  ....@.......DDBDDDDD
00000007409F7E64:   40040404 04040404 70707070 70707070 40040404  @.......pppppppp@...
00000007409F7E78:   04040404 40400000 00000000 40000000 00000000  ....@@......@.......
00000007409F7E8C:   40000000 00000000 40404040 40404040 40040404  @.......@@@@@@@@@...
00000007409F7EA0:   04040404 40404040 40404040 40404040 40404040  ....@@@@@@@@@@@@@@@@
00000007409F7EB4:   40040404 04040404 40404040 40404040 40000000  @.......@@@@@@@@@...
00000007409F7EC8:   00000000 40404040 40404040 40404040 40404040  ....@@@@@@@@@@@@@@@@
00000007409F7EDC:   40404040 40404040 40404040 40404040 40404040  @@@@@@@@@@@@@@@@@@@@
00000007409F7EF0:   40404040 40404040 40404040 40404040 40404040  @@@@@@@@@@@@@@@@@@@@
00000007409F7F04:   40404040 40404040 40404040 40404040 40404040  @@@@@@@@@@@@@@@@@@@@
00000007409F7F18:   40404040 40404040 40404040 40404040 40404040  @@@@@@@@@@@@@@@@@@@@
00000007409F7F2C:   40404040 40404040 40404040 40404040 40404040  @@@@@@@@@@@@@@@@@@@@
00000007409F7F40:   40404040 40404040 40404040 40404040 40404040  @@@@@@@@@@@@@@@@@@@@
00000007409F7F54:   40404040 40404040 40404040 40404040 40404040  @@@@@@@@@@@@@@@@@@@@
00000007409F7F68:   40404040 40404040 40404040 40404040 40404040  @@@@@@@@@@@@@@@@@@@@
00000007409F7F7C:   40404040 40404040 40404040 40000000 40404040  @@@@@@@@@@@@@...@@@@
00000007409F7F90:   40404040 40000000 00000000 40404040 40404040  @@@@@.......@@@@@@@@
00000007409F7FA4:   40404040 40404040 40404040 40404040 40404040  @@@@@@@@@@@@@@@@@@@@
00000007409F7FB8:   40404040 40404040 40404040 40404040 40404040  @@@@@@@@@@@@@@@@@@@@
00000007409F7FCC:   40404040 40404040 40404040 40404040 40404040  @@@@@@@@@@@@@@@@@@@@
00000007409F7FE0:   40404040 40404040 40404040 40404040 40404040  @@@@@@@@@@@@@@@@@@@@
00000007409F7FF4:   40404040 40404040 00006000                    @@@@@@@@..`.


DBCC execution completed. If DBCC printed error messages, contact your system administrator.

Completion time: 2023-12-13T13:39:02.0477780+00:00
