DBCC execution completed. If DBCC printed error messages, contact your system administrator.

PAGE: (1:9)


BUFFER:


BUF @0x000001D43E8E5340

bpage = 0x000001C95A746000          bPmmpage = 0x0000000000000000       bsort_r_nextbP = 0x000001D43E8E5290
bsort_r_prevbP = 0x000001D43E8E5400 bhash = 0x0000000000000000          bpageno = (1:9)
bpart = 16                          bstat = 0x9                         breferences = 0
berrcode = 0                        bUse1 = 13507                       bstat2 = 0x0
blog = 0x15ab215a                   bsampleCount = 0                    bIoCount = 0
resPoolId = 0                       bcputicks = 0                       bReadMicroSec = 464
bDirtyPendingCount = 0              bDirtyContext = 0x0000000000000000  bDbPageBroker = 0x0000000000000000
bdbid = 9                           bpru = 0x000001C93D728040           

PAGE HEADER:


Page @0x000001C95A746000

m_pageId = (1:9)                    m_headerVersion = 1                 m_type = 13
m_typeFlagBits = 0x0                m_level = 0                         m_flagBits = 0x200
m_objId (AllocUnitId.idObj) = 99    m_indexId (AllocUnitId.idInd) = 0   Metadata: AllocUnitId = 6488064
Metadata: PartitionId = 0           Metadata: IndexId = 0               Metadata: ObjectId = 99
m_prevPage = (0:0)                  m_nextPage = (0:0)                  pminlen = 0
m_slotCnt = 1                       m_freeCnt = 6308                    m_freeData = 1882
m_reservedCnt = 0                   m_lsn = (53:29995:3)                m_xactReserved = 0
m_xdesId = (0:0)                    m_ghostRecCnt = 0                   m_tornBits = 230644857
DB Frag ID = 1                      

Allocation Status

GAM (1:2) = ALLOCATED               SGAM (1:3) = NOT ALLOCATED          PFS (1:1) = 0x64 MIXED_EXT ALLOCATED 100_PCT_FULL
DIFF (1:6) = CHANGED                ML (1:7) = NOT MIN_LOGGED           

DATA:


Memory Dump @0x00000007407F6000

00000007407F6000:   010d0000 00020000 00000000 00000000 00000000  ....................
00000007407F6014:   00000100 63000000 a4185a07 09000000 01000000  ....c...¤.Z.	.......
00000007407F6028:   35000000 2b750000 03000000 00000000 00000000  5...+u..............
00000007407F603C:   795cbf0d 00000000 00000000 00000000 00000000  y\¿.................
00000007407F6050:   00000000 00000000 00000000 00000000 0000fa06  ..................ú.
00000007407F6064:   bd038803 00000000 00000000 00000000 00000000  ½...................
00000007407F6078:   00000000 00000000 00000000 08008100 755c907b  ................u\.{
00000007407F608C:   e1f7cc00 d6b00000 41006400 76006500 6e007400  á÷Ì.Ö°..A.d.v.e.n.t.
00000007407F60A0:   75007200 65005700 6f007200 6b007300 32003000  u.r.e.W.o.r.k.s.2.0.
00000007407F60B4:   32003200 20002000 20002000 20002000 20002000  2.2. . . . . . . . .
00000007407F60C8:   20002000 20002000 20002000 20002000 20002000   . . . . . . . . . .
00000007407F60DC:   20002000 20002000 20002000 20002000 20002000   . . . . . . . . . .
00000007407F60F0:   20002000 20002000 20002000 20002000 20002000   . . . . . . . . . .
00000007407F6104:   20002000 20002000 20002000 20002000 20002000   . . . . . . . . . .
00000007407F6118:   20002000 20002000 20002000 20002000 20002000   . . . . . . . . . .
00000007407F612C:   20002000 20002000 20002000 20002000 20002000   . . . . . . . . . .
00000007407F6140:   20002000 20002000 20002000 20002000 20002000   . . . . . . . . . .
00000007407F6154:   20002000 20002000 20002000 20002000 20002000   . . . . . . . . . .
00000007407F6168:   20002000 20002000 20002000 20002000 20002000   . . . . . . . . . .
00000007407F617C:   20002000 20002000 20002000 20002000 20002000   . . . . . . . . . .
00000007407F6190:   20002000 24000000 0900a000 00fa0000 00000000   . .$...	. ..ú......
00000007407F61A4:   00000000 00000000 00000000 35000000 17750000  ............5....u..
00000007407F61B8:   25000600 35000000 17750000 25000200 00000000  %...5....u..%.......
00000007407F61CC:   00000000 00000000 35000000 17750000 25000000  ........5....u..%...
00000007407F61E0:   16170000 00000000 08d00034 00000000 00308175  .........Ð.4.....0.u
00000007407F61F4:   00000000 bdfe943e ca984f42 87875dd2 4a6e3976  ....½þ>Ê.OB]ÒJn9v
00000007407F6208:   00702701 00000000 00000000 00000000 00000000  .p'.................
00000007407F621C:   35000000 10740000 01000000 a4c551c3 867c4640  5....t......¤ÅQÃ|F@
00000007407F6230:   bbcdee04 9c76d65a 35000000 10740000 01000000  »Íî.vÖZ5....t......
00000007407F6244:   c3d2c7d1 a343584f 9c7254f3 d075ed90 f4a57026  ÃÒÇÑ£CXOrTóÐuí.ô¥p&
00000007407F6258:   28124c49 ac42a4f8 73625989 14000000 01006302  (.LI¬B¤øsbY......c.
00000007407F626C:   00000000 00000000 00000000 35000000 98680000  ............5....h..
00000007407F6280:   58000400 00000000 00000000 00000000 00000000  X...................
00000007407F6294:   00000000 00000000 00000000 00000000 00000000  ....................
00000007407F62A8:   00000000 00000000 00000000 00000000 00000000  ....................
00000007407F62BC:   00000000 00000000 00000000 00000000 00000000  ....................
00000007407F62D0:   00000000 00000000 00000000 00000000 24000000  ................$...
00000007407F62E4:   33060000 01000000 00000000 00000000 00000000  3...................
00000007407F62F8:   00000000 00000000 00000000 3ccfc700 fcaf0000  ............<ÏÇ.ü¯..
00000007407F630C:   51040010 00000000 e5d14b10 29571c48 818b04c0  Q.......åÑK.)W.H..À
00000007407F6320:   e3216e68 00000000 00000000 00000000 00000000  ã!nh................
00000007407F6334:   00000000 00000000 00000000 42020000 00010000  ............B.......
00000007407F6348:   00000000 00000000 00000000 00000000 00000000  ....................
00000007407F635C:   00000000 00000000 00000000 00000000 00000000  ....................
00000007407F6370:   00000000 00000000 00000000 00000000 00000000  ....................
00000007407F6384:   00000000 00000000 00000000 00000000 00000000  ....................
00000007407F6398:   00000000 00000000 00000000 00000000 00000000  ....................
00000007407F63AC:   00000000 00000000 00000000 00000000 00000000  ....................
00000007407F63C0:   00000000 00000000 00000000 00000000 00000000  ....................
00000007407F63D4:   00000000 00000000 00000000 00000000 00000000  ....................
00000007407F63E8:   00000000 00000000 00000000 00000000 00000000  ....................
00000007407F63FC:   00000000 00000000 00000000 00000000 00000000  ....................
00000007407F6410:   00000000 00000000 00000000 00000000 00000000  ....................
00000007407F6424:   00000000 00000000 00000000 00000000 00000000  ....................
00000007407F6438:   00000000 00000000 00000000 00000000 00000000  ....................
00000007407F644C:   00000000 00000000 00000000 00000000 00000000  ....................
00000007407F6460:   00000000 00000000 00000000 00000000 00000000  ....................
00000007407F6474:   00000000 00000000 00000000 00000000 00000000  ....................
00000007407F6488:   00000000 00000000 00000000 00000000 00000000  ....................
00000007407F649C:   00000000 00000000 00000000 00000000 00000000  ....................
00000007407F64B0:   00000000 00000000 00000000 00000000 00000000  ....................
00000007407F64C4:   00000000 00000000 00000000 00000000 00000000  ....................
00000007407F64D8:   00000000 00000000 00000000 00000000 00000000  ....................
00000007407F64EC:   00000000 00000000 00000000 00000000 00000000  ....................
00000007407F6500:   00000000 00000000 00000000 00000000 00000000  ....................
00000007407F6514:   00000000 00000000 00000000 00000000 00000000  ....................
00000007407F6528:   00000000 00000000 00000000 00000000 00000000  ....................
00000007407F653C:   00000000 00000000 00000000 00000000 00000000  ....................
00000007407F6550:   00000000 00000000 00000000 00000000 00000000  ....................
00000007407F6564:   00000000 00000000 00000000 00000000 00000000  ....................
00000007407F6578:   00000000 00000000 00000000 00000000 00000000  ....................
00000007407F658C:   00000000 00000000 00000000 00000000 00000000  ....................
00000007407F65A0:   00000000 00000000 00000000 00000000 00000000  ....................
00000007407F65B4:   00000000 00000000 00000000 00000000 00000000  ....................
00000007407F65C8:   00000000 00000000 00000000 00000000 00000000  ....................
00000007407F65DC:   00000000 00000000 00000000 00000000 00000000  ....................
00000007407F65F0:   00000000 00000000 00000000 00000000 00000000  ....................
00000007407F6604:   00000000 00000000 12000000 41000000 45000000  ............A...E...
00000007407F6618:   00000000 00000000 00000000 00000000 00000000  ....................
00000007407F662C:   00000000 00000000 00000000 00000000 00000000  ....................
00000007407F6640:   00000000 00000000 00000000 00000000 00000000  ....................
00000007407F6654:   00000000 00000000 00000000 00000000 00000000  ....................
00000007407F6668:   00000000 00000000 00000000 00000000 00000000  ....................
00000007407F667C:   00000000 00000000 00000000 00000000 00000000  ....................
00000007407F6690:   00000000 00000000 00000000 00000000 00000000  ....................
00000007407F66A4:   00000000 00000000 00000000 00000000 00000000  ....................
00000007407F66B8:   00000000 00000000 00000000 00000000 00000000  ....................
00000007407F66CC:   00004c00 00000001 00004d00 00000001 00000000  ..L.......M.........
00000007407F66E0:   00000000 00000000 00000000 00000000 00000000  ....................
00000007407F66F4:   00000000 00000000 00000000 00000000 00000000  ....................
00000007407F6708:   00000000 00000000 00000000 00000000 00000000  ....................
00000007407F671C:   00000000 00000000 00000000 00000000 00000000  ....................
00000007407F6730:   00000000 00000000 00000000 00000000 00000000  ....................
00000007407F6744:   00000000 00000000 00000000 00000000 00000000  ....................
00000007407F6758:   00000000 00000000 00000000 00000000 00000000  ....................
00000007407F676C:   00000000 00000000 00000000 00000000 00000000  ....................
00000007407F6780:   00000000 00000000 00000000 00000000 00000000  ....................
00000007407F6794:   00000000 00000000 00000000 00000000 00000000  ....................
00000007407F67A8:   00000000 00000000 00000000 00000000 00000000  ....................
00000007407F67BC:   00000000 00000000 00000000 00000000 00000000  ....................
00000007407F67D0:   00000000 00000000 00000000 00000000 00000000  ....................
00000007407F67E4:   00000000 00000000 00000000 00000000 00000000  ....................
00000007407F67F8:   00000000 00000000 00000000 00000000 00000000  ....................
00000007407F680C:   00000000 00000000 00000000 00000000 00000000  ....................
00000007407F6820:   00000000 00000000 00000000 00000000 00000000  ....................
00000007407F6834:   00000000 00000000 00000000 00000000 00000000  ....................
00000007407F6848:   00000000 00000000 00000000 00000000 00000000  ....................
00000007407F685C:   00000000 00000000 00000000 00000000 00000000  ....................
00000007407F6870:   00000000 00000000 00000000 00000000 00000000  ....................
00000007407F6884:   00000000 00000000 00000000 00000000 00000000  ....................
00000007407F6898:   00000000 00000000 00000000 00000000 00000000  ....................
00000007407F68AC:   00000000 00000000 00000000 00000000 00000000  ....................
00000007407F68C0:   00000000 00000000 00000000 00000000 00000000  ....................
00000007407F68D4:   00000000 00000000 00000000 00000000 00000000  ....................
00000007407F68E8:   00000000 00000000 00000000 00000000 00000000  ....................
00000007407F68FC:   00000000 00000000 00000000 00000000 00000000  ....................
00000007407F6910:   00000000 00000000 00000000 00000000 00000000  ....................
00000007407F6924:   00000000 00000000 00000000 00000000 00000000  ....................
00000007407F6938:   00000000 00000000 00000000 00000000 00000000  ....................
00000007407F694C:   00000000 00000000 00000000 00000000 00000000  ....................
00000007407F6960:   00000000 00000000 00000000 00000000 00000000  ....................
00000007407F6974:   00000000 00000000 00000000 00000000 00000000  ....................
00000007407F6988:   00000000 00000000 00000000 00000000 00000000  ....................
00000007407F699C:   00000000 00000000 00000000 00000000 00000000  ....................
00000007407F69B0:   00000000 00000000 00000000 00000000 00000000  ....................
00000007407F69C4:   00000000 00000000 00000000 00000000 00000000  ....................
00000007407F69D8:   00000000 00000000 00000000 00000000 00000000  ....................
00000007407F69EC:   00000000 00000000 00000000 00000000 00000000  ....................
00000007407F6A00:   00000000 00000000 00000000 00000000 00000000  ....................
00000007407F6A14:   00000000 00000000 00000000 00000000 00000000  ....................
00000007407F6A28:   00000000 00000000 00000000 00000000 00000000  ....................
00000007407F6A3C:   00000000 00000000 00000000 00000000 00000000  ....................
00000007407F6A50:   00000000 00000000 00000000 00000000 00000000  ....................
00000007407F6A64:   00000000 00000000 00000000 00000000 00000000  ....................
00000007407F6A78:   00000000 00000000 00000000 00000000 00000000  ....................
00000007407F6A8C:   00000000 00000000 00000000 00000000 00000000  ....................
00000007407F6AA0:   00000000 00000000 00000000 00000000 00000000  ....................
00000007407F6AB4:   00000000 00000000 00000000 00000000 00000000  ....................
00000007407F6AC8:   00000000 00000000 00000000 00000000 00000000  ....................
00000007407F6ADC:   00000000 00000000 00000000 00000000 00000000  ....................
00000007407F6AF0:   00000000 00000000 00000000 00000000 00000000  ....................
00000007407F6B04:   00000000 00000000 00000000 00000000 00000000  ....................
00000007407F6B18:   00000000 00000000 00000000 00000000 00000000  ....................
00000007407F6B2C:   00000000 00000000 00000000 00000000 00000000  ....................
00000007407F6B40:   00000000 00000000 00000000 00000000 00000000  ....................
00000007407F6B54:   00000000 00000000 00000000 00000000 00000000  ....................
00000007407F6B68:   00000000 00000000 00000000 00000000 00000000  ....................
00000007407F6B7C:   00000000 00000000 00000000 00000000 00000000  ....................
00000007407F6B90:   00000000 00000000 00000000 00000000 00000000  ....................
00000007407F6BA4:   00000000 00000000 00000000 00000000 00000000  ....................
00000007407F6BB8:   00000000 00000000 00000000 00000000 00000000  ....................
00000007407F6BCC:   00000000 00000000 00000000 00000000 00000000  ....................
00000007407F6BE0:   00000000 00000000 00000000 00000000 00000000  ....................
00000007407F6BF4:   00000000 00000000 00000000 00000000 00000000  ....................
00000007407F6C08:   00000000 00000000 00000000 00000000 00000000  ....................
00000007407F6C1C:   00000000 00000000 00000000 00000000 00000000  ....................
00000007407F6C30:   00000000 00000000 00000000 00000000 00000000  ....................
00000007407F6C44:   00000000 00000000 00000000 00000000 00000000  ....................
00000007407F6C58:   00000000 00000000 00000000 00000000 00000000  ....................
00000007407F6C6C:   00000000 00000000 00000000 00000000 00000000  ....................
00000007407F6C80:   00000000 00000000 00000000 00000000 00000000  ....................
00000007407F6C94:   00000000 00000000 00000000 00000000 00000000  ....................
00000007407F6CA8:   00000000 00000000 00000000 00000000 00000000  ....................
00000007407F6CBC:   00000000 00000000 00000000 00000000 00000000  ....................
00000007407F6CD0:   00000000 00000000 00000000 00000000 00000000  ....................
00000007407F6CE4:   00000000 00000000 00000000 00000000 00000000  ....................
00000007407F6CF8:   00000000 00000000 00000000 00000000 00000000  ....................
00000007407F6D0C:   00000000 00000000 00000000 00000000 00000000  ....................
00000007407F6D20:   00000000 00000000 00000000 00000000 00000000  ....................
00000007407F6D34:   00000000 00000000 00000000 00000000 00000000  ....................
00000007407F6D48:   00000000 00000000 00000000 00000000 00000000  ....................
00000007407F6D5C:   00000000 00000000 00000000 00000000 00000000  ....................
00000007407F6D70:   00000000 00000000 00000000 00000000 00000000  ....................
00000007407F6D84:   00000000 00000000 00000000 00000000 00000000  ....................
00000007407F6D98:   00000000 00000000 00000000 00000000 00000000  ....................
00000007407F6DAC:   00000000 00000000 00000000 00000000 00000000  ....................
00000007407F6DC0:   00000000 00000000 00000000 00000000 00000000  ....................
00000007407F6DD4:   00000000 00000000 00000000 00000000 00000000  ....................
00000007407F6DE8:   00000000 00000000 00000000 00000000 00000000  ....................
00000007407F6DFC:   00000000 00000000 00000000 00000000 00000000  ....................
00000007407F6E10:   00000000 00000000 00000000 00000000 00000000  ....................
00000007407F6E24:   00000000 00000000 00000000 00000000 00000000  ....................
00000007407F6E38:   00000000 00000000 00000000 00000000 00000000  ....................
00000007407F6E4C:   00000000 00000000 00000000 00000000 00000000  ....................
00000007407F6E60:   00000000 00000000 00000000 00000000 00000000  ....................
00000007407F6E74:   00000000 00000000 00000000 00000000 00000000  ....................
00000007407F6E88:   00000000 00000000 00000000 00000000 00000000  ....................
00000007407F6E9C:   00000000 00000000 00000000 00000000 00000000  ....................
00000007407F6EB0:   00000000 00000000 00000000 00000000 00000000  ....................
00000007407F6EC4:   00000000 00000000 00000000 00000000 00000000  ....................
00000007407F6ED8:   00000000 00000000 00000000 00000000 00000000  ....................
00000007407F6EEC:   00000000 00000000 00000000 00000000 00000000  ....................
00000007407F6F00:   00000000 00000000 00000000 00000000 00000000  ....................
00000007407F6F14:   00000000 00000000 00000000 00000000 00000000  ....................
00000007407F6F28:   00000000 00000000 00000000 00000000 00000000  ....................
00000007407F6F3C:   00000000 00000000 00000000 00000000 00000000  ....................
00000007407F6F50:   00000000 00000000 00000000 00000000 00000000  ....................
00000007407F6F64:   00000000 00000000 00000000 00000000 00000000  ....................
00000007407F6F78:   00000000 00000000 00000000 00000000 00000000  ....................
00000007407F6F8C:   00000000 00000000 00000000 00000000 00000000  ....................
00000007407F6FA0:   00000000 00000000 00000000 00000000 00000000  ....................
00000007407F6FB4:   00000000 00000000 00000000 00000000 00000000  ....................
00000007407F6FC8:   00000000 00000000 00000000 00000000 00000000  ....................
00000007407F6FDC:   00000000 00000000 00000000 00000000 00000000  ....................
00000007407F6FF0:   00000000 00000000 00000000 00000000 00000000  ....................
00000007407F7004:   00000000 00000000 00000000 00000000 00000000  ....................
00000007407F7018:   00000000 00000000 00000000 00000000 00000000  ....................
00000007407F702C:   00000000 00000000 00000000 00000000 00000000  ....................
00000007407F7040:   00000000 00000000 00000000 00000000 00000000  ....................
00000007407F7054:   00000000 00000000 00000000 00000000 00000000  ....................
00000007407F7068:   00000000 00000000 00000000 00000000 00000000  ....................
00000007407F707C:   00000000 00000000 00000000 00000000 00000000  ....................
00000007407F7090:   00000000 00000000 00000000 00000000 00000000  ....................
00000007407F70A4:   00000000 00000000 00000000 00000000 00000000  ....................
00000007407F70B8:   00000000 00000000 00000000 00000000 00000000  ....................
00000007407F70CC:   00000000 00000000 00000000 00000000 00000000  ....................
00000007407F70E0:   00000000 00000000 00000000 00000000 00000000  ....................
00000007407F70F4:   00000000 00000000 00000000 00000000 00000000  ....................
00000007407F7108:   00000000 00000000 00000000 00000000 00000000  ....................
00000007407F711C:   00000000 00000000 00000000 00000000 00000000  ....................
00000007407F7130:   00000000 00000000 00000000 00000000 00000000  ....................
00000007407F7144:   00000000 00000000 00000000 00000000 00000000  ....................
00000007407F7158:   00000000 00000000 00000000 00000000 00000000  ....................
00000007407F716C:   00000000 00000000 00000000 00000000 00000000  ....................
00000007407F7180:   00000000 00000000 00000000 00000000 00000000  ....................
00000007407F7194:   00000000 00000000 00000000 00000000 00000000  ....................
00000007407F71A8:   00000000 00000000 00000000 00000000 00000000  ....................
00000007407F71BC:   00000000 00000000 00000000 00000000 00000000  ....................
00000007407F71D0:   00000000 00000000 00000000 00000000 00000000  ....................
00000007407F71E4:   00000000 00000000 00000000 00000000 00000000  ....................
00000007407F71F8:   00000000 00000000 00000000 00000000 00000000  ....................
00000007407F720C:   00000000 00000000 00000000 00000000 00000000  ....................
00000007407F7220:   00000000 00000000 00000000 00000000 00000000  ....................
00000007407F7234:   00000000 00000000 00000000 00000000 00000000  ....................
00000007407F7248:   00000000 00000000 00000000 00000000 00000000  ....................
00000007407F725C:   00000000 00000000 00000000 00000000 00000000  ....................
00000007407F7270:   00000000 00000000 00000000 00000000 00000000  ....................
00000007407F7284:   00000000 00000000 00000000 00000000 00000000  ....................
00000007407F7298:   00000000 00000000 00000000 00000000 00000000  ....................
00000007407F72AC:   00000000 00000000 00000000 00000000 00000000  ....................
00000007407F72C0:   00000000 00000000 00000000 00000000 00000000  ....................
00000007407F72D4:   00000000 00000000 00000000 00000000 00000000  ....................
00000007407F72E8:   00000000 00000000 00000000 00000000 00000000  ....................
00000007407F72FC:   00000000 00000000 00000000 00000000 00000000  ....................
00000007407F7310:   00000000 00000000 00000000 00000000 00000000  ....................
00000007407F7324:   00000000 00000000 00000000 00000000 00000000  ....................
00000007407F7338:   00000000 00000000 00000000 00000000 00000000  ....................
00000007407F734C:   00000000 00000000 00000000 00000000 00000000  ....................
00000007407F7360:   00000000 00000000 00000000 00000000 00000000  ....................
00000007407F7374:   00000000 00000000 00000000 00000000 00000000  ....................
00000007407F7388:   00000000 00000000 00000000 00000000 00000000  ....................
00000007407F739C:   00000000 00000000 00000000 00000000 00000000  ....................
00000007407F73B0:   00000000 00000000 00000000 00000000 00000000  ....................
00000007407F73C4:   00000000 00000000 00000000 00000000 00000000  ....................
00000007407F73D8:   00000000 00000000 00000000 00000000 00000000  ....................
00000007407F73EC:   00000000 00000000 00000000 00000000 00000000  ....................
00000007407F7400:   00000000 00000000 00000000 00000000 00000000  ....................
00000007407F7414:   00000000 00000000 00000000 00000000 00000000  ....................
00000007407F7428:   00000000 00000000 00000000 00000000 00000000  ....................
00000007407F743C:   00000000 00000000 00000000 00000000 00000000  ....................
00000007407F7450:   00000000 00000000 00000000 00000000 00000000  ....................
00000007407F7464:   00000000 00000000 00000000 00000000 00000000  ....................
00000007407F7478:   00000000 00000000 00000000 00000000 00000000  ....................
00000007407F748C:   00000000 00000000 00000000 00000000 00000000  ....................
00000007407F74A0:   00000000 00000000 00000000 00000000 00000000  ....................
00000007407F74B4:   00000000 00000000 00000000 00000000 00000000  ....................
00000007407F74C8:   00000000 00000000 00000000 00000000 00000000  ....................
00000007407F74DC:   00000000 00000000 00000000 00000000 00000000  ....................
00000007407F74F0:   00000000 00000000 00000000 00000000 00000000  ....................
00000007407F7504:   00000000 00000000 00000000 00000000 00000000  ....................
00000007407F7518:   00000000 00000000 00000000 00000000 00000000  ....................
00000007407F752C:   00000000 00000000 00000000 00000000 00000000  ....................
00000007407F7540:   00000000 00000000 00000000 00000000 00000000  ....................
00000007407F7554:   00000000 00000000 00000000 00000000 00000000  ....................
00000007407F7568:   00000000 00000000 00000000 00000000 00000000  ....................
00000007407F757C:   00000000 00000000 00000000 00000000 00000000  ....................
00000007407F7590:   00000000 00000000 00000000 00000000 00000000  ....................
00000007407F75A4:   00000000 00000000 00000000 00000000 00000000  ....................
00000007407F75B8:   00000000 00000000 00000000 00000000 00000000  ....................
00000007407F75CC:   00000000 00000000 00000000 00000000 00000000  ....................
00000007407F75E0:   00000000 00000000 00000000 00000000 00000000  ....................
00000007407F75F4:   00000000 00000000 00000000 00000000 00000000  ....................
00000007407F7608:   00000000 00000000 00000000 00000000 00000000  ....................
00000007407F761C:   00000000 00000000 00000000 00000000 00000000  ....................
00000007407F7630:   00000000 00000000 00000000 00000000 00000000  ....................
00000007407F7644:   00000000 00000000 00000000 00000000 00000000  ....................
00000007407F7658:   00000000 00000000 00000000 00000000 00000000  ....................
00000007407F766C:   00000000 00000000 00000000 00000000 00000000  ....................
00000007407F7680:   00000000 00000000 00000000 00000000 00000000  ....................
00000007407F7694:   00000000 00000000 00000000 00000000 00000000  ....................
00000007407F76A8:   00000000 00000000 00000000 00000000 00000000  ....................
00000007407F76BC:   00000000 00000000 00000000 00000000 00000000  ....................
00000007407F76D0:   00000000 00000000 00000000 00000000 00000000  ....................
00000007407F76E4:   00000000 00000000 00000000 00000000 00000000  ....................
00000007407F76F8:   00000000 00000000 00000000 00000000 00000000  ....................
00000007407F770C:   00000000 00000000 00000000 00000000 00000000  ....................
00000007407F7720:   00000000 00000000 00000000 00000000 00000000  ....................
00000007407F7734:   00000000 00000000 00000000 00000000 00000000  ....................
00000007407F7748:   00000000 00000000 00000000 00000000 00000000  ....................
00000007407F775C:   00000000 00000000 00000000 00000000 00000000  ....................
00000007407F7770:   00000000 00000000 00000000 00000000 00000000  ....................
00000007407F7784:   00000000 00000000 00000000 00000000 00000000  ....................
00000007407F7798:   00000000 00000000 00000000 00000000 00000000  ....................
00000007407F77AC:   00000000 00000000 00000000 00000000 00000000  ....................
00000007407F77C0:   00000000 00000000 00000000 00000000 00000000  ....................
00000007407F77D4:   00000000 00000000 00000000 00000000 00000000  ....................
00000007407F77E8:   00000000 00000000 00000000 00000000 00000000  ....................
00000007407F77FC:   00000000 00000000 00000000 00000000 00000000  ....................
00000007407F7810:   00000000 00000000 00000000 00000000 00000000  ....................
00000007407F7824:   00000000 00000000 00000000 00000000 00000000  ....................
00000007407F7838:   00000000 00000000 00000000 00000000 00000000  ....................
00000007407F784C:   00000000 00000000 00000000 00000000 00000000  ....................
00000007407F7860:   00000000 00000000 00000000 00000000 00000000  ....................
00000007407F7874:   00000000 00000000 00000000 00000000 00000000  ....................
00000007407F7888:   00000000 00000000 00000000 00000000 00000000  ....................
00000007407F789C:   00000000 00000000 00000000 00000000 00000000  ....................
00000007407F78B0:   00000000 00000000 00000000 00000000 00000000  ....................
00000007407F78C4:   00000000 00000000 00000000 00000000 00000000  ....................
00000007407F78D8:   00000000 00000000 00000000 00000000 00000000  ....................
00000007407F78EC:   00000000 00000000 00000000 00000000 00000000  ....................
00000007407F7900:   00000000 00000000 00000000 00000000 00000000  ....................
00000007407F7914:   00000000 00000000 00000000 00000000 00000000  ....................
00000007407F7928:   00000000 00000000 00000000 00000000 00000000  ....................
00000007407F793C:   00000000 00000000 00000000 00000000 00000000  ....................
00000007407F7950:   00000000 00000000 00000000 00000000 00000000  ....................
00000007407F7964:   00000000 00000000 00000000 00000000 00000000  ....................
00000007407F7978:   00000000 00000000 00000000 00000000 00000000  ....................
00000007407F798C:   00000000 00000000 00000000 00000000 00000000  ....................
00000007407F79A0:   00000000 00000000 00000000 00000000 00000000  ....................
00000007407F79B4:   00000000 00000000 00000000 00000000 00000000  ....................
00000007407F79C8:   00000000 00000000 00000000 00000000 00000000  ....................
00000007407F79DC:   00000000 00000000 00000000 00000000 00000000  ....................
00000007407F79F0:   00000000 00000000 00000000 00000000 00000000  ....................
00000007407F7A04:   00000000 00000000 00000000 00000000 00000000  ....................
00000007407F7A18:   00000000 00000000 00000000 00000000 00000000  ....................
00000007407F7A2C:   00000000 00000000 00000000 00000000 00000000  ....................
00000007407F7A40:   00000000 00000000 00000000 00000000 00000000  ....................
00000007407F7A54:   00000000 00000000 00000000 00000000 00000000  ....................
00000007407F7A68:   00000000 00000000 00000000 00000000 00000000  ....................
00000007407F7A7C:   00000000 00000000 00000000 00000000 00000000  ....................
00000007407F7A90:   00000000 00000000 00000000 00000000 00000000  ....................
00000007407F7AA4:   00000000 00000000 00000000 00000000 00000000  ....................
00000007407F7AB8:   00000000 00000000 00000000 00000000 00000000  ....................
00000007407F7ACC:   00000000 00000000 00000000 00000000 00000000  ....................
00000007407F7AE0:   00000000 00000000 00000000 00000000 00000000  ....................
00000007407F7AF4:   00000000 00000000 00000000 00000000 00000000  ....................
00000007407F7B08:   00000000 00000000 00000000 00000000 00000000  ....................
00000007407F7B1C:   00000000 00000000 00000000 00000000 00000000  ....................
00000007407F7B30:   00000000 00000000 00000000 00000000 00000000  ....................
00000007407F7B44:   00000000 00000000 00000000 00000000 00000000  ....................
00000007407F7B58:   00000000 00000000 00000000 00000000 00000000  ....................
00000007407F7B6C:   00000000 00000000 00000000 00000000 00000000  ....................
00000007407F7B80:   00000000 00000000 00000000 00000000 00000000  ....................
00000007407F7B94:   00000000 00000000 00000000 00000000 00000000  ....................
00000007407F7BA8:   00000000 00000000 00000000 00000000 00000000  ....................
00000007407F7BBC:   00000000 00000000 00000000 00000000 00000000  ....................
00000007407F7BD0:   00000000 00000000 00000000 00000000 00000000  ....................
00000007407F7BE4:   00000000 00000000 00000000 00000000 00000000  ....................
00000007407F7BF8:   00000000 00000000 00000000 00000000 00000000  ....................
00000007407F7C0C:   00000000 00000000 00000000 00000000 00000000  ....................
00000007407F7C20:   00000000 00000000 00000000 00000000 00000000  ....................
00000007407F7C34:   00000000 00000000 00000000 00000000 00000000  ....................
00000007407F7C48:   00000000 00000000 00000000 00000000 00000000  ....................
00000007407F7C5C:   00000000 00000000 00000000 00000000 00000000  ....................
00000007407F7C70:   00000000 00000000 00000000 00000000 00000000  ....................
00000007407F7C84:   00000000 00000000 00000000 00000000 00000000  ....................
00000007407F7C98:   00000000 00000000 00000000 00000000 00000000  ....................
00000007407F7CAC:   00000000 00000000 00000000 00000000 00000000  ....................
00000007407F7CC0:   00000000 00000000 00000000 00000000 00000000  ....................
00000007407F7CD4:   00000000 00000000 00000000 00000000 00000000  ....................
00000007407F7CE8:   00000000 00000000 00000000 00000000 00000000  ....................
00000007407F7CFC:   00000000 00000000 00000000 00000000 00000000  ....................
00000007407F7D10:   00000000 00000000 00000000 00000000 00000000  ....................
00000007407F7D24:   00000000 00000000 00000000 00000000 00000000  ....................
00000007407F7D38:   00000000 00000000 00000000 00000000 00000000  ....................
00000007407F7D4C:   00000000 00000000 00000000 00000000 00000000  ....................
00000007407F7D60:   00000000 00000000 00000000 00000000 00000000  ....................
00000007407F7D74:   00000000 00000000 00000000 00000000 00000000  ....................
00000007407F7D88:   00000000 00000000 00000000 00000000 00000000  ....................
00000007407F7D9C:   00000000 00000000 00000000 00000000 00000000  ....................
00000007407F7DB0:   00000000 00000000 00000000 00000000 00000000  ....................
00000007407F7DC4:   00000000 00000000 00000000 00000000 00000000  ....................
00000007407F7DD8:   00000000 00000000 00000000 00000000 00000000  ....................
00000007407F7DEC:   00000000 00000000 00000000 00000000 00000000  ....................
00000007407F7E00:   00000000 00000000 00000000 00000000 00000000  ....................
00000007407F7E14:   00000000 00000000 00000000 00000000 00000000  ....................
00000007407F7E28:   00000000 00000000 00000000 00000000 00000000  ....................
00000007407F7E3C:   00000000 00000000 00000000 00000000 00000000  ....................
00000007407F7E50:   00000000 00000000 00000000 00000000 00000000  ....................
00000007407F7E64:   00000000 00000000 00000000 00000000 00000000  ....................
00000007407F7E78:   00000000 00000000 00000000 00000000 00000000  ....................
00000007407F7E8C:   00000000 00000000 00000000 00000000 00000000  ....................
00000007407F7EA0:   00000000 00000000 00000000 00000000 00000000  ....................
00000007407F7EB4:   00000000 00000000 00000000 00000000 00000000  ....................
00000007407F7EC8:   00000000 00000000 00000000 00000000 00000000  ....................
00000007407F7EDC:   00000000 00000000 00000000 00000000 00000000  ....................
00000007407F7EF0:   00000000 00000000 00000000 00000000 00000000  ....................
00000007407F7F04:   00000000 00000000 00000000 00000000 00000000  ....................
00000007407F7F18:   00000000 00000000 00000000 00000000 00000000  ....................
00000007407F7F2C:   00000000 00000000 00000000 00000000 00000000  ....................
00000007407F7F40:   00000000 00000000 00000000 00000000 00000000  ....................
00000007407F7F54:   00000000 00000000 00000000 00000000 00000000  ....................
00000007407F7F68:   00000000 00000000 00000000 00000000 00000000  ....................
00000007407F7F7C:   00000000 00000000 00000000 00000000 00000000  ....................
00000007407F7F90:   00000000 00000000 00000000 00000000 00000000  ....................
00000007407F7FA4:   00000000 00000000 00000000 00000000 00000000  ....................
00000007407F7FB8:   00000000 00000000 00000000 00000000 00000000  ....................
00000007407F7FCC:   00000000 00000000 00000000 00000000 00000000  ....................
00000007407F7FE0:   00000000 00000000 00000000 00000000 00000000  ....................
00000007407F7FF4:   00000000 00000000 00006000                    ..........`.


DBCC execution completed. If DBCC printed error messages, contact your system administrator.

Completion time: 2023-12-13T13:04:24.7893792+00:00
