DBCC execution completed. If DBCC printed error messages, contact your system administrator.

PAGE: (1:632)


BUFFER:


BUF @0x000001AA23CBABC0

bpage = 0x000001AA0E0D4000          bhash = 0x0000000000000000          bpageno = (1:632)
bdbid = 11                          breferences = 0                     bcputicks = 0
bsampleCount = 0                    bUse1 = 733                         bstat = 0xb
blog = 0x15ac7a                     bnext = 0x0000000000000000          bDirtyContext = 0x0000000000000000
bstat2 = 0x0

PAGE HEADER:


Page @0x000001AA0E0D4000

m_pageId = (1:632)                  m_headerVersion = 1                 m_type = 1
m_typeFlagBits = 0x0                m_level = 0                         m_flagBits = 0x8000
m_objId (AllocUnitId.idObj) = 141   m_indexId (AllocUnitId.idInd) = 256
Metadata: AllocUnitId = 72057594047168512
Metadata: PartitionId = 72057594041532416                                Metadata: IndexId = 0
Metadata: ObjectId = 645577338      m_prevPage = (0:0)                  m_nextPage = (0:0)
pminlen = 131                       m_slotCnt = 11                      m_freeCnt = 6301
m_freeData = 6273                   m_reservedCnt = 0                   m_lsn = (34:1864:13)
m_xactReserved = 0                  m_xdesId = (0:0)                    m_ghostRecCnt = 0
m_tornBits = 0                      DB Frag ID = 1

Allocation Status

GAM (1:2) = ALLOCATED               SGAM (1:3) = NOT ALLOCATED          PFS (1:1) = 0x41 ALLOCATED  50_PCT_FULL
DIFF (1:6) = CHANGED                ML (1:7) = NOT MIN_LOGGED

DATA:


Memory Dump @0x0000004234C7A000

0000004234C7A000:   01010000 00800001 00000000 00008300 00000000  ...................
0000004234C7A014:   00000b00 8d000000 9d188118 78020000 01000000  ............x.......
0000004234C7A028:   22000000 48070000 0d000000 00000000 00000000  "...H...............
0000004234C7A03C:   00000000 01000000 00000000 00000000 00000000  ....................
0000004234C7A050:   00000000 00000000 00000000 00000000 30008300  ................0..
0000004234C7A064:   ffffffff d04ccdd2 e8010000 80bfdfa5 ad000000  ÿÿÿÿÐLÍÒè....¿ß¥­...
0000004234C7A078:   9c968774 fa7f0000 701dcfd2 e8010000 701dcfd2  tú...p.ÏÒè...p.ÏÒ
0000004234C7A08C:   e8010000 80bfdfa5 ad000000 00000000 00000000  è....¿ß¥­...........
0000004234C7A0A0:   d0d8a873 fa7f0000 00000000 00000000 feffffff  ÐØ¨sú...........þÿÿÿ
0000004234C7A0B4:   ffffffff 00000000 00000000 20bddfa5 ad000000  ÿÿÿÿ........ ½ß¥­...
0000004234C7A0C8:   dd1e7a74 fa7f0000 00000000 e8010000 f4137b74  Ý.ztú.......è...ô.{t
0000004234C7A0DC:   fa7f0000 3db3860a 00fc0301 009f0042 69742063  ú...=³..ü....Bit c
0000004234C7A0F0:   6f6c756d 6e20706f 70756c61 74656430 00830001  olumn populated0...
0000004234C7A104:   00000000 000000fa 7f000000 00000000 00000058  .......ú...........X
0000004234C7A118:   b2dfa5ad 00000000 00000001 00000000 00000000  ²ß¥­................
0000004234C7A12C:   00000001 00000000 00000000 00000000 00000000  ....................
0000004234C7A140:   20000000 00000008 00000000 00000000 00000000   ...................
0000004234C7A154:   00000000 00000000 00000000 00000000 000000f0  ...................ð
0000004234C7A168:   234d0ee5 01000000 00000000 0000000f 00000000  #M.å................
0000004234C7A17C:   00000000 003e0a00 fc030100 9f004269 7420636f  .....>..ü....Bit co
0000004234C7A190:   6c756d6e 20706f70 756c6174 65643000 83000064  lumn populated0...d
0000004234C7A1A4:   00000000 0000fa7f 00000000 00000000 000058b2  ......ú...........X²
0000004234C7A1B8:   dfa5ad00 00000000 00000100 00000000 00000000  ß¥­.................
0000004234C7A1CC:   00000100 00000000 00000000 00000000 00000020  ...................
0000004234C7A1E0:   00000000 00000800 00000000 00000000 00000000  ....................
0000004234C7A1F4:   00000000 00000000 00000000 00000000 0000f023  ..................ð#
0000004234C7A208:   4d0ee501 00000000 00000000 00000f00 00000000  M.å.................
0000004234C7A21C:   00000000 3e0a00fa 030100a3 0054696e 79696e74  ....>..ú...£.Tinyint
0000004234C7A230:   20636f6c 756d6e20 706f7075 6c617465 64300083   column populated0.
0000004234C7A244:   00010000 00000000 00fa7f00 00000000 00000000  .........ú..........
0000004234C7A258:   00a8b8df a5ad0000 00000000 00010000 00000000  .¨¸ß¥­..............
0000004234C7A26C:   00000000 00010000 00000000 00000000 00000000  ....................
0000004234C7A280:   00002000 00000000 00080000 00000000 00000000  .. .................
0000004234C7A294:   00000000 00000000 00000000 00000000 00000000  ....................
0000004234C7A2A8:   0090e0b5 8bed0100 00000000 00000000 000f0000  ..àµí..............
0000004234C7A2BC:   00000000 0000003e 0a00fc03 01009f00 42697420  .......>..ü....Bit
0000004234C7A2D0:   636f6c75 6d6e2070 6f70756c 61746564 30008300  column populated0..
0000004234C7A2E4:   00640000 00000000 fa7f0000 00000000 00000000  .d......ú...........
0000004234C7A2F8:   a8b8dfa5 ad000000 00000000 01000000 00000000  ¨¸ß¥­...............
0000004234C7A30C:   00000000 01000000 00000000 00000000 00000000  ....................
0000004234C7A320:   00200000 00000000 08000000 00000000 00000000  . ..................
0000004234C7A334:   00000000 00000000 00000000 00000000 00000000  ....................
0000004234C7A348:   90e0b58b ed010000 00000000 00000000 0f000000  .àµí...............
0000004234C7A35C:   00000000 00003e0a 00fa0301 00a30054 696e7969  ......>..ú...£.Tinyi
0000004234C7A370:   6e742063 6f6c756d 6e20706f 70756c61 74656430  nt column populated0
0000004234C7A384:   00830000 640f2700 000000fa 7f000000 00000000  ...d.'....ú........
0000004234C7A398:   000000a8 b8dfa5ad 00000000 00000001 00000000  ...¨¸ß¥­............
0000004234C7A3AC:   00000000 00000001 00000000 00000000 00000000  ....................
0000004234C7A3C0:   00000000 20000000 00000008 00000000 00000000  .... ...............
0000004234C7A3D4:   00000000 00000000 00000000 00000000 00000000  ....................
0000004234C7A3E8:   00000090 e0b58bed 01000000 00000000 0000000f  ....àµí............
0000004234C7A3FC:   00000000 00000000 003e0a00 f6030100 a400536d  .........>..ö...¤.Sm
0000004234C7A410:   616c6c69 6e742063 6f6c756d 6e20706f 70756c61  allint column popula
0000004234C7A424:   74656430 00830000 640f2738 900d00fa 7f000000  ted0...d.'8...ú....
0000004234C7A438:   00000000 000000a8 b8dfa5ad 00000000 00000001  .......¨¸ß¥­........
0000004234C7A44C:   00000000 00000000 00000001 00000000 00000000  ....................
0000004234C7A460:   00000000 00000000 20000000 00000008 00000000  ........ ...........
0000004234C7A474:   00000000 00000000 00000000 00000000 00000000  ....................
0000004234C7A488:   00000000 00000090 e0b58bed 01000000 00000000  ........àµí........
0000004234C7A49C:   0000000f 00000000 00000000 003e0a00 ee030100  .............>..î...
0000004234C7A4B0:   9f00496e 7420636f 6c756d6e 20706f70 756c6174  .Int column populat
0000004234C7A4C4:   65643000 83000064 0f27e3b5 4f03fa7f 00000000  ed0...d.'ãµO.ú.....
0000004234C7A4D8:   00000000 0000a8b8 dfa5ad00 00000000 00000100  ......¨¸ß¥­.........
0000004234C7A4EC:   00000000 00000000 00000100 00000000 00000000  ....................
0000004234C7A500:   00000000 00000020 00000000 00000800 00000000  ....... ............
0000004234C7A514:   00000000 00000000 00000000 00000000 00000000  ....................
0000004234C7A528:   00000000 000090e0 b58bed01 00000000 00000000  .......àµí.........
0000004234C7A53C:   00000f00 00000000 00000000 3e0a00ee 030100a2  ............>..î...¢
0000004234C7A550:   00426967 496e7420 636f6c75 6d6e2070 6f70756c  .BigInt column popul
0000004234C7A564:   61746564 30008300 01000000 00000000 fa7f0000  ated0..........ú...
0000004234C7A578:   00000000 00000000 a8b8dfa5 ad000000 00000000  ........¨¸ß¥­.......
0000004234C7A58C:   01000000 00000000 00000000 01000000 00000000  ....................
0000004234C7A5A0:   00000000 00000000 00200000 00000000 08000000  ......... ..........
0000004234C7A5B4:   00000000 00000000 00000000 00000000 00000000  ....................
0000004234C7A5C8:   00000000 00000000 d0544d0e e5010000 00000000  ........ÐTM.å.......
0000004234C7A5DC:   00000000 0f000000 00000000 00003e0a 00fc0301  ..............>..ü..
0000004234C7A5F0:   009f0042 69742063 6f6c756d 6e20706f 70756c61  ..Bit column popula
0000004234C7A604:   74656430 00830000 64000000 000000fa 7f000000  ted0...d......ú....
0000004234C7A618:   00000000 000000a8 b8dfa5ad 00000000 00000001  .......¨¸ß¥­........
0000004234C7A62C:   00000000 00000000 00000001 00000000 00000000  ....................
0000004234C7A640:   00000000 00000000 20000000 00000008 00000000  ........ ...........
0000004234C7A654:   00000000 00000000 00000000 00000000 00000000  ....................
0000004234C7A668:   00000000 000000d0 544d0ee5 01000000 00000000  .......ÐTM.å........
0000004234C7A67C:   0000000f 00000000 00000000 003e0a00 fa030100  .............>..ú...
0000004234C7A690:   a3005469 6e79696e 7420636f 6c756d6e 20706f70  £.Tinyint column pop
0000004234C7A6A4:   756c6174 65643000 83000064 0f270000 0000fa7f  ulated0...d.'....ú.
0000004234C7A6B8:   00000000 00000000 0000a8b8 dfa5ad00 00000000  ..........¨¸ß¥­.....
0000004234C7A6CC:   00000100 00000000 00000000 00000100 00000000  ....................
0000004234C7A6E0:   00000000 00000000 00000020 00000000 00000800  ........... ........
0000004234C7A6F4:   00000000 00000000 00000000 00000000 00000000  ....................
0000004234C7A708:   00000000 00000000 0000d054 4d0ee501 00000000  ..........ÐTM.å.....
0000004234C7A71C:   00000000 00000f00 00000000 00000000 3e0a00f6  ................>..ö
0000004234C7A730:   030100a4 00536d61 6c6c696e 7420636f 6c756d6e  ...¤.Smallint column
0000004234C7A744:   20706f70 756c6174 65643000 83000064 0f273890   populated0...d.'8.
0000004234C7A758:   0d00fa7f 00000000 00000000 0000a8b8 dfa5ad00  ..ú...........¨¸ß¥­.
0000004234C7A76C:   00000000 00000100 00000000 00000000 00000100  ....................
0000004234C7A780:   00000000 00000000 00000000 00000020 00000000  ............... ....
0000004234C7A794:   00000800 00000000 00000000 00000000 00000000  ....................
0000004234C7A7A8:   00000000 00000000 00000000 0000d054 4d0ee501  ..............ÐTM.å.
0000004234C7A7BC:   00000000 00000000 00000f00 00000000 00000000  ....................
0000004234C7A7D0:   3e0a00ee 0301009f 00496e74 20636f6c 756d6e20  >..î....Int column
0000004234C7A7E4:   706f7075 6c617465 64300083 0000640f 2738900d  populated0...d.'8..
0000004234C7A7F8:   00e3b54f 03000000 00000000 00a8b8df a5ad0000  .ãµO.........¨¸ß¥­..
0000004234C7A80C:   00000000 00010000 00000000 00000000 00010000  ....................
0000004234C7A820:   00000000 00000000 00000000 00002000 00000000  .............. .....
0000004234C7A834:   00080000 00000000 00000000 00000000 00000000  ....................
0000004234C7A848:   00000000 00000000 00000000 00d0544d 0ee50100  .............ÐTM.å..
0000004234C7A85C:   00000000 00000000 000f0000 00000000 0000003e  ...................>
0000004234C7A870:   0a00de03 0100a200 42696749 6e742063 6f6c756d  ..Þ...¢.BigInt colum
0000004234C7A884:   6e20706f 70756c61 74656430 00830000 640f2738  n populated0...d.'8
0000004234C7A898:   900d00e3 b54f0300 00000000 000000a8 b8dfa5ad  ...ãµO.........¨¸ß¥­
0000004234C7A8AC:   00000000 00000001 00000000 00000000 00000001  ....................
0000004234C7A8C0:   00000000 00000000 00000000 00000000 20000000  ................ ...
0000004234C7A8D4:   00000008 00000000 00000000 00000000 00000000  ....................
0000004234C7A8E8:   00000000 00000000 00000000 000000d0 544d0ee5  ...............ÐTM.å
0000004234C7A8FC:   01000000 00000000 0000000f 00000000 00000000  ....................
0000004234C7A910:   003e0a00 be030200 a500bb00 56617263 68617220  .>..¾...¥.».Varchar
0000004234C7A924:   636f6c75 6d6e2070 6f70756c 61746564 56617269  column populatedVari
0000004234C7A938:   61626c65 204c656e 67746820 56616c75 65213000  able Length Value!0.
0000004234C7A94C:   83000064 0f273890 0d00e3b5 4f030000 00004669  ..d.'8...ãµO.....Fi
0000004234C7A960:   78656420 6c656e67 74682076 616c7565 21202020  xed length value!
0000004234C7A974:   20202020 20202020 20202020 20202020 20202020
0000004234C7A988:   20202020 20202020 20202020 20202020 20202020
0000004234C7A99C:   20202020 20202020 20202020 20202020 20202020
0000004234C7A9B0:   20202020 20202020 20202020 20202020 20200f00                    ..
0000004234C7A9C4:   00000000 00000000 3e0a007e 030100a0 00436861  ........>..~... .Cha
0000004234C7A9D8:   7220636f 6c756d6e 20706f70 756c6174 65643000  r column populated0.
0000004234C7A9EC:   83000064 0f273890 0d00e3b5 4f030000 00004669  ..d.'8...ãµO.....Fi
0000004234C7AA00:   78656420 6c656e67 74682076 616c7565 21202020  xed length value!
0000004234C7AA14:   20202020 20202020 20202020 20202020 20202020
0000004234C7AA28:   20202020 20202020 20202020 20202020 20202020
0000004234C7AA3C:   20202020 20202020 20202020 20202020 20202020
0000004234C7AA50:   20202020 20202020 20202020 20202020 2020a08a                     
0000004234C7AA64:   a7005ba8 00000000 3e0a00fe 020100a4 00446174  §.[¨....>..þ...¤.Dat
0000004234C7AA78:   6554696d 6520636f 6c756d6e 20706f70 756c6174  eTime column populat
0000004234C7AA8C:   65643000 83000064 0f273890 0d00e3b5 4f030000  ed0...d.'8...ãµO...
0000004234C7AAA0:   00004669 78656420 6c656e67 74682076 616c7565  ..Fixed length value
0000004234C7AAB4:   21202020 20202020 20202020 20202020 20202020  !
0000004234C7AAC8:   20202020 20202020 20202020 20202020 20202020
0000004234C7AADC:   20202020 20202020 20202020 20202020 20202020
0000004234C7AAF0:   20202020 20202020 20202020 20202020 20202020
0000004234C7AB04:   2020a08a a7005ba8 0000a533 0b0a00fe 010100a0     §.[¨..¥3...þ...
0000004234C7AB18:   00446174 6520636f 6c756d6e 20706f70 756c6174  .Date column populat
0000004234C7AB2C:   65643000 83000100 00000000 0000fc7f 00000000  ed0..........ü.....
0000004234C7AB40:   00000000 0000e8b3 1f324200 00000000 00000100  ......è³.2B.........
0000004234C7AB54:   00000000 00000000 00000100 00000000 00000000  ....................
0000004234C7AB68:   00000000 00000020 00000000 00000800 00000000  ....... ............
0000004234C7AB7C:   00000000 00000000 00000000 00000000 00000000  ....................
0000004234C7AB90:   00000000 00000012 72c3ae01 00000000 00000000  ........rÃ®.........
0000004234C7ABA4:   00000f00 00000000 00000000 cb0a00fc 0301009f  ............Ë..ü...
0000004234C7ABB8:   00426974 20636f6c 756d6e20 706f7075 6c617465  .Bit column populate
0000004234C7ABCC:   64300083 00006400 00000000 00fc7f00 00000000  d0...d......ü......
0000004234C7ABE0:   00000000 00e8b31f 32420000 00000000 00010000  .....è³.2B..........
0000004234C7ABF4:   00000000 00000000 00010000 00000000 00000000  ....................
0000004234C7AC08:   00000000 00002000 00000000 00080000 00000000  ...... .............
0000004234C7AC1C:   00000000 00000000 00000000 00000000 00000000  ....................
0000004234C7AC30:   00000000 00001272 c3ae0100 00000000 00000000  .......rÃ®..........
0000004234C7AC44:   000f0000 00000000 000000cb 0a00fa03 0100a300  ...........Ë..ú...£.
0000004234C7AC58:   54696e79 696e7420 636f6c75 6d6e2070 6f70756c  Tinyint column popul
0000004234C7AC6C:   61746564 30008300 00640f27 00000000 fc7f0000  ated0...d.'....ü...
0000004234C7AC80:   00000000 00000000 e8b31f32 42000000 00000000  ........è³.2B.......
0000004234C7AC94:   01000000 00000000 00000000 01000000 00000000  ....................
0000004234C7ACA8:   00000000 00000000 00200000 00000000 08000000  ......... ..........
0000004234C7ACBC:   00000000 00000000 00000000 00000000 00000000  ....................
0000004234C7ACD0:   00000000 00000000 001272c3 ae010000 00000000  ..........rÃ®.......
0000004234C7ACE4:   00000000 0f000000 00000000 0000cb0a 00f60301  ..............Ë..ö..
0000004234C7ACF8:   00a40053 6d616c6c 696e7420 636f6c75 6d6e2070  .¤.Smallint column p
0000004234C7AD0C:   6f70756c 61746564 30008300 00640f27 38900d00  opulated0...d.'8...
0000004234C7AD20:   fc7f0000 00000000 00000000 e8b31f32 42000000  ü...........è³.2B...
0000004234C7AD34:   00000000 01000000 00000000 00000000 01000000  ....................
0000004234C7AD48:   00000000 00000000 00000000 00200000 00000000  ............. ......
0000004234C7AD5C:   08000000 00000000 00000000 00000000 00000000  ....................
0000004234C7AD70:   00000000 00000000 00000000 001272c3 ae010000  ..............rÃ®...
0000004234C7AD84:   00000000 00000000 0f000000 00000000 0000cb0a  ..................Ë.
0000004234C7AD98:   00ee0301 009f0049 6e742063 6f6c756d 6e20706f  .î....Int column po
0000004234C7ADAC:   70756c61 74656430 00830000 640f2738 900d00e3  pulated0...d.'8...ã
0000004234C7ADC0:   b54f0300 00000000 000000e8 b31f3242 00000000  µO.........è³.2B....
0000004234C7ADD4:   00000001 00000000 00000000 00000001 00000000  ....................
0000004234C7ADE8:   00000000 00000000 00000000 20000000 00000008  ............ .......
0000004234C7ADFC:   00000000 00000000 00000000 00000000 00000000  ....................
0000004234C7AE10:   00000000 00000000 00000000 1272c3ae 01000000  .............rÃ®....
0000004234C7AE24:   00000000 0000000f 00000000 00000000 00cb0a00  .................Ë..
0000004234C7AE38:   de030100 a2004269 67496e74 20636f6c 756d6e20  Þ...¢.BigInt column
0000004234C7AE4C:   706f7075 6c617465 64300083 0000640f 2738900d  populated0...d.'8..
0000004234C7AE60:   00e3b54f 03000000 00000000 00e8b31f 32420000  .ãµO.........è³.2B..
0000004234C7AE74:   00000000 00010000 00000000 00000000 00010000  ....................
0000004234C7AE88:   00000000 00000000 00000000 00002000 00000000  .............. .....
0000004234C7AE9C:   00080000 00000000 00000000 00000000 00000000  ....................
0000004234C7AEB0:   00000000 00000000 00000000 00001272 c3ae0100  ...............rÃ®..
0000004234C7AEC4:   00000000 00000000 000f0000 00000000 000000cb  ...................Ë
0000004234C7AED8:   0a00be03 0200a500 bb005661 72636861 7220636f  ..¾...¥.».Varchar co
0000004234C7AEEC:   6c756d6e 20706f70 756c6174 65645661 72696162  lumn populatedVariab
0000004234C7AF00:   6c65204c 656e6774 68205661 6c756521 30008300  le Length Value!0..
0000004234C7AF14:   00640f27 38900d00 e3b54f03 00000000 46697865  .d.'8...ãµO.....Fixe
0000004234C7AF28:   64206c65 6e677468 2076616c 75652120 20202020  d length value!
0000004234C7AF3C:   20202020 20202020 20202020 20202020 20202020
0000004234C7AF50:   20202020 20202020 20202020 20202020 20202020
0000004234C7AF64:   20202020 20202020 20202020 20202020 20202020
0000004234C7AF78:   20202020 20202020 20202020 20202020 0f000000                  ....
0000004234C7AF8C:   00000000 0000cb0a 007e0301 00a00043 68617220  ......Ë..~... .Char
0000004234C7AFA0:   636f6c75 6d6e2070 6f70756c 61746564 30008300  column populated0..
0000004234C7AFB4:   00640f27 38900d00 e3b54f03 00000000 46697865  .d.'8...ãµO.....Fixe
0000004234C7AFC8:   64206c65 6e677468 2076616c 75652120 20202020  d length value!
0000004234C7AFDC:   20202020 20202020 20202020 20202020 20202020
0000004234C7AFF0:   20202020 20202020 20202020 20202020 20202020
0000004234C7B004:   20202020 20202020 20202020 20202020 20202020
0000004234C7B018:   20202020 20202020 20202020 20202020 a08aa700                   §.
0000004234C7B02C:   5ba80000 0000cb0a 00fe0201 00a40044 61746554  [¨....Ë..þ...¤.DateT
0000004234C7B040:   696d6520 636f6c75 6d6e2070 6f70756c 61746564  ime column populated
0000004234C7B054:   30008300 00640f27 38900d00 e3b54f03 00000000  0...d.'8...ãµO.....
0000004234C7B068:   46697865 64206c65 6e677468 2076616c 75652120  Fixed length value!
0000004234C7B07C:   20202020 20202020 20202020 20202020 20202020
0000004234C7B090:   20202020 20202020 20202020 20202020 20202020
0000004234C7B0A4:   20202020 20202020 20202020 20202020 20202020
0000004234C7B0B8:   20202020 20202020 20202020 20202020 20202020
0000004234C7B0CC:   a08aa700 5ba80000 a5330b0a 00fe0101 00a00044   §.[¨..¥3...þ... .D
0000004234C7B0E0:   61746520 636f6c75 6d6e2070 6f70756c 61746564  ate column populated
0000004234C7B0F4:   30008300 01164d01 5c110000 03d90000 00000000  0....M.\....Ù......
0000004234C7B108:   37373737 37373720 20202020 20202020 20202020  7777777
0000004234C7B11C:   20202020 20202020 20202020 20202020 20202020
0000004234C7B130:   20202020 20202020 20202020 20202020 20202020
0000004234C7B144:   20202020 20202020 20202020 20202020 20202020
0000004234C7B158:   20202020 20202020 20202020 20202020 20202020
0000004234C7B16C:   00000000 4a9e0000 a5330b0a 00000002 009a00a0  ....J..¥3........
0000004234C7B180:   00416c6c 20706f70 756c6174 65643636 36363636  .All populated666666
0000004234C7B194:   30008300 01000000 00000000 fc7f0000 00000000  0..........ü.......
0000004234C7B1A8:   00000000 d8b5c734 42000000 00000000 01000000  ....ØµÇ4B...........
0000004234C7B1BC:   00000000 00000000 01000000 00000000 00000000  ....................
0000004234C7B1D0:   00000000 00200000 00000000 08000000 00000000  ..... ..............
0000004234C7B1E4:   00000000 00000000 00000000 00000000 00000000  ....................
0000004234C7B1F8:   00000000 a04572c3 ae010000 00000000 00000000  .... ErÃ®...........
0000004234C7B20C:   0f000000 00000000 0000cb0a 00fc0301 009f0042  ..........Ë..ü....B
0000004234C7B220:   69742063 6f6c756d 6e20706f 70756c61 74656430  it column populated0
0000004234C7B234:   00830000 64000000 000000fc 7f000000 00000000  ...d......ü........
0000004234C7B248:   000000d8 b5c73442 00000000 00000001 00000000  ...ØµÇ4B............
0000004234C7B25C:   00000000 00000001 00000000 00000000 00000000  ....................
0000004234C7B270:   00000000 20000000 00000008 00000000 00000000  .... ...............
0000004234C7B284:   00000000 00000000 00000000 00000000 00000000  ....................
0000004234C7B298:   000000a0 4572c3ae 01000000 00000000 0000000f  ... ErÃ®............
0000004234C7B2AC:   00000000 00000000 00cb0a00 fa030100 a3005469  .........Ë..ú...£.Ti
0000004234C7B2C0:   6e79696e 7420636f 6c756d6e 20706f70 756c6174  nyint column populat
0000004234C7B2D4:   65643000 83000064 0f270000 0000fc7f 00000000  ed0...d.'....ü.....
0000004234C7B2E8:   00000000 0000d8b5 c7344200 00000000 00000100  ......ØµÇ4B.........
0000004234C7B2FC:   00000000 00000000 00000100 00000000 00000000  ....................
0000004234C7B310:   00000000 00000020 00000000 00000800 00000000  ....... ............
0000004234C7B324:   00000000 00000000 00000000 00000000 00000000  ....................
0000004234C7B338:   00000000 0000a045 72c3ae01 00000000 00000000  ...... ErÃ®.........
0000004234C7B34C:   00000f00 00000000 00000000 cb0a00f6 030100a4  ............Ë..ö...¤
0000004234C7B360:   00536d61 6c6c696e 7420636f 6c756d6e 20706f70  .Smallint column pop
0000004234C7B374:   756c6174 65643000 83000064 0f273890 0d00fc7f  ulated0...d.'8...ü.
0000004234C7B388:   00000000 00000000 0000d8b5 c7344200 00000000  ..........ØµÇ4B.....
0000004234C7B39C:   00000100 00000000 00000000 00000100 00000000  ....................
0000004234C7B3B0:   00000000 00000000 00000020 00000000 00000800  ........... ........
0000004234C7B3C4:   00000000 00000000 00000000 00000000 00000000  ....................
0000004234C7B3D8:   00000000 00000000 0000a045 72c3ae01 00000000  .......... ErÃ®.....
0000004234C7B3EC:   00000000 00000f00 00000000 00000000 cb0a00ee  ................Ë..î
0000004234C7B400:   0301009f 00496e74 20636f6c 756d6e20 706f7075  ....Int column popu
0000004234C7B414:   6c617465 64300083 0000640f 2738900d 00e3b54f  lated0...d.'8...ãµO
0000004234C7B428:   03000000 00000000 00d8b5c7 34420000 00000000  .........ØµÇ4B......
0000004234C7B43C:   00010000 00000000 00000000 00010000 00000000  ....................
0000004234C7B450:   00000000 00000000 00002000 00000000 00080000  .......... .........
0000004234C7B464:   00000000 00000000 00000000 00000000 00000000  ....................
0000004234C7B478:   00000000 00000000 00a04572 c3ae0100 00000000  ......... ErÃ®......
0000004234C7B48C:   00000000 000f0000 00000000 000000cb 0a00de03  ...............Ë..Þ.
0000004234C7B4A0:   0100a200 42696749 6e742063 6f6c756d 6e20706f  ..¢.BigInt column po
0000004234C7B4B4:   70756c61 74656430 00830000 640f2738 900d00e3  pulated0...d.'8...ã
0000004234C7B4C8:   b54f0300 00000000 000000d8 b5c73442 00000000  µO.........ØµÇ4B....
0000004234C7B4DC:   00000001 00000000 00000000 00000001 00000000  ....................
0000004234C7B4F0:   00000000 00000000 00000000 20000000 00000008  ............ .......
0000004234C7B504:   00000000 00000000 00000000 00000000 00000000  ....................
0000004234C7B518:   00000000 00000000 000000a0 4572c3ae 01000000  ........... ErÃ®....
0000004234C7B52C:   00000000 0000000f 00000000 00000000 00cb0a00  .................Ë..
0000004234C7B540:   be030200 a500bb00 56617263 68617220 636f6c75  ¾...¥.».Varchar colu
0000004234C7B554:   6d6e2070 6f70756c 61746564 56617269 61626c65  mn populatedVariable
0000004234C7B568:   204c656e 67746820 56616c75 65213000 83000064   Length Value!0...d
0000004234C7B57C:   0f273890 0d00e3b5 4f030000 00004669 78656420  .'8...ãµO.....Fixed
0000004234C7B590:   6c656e67 74682076 616c7565 21202020 20202020  length value!
0000004234C7B5A4:   20202020 20202020 20202020 20202020 20202020
0000004234C7B5B8:   20202020 20202020 20202020 20202020 20202020
0000004234C7B5CC:   20202020 20202020 20202020 20202020 20202020
0000004234C7B5E0:   20202020 20202020 20202020 20200f00 00000000                ......
0000004234C7B5F4:   00000000 cb0a007e 030100a0 00436861 7220636f  ....Ë..~... .Char co
0000004234C7B608:   6c756d6e 20706f70 756c6174 65643000 83000064  lumn populated0...d
0000004234C7B61C:   0f273890 0d00e3b5 4f030000 00004669 78656420  .'8...ãµO.....Fixed
0000004234C7B630:   6c656e67 74682076 616c7565 21202020 20202020  length value!
0000004234C7B644:   20202020 20202020 20202020 20202020 20202020
0000004234C7B658:   20202020 20202020 20202020 20202020 20202020
0000004234C7B66C:   20202020 20202020 20202020 20202020 20202020
0000004234C7B680:   20202020 20202020 20202020 2020a08a a7005ba8                 §.[¨
0000004234C7B694:   00000000 cb0a00fe 020100a4 00446174 6554696d  ....Ë..þ...¤.DateTim
0000004234C7B6A8:   6520636f 6c756d6e 20706f70 756c6174 65643000  e column populated0.
0000004234C7B6BC:   83000064 0f273890 0d00e3b5 4f030000 00004669  ..d.'8...ãµO.....Fi
0000004234C7B6D0:   78656420 6c656e67 74682076 616c7565 21202020  xed length value!
0000004234C7B6E4:   20202020 20202020 20202020 20202020 20202020
0000004234C7B6F8:   20202020 20202020 20202020 20202020 20202020
0000004234C7B70C:   20202020 20202020 20202020 20202020 20202020
0000004234C7B720:   20202020 20202020 20202020 20202020 2020a08a                     
0000004234C7B734:   a7005ba8 0000a533 0b0a00fe 010100a0 00446174  §.[¨..¥3...þ... .Dat
0000004234C7B748:   6520636f 6c756d6e 20706f70 756c6174 65643000  e column populated0.
0000004234C7B75C:   83000116 4d015c11 000003d9 00000000 00003737  ...M.\....Ù......77
0000004234C7B770:   37373737 37202020 20202020 20202020 20202020  77777
0000004234C7B784:   20202020 20202020 20202020 20202020 20202020
0000004234C7B798:   20202020 20202020 20202020 20202020 20202020
0000004234C7B7AC:   20202020 20202020 20202020 20202020 20202020
0000004234C7B7C0:   20202020 20202020 20202020 20202020 20200000                    ..
0000004234C7B7D4:   00004a9e 0000a533 0b0a0000 0002009a 00a00041  ..J..¥3........ .A
0000004234C7B7E8:   6c6c2070 6f70756c 61746564 36363636 36361000  ll populated666666..
0000004234C7B7FC:   83000016 4d015c11 000003d9 00000000 00003737  ...M.\....Ù......77
0000004234C7B810:   37373737 37202020 20202020 20202020 20202020  77777
0000004234C7B824:   20202020 20202020 20202020 20202020 20202020
0000004234C7B838:   20202020 20202020 20202020 20202020 20202020
0000004234C7B84C:   20202020 20202020 20202020 20202020 20202020
0000004234C7B860:   20202020 20202020 20202020 20202020 20200000                    ..
0000004234C7B874:   00004a9e 0000a533 0b0a00ff 03000000 00000000  ..J..¥3...ÿ........
0000004234C7B888:   00000000 00000000 00000000 00000000 00000000  ....................
0000004234C7B89C:   00000000 00000000 00000000 00000000 00000000  ....................
0000004234C7B8B0:   00000000 00000000 00000000 00000000 00000000  ....................
0000004234C7B8C4:   00000000 00000000 00000000 00000000 00000000  ....................
0000004234C7B8D8:   00000000 00000000 00000000 00000000 00000000  ....................
0000004234C7B8EC:   00000000 00000000 00000000 00000000 00000000  ....................
0000004234C7B900:   00000000 00000000 00000000 00000000 00000000  ....................
0000004234C7B914:   00000000 00000000 00000000 00000000 00000000  ....................
0000004234C7B928:   00000000 00000000 00000000 00000000 00000000  ....................
0000004234C7B93C:   00000000 00000000 00000000 00000000 00000000  ....................
0000004234C7B950:   00000000 00000000 00000000 00000000 00000000  ....................
0000004234C7B964:   00000000 00000000 00000000 00000000 00000000  ....................
0000004234C7B978:   00000000 00000000 00000000 00000000 00000000  ....................
0000004234C7B98C:   00000000 00000000 00000000 00000000 00000000  ....................
0000004234C7B9A0:   00000000 00000000 00000000 00000000 00000000  ....................
0000004234C7B9B4:   00000000 00000000 00000000 00000000 00000000  ....................
0000004234C7B9C8:   00000000 00000000 00000000 00000000 00000000  ....................
0000004234C7B9DC:   00000000 00000000 00000000 00000000 00000000  ....................
0000004234C7B9F0:   00000000 00000000 00000000 00000000 00000000  ....................
0000004234C7BA04:   00000000 00000000 00000000 00000000 00000000  ....................
0000004234C7BA18:   00000000 00000000 00000000 00000000 00000000  ....................
0000004234C7BA2C:   00000000 00000000 00000000 00000000 00000000  ....................
0000004234C7BA40:   00000000 00000000 00000000 00000000 00000000  ....................
0000004234C7BA54:   00000000 00000000 00000000 00000000 00000000  ....................
0000004234C7BA68:   00000000 00000000 00000000 00000000 00000000  ....................
0000004234C7BA7C:   00000000 00000000 00000000 00000000 00000000  ....................
0000004234C7BA90:   00000000 00000000 00000000 00000000 00000000  ....................
0000004234C7BAA4:   00000000 00000000 00000000 00000000 00000000  ....................
0000004234C7BAB8:   00000000 00000000 00000000 00000000 00000000  ....................
0000004234C7BACC:   00000000 00000000 00000000 00000000 00000000  ....................
0000004234C7BAE0:   00000000 00000000 00000000 00000000 00000000  ....................
0000004234C7BAF4:   00000000 00000000 00000000 00000000 00000000  ....................
0000004234C7BB08:   00000000 00000000 00000000 00000000 00000000  ....................
0000004234C7BB1C:   00000000 00000000 00000000 00000000 00000000  ....................
0000004234C7BB30:   00000000 00000000 00000000 00000000 00000000  ....................
0000004234C7BB44:   00000000 00000000 00000000 00000000 00000000  ....................
0000004234C7BB58:   00000000 00000000 00000000 00000000 00000000  ....................
0000004234C7BB6C:   00000000 00000000 00000000 00000000 00000000  ....................
0000004234C7BB80:   00000000 00000000 00000000 00000000 00000000  ....................
0000004234C7BB94:   00000000 00000000 00000000 00000000 00000000  ....................
0000004234C7BBA8:   00000000 00000000 00000000 00000000 00000000  ....................
0000004234C7BBBC:   00000000 00000000 00000000 00000000 00000000  ....................
0000004234C7BBD0:   00000000 00000000 00000000 00000000 00000000  ....................
0000004234C7BBE4:   00000000 00000000 00000000 00000000 00000000  ....................
0000004234C7BBF8:   00000000 00000000 00000000 00000000 00000000  ....................
0000004234C7BC0C:   00000000 00000000 00000000 00000000 00000000  ....................
0000004234C7BC20:   00000000 00000000 00000000 00000000 00000000  ....................
0000004234C7BC34:   00000000 00000000 00000000 00000000 00000000  ....................
0000004234C7BC48:   00000000 00000000 00000000 00000000 00000000  ....................
0000004234C7BC5C:   00000000 00000000 00000000 00000000 00000000  ....................
0000004234C7BC70:   00000000 00000000 00000000 00000000 00000000  ....................
0000004234C7BC84:   00000000 00000000 00000000 00000000 00000000  ....................
0000004234C7BC98:   00000000 00000000 00000000 00000000 00000000  ....................
0000004234C7BCAC:   00000000 00000000 00000000 00000000 00000000  ....................
0000004234C7BCC0:   00000000 00000000 00000000 00000000 00000000  ....................
0000004234C7BCD4:   00000000 00000000 00000000 00000000 00000000  ....................
0000004234C7BCE8:   00000000 00000000 00000000 00000000 00000000  ....................
0000004234C7BCFC:   00000000 00000000 00000000 00000000 00000000  ....................
0000004234C7BD10:   00000000 00000000 00000000 00000000 00000000  ....................
0000004234C7BD24:   00000000 00000000 00000000 00000000 00000000  ....................
0000004234C7BD38:   00000000 00000000 00000000 00000000 00000000  ....................
0000004234C7BD4C:   00000000 00000000 00000000 00000000 00000000  ....................
0000004234C7BD60:   00000000 00000000 00000000 00000000 00000000  ....................
0000004234C7BD74:   00000000 00000000 00000000 00000000 00000000  ....................
0000004234C7BD88:   00000000 00000000 00000000 00000000 00000000  ....................
0000004234C7BD9C:   00000000 00000000 00000000 00000000 00000000  ....................
0000004234C7BDB0:   00000000 00000000 00000000 00000000 00000000  ....................
0000004234C7BDC4:   00000000 00000000 00000000 00000000 00000000  ....................
0000004234C7BDD8:   00000000 00000000 00000000 00000000 00000000  ....................
0000004234C7BDEC:   00000000 00000000 00000000 00000000 00000000  ....................
0000004234C7BE00:   00000000 00000000 00000000 00000000 00000000  ....................
0000004234C7BE14:   00000000 00000000 00000000 00000000 00000000  ....................
0000004234C7BE28:   00000000 00000000 00000000 00000000 00000000  ....................
0000004234C7BE3C:   00000000 00000000 00000000 00000000 00000000  ....................
0000004234C7BE50:   00000000 00000000 00000000 00000000 00000000  ....................
0000004234C7BE64:   00000000 00000000 00000000 00000000 00000000  ....................
0000004234C7BE78:   00000000 00000000 00000000 00000000 00000000  ....................
0000004234C7BE8C:   00000000 00000000 00000000 00000000 00000000  ....................
0000004234C7BEA0:   00000000 00000000 00000000 00000000 00000000  ....................
0000004234C7BEB4:   00000000 00000000 00000000 00000000 00000000  ....................
0000004234C7BEC8:   00000000 00000000 00000000 00000000 00000000  ....................
0000004234C7BEDC:   00000000 00000000 00000000 00000000 00000000  ....................
0000004234C7BEF0:   00000000 00000000 00000000 00000000 00000000  ....................
0000004234C7BF04:   00000000 00000000 00000000 00000000 00000000  ....................
0000004234C7BF18:   00000000 00000000 00000000 00000000 00000000  ....................
0000004234C7BF2C:   00000000 00000000 00000000 00000000 00000000  ....................
0000004234C7BF40:   00000000 00000000 00000000 00000000 00000000  ....................
0000004234C7BF54:   00000000 00000000 00000000 00000000 00000000  ....................
0000004234C7BF68:   00000000 00000000 00000000 00000000 00000000  ....................
0000004234C7BF7C:   00000000 00000000 00000000 00000000 00000000  ....................
0000004234C7BF90:   00000000 00000000 00000000 00000000 00000000  ....................
0000004234C7BFA4:   00000000 00000000 00000000 00000000 00000000  ....................
0000004234C7BFB8:   00000000 00000000 00000000 00000000 00000000  ....................
0000004234C7BFCC:   00000000 00000000 00000000 00000000 00000000  ....................
0000004234C7BFE0:   00000000 00000000 0000fa17 5a17ba16 16167615  ..........ú.Z.º...v.
0000004234C7BFF4:   bb141914 7a13d612 33129411                    »...z.Ö.3..

OFFSET TABLE:

Row - Offset
10 (0xa) - 6138 (0x17fa)
9 (0x9) - 5978 (0x175a)
8 (0x8) - 5818 (0x16ba)
7 (0x7) - 5654 (0x1616)
6 (0x6) - 5494 (0x1576)
5 (0x5) - 5307 (0x14bb)
4 (0x4) - 5145 (0x1419)
3 (0x3) - 4986 (0x137a)
2 (0x2) - 4822 (0x12d6)
1 (0x1) - 4659 (0x1233)
0 (0x0) - 4500 (0x1194)


DBCC execution completed. If DBCC printed error messages, contact your system administrator.
