-- Extracted from AdventureWorks2022 using:
--
-- DBCC TRACEON(3604);
-- DBCC PAGE('AdventureWorks2022', 1, 2, 2)

DBCC execution completed. If DBCC printed error messages, contact your system administrator.

PAGE: (1:2)


BUFFER:


BUF @0x000001D43E6F9180

bpage = 0x000001C957632000          bPmmpage = 0x0000000000000000       bsort_r_nextbP = 0x000001D43E6F9010
bsort_r_prevbP = 0x0000000000000000 bhash = 0x0000000000000000          bpageno = (1:2)
bpart = 16                          bstat = 0x9                         breferences = 1
berrcode = 0                        bUse1 = 27682                       bstat2 = 0x8
blog = 0x15ab215a                   bsampleCount = 0                    bIoCount = 0
resPoolId = 0                       bcputicks = 0                       bReadMicroSec = 8910
bDirtyPendingCount = 0              bDirtyContext = 0x0000000000000000  bDbPageBroker = 0x0000000000000000
bdbid = 9                           bpru = 0x000001C93D728040           

PAGE HEADER:


Page @0x000001C957632000

m_pageId = (1:2)                    m_headerVersion = 1                 m_type = 8
m_typeFlagBits = 0x0                m_level = 0                         m_flagBits = 0x200
m_objId (AllocUnitId.idObj) = 99    m_indexId (AllocUnitId.idInd) = 0   Metadata: AllocUnitId = 6488064
Metadata: PartitionId = 0           Metadata: IndexId = 0               Metadata: ObjectId = 99
m_prevPage = (0:0)                  m_nextPage = (0:0)                  pminlen = 90
m_slotCnt = 2                       m_freeCnt = 6                       m_freeData = 8182
m_reservedCnt = 0                   m_lsn = (53:29745:7)                m_xactReserved = 0
m_xdesId = (0:0)                    m_ghostRecCnt = 0                   m_tornBits = -273531820
DB Frag ID = 1                      

Allocation Status

GAM (1:2) = ALLOCATED               SGAM (1:3) = NOT ALLOCATED          PFS (1:1) = 0x44 ALLOCATED 100_PCT_FULL
DIFF (1:6) = CHANGED                ML (1:7) = NOT MIN_LOGGED           

DATA:


Memory Dump @0x0000000740FF6000

0000000740FF6000:   01080000 00020000 00000000 00005a00 00000000  ..............Z.....
0000000740FF6014:   00000200 63000000 0600f61f 02000000 01000000  ....c.....ö.........
0000000740FF6028:   35000000 31740000 07000000 00000000 00000000  5...1t..............
0000000740FF603C:   543cb2ef 00000000 00000000 00000000 00000000  T<²ï................
0000000740FF6050:   00000000 00000000 00000000 00000000 00005e00  ..................^.
0000000740FF6064:   00000000 00000000 00000000 00000000 00000000  ....................
0000000740FF6078:   00000000 00000000 00000000 00000000 00000000  ....................
0000000740FF608C:   00000000 00000000 00000000 00000000 00000000  ....................
0000000740FF60A0:   00000000 00000000 00000000 00000000 00000000  ....................
0000000740FF60B4:   00000000 00000000 00000000 381f0000 00000000  ............8.......
0000000740FF60C8:   00000000 00000000 00000000 00000000 00000000  ....................
0000000740FF60DC:   00000000 00000000 00000000 00000000 00000000  ....................
0000000740FF60F0:   00000000 00000000 00000000 00000000 00000000  ....................
0000000740FF6104:   00000000 00000000 00000000 00000000 00000000  ....................
0000000740FF6118:   00000000 00000000 00000000 00000000 00000000  ....................
0000000740FF612C:   00000000 00000000 00000000 00000000 00000000  ....................
0000000740FF6140:   00000000 00000000 00000000 00000000 00000000  ....................
0000000740FF6154:   00000000 00000000 00000000 00000000 00000000  ....................
0000000740FF6168:   00000000 00000000 00000000 00000000 00000000  ....................
0000000740FF617C:   00000000 00000000 00000000 00000000 00000000  ....................
0000000740FF6190:   00000000 00000000 00000000 00000000 00000000  ....................
0000000740FF61A4:   00000000 00000000 00000000 00000000 00000000  ....................
0000000740FF61B8:   00000000 00000000 00000000 00000000 00000000  ....................
0000000740FF61CC:   00000000 00000000 00000000 00000000 00000000  ....................
0000000740FF61E0:   00000000 00000000 00000000 00000000 0000c408  ..................Ä.
0000000740FF61F4:   ff3f0000 00000000 00000000 00000000 00000000  ÿ?..................
0000000740FF6208:   00000000 00000000 00000000 00000000 00000000  ....................
0000000740FF621C:   00000000 00000000 00000000 00000000 00000000  ....................
0000000740FF6230:   00000000 00000000 00000000 00020000 00000000  ....................
0000000740FF6244:   0000c0dd 0d000000 00000000 0000ffff ffffffff  ..ÀÝ..........ÿÿÿÿÿÿ
0000000740FF6258:   ffffffff ffffffff ffffffff ffffffff ffffffff  ÿÿÿÿÿÿÿÿÿÿÿÿÿÿÿÿÿÿÿÿ
0000000740FF626C:   ffffffff ffffffff ffffffff ffffffff ffffffff  ÿÿÿÿÿÿÿÿÿÿÿÿÿÿÿÿÿÿÿÿ
0000000740FF6280:   ffffffff ffffffff ffffffff ffffffff ffffffff  ÿÿÿÿÿÿÿÿÿÿÿÿÿÿÿÿÿÿÿÿ
0000000740FF6294:   ffffffff ffffffff ffffffff ffffffff ffffffff  ÿÿÿÿÿÿÿÿÿÿÿÿÿÿÿÿÿÿÿÿ
0000000740FF62A8:   ffffffff ffffffff ffffffff ffffffff ffffffff  ÿÿÿÿÿÿÿÿÿÿÿÿÿÿÿÿÿÿÿÿ
0000000740FF62BC:   ffffffff ffffffff ffffffff ffffffff ffffffff  ÿÿÿÿÿÿÿÿÿÿÿÿÿÿÿÿÿÿÿÿ
0000000740FF62D0:   ffffffff ffffffff ffffffff ffffffff ffffffff  ÿÿÿÿÿÿÿÿÿÿÿÿÿÿÿÿÿÿÿÿ
0000000740FF62E4:   ffffffff ffffffff ffffffff ffffffff ffffffff  ÿÿÿÿÿÿÿÿÿÿÿÿÿÿÿÿÿÿÿÿ
0000000740FF62F8:   ffffffff ffffffff ffffffff ffffffff ffffffff  ÿÿÿÿÿÿÿÿÿÿÿÿÿÿÿÿÿÿÿÿ
0000000740FF630C:   ffffffff ffffffff ffffffff ffffffff ffffffff  ÿÿÿÿÿÿÿÿÿÿÿÿÿÿÿÿÿÿÿÿ
0000000740FF6320:   ffffffff ffffffff ffffffff ffffffff ffffffff  ÿÿÿÿÿÿÿÿÿÿÿÿÿÿÿÿÿÿÿÿ
0000000740FF6334:   ffffffff ffffffff ffffffff ffffffff ffffffff  ÿÿÿÿÿÿÿÿÿÿÿÿÿÿÿÿÿÿÿÿ
0000000740FF6348:   ffffffff ffffffff ffffffff ffffffff ffffffff  ÿÿÿÿÿÿÿÿÿÿÿÿÿÿÿÿÿÿÿÿ
0000000740FF635C:   ffffffff ffffffff ffffffff ffffffff ffffffff  ÿÿÿÿÿÿÿÿÿÿÿÿÿÿÿÿÿÿÿÿ
0000000740FF6370:   ffffffff ffffffff ffffffff ffffffff ffffffff  ÿÿÿÿÿÿÿÿÿÿÿÿÿÿÿÿÿÿÿÿ
0000000740FF6384:   ffffffff ffffffff ffffffff ffffffff ffffffff  ÿÿÿÿÿÿÿÿÿÿÿÿÿÿÿÿÿÿÿÿ
0000000740FF6398:   ffffffff ffffffff ffffffff ffffffff ffffffff  ÿÿÿÿÿÿÿÿÿÿÿÿÿÿÿÿÿÿÿÿ
0000000740FF63AC:   ffffffff ffffffff ffffffff ffffffff ffffffff  ÿÿÿÿÿÿÿÿÿÿÿÿÿÿÿÿÿÿÿÿ
0000000740FF63C0:   ffffffff ffffffff ffffffff ffffffff ffffffff  ÿÿÿÿÿÿÿÿÿÿÿÿÿÿÿÿÿÿÿÿ
0000000740FF63D4:   ffffffff ffffffff ffffffff ffffffff ffffffff  ÿÿÿÿÿÿÿÿÿÿÿÿÿÿÿÿÿÿÿÿ
0000000740FF63E8:   ffffffff ffffffff ffffffff ffffffff ffffffff  ÿÿÿÿÿÿÿÿÿÿÿÿÿÿÿÿÿÿÿÿ
0000000740FF63FC:   ffffffff ffffffff ffffffff ffffffff ffffffff  ÿÿÿÿÿÿÿÿÿÿÿÿÿÿÿÿÿÿÿÿ
0000000740FF6410:   ffffffff ffffffff ffffffff ffffffff ffffffff  ÿÿÿÿÿÿÿÿÿÿÿÿÿÿÿÿÿÿÿÿ
0000000740FF6424:   ffffffff ffffffff ffffffff ffffffff ffffffff  ÿÿÿÿÿÿÿÿÿÿÿÿÿÿÿÿÿÿÿÿ
0000000740FF6438:   ffffffff ffffffff ffffffff ffffffff ffffffff  ÿÿÿÿÿÿÿÿÿÿÿÿÿÿÿÿÿÿÿÿ
0000000740FF644C:   ffffffff ffffffff ffffffff ffffffff ffffffff  ÿÿÿÿÿÿÿÿÿÿÿÿÿÿÿÿÿÿÿÿ
0000000740FF6460:   ffffffff ffffffff ffffffff ffffffff ffffffff  ÿÿÿÿÿÿÿÿÿÿÿÿÿÿÿÿÿÿÿÿ
0000000740FF6474:   ffffffff ffffffff ffffffff ffffffff ffffffff  ÿÿÿÿÿÿÿÿÿÿÿÿÿÿÿÿÿÿÿÿ
0000000740FF6488:   ffffffff ffffffff ffffffff ffffffff ffffffff  ÿÿÿÿÿÿÿÿÿÿÿÿÿÿÿÿÿÿÿÿ
0000000740FF649C:   ffffffff ffffffff ffffffff ffffffff ffffffff  ÿÿÿÿÿÿÿÿÿÿÿÿÿÿÿÿÿÿÿÿ
0000000740FF64B0:   ffffffff ffffffff ffffffff ffffffff ffffffff  ÿÿÿÿÿÿÿÿÿÿÿÿÿÿÿÿÿÿÿÿ
0000000740FF64C4:   ffffffff ffffffff ffffffff ffffffff ffffffff  ÿÿÿÿÿÿÿÿÿÿÿÿÿÿÿÿÿÿÿÿ
0000000740FF64D8:   ffffffff ffffffff ffffffff ffffffff ffffffff  ÿÿÿÿÿÿÿÿÿÿÿÿÿÿÿÿÿÿÿÿ
0000000740FF64EC:   ffffffff ffffffff ffffffff ffffffff ffffffff  ÿÿÿÿÿÿÿÿÿÿÿÿÿÿÿÿÿÿÿÿ
0000000740FF6500:   ffffffff ffffffff ffffffff ffffffff ffffffff  ÿÿÿÿÿÿÿÿÿÿÿÿÿÿÿÿÿÿÿÿ
0000000740FF6514:   ffffffff ffffffff ffffffff ffffffff ffffffff  ÿÿÿÿÿÿÿÿÿÿÿÿÿÿÿÿÿÿÿÿ
0000000740FF6528:   ffffffff ffffffff ffffffff ffffffff ffffffff  ÿÿÿÿÿÿÿÿÿÿÿÿÿÿÿÿÿÿÿÿ
0000000740FF653C:   ffffffff ffffffff ffffffff ffffffff ffffffff  ÿÿÿÿÿÿÿÿÿÿÿÿÿÿÿÿÿÿÿÿ
0000000740FF6550:   ffffffff ffffffff ffffffff ffffffff ffffffff  ÿÿÿÿÿÿÿÿÿÿÿÿÿÿÿÿÿÿÿÿ
0000000740FF6564:   ffffffff ffffffff ffffffff ffffffff ffffffff  ÿÿÿÿÿÿÿÿÿÿÿÿÿÿÿÿÿÿÿÿ
0000000740FF6578:   ffffffff ffffffff ffffffff ffffffff ffffffff  ÿÿÿÿÿÿÿÿÿÿÿÿÿÿÿÿÿÿÿÿ
0000000740FF658C:   ffffffff ffffffff ffffffff ffffffff ffffffff  ÿÿÿÿÿÿÿÿÿÿÿÿÿÿÿÿÿÿÿÿ
0000000740FF65A0:   ffffffff ffffffff ffffffff ffffffff ffffffff  ÿÿÿÿÿÿÿÿÿÿÿÿÿÿÿÿÿÿÿÿ
0000000740FF65B4:   ffffffff ffffffff ffffffff ffffffff ffffffff  ÿÿÿÿÿÿÿÿÿÿÿÿÿÿÿÿÿÿÿÿ
0000000740FF65C8:   ffffffff ffffffff ffffffff ffffffff ffffffff  ÿÿÿÿÿÿÿÿÿÿÿÿÿÿÿÿÿÿÿÿ
0000000740FF65DC:   ffffffff ffffffff ffffffff ffffffff ffffffff  ÿÿÿÿÿÿÿÿÿÿÿÿÿÿÿÿÿÿÿÿ
0000000740FF65F0:   ffffffff ffffffff ffffffff ffffffff ffffffff  ÿÿÿÿÿÿÿÿÿÿÿÿÿÿÿÿÿÿÿÿ
0000000740FF6604:   ffffffff ffffffff ffffffff ffffffff ffffffff  ÿÿÿÿÿÿÿÿÿÿÿÿÿÿÿÿÿÿÿÿ
0000000740FF6618:   ffffffff ffffffff ffffffff ffffffff ffffffff  ÿÿÿÿÿÿÿÿÿÿÿÿÿÿÿÿÿÿÿÿ
0000000740FF662C:   ffffffff ffffffff ffffffff ffffffff ffffffff  ÿÿÿÿÿÿÿÿÿÿÿÿÿÿÿÿÿÿÿÿ
0000000740FF6640:   ffffffff ffffffff ffffffff ffffffff ffffffff  ÿÿÿÿÿÿÿÿÿÿÿÿÿÿÿÿÿÿÿÿ
0000000740FF6654:   ffffffff ffffffff ffffffff ffffffff ffffffff  ÿÿÿÿÿÿÿÿÿÿÿÿÿÿÿÿÿÿÿÿ
0000000740FF6668:   ffffffff ffffffff ffffffff ffffffff ffffffff  ÿÿÿÿÿÿÿÿÿÿÿÿÿÿÿÿÿÿÿÿ
0000000740FF667C:   ffffffff ffffffff ffffffff ffffffff ffffffff  ÿÿÿÿÿÿÿÿÿÿÿÿÿÿÿÿÿÿÿÿ
0000000740FF6690:   ffffffff ffffffff ffffffff ffffffff ffffffff  ÿÿÿÿÿÿÿÿÿÿÿÿÿÿÿÿÿÿÿÿ
0000000740FF66A4:   ffffffff ffffffff ffffffff ffffffff ffffffff  ÿÿÿÿÿÿÿÿÿÿÿÿÿÿÿÿÿÿÿÿ
0000000740FF66B8:   ffffffff ffffffff ffffffff ffffffff ffffffff  ÿÿÿÿÿÿÿÿÿÿÿÿÿÿÿÿÿÿÿÿ
0000000740FF66CC:   ffffffff ffffffff ffffffff ffffffff ffffffff  ÿÿÿÿÿÿÿÿÿÿÿÿÿÿÿÿÿÿÿÿ
0000000740FF66E0:   ffffffff ffffffff ffffffff ffffffff ffffffff  ÿÿÿÿÿÿÿÿÿÿÿÿÿÿÿÿÿÿÿÿ
0000000740FF66F4:   ffffffff ffffffff ffffffff ffffffff ffffffff  ÿÿÿÿÿÿÿÿÿÿÿÿÿÿÿÿÿÿÿÿ
0000000740FF6708:   ffffffff ffffffff ffffffff ffffffff ffffffff  ÿÿÿÿÿÿÿÿÿÿÿÿÿÿÿÿÿÿÿÿ
0000000740FF671C:   ffffffff ffffffff ffffffff ffffffff ffffffff  ÿÿÿÿÿÿÿÿÿÿÿÿÿÿÿÿÿÿÿÿ
0000000740FF6730:   ffffffff ffffffff ffffffff ffffffff ffffffff  ÿÿÿÿÿÿÿÿÿÿÿÿÿÿÿÿÿÿÿÿ
0000000740FF6744:   ffffffff ffffffff ffffffff ffffffff ffffffff  ÿÿÿÿÿÿÿÿÿÿÿÿÿÿÿÿÿÿÿÿ
0000000740FF6758:   ffffffff ffffffff ffffffff ffffffff ffffffff  ÿÿÿÿÿÿÿÿÿÿÿÿÿÿÿÿÿÿÿÿ
0000000740FF676C:   ffffffff ffffffff ffffffff ffffffff ffffffff  ÿÿÿÿÿÿÿÿÿÿÿÿÿÿÿÿÿÿÿÿ
0000000740FF6780:   ffffffff ffffffff ffffffff ffffffff ffffffff  ÿÿÿÿÿÿÿÿÿÿÿÿÿÿÿÿÿÿÿÿ
0000000740FF6794:   ffffffff ffffffff ffffffff ffffffff ffffffff  ÿÿÿÿÿÿÿÿÿÿÿÿÿÿÿÿÿÿÿÿ
0000000740FF67A8:   ffffffff ffffffff ffffffff ffffffff ffffffff  ÿÿÿÿÿÿÿÿÿÿÿÿÿÿÿÿÿÿÿÿ
0000000740FF67BC:   ffffffff ffffffff ffffffff ffffffff ffffffff  ÿÿÿÿÿÿÿÿÿÿÿÿÿÿÿÿÿÿÿÿ
0000000740FF67D0:   ffffffff ffffffff ffffffff ffffffff ffffffff  ÿÿÿÿÿÿÿÿÿÿÿÿÿÿÿÿÿÿÿÿ
0000000740FF67E4:   ffffffff ffffffff ffffffff ffffffff ffffffff  ÿÿÿÿÿÿÿÿÿÿÿÿÿÿÿÿÿÿÿÿ
0000000740FF67F8:   ffffffff ffffffff ffffffff ffffffff ffffffff  ÿÿÿÿÿÿÿÿÿÿÿÿÿÿÿÿÿÿÿÿ
0000000740FF680C:   ffffffff ffffffff ffffffff ffffffff ffffffff  ÿÿÿÿÿÿÿÿÿÿÿÿÿÿÿÿÿÿÿÿ
0000000740FF6820:   ffffffff ffffffff ffffffff ffffffff ffffffff  ÿÿÿÿÿÿÿÿÿÿÿÿÿÿÿÿÿÿÿÿ
0000000740FF6834:   ffffffff ffffffff ffffffff ffffffff ffffffff  ÿÿÿÿÿÿÿÿÿÿÿÿÿÿÿÿÿÿÿÿ
0000000740FF6848:   ffffffff ffffffff ffffffff ffffffff ffffffff  ÿÿÿÿÿÿÿÿÿÿÿÿÿÿÿÿÿÿÿÿ
0000000740FF685C:   ffffffff ffffffff ffffffff ffffffff ffffffff  ÿÿÿÿÿÿÿÿÿÿÿÿÿÿÿÿÿÿÿÿ
0000000740FF6870:   ffffffff ffffffff ffffffff ffffffff ffffffff  ÿÿÿÿÿÿÿÿÿÿÿÿÿÿÿÿÿÿÿÿ
0000000740FF6884:   ffffffff ffffffff ffffffff ffffffff ffffffff  ÿÿÿÿÿÿÿÿÿÿÿÿÿÿÿÿÿÿÿÿ
0000000740FF6898:   ffffffff ffffffff ffffffff ffffffff ffffffff  ÿÿÿÿÿÿÿÿÿÿÿÿÿÿÿÿÿÿÿÿ
0000000740FF68AC:   ffffffff ffffffff ffffffff ffffffff ffffffff  ÿÿÿÿÿÿÿÿÿÿÿÿÿÿÿÿÿÿÿÿ
0000000740FF68C0:   ffffffff ffffffff ffffffff ffffffff ffffffff  ÿÿÿÿÿÿÿÿÿÿÿÿÿÿÿÿÿÿÿÿ
0000000740FF68D4:   ffffffff ffffffff ffffffff ffffffff ffffffff  ÿÿÿÿÿÿÿÿÿÿÿÿÿÿÿÿÿÿÿÿ
0000000740FF68E8:   ffffffff ffffffff ffffffff ffffffff ffffffff  ÿÿÿÿÿÿÿÿÿÿÿÿÿÿÿÿÿÿÿÿ
0000000740FF68FC:   ffffffff ffffffff ffffffff ffffffff ffffffff  ÿÿÿÿÿÿÿÿÿÿÿÿÿÿÿÿÿÿÿÿ
0000000740FF6910:   ffffffff ffffffff ffffffff ffffffff ffffffff  ÿÿÿÿÿÿÿÿÿÿÿÿÿÿÿÿÿÿÿÿ
0000000740FF6924:   ffffffff ffffffff ffffffff ffffffff ffffffff  ÿÿÿÿÿÿÿÿÿÿÿÿÿÿÿÿÿÿÿÿ
0000000740FF6938:   ffffffff ffffffff ffffffff ffffffff ffffffff  ÿÿÿÿÿÿÿÿÿÿÿÿÿÿÿÿÿÿÿÿ
0000000740FF694C:   ffffffff ffffffff ffffffff ffffffff ffffffff  ÿÿÿÿÿÿÿÿÿÿÿÿÿÿÿÿÿÿÿÿ
0000000740FF6960:   ffffffff ffffffff ffffffff ffffffff ffffffff  ÿÿÿÿÿÿÿÿÿÿÿÿÿÿÿÿÿÿÿÿ
0000000740FF6974:   ffffffff ffffffff ffffffff ffffffff ffffffff  ÿÿÿÿÿÿÿÿÿÿÿÿÿÿÿÿÿÿÿÿ
0000000740FF6988:   ffffffff ffffffff ffffffff ffffffff ffffffff  ÿÿÿÿÿÿÿÿÿÿÿÿÿÿÿÿÿÿÿÿ
0000000740FF699C:   ffffffff ffffffff ffffffff ffffffff ffffffff  ÿÿÿÿÿÿÿÿÿÿÿÿÿÿÿÿÿÿÿÿ
0000000740FF69B0:   ffffffff ffffffff ffffffff ffffffff ffffffff  ÿÿÿÿÿÿÿÿÿÿÿÿÿÿÿÿÿÿÿÿ
0000000740FF69C4:   ffffffff ffffffff ffffffff ffffffff ffffffff  ÿÿÿÿÿÿÿÿÿÿÿÿÿÿÿÿÿÿÿÿ
0000000740FF69D8:   ffffffff ffffffff ffffffff ffffffff ffffffff  ÿÿÿÿÿÿÿÿÿÿÿÿÿÿÿÿÿÿÿÿ
0000000740FF69EC:   ffffffff ffffffff ffffffff ffffffff ffffffff  ÿÿÿÿÿÿÿÿÿÿÿÿÿÿÿÿÿÿÿÿ
0000000740FF6A00:   ffffffff ffffffff ffffffff ffffffff ffffffff  ÿÿÿÿÿÿÿÿÿÿÿÿÿÿÿÿÿÿÿÿ
0000000740FF6A14:   ffffffff ffffffff ffffffff ffffffff ffffffff  ÿÿÿÿÿÿÿÿÿÿÿÿÿÿÿÿÿÿÿÿ
0000000740FF6A28:   ffffffff ffffffff ffffffff ffffffff ffffffff  ÿÿÿÿÿÿÿÿÿÿÿÿÿÿÿÿÿÿÿÿ
0000000740FF6A3C:   ffffffff ffffffff ffffffff ffffffff ffffffff  ÿÿÿÿÿÿÿÿÿÿÿÿÿÿÿÿÿÿÿÿ
0000000740FF6A50:   ffffffff ffffffff ffffffff ffffffff ffffffff  ÿÿÿÿÿÿÿÿÿÿÿÿÿÿÿÿÿÿÿÿ
0000000740FF6A64:   ffffffff ffffffff ffffffff ffffffff ffffffff  ÿÿÿÿÿÿÿÿÿÿÿÿÿÿÿÿÿÿÿÿ
0000000740FF6A78:   ffffffff ffffffff ffffffff ffffffff ffffffff  ÿÿÿÿÿÿÿÿÿÿÿÿÿÿÿÿÿÿÿÿ
0000000740FF6A8C:   ffffffff ffffffff ffffffff ffffffff ffffffff  ÿÿÿÿÿÿÿÿÿÿÿÿÿÿÿÿÿÿÿÿ
0000000740FF6AA0:   ffffffff ffffffff ffffffff ffffffff ffffffff  ÿÿÿÿÿÿÿÿÿÿÿÿÿÿÿÿÿÿÿÿ
0000000740FF6AB4:   ffffffff ffffffff ffffffff ffffffff ffffffff  ÿÿÿÿÿÿÿÿÿÿÿÿÿÿÿÿÿÿÿÿ
0000000740FF6AC8:   ffffffff ffffffff ffffffff ffffffff ffffffff  ÿÿÿÿÿÿÿÿÿÿÿÿÿÿÿÿÿÿÿÿ
0000000740FF6ADC:   ffffffff ffffffff ffffffff ffffffff ffffffff  ÿÿÿÿÿÿÿÿÿÿÿÿÿÿÿÿÿÿÿÿ
0000000740FF6AF0:   ffffffff ffffffff ffffffff ffffffff ffffffff  ÿÿÿÿÿÿÿÿÿÿÿÿÿÿÿÿÿÿÿÿ
0000000740FF6B04:   ffffffff ffffffff ffffffff ffffffff ffffffff  ÿÿÿÿÿÿÿÿÿÿÿÿÿÿÿÿÿÿÿÿ
0000000740FF6B18:   ffffffff ffffffff ffffffff ffffffff ffffffff  ÿÿÿÿÿÿÿÿÿÿÿÿÿÿÿÿÿÿÿÿ
0000000740FF6B2C:   ffffffff ffffffff ffffffff ffffffff ffffffff  ÿÿÿÿÿÿÿÿÿÿÿÿÿÿÿÿÿÿÿÿ
0000000740FF6B40:   ffffffff ffffffff ffffffff ffffffff ffffffff  ÿÿÿÿÿÿÿÿÿÿÿÿÿÿÿÿÿÿÿÿ
0000000740FF6B54:   ffffffff ffffffff ffffffff ffffffff ffffffff  ÿÿÿÿÿÿÿÿÿÿÿÿÿÿÿÿÿÿÿÿ
0000000740FF6B68:   ffffffff ffffffff ffffffff ffffffff ffffffff  ÿÿÿÿÿÿÿÿÿÿÿÿÿÿÿÿÿÿÿÿ
0000000740FF6B7C:   ffffffff ffffffff ffffffff ffffffff ffffffff  ÿÿÿÿÿÿÿÿÿÿÿÿÿÿÿÿÿÿÿÿ
0000000740FF6B90:   ffffffff ffffffff ffffffff ffffffff ffffffff  ÿÿÿÿÿÿÿÿÿÿÿÿÿÿÿÿÿÿÿÿ
0000000740FF6BA4:   ffffffff ffffffff ffffffff ffffffff ffffffff  ÿÿÿÿÿÿÿÿÿÿÿÿÿÿÿÿÿÿÿÿ
0000000740FF6BB8:   ffffffff ffffffff ffffffff ffffffff ffffffff  ÿÿÿÿÿÿÿÿÿÿÿÿÿÿÿÿÿÿÿÿ
0000000740FF6BCC:   ffffffff ffffffff ffffffff ffffffff ffffffff  ÿÿÿÿÿÿÿÿÿÿÿÿÿÿÿÿÿÿÿÿ
0000000740FF6BE0:   ffffffff ffffffff ffffffff ffffffff ffffffff  ÿÿÿÿÿÿÿÿÿÿÿÿÿÿÿÿÿÿÿÿ
0000000740FF6BF4:   ffffffff ffffffff ffffffff ffffffff ffffffff  ÿÿÿÿÿÿÿÿÿÿÿÿÿÿÿÿÿÿÿÿ
0000000740FF6C08:   ffffffff ffffffff ffffffff ffffffff ffffffff  ÿÿÿÿÿÿÿÿÿÿÿÿÿÿÿÿÿÿÿÿ
0000000740FF6C1C:   ffffffff ffffffff ffffffff ffffffff ffffffff  ÿÿÿÿÿÿÿÿÿÿÿÿÿÿÿÿÿÿÿÿ
0000000740FF6C30:   ffffffff ffffffff ffffffff ffffffff ffffffff  ÿÿÿÿÿÿÿÿÿÿÿÿÿÿÿÿÿÿÿÿ
0000000740FF6C44:   ffffffff ffffffff ffffffff ffffffff ffffffff  ÿÿÿÿÿÿÿÿÿÿÿÿÿÿÿÿÿÿÿÿ
0000000740FF6C58:   ffffffff ffffffff ffffffff ffffffff ffffffff  ÿÿÿÿÿÿÿÿÿÿÿÿÿÿÿÿÿÿÿÿ
0000000740FF6C6C:   ffffffff ffffffff ffffffff ffffffff ffffffff  ÿÿÿÿÿÿÿÿÿÿÿÿÿÿÿÿÿÿÿÿ
0000000740FF6C80:   ffffffff ffffffff ffffffff ffffffff ffffffff  ÿÿÿÿÿÿÿÿÿÿÿÿÿÿÿÿÿÿÿÿ
0000000740FF6C94:   ffffffff ffffffff ffffffff ffffffff ffffffff  ÿÿÿÿÿÿÿÿÿÿÿÿÿÿÿÿÿÿÿÿ
0000000740FF6CA8:   ffffffff ffffffff ffffffff ffffffff ffffffff  ÿÿÿÿÿÿÿÿÿÿÿÿÿÿÿÿÿÿÿÿ
0000000740FF6CBC:   ffffffff ffffffff ffffffff ffffffff ffffffff  ÿÿÿÿÿÿÿÿÿÿÿÿÿÿÿÿÿÿÿÿ
0000000740FF6CD0:   ffffffff ffffffff ffffffff ffffffff ffffffff  ÿÿÿÿÿÿÿÿÿÿÿÿÿÿÿÿÿÿÿÿ
0000000740FF6CE4:   ffffffff ffffffff ffffffff ffffffff ffffffff  ÿÿÿÿÿÿÿÿÿÿÿÿÿÿÿÿÿÿÿÿ
0000000740FF6CF8:   ffffffff ffffffff ffffffff ffffffff ffffffff  ÿÿÿÿÿÿÿÿÿÿÿÿÿÿÿÿÿÿÿÿ
0000000740FF6D0C:   ffffffff ffffffff ffffffff ffffffff ffffffff  ÿÿÿÿÿÿÿÿÿÿÿÿÿÿÿÿÿÿÿÿ
0000000740FF6D20:   ffffffff ffffffff ffffffff ffffffff ffffffff  ÿÿÿÿÿÿÿÿÿÿÿÿÿÿÿÿÿÿÿÿ
0000000740FF6D34:   ffffffff ffffffff ffffffff ffffffff ffffffff  ÿÿÿÿÿÿÿÿÿÿÿÿÿÿÿÿÿÿÿÿ
0000000740FF6D48:   ffffffff ffffffff ffffffff ffffffff ffffffff  ÿÿÿÿÿÿÿÿÿÿÿÿÿÿÿÿÿÿÿÿ
0000000740FF6D5C:   ffffffff ffffffff ffffffff ffffffff ffffffff  ÿÿÿÿÿÿÿÿÿÿÿÿÿÿÿÿÿÿÿÿ
0000000740FF6D70:   ffffffff ffffffff ffffffff ffffffff ffffffff  ÿÿÿÿÿÿÿÿÿÿÿÿÿÿÿÿÿÿÿÿ
0000000740FF6D84:   ffffffff ffffffff ffffffff ffffffff ffffffff  ÿÿÿÿÿÿÿÿÿÿÿÿÿÿÿÿÿÿÿÿ
0000000740FF6D98:   ffffffff ffffffff ffffffff ffffffff ffffffff  ÿÿÿÿÿÿÿÿÿÿÿÿÿÿÿÿÿÿÿÿ
0000000740FF6DAC:   ffffffff ffffffff ffffffff ffffffff ffffffff  ÿÿÿÿÿÿÿÿÿÿÿÿÿÿÿÿÿÿÿÿ
0000000740FF6DC0:   ffffffff ffffffff ffffffff ffffffff ffffffff  ÿÿÿÿÿÿÿÿÿÿÿÿÿÿÿÿÿÿÿÿ
0000000740FF6DD4:   ffffffff ffffffff ffffffff ffffffff ffffffff  ÿÿÿÿÿÿÿÿÿÿÿÿÿÿÿÿÿÿÿÿ
0000000740FF6DE8:   ffffffff ffffffff ffffffff ffffffff ffffffff  ÿÿÿÿÿÿÿÿÿÿÿÿÿÿÿÿÿÿÿÿ
0000000740FF6DFC:   ffffffff ffffffff ffffffff ffffffff ffffffff  ÿÿÿÿÿÿÿÿÿÿÿÿÿÿÿÿÿÿÿÿ
0000000740FF6E10:   ffffffff ffffffff ffffffff ffffffff ffffffff  ÿÿÿÿÿÿÿÿÿÿÿÿÿÿÿÿÿÿÿÿ
0000000740FF6E24:   ffffffff ffffffff ffffffff ffffffff ffffffff  ÿÿÿÿÿÿÿÿÿÿÿÿÿÿÿÿÿÿÿÿ
0000000740FF6E38:   ffffffff ffffffff ffffffff ffffffff ffffffff  ÿÿÿÿÿÿÿÿÿÿÿÿÿÿÿÿÿÿÿÿ
0000000740FF6E4C:   ffffffff ffffffff ffffffff ffffffff ffffffff  ÿÿÿÿÿÿÿÿÿÿÿÿÿÿÿÿÿÿÿÿ
0000000740FF6E60:   ffffffff ffffffff ffffffff ffffffff ffffffff  ÿÿÿÿÿÿÿÿÿÿÿÿÿÿÿÿÿÿÿÿ
0000000740FF6E74:   ffffffff ffffffff ffffffff ffffffff ffffffff  ÿÿÿÿÿÿÿÿÿÿÿÿÿÿÿÿÿÿÿÿ
0000000740FF6E88:   ffffffff ffffffff ffffffff ffffffff ffffffff  ÿÿÿÿÿÿÿÿÿÿÿÿÿÿÿÿÿÿÿÿ
0000000740FF6E9C:   ffffffff ffffffff ffffffff ffffffff ffffffff  ÿÿÿÿÿÿÿÿÿÿÿÿÿÿÿÿÿÿÿÿ
0000000740FF6EB0:   ffffffff ffffffff ffffffff ffffffff ffffffff  ÿÿÿÿÿÿÿÿÿÿÿÿÿÿÿÿÿÿÿÿ
0000000740FF6EC4:   ffffffff ffffffff ffffffff ffffffff ffffffff  ÿÿÿÿÿÿÿÿÿÿÿÿÿÿÿÿÿÿÿÿ
0000000740FF6ED8:   ffffffff ffffffff ffffffff ffffffff ffffffff  ÿÿÿÿÿÿÿÿÿÿÿÿÿÿÿÿÿÿÿÿ
0000000740FF6EEC:   ffffffff ffffffff ffffffff ffffffff ffffffff  ÿÿÿÿÿÿÿÿÿÿÿÿÿÿÿÿÿÿÿÿ
0000000740FF6F00:   ffffffff ffffffff ffffffff ffffffff ffffffff  ÿÿÿÿÿÿÿÿÿÿÿÿÿÿÿÿÿÿÿÿ
0000000740FF6F14:   ffffffff ffffffff ffffffff ffffffff ffffffff  ÿÿÿÿÿÿÿÿÿÿÿÿÿÿÿÿÿÿÿÿ
0000000740FF6F28:   ffffffff ffffffff ffffffff ffffffff ffffffff  ÿÿÿÿÿÿÿÿÿÿÿÿÿÿÿÿÿÿÿÿ
0000000740FF6F3C:   ffffffff ffffffff ffffffff ffffffff ffffffff  ÿÿÿÿÿÿÿÿÿÿÿÿÿÿÿÿÿÿÿÿ
0000000740FF6F50:   ffffffff ffffffff ffffffff ffffffff ffffffff  ÿÿÿÿÿÿÿÿÿÿÿÿÿÿÿÿÿÿÿÿ
0000000740FF6F64:   ffffffff ffffffff ffffffff ffffffff ffffffff  ÿÿÿÿÿÿÿÿÿÿÿÿÿÿÿÿÿÿÿÿ
0000000740FF6F78:   ffffffff ffffffff ffffffff ffffffff ffffffff  ÿÿÿÿÿÿÿÿÿÿÿÿÿÿÿÿÿÿÿÿ
0000000740FF6F8C:   ffffffff ffffffff ffffffff ffffffff ffffffff  ÿÿÿÿÿÿÿÿÿÿÿÿÿÿÿÿÿÿÿÿ
0000000740FF6FA0:   ffffffff ffffffff ffffffff ffffffff ffffffff  ÿÿÿÿÿÿÿÿÿÿÿÿÿÿÿÿÿÿÿÿ
0000000740FF6FB4:   ffffffff ffffffff ffffffff ffffffff ffffffff  ÿÿÿÿÿÿÿÿÿÿÿÿÿÿÿÿÿÿÿÿ
0000000740FF6FC8:   ffffffff ffffffff ffffffff ffffffff ffffffff  ÿÿÿÿÿÿÿÿÿÿÿÿÿÿÿÿÿÿÿÿ
0000000740FF6FDC:   ffffffff ffffffff ffffffff ffffffff ffffffff  ÿÿÿÿÿÿÿÿÿÿÿÿÿÿÿÿÿÿÿÿ
0000000740FF6FF0:   ffffffff ffffffff ffffffff ffffffff ffffffff  ÿÿÿÿÿÿÿÿÿÿÿÿÿÿÿÿÿÿÿÿ
0000000740FF7004:   ffffffff ffffffff ffffffff ffffffff ffffffff  ÿÿÿÿÿÿÿÿÿÿÿÿÿÿÿÿÿÿÿÿ
0000000740FF7018:   ffffffff ffffffff ffffffff ffffffff ffffffff  ÿÿÿÿÿÿÿÿÿÿÿÿÿÿÿÿÿÿÿÿ
0000000740FF702C:   ffffffff ffffffff ffffffff ffffffff ffffffff  ÿÿÿÿÿÿÿÿÿÿÿÿÿÿÿÿÿÿÿÿ
0000000740FF7040:   ffffffff ffffffff ffffffff ffffffff ffffffff  ÿÿÿÿÿÿÿÿÿÿÿÿÿÿÿÿÿÿÿÿ
0000000740FF7054:   ffffffff ffffffff ffffffff ffffffff ffffffff  ÿÿÿÿÿÿÿÿÿÿÿÿÿÿÿÿÿÿÿÿ
0000000740FF7068:   ffffffff ffffffff ffffffff ffffffff ffffffff  ÿÿÿÿÿÿÿÿÿÿÿÿÿÿÿÿÿÿÿÿ
0000000740FF707C:   ffffffff ffffffff ffffffff ffffffff ffffffff  ÿÿÿÿÿÿÿÿÿÿÿÿÿÿÿÿÿÿÿÿ
0000000740FF7090:   ffffffff ffffffff ffffffff ffffffff ffffffff  ÿÿÿÿÿÿÿÿÿÿÿÿÿÿÿÿÿÿÿÿ
0000000740FF70A4:   ffffffff ffffffff ffffffff ffffffff ffffffff  ÿÿÿÿÿÿÿÿÿÿÿÿÿÿÿÿÿÿÿÿ
0000000740FF70B8:   ffffffff ffffffff ffffffff ffffffff ffffffff  ÿÿÿÿÿÿÿÿÿÿÿÿÿÿÿÿÿÿÿÿ
0000000740FF70CC:   ffffffff ffffffff ffffffff ffffffff ffffffff  ÿÿÿÿÿÿÿÿÿÿÿÿÿÿÿÿÿÿÿÿ
0000000740FF70E0:   ffffffff ffffffff ffffffff ffffffff ffffffff  ÿÿÿÿÿÿÿÿÿÿÿÿÿÿÿÿÿÿÿÿ
0000000740FF70F4:   ffffffff ffffffff ffffffff ffffffff ffffffff  ÿÿÿÿÿÿÿÿÿÿÿÿÿÿÿÿÿÿÿÿ
0000000740FF7108:   ffffffff ffffffff ffffffff ffffffff ffffffff  ÿÿÿÿÿÿÿÿÿÿÿÿÿÿÿÿÿÿÿÿ
0000000740FF711C:   ffffffff ffffffff ffffffff ffffffff ffffffff  ÿÿÿÿÿÿÿÿÿÿÿÿÿÿÿÿÿÿÿÿ
0000000740FF7130:   ffffffff ffffffff ffffffff ffffffff ffffffff  ÿÿÿÿÿÿÿÿÿÿÿÿÿÿÿÿÿÿÿÿ
0000000740FF7144:   ffffffff ffffffff ffffffff ffffffff ffffffff  ÿÿÿÿÿÿÿÿÿÿÿÿÿÿÿÿÿÿÿÿ
0000000740FF7158:   ffffffff ffffffff ffffffff ffffffff ffffffff  ÿÿÿÿÿÿÿÿÿÿÿÿÿÿÿÿÿÿÿÿ
0000000740FF716C:   ffffffff ffffffff ffffffff ffffffff ffffffff  ÿÿÿÿÿÿÿÿÿÿÿÿÿÿÿÿÿÿÿÿ
0000000740FF7180:   ffffffff ffffffff ffffffff ffffffff ffffffff  ÿÿÿÿÿÿÿÿÿÿÿÿÿÿÿÿÿÿÿÿ
0000000740FF7194:   ffffffff ffffffff ffffffff ffffffff ffffffff  ÿÿÿÿÿÿÿÿÿÿÿÿÿÿÿÿÿÿÿÿ
0000000740FF71A8:   ffffffff ffffffff ffffffff ffffffff ffffffff  ÿÿÿÿÿÿÿÿÿÿÿÿÿÿÿÿÿÿÿÿ
0000000740FF71BC:   ffffffff ffffffff ffffffff ffffffff ffffffff  ÿÿÿÿÿÿÿÿÿÿÿÿÿÿÿÿÿÿÿÿ
0000000740FF71D0:   ffffffff ffffffff ffffffff ffffffff ffffffff  ÿÿÿÿÿÿÿÿÿÿÿÿÿÿÿÿÿÿÿÿ
0000000740FF71E4:   ffffffff ffffffff ffffffff ffffffff ffffffff  ÿÿÿÿÿÿÿÿÿÿÿÿÿÿÿÿÿÿÿÿ
0000000740FF71F8:   ffffffff ffffffff ffffffff ffffffff ffffffff  ÿÿÿÿÿÿÿÿÿÿÿÿÿÿÿÿÿÿÿÿ
0000000740FF720C:   ffffffff ffffffff ffffffff ffffffff ffffffff  ÿÿÿÿÿÿÿÿÿÿÿÿÿÿÿÿÿÿÿÿ
0000000740FF7220:   ffffffff ffffffff ffffffff ffffffff ffffffff  ÿÿÿÿÿÿÿÿÿÿÿÿÿÿÿÿÿÿÿÿ
0000000740FF7234:   ffffffff ffffffff ffffffff ffffffff ffffffff  ÿÿÿÿÿÿÿÿÿÿÿÿÿÿÿÿÿÿÿÿ
0000000740FF7248:   ffffffff ffffffff ffffffff ffffffff ffffffff  ÿÿÿÿÿÿÿÿÿÿÿÿÿÿÿÿÿÿÿÿ
0000000740FF725C:   ffffffff ffffffff ffffffff ffffffff ffffffff  ÿÿÿÿÿÿÿÿÿÿÿÿÿÿÿÿÿÿÿÿ
0000000740FF7270:   ffffffff ffffffff ffffffff ffffffff ffffffff  ÿÿÿÿÿÿÿÿÿÿÿÿÿÿÿÿÿÿÿÿ
0000000740FF7284:   ffffffff ffffffff ffffffff ffffffff ffffffff  ÿÿÿÿÿÿÿÿÿÿÿÿÿÿÿÿÿÿÿÿ
0000000740FF7298:   ffffffff ffffffff ffffffff ffffffff ffffffff  ÿÿÿÿÿÿÿÿÿÿÿÿÿÿÿÿÿÿÿÿ
0000000740FF72AC:   ffffffff ffffffff ffffffff ffffffff ffffffff  ÿÿÿÿÿÿÿÿÿÿÿÿÿÿÿÿÿÿÿÿ
0000000740FF72C0:   ffffffff ffffffff ffffffff ffffffff ffffffff  ÿÿÿÿÿÿÿÿÿÿÿÿÿÿÿÿÿÿÿÿ
0000000740FF72D4:   ffffffff ffffffff ffffffff ffffffff ffffffff  ÿÿÿÿÿÿÿÿÿÿÿÿÿÿÿÿÿÿÿÿ
0000000740FF72E8:   ffffffff ffffffff ffffffff ffffffff ffffffff  ÿÿÿÿÿÿÿÿÿÿÿÿÿÿÿÿÿÿÿÿ
0000000740FF72FC:   ffffffff ffffffff ffffffff ffffffff ffffffff  ÿÿÿÿÿÿÿÿÿÿÿÿÿÿÿÿÿÿÿÿ
0000000740FF7310:   ffffffff ffffffff ffffffff ffffffff ffffffff  ÿÿÿÿÿÿÿÿÿÿÿÿÿÿÿÿÿÿÿÿ
0000000740FF7324:   ffffffff ffffffff ffffffff ffffffff ffffffff  ÿÿÿÿÿÿÿÿÿÿÿÿÿÿÿÿÿÿÿÿ
0000000740FF7338:   ffffffff ffffffff ffffffff ffffffff ffffffff  ÿÿÿÿÿÿÿÿÿÿÿÿÿÿÿÿÿÿÿÿ
0000000740FF734C:   ffffffff ffffffff ffffffff ffffffff ffffffff  ÿÿÿÿÿÿÿÿÿÿÿÿÿÿÿÿÿÿÿÿ
0000000740FF7360:   ffffffff ffffffff ffffffff ffffffff ffffffff  ÿÿÿÿÿÿÿÿÿÿÿÿÿÿÿÿÿÿÿÿ
0000000740FF7374:   ffffffff ffffffff ffffffff ffffffff ffffffff  ÿÿÿÿÿÿÿÿÿÿÿÿÿÿÿÿÿÿÿÿ
0000000740FF7388:   ffffffff ffffffff ffffffff ffffffff ffffffff  ÿÿÿÿÿÿÿÿÿÿÿÿÿÿÿÿÿÿÿÿ
0000000740FF739C:   ffffffff ffffffff ffffffff ffffffff ffffffff  ÿÿÿÿÿÿÿÿÿÿÿÿÿÿÿÿÿÿÿÿ
0000000740FF73B0:   ffffffff ffffffff ffffffff ffffffff ffffffff  ÿÿÿÿÿÿÿÿÿÿÿÿÿÿÿÿÿÿÿÿ
0000000740FF73C4:   ffffffff ffffffff ffffffff ffffffff ffffffff  ÿÿÿÿÿÿÿÿÿÿÿÿÿÿÿÿÿÿÿÿ
0000000740FF73D8:   ffffffff ffffffff ffffffff ffffffff ffffffff  ÿÿÿÿÿÿÿÿÿÿÿÿÿÿÿÿÿÿÿÿ
0000000740FF73EC:   ffffffff ffffffff ffffffff ffffffff ffffffff  ÿÿÿÿÿÿÿÿÿÿÿÿÿÿÿÿÿÿÿÿ
0000000740FF7400:   ffffffff ffffffff ffffffff ffffffff ffffffff  ÿÿÿÿÿÿÿÿÿÿÿÿÿÿÿÿÿÿÿÿ
0000000740FF7414:   ffffffff ffffffff ffffffff ffffffff ffffffff  ÿÿÿÿÿÿÿÿÿÿÿÿÿÿÿÿÿÿÿÿ
0000000740FF7428:   ffffffff ffffffff ffffffff ffffffff ffffffff  ÿÿÿÿÿÿÿÿÿÿÿÿÿÿÿÿÿÿÿÿ
0000000740FF743C:   ffffffff ffffffff ffffffff ffffffff ffffffff  ÿÿÿÿÿÿÿÿÿÿÿÿÿÿÿÿÿÿÿÿ
0000000740FF7450:   ffffffff ffffffff ffffffff ffffffff ffffffff  ÿÿÿÿÿÿÿÿÿÿÿÿÿÿÿÿÿÿÿÿ
0000000740FF7464:   ffffffff ffffffff ffffffff ffffffff ffffffff  ÿÿÿÿÿÿÿÿÿÿÿÿÿÿÿÿÿÿÿÿ
0000000740FF7478:   ffffffff ffffffff ffffffff ffffffff ffffffff  ÿÿÿÿÿÿÿÿÿÿÿÿÿÿÿÿÿÿÿÿ
0000000740FF748C:   ffffffff ffffffff ffffffff ffffffff ffffffff  ÿÿÿÿÿÿÿÿÿÿÿÿÿÿÿÿÿÿÿÿ
0000000740FF74A0:   ffffffff ffffffff ffffffff ffffffff ffffffff  ÿÿÿÿÿÿÿÿÿÿÿÿÿÿÿÿÿÿÿÿ
0000000740FF74B4:   ffffffff ffffffff ffffffff ffffffff ffffffff  ÿÿÿÿÿÿÿÿÿÿÿÿÿÿÿÿÿÿÿÿ
0000000740FF74C8:   ffffffff ffffffff ffffffff ffffffff ffffffff  ÿÿÿÿÿÿÿÿÿÿÿÿÿÿÿÿÿÿÿÿ
0000000740FF74DC:   ffffffff ffffffff ffffffff ffffffff ffffffff  ÿÿÿÿÿÿÿÿÿÿÿÿÿÿÿÿÿÿÿÿ
0000000740FF74F0:   ffffffff ffffffff ffffffff ffffffff ffffffff  ÿÿÿÿÿÿÿÿÿÿÿÿÿÿÿÿÿÿÿÿ
0000000740FF7504:   ffffffff ffffffff ffffffff ffffffff ffffffff  ÿÿÿÿÿÿÿÿÿÿÿÿÿÿÿÿÿÿÿÿ
0000000740FF7518:   ffffffff ffffffff ffffffff ffffffff ffffffff  ÿÿÿÿÿÿÿÿÿÿÿÿÿÿÿÿÿÿÿÿ
0000000740FF752C:   ffffffff ffffffff ffffffff ffffffff ffffffff  ÿÿÿÿÿÿÿÿÿÿÿÿÿÿÿÿÿÿÿÿ
0000000740FF7540:   ffffffff ffffffff ffffffff ffffffff ffffffff  ÿÿÿÿÿÿÿÿÿÿÿÿÿÿÿÿÿÿÿÿ
0000000740FF7554:   ffffffff ffffffff ffffffff ffffffff ffffffff  ÿÿÿÿÿÿÿÿÿÿÿÿÿÿÿÿÿÿÿÿ
0000000740FF7568:   ffffffff ffffffff ffffffff ffffffff ffffffff  ÿÿÿÿÿÿÿÿÿÿÿÿÿÿÿÿÿÿÿÿ
0000000740FF757C:   ffffffff ffffffff ffffffff ffffffff ffffffff  ÿÿÿÿÿÿÿÿÿÿÿÿÿÿÿÿÿÿÿÿ
0000000740FF7590:   ffffffff ffffffff ffffffff ffffffff ffffffff  ÿÿÿÿÿÿÿÿÿÿÿÿÿÿÿÿÿÿÿÿ
0000000740FF75A4:   ffffffff ffffffff ffffffff ffffffff ffffffff  ÿÿÿÿÿÿÿÿÿÿÿÿÿÿÿÿÿÿÿÿ
0000000740FF75B8:   ffffffff ffffffff ffffffff ffffffff ffffffff  ÿÿÿÿÿÿÿÿÿÿÿÿÿÿÿÿÿÿÿÿ
0000000740FF75CC:   ffffffff ffffffff ffffffff ffffffff ffffffff  ÿÿÿÿÿÿÿÿÿÿÿÿÿÿÿÿÿÿÿÿ
0000000740FF75E0:   ffffffff ffffffff ffffffff ffffffff ffffffff  ÿÿÿÿÿÿÿÿÿÿÿÿÿÿÿÿÿÿÿÿ
0000000740FF75F4:   ffffffff ffffffff ffffffff ffffffff ffffffff  ÿÿÿÿÿÿÿÿÿÿÿÿÿÿÿÿÿÿÿÿ
0000000740FF7608:   ffffffff ffffffff ffffffff ffffffff ffffffff  ÿÿÿÿÿÿÿÿÿÿÿÿÿÿÿÿÿÿÿÿ
0000000740FF761C:   ffffffff ffffffff ffffffff ffffffff ffffffff  ÿÿÿÿÿÿÿÿÿÿÿÿÿÿÿÿÿÿÿÿ
0000000740FF7630:   ffffffff ffffffff ffffffff ffffffff ffffffff  ÿÿÿÿÿÿÿÿÿÿÿÿÿÿÿÿÿÿÿÿ
0000000740FF7644:   ffffffff ffffffff ffffffff ffffffff ffffffff  ÿÿÿÿÿÿÿÿÿÿÿÿÿÿÿÿÿÿÿÿ
0000000740FF7658:   ffffffff ffffffff ffffffff ffffffff ffffffff  ÿÿÿÿÿÿÿÿÿÿÿÿÿÿÿÿÿÿÿÿ
0000000740FF766C:   ffffffff ffffffff ffffffff ffffffff ffffffff  ÿÿÿÿÿÿÿÿÿÿÿÿÿÿÿÿÿÿÿÿ
0000000740FF7680:   ffffffff ffffffff ffffffff ffffffff ffffffff  ÿÿÿÿÿÿÿÿÿÿÿÿÿÿÿÿÿÿÿÿ
0000000740FF7694:   ffffffff ffffffff ffffffff ffffffff ffffffff  ÿÿÿÿÿÿÿÿÿÿÿÿÿÿÿÿÿÿÿÿ
0000000740FF76A8:   ffffffff ffffffff ffffffff ffffffff ffffffff  ÿÿÿÿÿÿÿÿÿÿÿÿÿÿÿÿÿÿÿÿ
0000000740FF76BC:   ffffffff ffffffff ffffffff ffffffff ffffffff  ÿÿÿÿÿÿÿÿÿÿÿÿÿÿÿÿÿÿÿÿ
0000000740FF76D0:   ffffffff ffffffff ffffffff ffffffff ffffffff  ÿÿÿÿÿÿÿÿÿÿÿÿÿÿÿÿÿÿÿÿ
0000000740FF76E4:   ffffffff ffffffff ffffffff ffffffff ffffffff  ÿÿÿÿÿÿÿÿÿÿÿÿÿÿÿÿÿÿÿÿ
0000000740FF76F8:   ffffffff ffffffff ffffffff ffffffff ffffffff  ÿÿÿÿÿÿÿÿÿÿÿÿÿÿÿÿÿÿÿÿ
0000000740FF770C:   ffffffff ffffffff ffffffff ffffffff ffffffff  ÿÿÿÿÿÿÿÿÿÿÿÿÿÿÿÿÿÿÿÿ
0000000740FF7720:   ffffffff ffffffff ffffffff ffffffff ffffffff  ÿÿÿÿÿÿÿÿÿÿÿÿÿÿÿÿÿÿÿÿ
0000000740FF7734:   ffffffff ffffffff ffffffff ffffffff ffffffff  ÿÿÿÿÿÿÿÿÿÿÿÿÿÿÿÿÿÿÿÿ
0000000740FF7748:   ffffffff ffffffff ffffffff ffffffff ffffffff  ÿÿÿÿÿÿÿÿÿÿÿÿÿÿÿÿÿÿÿÿ
0000000740FF775C:   ffffffff ffffffff ffffffff ffffffff ffffffff  ÿÿÿÿÿÿÿÿÿÿÿÿÿÿÿÿÿÿÿÿ
0000000740FF7770:   ffffffff ffffffff ffffffff ffffffff ffffffff  ÿÿÿÿÿÿÿÿÿÿÿÿÿÿÿÿÿÿÿÿ
0000000740FF7784:   ffffffff ffffffff ffffffff ffffffff ffffffff  ÿÿÿÿÿÿÿÿÿÿÿÿÿÿÿÿÿÿÿÿ
0000000740FF7798:   ffffffff ffffffff ffffffff ffffffff ffffffff  ÿÿÿÿÿÿÿÿÿÿÿÿÿÿÿÿÿÿÿÿ
0000000740FF77AC:   ffffffff ffffffff ffffffff ffffffff ffffffff  ÿÿÿÿÿÿÿÿÿÿÿÿÿÿÿÿÿÿÿÿ
0000000740FF77C0:   ffffffff ffffffff ffffffff ffffffff ffffffff  ÿÿÿÿÿÿÿÿÿÿÿÿÿÿÿÿÿÿÿÿ
0000000740FF77D4:   ffffffff ffffffff ffffffff ffffffff ffffffff  ÿÿÿÿÿÿÿÿÿÿÿÿÿÿÿÿÿÿÿÿ
0000000740FF77E8:   ffffffff ffffffff ffffffff ffffffff ffffffff  ÿÿÿÿÿÿÿÿÿÿÿÿÿÿÿÿÿÿÿÿ
0000000740FF77FC:   ffffffff ffffffff ffffffff ffffffff ffffffff  ÿÿÿÿÿÿÿÿÿÿÿÿÿÿÿÿÿÿÿÿ
0000000740FF7810:   ffffffff ffffffff ffffffff ffffffff ffffffff  ÿÿÿÿÿÿÿÿÿÿÿÿÿÿÿÿÿÿÿÿ
0000000740FF7824:   ffffffff ffffffff ffffffff ffffffff ffffffff  ÿÿÿÿÿÿÿÿÿÿÿÿÿÿÿÿÿÿÿÿ
0000000740FF7838:   ffffffff ffffffff ffffffff ffffffff ffffffff  ÿÿÿÿÿÿÿÿÿÿÿÿÿÿÿÿÿÿÿÿ
0000000740FF784C:   ffffffff ffffffff ffffffff ffffffff ffffffff  ÿÿÿÿÿÿÿÿÿÿÿÿÿÿÿÿÿÿÿÿ
0000000740FF7860:   ffffffff ffffffff ffffffff ffffffff ffffffff  ÿÿÿÿÿÿÿÿÿÿÿÿÿÿÿÿÿÿÿÿ
0000000740FF7874:   ffffffff ffffffff ffffffff ffffffff ffffffff  ÿÿÿÿÿÿÿÿÿÿÿÿÿÿÿÿÿÿÿÿ
0000000740FF7888:   ffffffff ffffffff ffffffff ffffffff ffffffff  ÿÿÿÿÿÿÿÿÿÿÿÿÿÿÿÿÿÿÿÿ
0000000740FF789C:   ffffffff ffffffff ffffffff ffffffff ffffffff  ÿÿÿÿÿÿÿÿÿÿÿÿÿÿÿÿÿÿÿÿ
0000000740FF78B0:   ffffffff ffffffff ffffffff ffffffff ffffffff  ÿÿÿÿÿÿÿÿÿÿÿÿÿÿÿÿÿÿÿÿ
0000000740FF78C4:   ffffffff ffffffff ffffffff ffffffff ffffffff  ÿÿÿÿÿÿÿÿÿÿÿÿÿÿÿÿÿÿÿÿ
0000000740FF78D8:   ffffffff ffffffff ffffffff ffffffff ffffffff  ÿÿÿÿÿÿÿÿÿÿÿÿÿÿÿÿÿÿÿÿ
0000000740FF78EC:   ffffffff ffffffff ffffffff ffffffff ffffffff  ÿÿÿÿÿÿÿÿÿÿÿÿÿÿÿÿÿÿÿÿ
0000000740FF7900:   ffffffff ffffffff ffffffff ffffffff ffffffff  ÿÿÿÿÿÿÿÿÿÿÿÿÿÿÿÿÿÿÿÿ
0000000740FF7914:   ffffffff ffffffff ffffffff ffffffff ffffffff  ÿÿÿÿÿÿÿÿÿÿÿÿÿÿÿÿÿÿÿÿ
0000000740FF7928:   ffffffff ffffffff ffffffff ffffffff ffffffff  ÿÿÿÿÿÿÿÿÿÿÿÿÿÿÿÿÿÿÿÿ
0000000740FF793C:   ffffffff ffffffff ffffffff ffffffff ffffffff  ÿÿÿÿÿÿÿÿÿÿÿÿÿÿÿÿÿÿÿÿ
0000000740FF7950:   ffffffff ffffffff ffffffff ffffffff ffffffff  ÿÿÿÿÿÿÿÿÿÿÿÿÿÿÿÿÿÿÿÿ
0000000740FF7964:   ffffffff ffffffff ffffffff ffffffff ffffffff  ÿÿÿÿÿÿÿÿÿÿÿÿÿÿÿÿÿÿÿÿ
0000000740FF7978:   ffffffff ffffffff ffffffff ffffffff ffffffff  ÿÿÿÿÿÿÿÿÿÿÿÿÿÿÿÿÿÿÿÿ
0000000740FF798C:   ffffffff ffffffff ffffffff ffffffff ffffffff  ÿÿÿÿÿÿÿÿÿÿÿÿÿÿÿÿÿÿÿÿ
0000000740FF79A0:   ffffffff ffffffff ffffffff ffffffff ffffffff  ÿÿÿÿÿÿÿÿÿÿÿÿÿÿÿÿÿÿÿÿ
0000000740FF79B4:   ffffffff ffffffff ffffffff ffffffff ffffffff  ÿÿÿÿÿÿÿÿÿÿÿÿÿÿÿÿÿÿÿÿ
0000000740FF79C8:   ffffffff ffffffff ffffffff ffffffff ffffffff  ÿÿÿÿÿÿÿÿÿÿÿÿÿÿÿÿÿÿÿÿ
0000000740FF79DC:   ffffffff ffffffff ffffffff ffffffff ffffffff  ÿÿÿÿÿÿÿÿÿÿÿÿÿÿÿÿÿÿÿÿ
0000000740FF79F0:   ffffffff ffffffff ffffffff ffffffff ffffffff  ÿÿÿÿÿÿÿÿÿÿÿÿÿÿÿÿÿÿÿÿ
0000000740FF7A04:   ffffffff ffffffff ffffffff ffffffff ffffffff  ÿÿÿÿÿÿÿÿÿÿÿÿÿÿÿÿÿÿÿÿ
0000000740FF7A18:   ffffffff ffffffff ffffffff ffffffff ffffffff  ÿÿÿÿÿÿÿÿÿÿÿÿÿÿÿÿÿÿÿÿ
0000000740FF7A2C:   ffffffff ffffffff ffffffff ffffffff ffffffff  ÿÿÿÿÿÿÿÿÿÿÿÿÿÿÿÿÿÿÿÿ
0000000740FF7A40:   ffffffff ffffffff ffffffff ffffffff ffffffff  ÿÿÿÿÿÿÿÿÿÿÿÿÿÿÿÿÿÿÿÿ
0000000740FF7A54:   ffffffff ffffffff ffffffff ffffffff ffffffff  ÿÿÿÿÿÿÿÿÿÿÿÿÿÿÿÿÿÿÿÿ
0000000740FF7A68:   ffffffff ffffffff ffffffff ffffffff ffffffff  ÿÿÿÿÿÿÿÿÿÿÿÿÿÿÿÿÿÿÿÿ
0000000740FF7A7C:   ffffffff ffffffff ffffffff ffffffff ffffffff  ÿÿÿÿÿÿÿÿÿÿÿÿÿÿÿÿÿÿÿÿ
0000000740FF7A90:   ffffffff ffffffff ffffffff ffffffff ffffffff  ÿÿÿÿÿÿÿÿÿÿÿÿÿÿÿÿÿÿÿÿ
0000000740FF7AA4:   ffffffff ffffffff ffffffff ffffffff ffffffff  ÿÿÿÿÿÿÿÿÿÿÿÿÿÿÿÿÿÿÿÿ
0000000740FF7AB8:   ffffffff ffffffff ffffffff ffffffff ffffffff  ÿÿÿÿÿÿÿÿÿÿÿÿÿÿÿÿÿÿÿÿ
0000000740FF7ACC:   ffffffff ffffffff ffffffff ffffffff ffffffff  ÿÿÿÿÿÿÿÿÿÿÿÿÿÿÿÿÿÿÿÿ
0000000740FF7AE0:   ffffffff ffffffff ffffffff ffffffff ffffffff  ÿÿÿÿÿÿÿÿÿÿÿÿÿÿÿÿÿÿÿÿ
0000000740FF7AF4:   ffffffff ffffffff ffffffff ffffffff ffffffff  ÿÿÿÿÿÿÿÿÿÿÿÿÿÿÿÿÿÿÿÿ
0000000740FF7B08:   ffffffff ffffffff ffffffff ffffffff ffffffff  ÿÿÿÿÿÿÿÿÿÿÿÿÿÿÿÿÿÿÿÿ
0000000740FF7B1C:   ffffffff ffffffff ffffffff ffffffff ffffffff  ÿÿÿÿÿÿÿÿÿÿÿÿÿÿÿÿÿÿÿÿ
0000000740FF7B30:   ffffffff ffffffff ffffffff ffffffff ffffffff  ÿÿÿÿÿÿÿÿÿÿÿÿÿÿÿÿÿÿÿÿ
0000000740FF7B44:   ffffffff ffffffff ffffffff ffffffff ffffffff  ÿÿÿÿÿÿÿÿÿÿÿÿÿÿÿÿÿÿÿÿ
0000000740FF7B58:   ffffffff ffffffff ffffffff ffffffff ffffffff  ÿÿÿÿÿÿÿÿÿÿÿÿÿÿÿÿÿÿÿÿ
0000000740FF7B6C:   ffffffff ffffffff ffffffff ffffffff ffffffff  ÿÿÿÿÿÿÿÿÿÿÿÿÿÿÿÿÿÿÿÿ
0000000740FF7B80:   ffffffff ffffffff ffffffff ffffffff ffffffff  ÿÿÿÿÿÿÿÿÿÿÿÿÿÿÿÿÿÿÿÿ
0000000740FF7B94:   ffffffff ffffffff ffffffff ffffffff ffffffff  ÿÿÿÿÿÿÿÿÿÿÿÿÿÿÿÿÿÿÿÿ
0000000740FF7BA8:   ffffffff ffffffff ffffffff ffffffff ffffffff  ÿÿÿÿÿÿÿÿÿÿÿÿÿÿÿÿÿÿÿÿ
0000000740FF7BBC:   ffffffff ffffffff ffffffff ffffffff ffffffff  ÿÿÿÿÿÿÿÿÿÿÿÿÿÿÿÿÿÿÿÿ
0000000740FF7BD0:   ffffffff ffffffff ffffffff ffffffff ffffffff  ÿÿÿÿÿÿÿÿÿÿÿÿÿÿÿÿÿÿÿÿ
0000000740FF7BE4:   ffffffff ffffffff ffffffff ffffffff ffffffff  ÿÿÿÿÿÿÿÿÿÿÿÿÿÿÿÿÿÿÿÿ
0000000740FF7BF8:   ffffffff ffffffff ffffffff ffffffff ffffffff  ÿÿÿÿÿÿÿÿÿÿÿÿÿÿÿÿÿÿÿÿ
0000000740FF7C0C:   ffffffff ffffffff ffffffff ffffffff ffffffff  ÿÿÿÿÿÿÿÿÿÿÿÿÿÿÿÿÿÿÿÿ
0000000740FF7C20:   ffffffff ffffffff ffffffff ffffffff ffffffff  ÿÿÿÿÿÿÿÿÿÿÿÿÿÿÿÿÿÿÿÿ
0000000740FF7C34:   ffffffff ffffffff ffffffff ffffffff ffffffff  ÿÿÿÿÿÿÿÿÿÿÿÿÿÿÿÿÿÿÿÿ
0000000740FF7C48:   ffffffff ffffffff ffffffff ffffffff ffffffff  ÿÿÿÿÿÿÿÿÿÿÿÿÿÿÿÿÿÿÿÿ
0000000740FF7C5C:   ffffffff ffffffff ffffffff ffffffff ffffffff  ÿÿÿÿÿÿÿÿÿÿÿÿÿÿÿÿÿÿÿÿ
0000000740FF7C70:   ffffffff ffffffff ffffffff ffffffff ffffffff  ÿÿÿÿÿÿÿÿÿÿÿÿÿÿÿÿÿÿÿÿ
0000000740FF7C84:   ffffffff ffffffff ffffffff ffffffff ffffffff  ÿÿÿÿÿÿÿÿÿÿÿÿÿÿÿÿÿÿÿÿ
0000000740FF7C98:   ffffffff ffffffff ffffffff ffffffff ffffffff  ÿÿÿÿÿÿÿÿÿÿÿÿÿÿÿÿÿÿÿÿ
0000000740FF7CAC:   ffffffff ffffffff ffffffff ffffffff ffffffff  ÿÿÿÿÿÿÿÿÿÿÿÿÿÿÿÿÿÿÿÿ
0000000740FF7CC0:   ffffffff ffffffff ffffffff ffffffff ffffffff  ÿÿÿÿÿÿÿÿÿÿÿÿÿÿÿÿÿÿÿÿ
0000000740FF7CD4:   ffffffff ffffffff ffffffff ffffffff ffffffff  ÿÿÿÿÿÿÿÿÿÿÿÿÿÿÿÿÿÿÿÿ
0000000740FF7CE8:   ffffffff ffffffff ffffffff ffffffff ffffffff  ÿÿÿÿÿÿÿÿÿÿÿÿÿÿÿÿÿÿÿÿ
0000000740FF7CFC:   ffffffff ffffffff ffffffff ffffffff ffffffff  ÿÿÿÿÿÿÿÿÿÿÿÿÿÿÿÿÿÿÿÿ
0000000740FF7D10:   ffffffff ffffffff ffffffff ffffffff ffffffff  ÿÿÿÿÿÿÿÿÿÿÿÿÿÿÿÿÿÿÿÿ
0000000740FF7D24:   ffffffff ffffffff ffffffff ffffffff ffffffff  ÿÿÿÿÿÿÿÿÿÿÿÿÿÿÿÿÿÿÿÿ
0000000740FF7D38:   ffffffff ffffffff ffffffff ffffffff ffffffff  ÿÿÿÿÿÿÿÿÿÿÿÿÿÿÿÿÿÿÿÿ
0000000740FF7D4C:   ffffffff ffffffff ffffffff ffffffff ffffffff  ÿÿÿÿÿÿÿÿÿÿÿÿÿÿÿÿÿÿÿÿ
0000000740FF7D60:   ffffffff ffffffff ffffffff ffffffff ffffffff  ÿÿÿÿÿÿÿÿÿÿÿÿÿÿÿÿÿÿÿÿ
0000000740FF7D74:   ffffffff ffffffff ffffffff ffffffff ffffffff  ÿÿÿÿÿÿÿÿÿÿÿÿÿÿÿÿÿÿÿÿ
0000000740FF7D88:   ffffffff ffffffff ffffffff ffffffff ffffffff  ÿÿÿÿÿÿÿÿÿÿÿÿÿÿÿÿÿÿÿÿ
0000000740FF7D9C:   ffffffff ffffffff ffffffff ffffffff ffffffff  ÿÿÿÿÿÿÿÿÿÿÿÿÿÿÿÿÿÿÿÿ
0000000740FF7DB0:   ffffffff ffffffff ffffffff ffffffff ffffffff  ÿÿÿÿÿÿÿÿÿÿÿÿÿÿÿÿÿÿÿÿ
0000000740FF7DC4:   ffffffff ffffffff ffffffff ffffffff ffffffff  ÿÿÿÿÿÿÿÿÿÿÿÿÿÿÿÿÿÿÿÿ
0000000740FF7DD8:   ffffffff ffffffff ffffffff ffffffff ffffffff  ÿÿÿÿÿÿÿÿÿÿÿÿÿÿÿÿÿÿÿÿ
0000000740FF7DEC:   ffffffff ffffffff ffffffff ffffffff ffffffff  ÿÿÿÿÿÿÿÿÿÿÿÿÿÿÿÿÿÿÿÿ
0000000740FF7E00:   ffffffff ffffffff ffffffff ffffffff ffffffff  ÿÿÿÿÿÿÿÿÿÿÿÿÿÿÿÿÿÿÿÿ
0000000740FF7E14:   ffffffff ffffffff ffffffff ffffffff ffffffff  ÿÿÿÿÿÿÿÿÿÿÿÿÿÿÿÿÿÿÿÿ
0000000740FF7E28:   ffffffff ffffffff ffffffff ffffffff ffffffff  ÿÿÿÿÿÿÿÿÿÿÿÿÿÿÿÿÿÿÿÿ
0000000740FF7E3C:   ffffffff ffffffff ffffffff ffffffff ffffffff  ÿÿÿÿÿÿÿÿÿÿÿÿÿÿÿÿÿÿÿÿ
0000000740FF7E50:   ffffffff ffffffff ffffffff ffffffff ffffffff  ÿÿÿÿÿÿÿÿÿÿÿÿÿÿÿÿÿÿÿÿ
0000000740FF7E64:   ffffffff ffffffff ffffffff ffffffff ffffffff  ÿÿÿÿÿÿÿÿÿÿÿÿÿÿÿÿÿÿÿÿ
0000000740FF7E78:   ffffffff ffffffff ffffffff ffffffff ffffffff  ÿÿÿÿÿÿÿÿÿÿÿÿÿÿÿÿÿÿÿÿ
0000000740FF7E8C:   ffffffff ffffffff ffffffff ffffffff ffffffff  ÿÿÿÿÿÿÿÿÿÿÿÿÿÿÿÿÿÿÿÿ
0000000740FF7EA0:   ffffffff ffffffff ffffffff ffffffff ffffffff  ÿÿÿÿÿÿÿÿÿÿÿÿÿÿÿÿÿÿÿÿ
0000000740FF7EB4:   ffffffff ffffffff ffffffff ffffffff ffffffff  ÿÿÿÿÿÿÿÿÿÿÿÿÿÿÿÿÿÿÿÿ
0000000740FF7EC8:   ffffffff ffffffff ffffffff ffffffff ffffffff  ÿÿÿÿÿÿÿÿÿÿÿÿÿÿÿÿÿÿÿÿ
0000000740FF7EDC:   ffffffff ffffffff ffffffff ffffffff ffffffff  ÿÿÿÿÿÿÿÿÿÿÿÿÿÿÿÿÿÿÿÿ
0000000740FF7EF0:   ffffffff ffffffff ffffffff ffffffff ffffffff  ÿÿÿÿÿÿÿÿÿÿÿÿÿÿÿÿÿÿÿÿ
0000000740FF7F04:   ffffffff ffffffff ffffffff ffffffff ffffffff  ÿÿÿÿÿÿÿÿÿÿÿÿÿÿÿÿÿÿÿÿ
0000000740FF7F18:   ffffffff ffffffff ffffffff ffffffff ffffffff  ÿÿÿÿÿÿÿÿÿÿÿÿÿÿÿÿÿÿÿÿ
0000000740FF7F2C:   ffffffff ffffffff ffffffff ffffffff ffffffff  ÿÿÿÿÿÿÿÿÿÿÿÿÿÿÿÿÿÿÿÿ
0000000740FF7F40:   ffffffff ffffffff ffffffff ffffffff ffffffff  ÿÿÿÿÿÿÿÿÿÿÿÿÿÿÿÿÿÿÿÿ
0000000740FF7F54:   ffffffff ffffffff ffffffff ffffffff ffffffff  ÿÿÿÿÿÿÿÿÿÿÿÿÿÿÿÿÿÿÿÿ
0000000740FF7F68:   ffffffff ffffffff ffffffff ffffffff ffffffff  ÿÿÿÿÿÿÿÿÿÿÿÿÿÿÿÿÿÿÿÿ
0000000740FF7F7C:   ffffffff ffffffff ffffffff ffffffff ffffffff  ÿÿÿÿÿÿÿÿÿÿÿÿÿÿÿÿÿÿÿÿ
0000000740FF7F90:   ffffffff ffffffff ffffffff ffffffff ffffffff  ÿÿÿÿÿÿÿÿÿÿÿÿÿÿÿÿÿÿÿÿ
0000000740FF7FA4:   ffffffff ffffffff ffffffff ffffffff ffffffff  ÿÿÿÿÿÿÿÿÿÿÿÿÿÿÿÿÿÿÿÿ
0000000740FF7FB8:   ffffffff ffffffff ffffffff ffffffff ffffffff  ÿÿÿÿÿÿÿÿÿÿÿÿÿÿÿÿÿÿÿÿ
0000000740FF7FCC:   ffffffff ffffffff ffffffff ffffffff ffffffff  ÿÿÿÿÿÿÿÿÿÿÿÿÿÿÿÿÿÿÿÿ
0000000740FF7FE0:   ffffffff ffffffff ffffffff ffffffff ffffffff  ÿÿÿÿÿÿÿÿÿÿÿÿÿÿÿÿÿÿÿÿ
0000000740FF7FF4:   ffff0000 00000000 be006000                    ÿÿ......¾.`.


DBCC execution completed. If DBCC printed error messages, contact your system administrator.

Completion time: 2023-12-13T17:00:39.6603759+00:00
