DBCC execution completed. If DBCC printed error messages, contact your system administrator.

PAGE: (1:9)


BUFFER:


BUF @0x000001F77BBEF6C0

bpage = 0x000001EADB26C000          bPmmpage = 0x0000000000000000       bsort_r_nextbP = 0x000001F77BBEF490
bsort_r_prevbP = 0x000001F77BBEF240 bhash = 0x0000000000000000          bpageno = (1:9)
bpart = 5                           bstat = 0x9                         breferences = 0
berrcode = 0                        bUse1 = 39949                       bstat2 = 0x0
blog = 0x15ab215a                   bsampleCount = 0                    bIoCount = 0
resPoolId = 0                       bcputicks = 0                       bReadMicroSec = 774
bDirtyPendingCount = 0              bDirtyContext = 0x0000000000000000  bDbPageBroker = 0x0000000000000000
bdbid = 9                           bpru = 0x000001EABE9A8040           

PAGE HEADER:


Page @0x000001EADB26C000

m_pageId = (1:9)                    m_headerVersion = 1                 m_type = 13
m_typeFlagBits = 0x0                m_level = 0                         m_flagBits = 0x200
m_objId (AllocUnitId.idObj) = 99    m_indexId (AllocUnitId.idInd) = 0   Metadata: AllocUnitId = 6488064
Metadata: PartitionId = 0           Metadata: IndexId = 0               Metadata: ObjectId = 99
m_prevPage = (0:0)                  m_nextPage = (0:0)                  pminlen = 0
m_slotCnt = 1                       m_freeCnt = 6308                    m_freeData = 1882
m_reservedCnt = 0                   m_lsn = (53:30797:3)                m_xactReserved = 0
m_xdesId = (0:0)                    m_ghostRecCnt = 0                   m_tornBits = 1593253910
DB Frag ID = 1                      

Allocation Status

GAM (1:2) = ALLOCATED               SGAM (1:3) = NOT ALLOCATED          PFS (1:1) = 0x64 MIXED_EXT ALLOCATED 100_PCT_FULL
DIFF (1:6) = CHANGED                ML (1:7) = NOT MIN_LOGGED           

DATA:


Memory Dump @0x0000005CBEC76000

0000005CBEC76000:   010d0000 00020000 00000000 00000000 00000000  ....................
0000005CBEC76014:   00000100 63000000 a4185a07 09000000 01000000  ....c...¤.Z.	.......
0000005CBEC76028:   35000000 4d780000 03000000 00000000 00000000  5...Mx..............
0000005CBEC7603C:   1620f75e 00000000 00000000 00000000 00000000  . ÷^................
0000005CBEC76050:   00000000 00000000 00000000 00000000 0000fa06  ..................ú.
0000005CBEC76064:   bd038803 00000000 00000000 00000000 00000000  ½...................
0000005CBEC76078:   00000000 00000000 00000000 08008100 755c907b  ................u\.{
0000005CBEC7608C:   e1f7cc00 d6b00000 41006400 76006500 6e007400  á÷Ì.Ö°..A.d.v.e.n.t.
0000005CBEC760A0:   75007200 65005700 6f007200 6b007300 32003000  u.r.e.W.o.r.k.s.2.0.
0000005CBEC760B4:   32003200 20002000 20002000 20002000 20002000  2.2. . . . . . . . .
0000005CBEC760C8:   20002000 20002000 20002000 20002000 20002000   . . . . . . . . . .
0000005CBEC760DC:   20002000 20002000 20002000 20002000 20002000   . . . . . . . . . .
0000005CBEC760F0:   20002000 20002000 20002000 20002000 20002000   . . . . . . . . . .
0000005CBEC76104:   20002000 20002000 20002000 20002000 20002000   . . . . . . . . . .
0000005CBEC76118:   20002000 20002000 20002000 20002000 20002000   . . . . . . . . . .
0000005CBEC7612C:   20002000 20002000 20002000 20002000 20002000   . . . . . . . . . .
0000005CBEC76140:   20002000 20002000 20002000 20002000 20002000   . . . . . . . . . .
0000005CBEC76154:   20002000 20002000 20002000 20002000 20002000   . . . . . . . . . .
0000005CBEC76168:   20002000 20002000 20002000 20002000 20002000   . . . . . . . . . .
0000005CBEC7617C:   20002000 20002000 20002000 20002000 20002000   . . . . . . . . . .
0000005CBEC76190:   20002000 24000000 0900a000 00fa0000 00000000   . .$...	. ..ú......
0000005CBEC761A4:   00000000 00000000 00000000 35000000 39780000  ............5...9x..
0000005CBEC761B8:   25000600 35000000 39780000 25000200 00000000  %...5...9x..%.......
0000005CBEC761CC:   00000000 00000000 35000000 39780000 25000000  ........5...9x..%...
0000005CBEC761E0:   17190000 00000000 08d00034 00000000 00308175  .........Ð.4.....0.u
0000005CBEC761F4:   00000000 bdfe943e ca984f42 87875dd2 4a6e3976  ....½þ>Ê.OB]ÒJn9v
0000005CBEC76208:   00702701 00000000 00000000 00000000 00000000  .p'.................
0000005CBEC7621C:   35000000 10740000 01000000 a4c551c3 867c4640  5....t......¤ÅQÃ|F@
0000005CBEC76230:   bbcdee04 9c76d65a 35000000 10740000 01000000  »Íî.vÖZ5....t......
0000005CBEC76244:   c3d2c7d1 a343584f 9c7254f3 d075ed90 0c9f1923  ÃÒÇÑ£CXOrTóÐuí...#
0000005CBEC76258:   de36864c 897975fb ec16967b 14000000 01006302  Þ6Lyuûì.{......c.
0000005CBEC7626C:   00000000 00000000 00000000 35000000 98680000  ............5....h..
0000005CBEC76280:   58000400 00000000 00000000 00000000 00000000  X...................
0000005CBEC76294:   00000000 00000000 00000000 00000000 00000000  ....................
0000005CBEC762A8:   00000000 00000000 00000000 00000000 00000000  ....................
0000005CBEC762BC:   00000000 00000000 00000000 00000000 00000000  ....................
0000005CBEC762D0:   00000000 00000000 00000000 00000000 24000000  ................$...
0000005CBEC762E4:   33060000 01000000 00000000 00000000 00000000  3...................
0000005CBEC762F8:   00000000 00000000 00000000 3ccfc700 fcaf0000  ............<ÏÇ.ü¯..
0000005CBEC7630C:   51040010 00000000 e5d14b10 29571c48 818b04c0  Q.......åÑK.)W.H..À
0000005CBEC76320:   e3216e68 00000000 00000000 00000000 00000000  ã!nh................
0000005CBEC76334:   00000000 00000000 00000000 45020000 00010000  ............E.......
0000005CBEC76348:   00000000 00000000 00000000 00000000 00000000  ....................
0000005CBEC7635C:   00000000 00000000 00000000 00000000 00000000  ....................
0000005CBEC76370:   00000000 00000000 00000000 00000000 00000000  ....................
0000005CBEC76384:   00000000 00000000 00000000 00000000 00000000  ....................
0000005CBEC76398:   00000000 00000000 00000000 00000000 00000000  ....................
0000005CBEC763AC:   00000000 00000000 00000000 00000000 00000000  ....................
0000005CBEC763C0:   00000000 00000000 00000000 00000000 00000000  ....................
0000005CBEC763D4:   00000000 00000000 00000000 00000000 00000000  ....................
0000005CBEC763E8:   00000000 00000000 00000000 00000000 00000000  ....................
0000005CBEC763FC:   00000000 00000000 00000000 00000000 00000000  ....................
0000005CBEC76410:   00000000 00000000 00000000 00000000 00000000  ....................
0000005CBEC76424:   00000000 00000000 00000000 00000000 00000000  ....................
0000005CBEC76438:   00000000 00000000 00000000 00000000 00000000  ....................
0000005CBEC7644C:   00000000 00000000 00000000 00000000 00000000  ....................
0000005CBEC76460:   00000000 00000000 00000000 00000000 00000000  ....................
0000005CBEC76474:   00000000 00000000 00000000 00000000 00000000  ....................
0000005CBEC76488:   00000000 00000000 00000000 00000000 00000000  ....................
0000005CBEC7649C:   00000000 00000000 00000000 00000000 00000000  ....................
0000005CBEC764B0:   00000000 00000000 00000000 00000000 00000000  ....................
0000005CBEC764C4:   00000000 00000000 00000000 00000000 00000000  ....................
0000005CBEC764D8:   00000000 00000000 00000000 00000000 00000000  ....................
0000005CBEC764EC:   00000000 00000000 00000000 00000000 00000000  ....................
0000005CBEC76500:   00000000 00000000 00000000 00000000 00000000  ....................
0000005CBEC76514:   00000000 00000000 00000000 00000000 00000000  ....................
0000005CBEC76528:   00000000 00000000 00000000 00000000 00000000  ....................
0000005CBEC7653C:   00000000 00000000 00000000 00000000 00000000  ....................
0000005CBEC76550:   00000000 00000000 00000000 00000000 00000000  ....................
0000005CBEC76564:   00000000 00000000 00000000 00000000 00000000  ....................
0000005CBEC76578:   00000000 00000000 00000000 00000000 00000000  ....................
0000005CBEC7658C:   00000000 00000000 00000000 00000000 00000000  ....................
0000005CBEC765A0:   00000000 00000000 00000000 00000000 00000000  ....................
0000005CBEC765B4:   00000000 00000000 00000000 00000000 00000000  ....................
0000005CBEC765C8:   00000000 00000000 00000000 00000000 00000000  ....................
0000005CBEC765DC:   00000000 00000000 00000000 00000000 00000000  ....................
0000005CBEC765F0:   00000000 00000000 00000000 00000000 00000000  ....................
0000005CBEC76604:   00000000 00000000 12000000 41000000 45000000  ............A...E...
0000005CBEC76618:   00000000 00000000 00000000 00000000 00000000  ....................
0000005CBEC7662C:   00000000 00000000 00000000 00000000 00000000  ....................
0000005CBEC76640:   00000000 00000000 00000000 00000000 00000000  ....................
0000005CBEC76654:   00000000 00000000 00000000 00000000 00000000  ....................
0000005CBEC76668:   00000000 00000000 00000000 00000000 00000000  ....................
0000005CBEC7667C:   00000000 00000000 00000000 00000000 00000000  ....................
0000005CBEC76690:   00000000 00000000 00000000 00000000 00000000  ....................
0000005CBEC766A4:   00000000 00000000 00000000 00000000 00000000  ....................
0000005CBEC766B8:   00000000 00000000 00000000 00000000 00000000  ....................
0000005CBEC766CC:   00004c00 00000001 00004d00 00000001 00000000  ..L.......M.........
0000005CBEC766E0:   00000000 00000000 00000000 00000000 00000000  ....................
0000005CBEC766F4:   00000000 00000000 00000000 00000000 00000000  ....................
0000005CBEC76708:   00000000 00000000 00000000 00000000 00000000  ....................
0000005CBEC7671C:   00000000 00000000 00000000 00000000 00000000  ....................
0000005CBEC76730:   00000000 00000000 00000000 00000000 00000000  ....................
0000005CBEC76744:   00000000 00000000 00000000 00000000 00000000  ....................
0000005CBEC76758:   00000000 00000000 00000000 00000000 00000000  ....................
0000005CBEC7676C:   00000000 00000000 00000000 00000000 00000000  ....................
0000005CBEC76780:   00000000 00000000 00000000 00000000 00000000  ....................
0000005CBEC76794:   00000000 00000000 00000000 00000000 00000000  ....................
0000005CBEC767A8:   00000000 00000000 00000000 00000000 00000000  ....................
0000005CBEC767BC:   00000000 00000000 00000000 00000000 00000000  ....................
0000005CBEC767D0:   00000000 00000000 00000000 00000000 00000000  ....................
0000005CBEC767E4:   00000000 00000000 00000000 00000000 00000000  ....................
0000005CBEC767F8:   00000000 00000000 00000000 00000000 00000000  ....................
0000005CBEC7680C:   00000000 00000000 00000000 00000000 00000000  ....................
0000005CBEC76820:   00000000 00000000 00000000 00000000 00000000  ....................
0000005CBEC76834:   00000000 00000000 00000000 00000000 00000000  ....................
0000005CBEC76848:   00000000 00000000 00000000 00000000 00000000  ....................
0000005CBEC7685C:   00000000 00000000 00000000 00000000 00000000  ....................
0000005CBEC76870:   00000000 00000000 00000000 00000000 00000000  ....................
0000005CBEC76884:   00000000 00000000 00000000 00000000 00000000  ....................
0000005CBEC76898:   00000000 00000000 00000000 00000000 00000000  ....................
0000005CBEC768AC:   00000000 00000000 00000000 00000000 00000000  ....................
0000005CBEC768C0:   00000000 00000000 00000000 00000000 00000000  ....................
0000005CBEC768D4:   00000000 00000000 00000000 00000000 00000000  ....................
0000005CBEC768E8:   00000000 00000000 00000000 00000000 00000000  ....................
0000005CBEC768FC:   00000000 00000000 00000000 00000000 00000000  ....................
0000005CBEC76910:   00000000 00000000 00000000 00000000 00000000  ....................
0000005CBEC76924:   00000000 00000000 00000000 00000000 00000000  ....................
0000005CBEC76938:   00000000 00000000 00000000 00000000 00000000  ....................
0000005CBEC7694C:   00000000 00000000 00000000 00000000 00000000  ....................
0000005CBEC76960:   00000000 00000000 00000000 00000000 00000000  ....................
0000005CBEC76974:   00000000 00000000 00000000 00000000 00000000  ....................
0000005CBEC76988:   00000000 00000000 00000000 00000000 00000000  ....................
0000005CBEC7699C:   00000000 00000000 00000000 00000000 00000000  ....................
0000005CBEC769B0:   00000000 00000000 00000000 00000000 00000000  ....................
0000005CBEC769C4:   00000000 00000000 00000000 00000000 00000000  ....................
0000005CBEC769D8:   00000000 00000000 00000000 00000000 00000000  ....................
0000005CBEC769EC:   00000000 00000000 00000000 00000000 00000000  ....................
0000005CBEC76A00:   00000000 00000000 00000000 00000000 00000000  ....................
0000005CBEC76A14:   00000000 00000000 00000000 00000000 00000000  ....................
0000005CBEC76A28:   00000000 00000000 00000000 00000000 00000000  ....................
0000005CBEC76A3C:   00000000 00000000 00000000 00000000 00000000  ....................
0000005CBEC76A50:   00000000 00000000 00000000 00000000 00000000  ....................
0000005CBEC76A64:   00000000 00000000 00000000 00000000 00000000  ....................
0000005CBEC76A78:   00000000 00000000 00000000 00000000 00000000  ....................
0000005CBEC76A8C:   00000000 00000000 00000000 00000000 00000000  ....................
0000005CBEC76AA0:   00000000 00000000 00000000 00000000 00000000  ....................
0000005CBEC76AB4:   00000000 00000000 00000000 00000000 00000000  ....................
0000005CBEC76AC8:   00000000 00000000 00000000 00000000 00000000  ....................
0000005CBEC76ADC:   00000000 00000000 00000000 00000000 00000000  ....................
0000005CBEC76AF0:   00000000 00000000 00000000 00000000 00000000  ....................
0000005CBEC76B04:   00000000 00000000 00000000 00000000 00000000  ....................
0000005CBEC76B18:   00000000 00000000 00000000 00000000 00000000  ....................
0000005CBEC76B2C:   00000000 00000000 00000000 00000000 00000000  ....................
0000005CBEC76B40:   00000000 00000000 00000000 00000000 00000000  ....................
0000005CBEC76B54:   00000000 00000000 00000000 00000000 00000000  ....................
0000005CBEC76B68:   00000000 00000000 00000000 00000000 00000000  ....................
0000005CBEC76B7C:   00000000 00000000 00000000 00000000 00000000  ....................
0000005CBEC76B90:   00000000 00000000 00000000 00000000 00000000  ....................
0000005CBEC76BA4:   00000000 00000000 00000000 00000000 00000000  ....................
0000005CBEC76BB8:   00000000 00000000 00000000 00000000 00000000  ....................
0000005CBEC76BCC:   00000000 00000000 00000000 00000000 00000000  ....................
0000005CBEC76BE0:   00000000 00000000 00000000 00000000 00000000  ....................
0000005CBEC76BF4:   00000000 00000000 00000000 00000000 00000000  ....................
0000005CBEC76C08:   00000000 00000000 00000000 00000000 00000000  ....................
0000005CBEC76C1C:   00000000 00000000 00000000 00000000 00000000  ....................
0000005CBEC76C30:   00000000 00000000 00000000 00000000 00000000  ....................
0000005CBEC76C44:   00000000 00000000 00000000 00000000 00000000  ....................
0000005CBEC76C58:   00000000 00000000 00000000 00000000 00000000  ....................
0000005CBEC76C6C:   00000000 00000000 00000000 00000000 00000000  ....................
0000005CBEC76C80:   00000000 00000000 00000000 00000000 00000000  ....................
0000005CBEC76C94:   00000000 00000000 00000000 00000000 00000000  ....................
0000005CBEC76CA8:   00000000 00000000 00000000 00000000 00000000  ....................
0000005CBEC76CBC:   00000000 00000000 00000000 00000000 00000000  ....................
0000005CBEC76CD0:   00000000 00000000 00000000 00000000 00000000  ....................
0000005CBEC76CE4:   00000000 00000000 00000000 00000000 00000000  ....................
0000005CBEC76CF8:   00000000 00000000 00000000 00000000 00000000  ....................
0000005CBEC76D0C:   00000000 00000000 00000000 00000000 00000000  ....................
0000005CBEC76D20:   00000000 00000000 00000000 00000000 00000000  ....................
0000005CBEC76D34:   00000000 00000000 00000000 00000000 00000000  ....................
0000005CBEC76D48:   00000000 00000000 00000000 00000000 00000000  ....................
0000005CBEC76D5C:   00000000 00000000 00000000 00000000 00000000  ....................
0000005CBEC76D70:   00000000 00000000 00000000 00000000 00000000  ....................
0000005CBEC76D84:   00000000 00000000 00000000 00000000 00000000  ....................
0000005CBEC76D98:   00000000 00000000 00000000 00000000 00000000  ....................
0000005CBEC76DAC:   00000000 00000000 00000000 00000000 00000000  ....................
0000005CBEC76DC0:   00000000 00000000 00000000 00000000 00000000  ....................
0000005CBEC76DD4:   00000000 00000000 00000000 00000000 00000000  ....................
0000005CBEC76DE8:   00000000 00000000 00000000 00000000 00000000  ....................
0000005CBEC76DFC:   00000000 00000000 00000000 00000000 00000000  ....................
0000005CBEC76E10:   00000000 00000000 00000000 00000000 00000000  ....................
0000005CBEC76E24:   00000000 00000000 00000000 00000000 00000000  ....................
0000005CBEC76E38:   00000000 00000000 00000000 00000000 00000000  ....................
0000005CBEC76E4C:   00000000 00000000 00000000 00000000 00000000  ....................
0000005CBEC76E60:   00000000 00000000 00000000 00000000 00000000  ....................
0000005CBEC76E74:   00000000 00000000 00000000 00000000 00000000  ....................
0000005CBEC76E88:   00000000 00000000 00000000 00000000 00000000  ....................
0000005CBEC76E9C:   00000000 00000000 00000000 00000000 00000000  ....................
0000005CBEC76EB0:   00000000 00000000 00000000 00000000 00000000  ....................
0000005CBEC76EC4:   00000000 00000000 00000000 00000000 00000000  ....................
0000005CBEC76ED8:   00000000 00000000 00000000 00000000 00000000  ....................
0000005CBEC76EEC:   00000000 00000000 00000000 00000000 00000000  ....................
0000005CBEC76F00:   00000000 00000000 00000000 00000000 00000000  ....................
0000005CBEC76F14:   00000000 00000000 00000000 00000000 00000000  ....................
0000005CBEC76F28:   00000000 00000000 00000000 00000000 00000000  ....................
0000005CBEC76F3C:   00000000 00000000 00000000 00000000 00000000  ....................
0000005CBEC76F50:   00000000 00000000 00000000 00000000 00000000  ....................
0000005CBEC76F64:   00000000 00000000 00000000 00000000 00000000  ....................
0000005CBEC76F78:   00000000 00000000 00000000 00000000 00000000  ....................
0000005CBEC76F8C:   00000000 00000000 00000000 00000000 00000000  ....................
0000005CBEC76FA0:   00000000 00000000 00000000 00000000 00000000  ....................
0000005CBEC76FB4:   00000000 00000000 00000000 00000000 00000000  ....................
0000005CBEC76FC8:   00000000 00000000 00000000 00000000 00000000  ....................
0000005CBEC76FDC:   00000000 00000000 00000000 00000000 00000000  ....................
0000005CBEC76FF0:   00000000 00000000 00000000 00000000 00000000  ....................
0000005CBEC77004:   00000000 00000000 00000000 00000000 00000000  ....................
0000005CBEC77018:   00000000 00000000 00000000 00000000 00000000  ....................
0000005CBEC7702C:   00000000 00000000 00000000 00000000 00000000  ....................
0000005CBEC77040:   00000000 00000000 00000000 00000000 00000000  ....................
0000005CBEC77054:   00000000 00000000 00000000 00000000 00000000  ....................
0000005CBEC77068:   00000000 00000000 00000000 00000000 00000000  ....................
0000005CBEC7707C:   00000000 00000000 00000000 00000000 00000000  ....................
0000005CBEC77090:   00000000 00000000 00000000 00000000 00000000  ....................
0000005CBEC770A4:   00000000 00000000 00000000 00000000 00000000  ....................
0000005CBEC770B8:   00000000 00000000 00000000 00000000 00000000  ....................
0000005CBEC770CC:   00000000 00000000 00000000 00000000 00000000  ....................
0000005CBEC770E0:   00000000 00000000 00000000 00000000 00000000  ....................
0000005CBEC770F4:   00000000 00000000 00000000 00000000 00000000  ....................
0000005CBEC77108:   00000000 00000000 00000000 00000000 00000000  ....................
0000005CBEC7711C:   00000000 00000000 00000000 00000000 00000000  ....................
0000005CBEC77130:   00000000 00000000 00000000 00000000 00000000  ....................
0000005CBEC77144:   00000000 00000000 00000000 00000000 00000000  ....................
0000005CBEC77158:   00000000 00000000 00000000 00000000 00000000  ....................
0000005CBEC7716C:   00000000 00000000 00000000 00000000 00000000  ....................
0000005CBEC77180:   00000000 00000000 00000000 00000000 00000000  ....................
0000005CBEC77194:   00000000 00000000 00000000 00000000 00000000  ....................
0000005CBEC771A8:   00000000 00000000 00000000 00000000 00000000  ....................
0000005CBEC771BC:   00000000 00000000 00000000 00000000 00000000  ....................
0000005CBEC771D0:   00000000 00000000 00000000 00000000 00000000  ....................
0000005CBEC771E4:   00000000 00000000 00000000 00000000 00000000  ....................
0000005CBEC771F8:   00000000 00000000 00000000 00000000 00000000  ....................
0000005CBEC7720C:   00000000 00000000 00000000 00000000 00000000  ....................
0000005CBEC77220:   00000000 00000000 00000000 00000000 00000000  ....................
0000005CBEC77234:   00000000 00000000 00000000 00000000 00000000  ....................
0000005CBEC77248:   00000000 00000000 00000000 00000000 00000000  ....................
0000005CBEC7725C:   00000000 00000000 00000000 00000000 00000000  ....................
0000005CBEC77270:   00000000 00000000 00000000 00000000 00000000  ....................
0000005CBEC77284:   00000000 00000000 00000000 00000000 00000000  ....................
0000005CBEC77298:   00000000 00000000 00000000 00000000 00000000  ....................
0000005CBEC772AC:   00000000 00000000 00000000 00000000 00000000  ....................
0000005CBEC772C0:   00000000 00000000 00000000 00000000 00000000  ....................
0000005CBEC772D4:   00000000 00000000 00000000 00000000 00000000  ....................
0000005CBEC772E8:   00000000 00000000 00000000 00000000 00000000  ....................
0000005CBEC772FC:   00000000 00000000 00000000 00000000 00000000  ....................
0000005CBEC77310:   00000000 00000000 00000000 00000000 00000000  ....................
0000005CBEC77324:   00000000 00000000 00000000 00000000 00000000  ....................
0000005CBEC77338:   00000000 00000000 00000000 00000000 00000000  ....................
0000005CBEC7734C:   00000000 00000000 00000000 00000000 00000000  ....................
0000005CBEC77360:   00000000 00000000 00000000 00000000 00000000  ....................
0000005CBEC77374:   00000000 00000000 00000000 00000000 00000000  ....................
0000005CBEC77388:   00000000 00000000 00000000 00000000 00000000  ....................
0000005CBEC7739C:   00000000 00000000 00000000 00000000 00000000  ....................
0000005CBEC773B0:   00000000 00000000 00000000 00000000 00000000  ....................
0000005CBEC773C4:   00000000 00000000 00000000 00000000 00000000  ....................
0000005CBEC773D8:   00000000 00000000 00000000 00000000 00000000  ....................
0000005CBEC773EC:   00000000 00000000 00000000 00000000 00000000  ....................
0000005CBEC77400:   00000000 00000000 00000000 00000000 00000000  ....................
0000005CBEC77414:   00000000 00000000 00000000 00000000 00000000  ....................
0000005CBEC77428:   00000000 00000000 00000000 00000000 00000000  ....................
0000005CBEC7743C:   00000000 00000000 00000000 00000000 00000000  ....................
0000005CBEC77450:   00000000 00000000 00000000 00000000 00000000  ....................
0000005CBEC77464:   00000000 00000000 00000000 00000000 00000000  ....................
0000005CBEC77478:   00000000 00000000 00000000 00000000 00000000  ....................
0000005CBEC7748C:   00000000 00000000 00000000 00000000 00000000  ....................
0000005CBEC774A0:   00000000 00000000 00000000 00000000 00000000  ....................
0000005CBEC774B4:   00000000 00000000 00000000 00000000 00000000  ....................
0000005CBEC774C8:   00000000 00000000 00000000 00000000 00000000  ....................
0000005CBEC774DC:   00000000 00000000 00000000 00000000 00000000  ....................
0000005CBEC774F0:   00000000 00000000 00000000 00000000 00000000  ....................
0000005CBEC77504:   00000000 00000000 00000000 00000000 00000000  ....................
0000005CBEC77518:   00000000 00000000 00000000 00000000 00000000  ....................
0000005CBEC7752C:   00000000 00000000 00000000 00000000 00000000  ....................
0000005CBEC77540:   00000000 00000000 00000000 00000000 00000000  ....................
0000005CBEC77554:   00000000 00000000 00000000 00000000 00000000  ....................
0000005CBEC77568:   00000000 00000000 00000000 00000000 00000000  ....................
0000005CBEC7757C:   00000000 00000000 00000000 00000000 00000000  ....................
0000005CBEC77590:   00000000 00000000 00000000 00000000 00000000  ....................
0000005CBEC775A4:   00000000 00000000 00000000 00000000 00000000  ....................
0000005CBEC775B8:   00000000 00000000 00000000 00000000 00000000  ....................
0000005CBEC775CC:   00000000 00000000 00000000 00000000 00000000  ....................
0000005CBEC775E0:   00000000 00000000 00000000 00000000 00000000  ....................
0000005CBEC775F4:   00000000 00000000 00000000 00000000 00000000  ....................
0000005CBEC77608:   00000000 00000000 00000000 00000000 00000000  ....................
0000005CBEC7761C:   00000000 00000000 00000000 00000000 00000000  ....................
0000005CBEC77630:   00000000 00000000 00000000 00000000 00000000  ....................
0000005CBEC77644:   00000000 00000000 00000000 00000000 00000000  ....................
0000005CBEC77658:   00000000 00000000 00000000 00000000 00000000  ....................
0000005CBEC7766C:   00000000 00000000 00000000 00000000 00000000  ....................
0000005CBEC77680:   00000000 00000000 00000000 00000000 00000000  ....................
0000005CBEC77694:   00000000 00000000 00000000 00000000 00000000  ....................
0000005CBEC776A8:   00000000 00000000 00000000 00000000 00000000  ....................
0000005CBEC776BC:   00000000 00000000 00000000 00000000 00000000  ....................
0000005CBEC776D0:   00000000 00000000 00000000 00000000 00000000  ....................
0000005CBEC776E4:   00000000 00000000 00000000 00000000 00000000  ....................
0000005CBEC776F8:   00000000 00000000 00000000 00000000 00000000  ....................
0000005CBEC7770C:   00000000 00000000 00000000 00000000 00000000  ....................
0000005CBEC77720:   00000000 00000000 00000000 00000000 00000000  ....................
0000005CBEC77734:   00000000 00000000 00000000 00000000 00000000  ....................
0000005CBEC77748:   00000000 00000000 00000000 00000000 00000000  ....................
0000005CBEC7775C:   00000000 00000000 00000000 00000000 00000000  ....................
0000005CBEC77770:   00000000 00000000 00000000 00000000 00000000  ....................
0000005CBEC77784:   00000000 00000000 00000000 00000000 00000000  ....................
0000005CBEC77798:   00000000 00000000 00000000 00000000 00000000  ....................
0000005CBEC777AC:   00000000 00000000 00000000 00000000 00000000  ....................
0000005CBEC777C0:   00000000 00000000 00000000 00000000 00000000  ....................
0000005CBEC777D4:   00000000 00000000 00000000 00000000 00000000  ....................
0000005CBEC777E8:   00000000 00000000 00000000 00000000 00000000  ....................
0000005CBEC777FC:   00000000 00000000 00000000 00000000 00000000  ....................
0000005CBEC77810:   00000000 00000000 00000000 00000000 00000000  ....................
0000005CBEC77824:   00000000 00000000 00000000 00000000 00000000  ....................
0000005CBEC77838:   00000000 00000000 00000000 00000000 00000000  ....................
0000005CBEC7784C:   00000000 00000000 00000000 00000000 00000000  ....................
0000005CBEC77860:   00000000 00000000 00000000 00000000 00000000  ....................
0000005CBEC77874:   00000000 00000000 00000000 00000000 00000000  ....................
0000005CBEC77888:   00000000 00000000 00000000 00000000 00000000  ....................
0000005CBEC7789C:   00000000 00000000 00000000 00000000 00000000  ....................
0000005CBEC778B0:   00000000 00000000 00000000 00000000 00000000  ....................
0000005CBEC778C4:   00000000 00000000 00000000 00000000 00000000  ....................
0000005CBEC778D8:   00000000 00000000 00000000 00000000 00000000  ....................
0000005CBEC778EC:   00000000 00000000 00000000 00000000 00000000  ....................
0000005CBEC77900:   00000000 00000000 00000000 00000000 00000000  ....................
0000005CBEC77914:   00000000 00000000 00000000 00000000 00000000  ....................
0000005CBEC77928:   00000000 00000000 00000000 00000000 00000000  ....................
0000005CBEC7793C:   00000000 00000000 00000000 00000000 00000000  ....................
0000005CBEC77950:   00000000 00000000 00000000 00000000 00000000  ....................
0000005CBEC77964:   00000000 00000000 00000000 00000000 00000000  ....................
0000005CBEC77978:   00000000 00000000 00000000 00000000 00000000  ....................
0000005CBEC7798C:   00000000 00000000 00000000 00000000 00000000  ....................
0000005CBEC779A0:   00000000 00000000 00000000 00000000 00000000  ....................
0000005CBEC779B4:   00000000 00000000 00000000 00000000 00000000  ....................
0000005CBEC779C8:   00000000 00000000 00000000 00000000 00000000  ....................
0000005CBEC779DC:   00000000 00000000 00000000 00000000 00000000  ....................
0000005CBEC779F0:   00000000 00000000 00000000 00000000 00000000  ....................
0000005CBEC77A04:   00000000 00000000 00000000 00000000 00000000  ....................
0000005CBEC77A18:   00000000 00000000 00000000 00000000 00000000  ....................
0000005CBEC77A2C:   00000000 00000000 00000000 00000000 00000000  ....................
0000005CBEC77A40:   00000000 00000000 00000000 00000000 00000000  ....................
0000005CBEC77A54:   00000000 00000000 00000000 00000000 00000000  ....................
0000005CBEC77A68:   00000000 00000000 00000000 00000000 00000000  ....................
0000005CBEC77A7C:   00000000 00000000 00000000 00000000 00000000  ....................
0000005CBEC77A90:   00000000 00000000 00000000 00000000 00000000  ....................
0000005CBEC77AA4:   00000000 00000000 00000000 00000000 00000000  ....................
0000005CBEC77AB8:   00000000 00000000 00000000 00000000 00000000  ....................
0000005CBEC77ACC:   00000000 00000000 00000000 00000000 00000000  ....................
0000005CBEC77AE0:   00000000 00000000 00000000 00000000 00000000  ....................
0000005CBEC77AF4:   00000000 00000000 00000000 00000000 00000000  ....................
0000005CBEC77B08:   00000000 00000000 00000000 00000000 00000000  ....................
0000005CBEC77B1C:   00000000 00000000 00000000 00000000 00000000  ....................
0000005CBEC77B30:   00000000 00000000 00000000 00000000 00000000  ....................
0000005CBEC77B44:   00000000 00000000 00000000 00000000 00000000  ....................
0000005CBEC77B58:   00000000 00000000 00000000 00000000 00000000  ....................
0000005CBEC77B6C:   00000000 00000000 00000000 00000000 00000000  ....................
0000005CBEC77B80:   00000000 00000000 00000000 00000000 00000000  ....................
0000005CBEC77B94:   00000000 00000000 00000000 00000000 00000000  ....................
0000005CBEC77BA8:   00000000 00000000 00000000 00000000 00000000  ....................
0000005CBEC77BBC:   00000000 00000000 00000000 00000000 00000000  ....................
0000005CBEC77BD0:   00000000 00000000 00000000 00000000 00000000  ....................
0000005CBEC77BE4:   00000000 00000000 00000000 00000000 00000000  ....................
0000005CBEC77BF8:   00000000 00000000 00000000 00000000 00000000  ....................
0000005CBEC77C0C:   00000000 00000000 00000000 00000000 00000000  ....................
0000005CBEC77C20:   00000000 00000000 00000000 00000000 00000000  ....................
0000005CBEC77C34:   00000000 00000000 00000000 00000000 00000000  ....................
0000005CBEC77C48:   00000000 00000000 00000000 00000000 00000000  ....................
0000005CBEC77C5C:   00000000 00000000 00000000 00000000 00000000  ....................
0000005CBEC77C70:   00000000 00000000 00000000 00000000 00000000  ....................
0000005CBEC77C84:   00000000 00000000 00000000 00000000 00000000  ....................
0000005CBEC77C98:   00000000 00000000 00000000 00000000 00000000  ....................
0000005CBEC77CAC:   00000000 00000000 00000000 00000000 00000000  ....................
0000005CBEC77CC0:   00000000 00000000 00000000 00000000 00000000  ....................
0000005CBEC77CD4:   00000000 00000000 00000000 00000000 00000000  ....................
0000005CBEC77CE8:   00000000 00000000 00000000 00000000 00000000  ....................
0000005CBEC77CFC:   00000000 00000000 00000000 00000000 00000000  ....................
0000005CBEC77D10:   00000000 00000000 00000000 00000000 00000000  ....................
0000005CBEC77D24:   00000000 00000000 00000000 00000000 00000000  ....................
0000005CBEC77D38:   00000000 00000000 00000000 00000000 00000000  ....................
0000005CBEC77D4C:   00000000 00000000 00000000 00000000 00000000  ....................
0000005CBEC77D60:   00000000 00000000 00000000 00000000 00000000  ....................
0000005CBEC77D74:   00000000 00000000 00000000 00000000 00000000  ....................
0000005CBEC77D88:   00000000 00000000 00000000 00000000 00000000  ....................
0000005CBEC77D9C:   00000000 00000000 00000000 00000000 00000000  ....................
0000005CBEC77DB0:   00000000 00000000 00000000 00000000 00000000  ....................
0000005CBEC77DC4:   00000000 00000000 00000000 00000000 00000000  ....................
0000005CBEC77DD8:   00000000 00000000 00000000 00000000 00000000  ....................
0000005CBEC77DEC:   00000000 00000000 00000000 00000000 00000000  ....................
0000005CBEC77E00:   00000000 00000000 00000000 00000000 00000000  ....................
0000005CBEC77E14:   00000000 00000000 00000000 00000000 00000000  ....................
0000005CBEC77E28:   00000000 00000000 00000000 00000000 00000000  ....................
0000005CBEC77E3C:   00000000 00000000 00000000 00000000 00000000  ....................
0000005CBEC77E50:   00000000 00000000 00000000 00000000 00000000  ....................
0000005CBEC77E64:   00000000 00000000 00000000 00000000 00000000  ....................
0000005CBEC77E78:   00000000 00000000 00000000 00000000 00000000  ....................
0000005CBEC77E8C:   00000000 00000000 00000000 00000000 00000000  ....................
0000005CBEC77EA0:   00000000 00000000 00000000 00000000 00000000  ....................
0000005CBEC77EB4:   00000000 00000000 00000000 00000000 00000000  ....................
0000005CBEC77EC8:   00000000 00000000 00000000 00000000 00000000  ....................
0000005CBEC77EDC:   00000000 00000000 00000000 00000000 00000000  ....................
0000005CBEC77EF0:   00000000 00000000 00000000 00000000 00000000  ....................
0000005CBEC77F04:   00000000 00000000 00000000 00000000 00000000  ....................
0000005CBEC77F18:   00000000 00000000 00000000 00000000 00000000  ....................
0000005CBEC77F2C:   00000000 00000000 00000000 00000000 00000000  ....................
0000005CBEC77F40:   00000000 00000000 00000000 00000000 00000000  ....................
0000005CBEC77F54:   00000000 00000000 00000000 00000000 00000000  ....................
0000005CBEC77F68:   00000000 00000000 00000000 00000000 00000000  ....................
0000005CBEC77F7C:   00000000 00000000 00000000 00000000 00000000  ....................
0000005CBEC77F90:   00000000 00000000 00000000 00000000 00000000  ....................
0000005CBEC77FA4:   00000000 00000000 00000000 00000000 00000000  ....................
0000005CBEC77FB8:   00000000 00000000 00000000 00000000 00000000  ....................
0000005CBEC77FCC:   00000000 00000000 00000000 00000000 00000000  ....................
0000005CBEC77FE0:   00000000 00000000 00000000 00000000 00000000  ....................
0000005CBEC77FF4:   00000000 00000000 00006000                    ..........`.
