DBCC execution completed. If DBCC printed error messages, contact your system administrator.

PAGE: (1:25520)


BUFFER:


BUF @0x000001C08C7EF6C0

bpage = 0x000001B4C4B68000          bPmmpage = 0x0000000000000000       bsort_r_nextbP = 0x000001C08C7EF610
bsort_r_prevbP = 0x0000000000000000 bhash = 0x0000000000000000          bpageno = (1:25520)
bpart = 10                          bstat = 0x9                         breferences = 3
berrcode = 0                        bUse1 = 65411                       bstat2 = 0x0
blog = 0x15ab215a                   bsampleCount = 0                    bIoCount = 0
resPoolId = 0                       bcputicks = 0                       bReadMicroSec = 427
bDirtyPendingCount = 0              bDirtyContext = 0x0000000000000000  bDbPageBroker = 0x0000000000000000
bdbid = 9                           bpru = 0x000001B4AFA20040           

PAGE HEADER:


Page @0x000001B4C4B68000

m_pageId = (1:25520)                m_headerVersion = 1                 m_type = 2
m_typeFlagBits = 0x0                m_level = 0                         m_flagBits = 0x224
m_objId (AllocUnitId.idObj) = 441   m_indexId (AllocUnitId.idInd) = 256 Metadata: AllocUnitId = 72057594066829312
Metadata: PartitionId = 72057594058768384                                Metadata: IndexId = 2
Metadata: ObjectId = 1262627541     m_prevPage = (0:0)                  m_nextPage = (1:25521)
pminlen = 11                        m_slotCnt = 506                     m_freeCnt = 0
m_freeData = 7180                   m_reservedCnt = 0                   m_lsn = (53:3000:32)
m_xactReserved = 0                  m_xdesId = (0:2922)                 m_ghostRecCnt = 0
m_tornBits = -167908078             DB Frag ID = 1                      

Allocation Status

GAM (1:2) = ALLOCATED               SGAM (1:3) = NOT ALLOCATED          PFS (1:24264) = 0x40 ALLOCATED   0_PCT_FULL
DIFF (1:6) = NOT CHANGED            ML (1:7) = NOT MIN_LOGGED           

DATA:


Memory Dump @0x0000009E36FF6000

0000009E36FF6000:   01020000 24020001 00000000 00000b00 b1630000  ....$...........±c..
0000009E36FF6014:   0100fa01 b9010000 00000c1c b0630000 01000000  ..ú.¹.......°c......
0000009E36FF6028:   35000000 b80b0000 20000000 6a0b0000 00000000  5...¸... ...j.......
0000009E36FF603C:   12edfdf5 00000000 00000000 00000000 00000000  .íýõ................
0000009E36FF6050:   00000000 00000000 00000000 00000000 16020200  ....................
0000009E36FF6064:   002b8f00 00060003 00001602 0200002b 8f000007  .+.............+....
0000009E36FF6078:   00030000 16020200 00a58f00 00060003 00001602  .........¥..........
0000009E36FF608C:   020000a5 8f000007 00030000 16020200 00f98f00  ...¥.............ù..
0000009E36FF60A0:   00060003 00001602 020000f9 8f000007 00030000  ...........ù........
0000009E36FF60B4:   16020200 00ab9000 00060003 00001602 020000ab  .....«.............«
0000009E36FF60C8:   90000007 00030000 16020200 00f29000 00060003  .............ò......
0000009E36FF60DC:   00001602 020000f2 90000007 00030000 16020200  .......ò............
0000009E36FF60F0:   00779100 00060003 00001602 02000077 91000007  .w............w...
0000009E36FF6104:   00030000 16020200 00ce9100 00060003 00001602  .........Î.........
0000009E36FF6118:   020000ce 91000007 00030000 16020200 00719200  ...Î............q.
0000009E36FF612C:   00060003 00001602 02000071 92000007 00030000  ...........q.......
0000009E36FF6140:   16020200 00c49200 00060003 00001602 020000c4  .....Ä............Ä
0000009E36FF6154:   92000007 00030000 16020200 00189300 00060003  ..................
0000009E36FF6168:   00001602 02000018 93000007 00030000 16020200  ...................
0000009E36FF617C:   006c9300 00060003 00001602 0200006c 93000007  .l............l...
0000009E36FF6190:   00030000 16020200 00c59300 00060003 00001602  .........Å.........
0000009E36FF61A4:   020000c5 93000007 00030000 16020200 00469500  ...Å............F.
0000009E36FF61B8:   00060003 00001602 02000046 95000007 00030000  ...........F.......
0000009E36FF61CC:   16020200 009b9500 00060003 00001602 0200009b  .................
0000009E36FF61E0:   95000007 00030000 16020200 00e79500 00060003  ............ç.....
0000009E36FF61F4:   00001602 020000e7 95000007 00030000 16020200  .......ç...........
0000009E36FF6208:   008d9600 00060003 00001602 0200008d 96000007  ..................
0000009E36FF621C:   00030000 16020200 00809700 00060003 00001602  ...................
0000009E36FF6230:   02000080 97000007 00030000 16020200 00d09700  ................Ð.
0000009E36FF6244:   00060003 00001602 020000d0 97000007 00030000  ...........Ð.......
0000009E36FF6258:   16020200 002b9800 00060003 00001602 0200002b  .....+.............+
0000009E36FF626C:   98000007 00030000 16020200 00829800 00060003  ...................
0000009E36FF6280:   00001602 02000082 98000007 00030000 16020200  ...................
0000009E36FF6294:   00d59800 00060003 00001602 020000d5 98000007  .Õ.............Õ....
0000009E36FF62A8:   00030000 16020200 00a39900 00060003 00001602  .........£..........
0000009E36FF62BC:   020000a3 99000007 00030000 16020200 006a9a00  ...£.............j.
0000009E36FF62D0:   00060003 00001602 0200006a 9a000007 00030000  ...........j.......
0000009E36FF62E4:   16020200 00bf9a00 00060003 00001602 020000bf  .....¿............¿
0000009E36FF62F8:   9a000007 00030000 16020200 00049b00 00060003  ..................
0000009E36FF630C:   00001602 02000004 9b000007 00030000 16020200  ...................
0000009E36FF6320:   00949b00 00060003 00001602 02000094 9b000007  ................
0000009E36FF6334:   00030000 16020200 00ed9b00 00060003 00001602  .........í.........
0000009E36FF6348:   020000ed 9b000007 00030000 16020200 00469c00  ...í............F.
0000009E36FF635C:   00060003 00001602 02000046 9c000007 00030000  ...........F.......
0000009E36FF6370:   16020200 001c9d00 00060003 00001602 0200001c  ....................
0000009E36FF6384:   9d000007 00030000 16020200 00769d00 00060003  .............v......
0000009E36FF6398:   00001602 02000076 9d000007 00030000 16020200  .......v............
0000009E36FF63AC:   00c89d00 00060003 00001602 020000c8 9d000007  .È.............È....
0000009E36FF63C0:   00030000 16020200 000e9e00 00060003 00001602  ...................
0000009E36FF63D4:   0200000e 9e000007 00030000 16020200 00539e00  ................S.
0000009E36FF63E8:   00060003 00001602 02000053 9e000007 00030000  ...........S.......
0000009E36FF63FC:   16020200 00a59e00 00060003 00001602 020000a5  .....¥............¥
0000009E36FF6410:   9e000007 00030000 16020200 00a39f00 00060003  ............£.....
0000009E36FF6424:   00001602 020000a3 9f000007 00030000 16020200  .......£...........
0000009E36FF6438:   00f59f00 00060003 00001602 020000f5 9f000007  .õ............õ...
0000009E36FF644C:   00030000 16020200 0085a000 00060003 00001602  .........
 .........
0000009E36FF6460:   02000085 a0000007 00030000 16020200 00dba000  ...
 ............Û .
0000009E36FF6474:   00060003 00001602 020000db a0000007 00030000  ...........Û .......
0000009E36FF6488:   16020200 008ea100 00060003 00001602 0200008e  .....¡............
0000009E36FF649C:   a1000007 00030000 16020200 00e4a100 00060003  ¡............ä¡.....
0000009E36FF64B0:   00001602 020000e4 a1000007 00030000 16020200  .......ä¡...........
0000009E36FF64C4:   0032a200 00060003 00001602 02000032 a2000007  .2¢............2¢...
0000009E36FF64D8:   00030000 16020200 0089a200 00060003 00001602  .........¢.........
0000009E36FF64EC:   02000089 a2000007 00030000 16020200 00e1a200  ...¢............á¢.
0000009E36FF6500:   00060003 00001602 020000e1 a2000007 00030000  ...........á¢.......
0000009E36FF6514:   16020200 0037a300 00060003 00001602 02000037  .....7£............7
0000009E36FF6528:   a3000007 00030000 16020200 00f7a300 00060003  £............÷£.....
0000009E36FF653C:   00001602 020000f7 a3000007 00030000 16020200  .......÷£...........
0000009E36FF6550:   0079a400 00060003 00001602 02000079 a4000007  .y¤............y¤...
0000009E36FF6564:   00030000 16020200 00d5a400 00060003 00001602  .........Õ¤.........
0000009E36FF6578:   020000d5 a4000007 00030000 16020200 0027a500  ...Õ¤............'¥.
0000009E36FF658C:   00060003 00001602 02000027 a5000007 00030000  ...........'¥.......
0000009E36FF65A0:   16020200 007da500 00060003 00001602 0200007d  .....}¥............}
0000009E36FF65B4:   a5000007 00030000 16020200 00d4a500 00060003  ¥............Ô¥.....
0000009E36FF65C8:   00001602 020000d4 a5000007 00030000 16020200  .......Ô¥...........
0000009E36FF65DC:   0028a600 00060003 00001602 02000028 a6000007  .(¦............(¦...
0000009E36FF65F0:   00030000 16020200 007ca600 00060003 00001602  .........|¦.........
0000009E36FF6604:   0200007c a6000007 00030000 16020200 00d3a600  ...|¦............Ó¦.
0000009E36FF6618:   00060003 00001602 020000d3 a6000007 00030000  ...........Ó¦.......
0000009E36FF662C:   16020200 002fa700 00060003 00001602 0200002f  ...../§............/
0000009E36FF6640:   a7000007 00030000 16020200 00d5a700 00060003  §............Õ§.....
0000009E36FF6654:   00001602 020000d5 a7000007 00030000 16020200  .......Õ§...........
0000009E36FF6668:   0086a800 00060003 00001602 02000086 a8000007  .¨............¨...
0000009E36FF667C:   00030000 16020200 00dca800 00060003 00001602  .........Ü¨.........
0000009E36FF6690:   020000dc a8000007 00030000 16020200 0074a900  ...Ü¨............t©.
0000009E36FF66A4:   00060003 00001602 02000074 a9000007 00030000  ...........t©.......
0000009E36FF66B8:   16020200 00c9a900 00060003 00001602 020000c9  .....É©............É
0000009E36FF66CC:   a9000007 00030000 16020200 002aaa00 00060003  ©............*ª.....
0000009E36FF66E0:   00001602 0200002a aa000007 00030000 16020200  .......*ª...........
0000009E36FF66F4:   008baa00 00060003 00001602 0200008b aa000007  .ª............ª...
0000009E36FF6708:   00030000 16020200 00e4aa00 00060003 00001602  .........äª.........
0000009E36FF671C:   020000e4 aa000007 00030000 16020200 00dfab00  ...äª............ß«.
0000009E36FF6730:   00060003 00001602 020000df ab000007 00030000  ...........ß«.......
0000009E36FF6744:   16020200 0038ac00 00060003 00001602 02000038  .....8¬............8
0000009E36FF6758:   ac000007 00030000 16020200 0091ac00 00060003  ¬............¬.....
0000009E36FF676C:   00001602 02000091 ac000007 00030000 16020200  .......¬...........
0000009E36FF6780:   00efac00 00060003 00001602 020000ef ac000007  .ï¬............ï¬...
0000009E36FF6794:   00030000 16020200 0043ad00 00060003 00001602  .........C­.........
0000009E36FF67A8:   02000043 ad000007 00030000 16020200 0093ad00  ...C­............­.
0000009E36FF67BC:   00060003 00001602 02000093 ad000007 00030000  ...........­.......
0000009E36FF67D0:   16020200 00e1ad00 00060003 00001602 020000e1  .....á­............á
0000009E36FF67E4:   ad000007 00030000 16020200 0097ae00 00060003  ­............®.....
0000009E36FF67F8:   00001602 02000097 ae000007 00030000 16020200  .......®...........
0000009E36FF680C:   0016af00 00060003 00001602 02000016 af000007  ..¯.............¯...
0000009E36FF6820:   00030000 16020200 006caf00 00060003 00001602  .........l¯.........
0000009E36FF6834:   0200006c af000007 00030000 16020200 00c3af00  ...l¯............Ã¯.
0000009E36FF6848:   00060003 00001602 020000c3 af000007 00030000  ...........Ã¯.......
0000009E36FF685C:   16020200 001eb000 00060003 00001602 0200001e  ......°.............
0000009E36FF6870:   b0000007 00030000 16020200 007db000 00060003  °............}°.....
0000009E36FF6884:   00001602 0200007d b0000007 00030000 16020200  .......}°...........
0000009E36FF6898:   00d8b000 00060003 00001602 020000d8 b0000007  .Ø°............Ø°...
0000009E36FF68AC:   00030000 16020200 0036b100 00060003 00001602  .........6±.........
0000009E36FF68C0:   02000036 b1000007 00030000 16020200 0095b100  ...6±............±.
0000009E36FF68D4:   00060003 00001602 02000095 b1000007 00030000  ...........±.......
0000009E36FF68E8:   16020200 00e2b100 00060003 00001602 020000e2  .....â±............â
0000009E36FF68FC:   b1000007 00030000 16020200 0037b200 00060003  ±............7².....
0000009E36FF6910:   00001602 02000037 b2000007 00030000 16020200  .......7²...........
0000009E36FF6924:   00e3b200 00060003 00001602 020000e3 b2000007  .ã²............ã²...
0000009E36FF6938:   00030000 16020200 0044b300 00060003 00001602  .........D³.........
0000009E36FF694C:   02000044 b3000007 00030000 16020200 00a7b300  ...D³............§³.
0000009E36FF6960:   00060003 00001602 020000a7 b3000007 00030000  ...........§³.......
0000009E36FF6974:   16020200 00ffb300 00060003 00001602 020000ff  .....ÿ³............ÿ
0000009E36FF6988:   b3000007 00030000 16020200 005ab400 00060003  ³............Z´.....
0000009E36FF699C:   00001602 0200005a b4000007 00030000 16020200  .......Z´...........
0000009E36FF69B0:   00b9b400 00060003 00001602 020000b9 b4000007  .¹´............¹´...
0000009E36FF69C4:   00030000 16020200 0018b500 00060003 00001602  ..........µ.........
0000009E36FF69D8:   02000018 b5000007 00030000 16020200 006cb500  ....µ............lµ.
0000009E36FF69EC:   00060003 00001602 0200006c b5000007 00030000  ...........lµ.......
0000009E36FF6A00:   16020200 00bbb500 00060003 00001602 020000bb  .....»µ............»
0000009E36FF6A14:   b5000007 00030000 16020200 0012b600 00060003  µ.............¶.....
0000009E36FF6A28:   00001602 02000012 b6000007 00030000 16020200  ........¶...........
0000009E36FF6A3C:   006eb600 00060003 00001602 0200006e b6000007  .n¶............n¶...
0000009E36FF6A50:   00030000 16020200 000cb700 00060003 00001602  ..........·.........
0000009E36FF6A64:   0200000c b7000007 00030000 16020200 00b5b700  ....·............µ·.
0000009E36FF6A78:   00060003 00001602 020000b5 b7000007 00030000  ...........µ·.......
0000009E36FF6A8C:   16020200 005db800 00060003 00001602 0200005d  .....]¸............]
0000009E36FF6AA0:   b8000007 00030000 16020200 00b7b800 00060003  ¸............·¸.....
0000009E36FF6AB4:   00001602 020000b7 b8000007 00030000 16020200  .......·¸...........
0000009E36FF6AC8:   0015b900 00060003 00001602 02000015 b9000007  ..¹.............¹...
0000009E36FF6ADC:   00030000 16020200 00d1b900 00060003 00001602  .........Ñ¹.........
0000009E36FF6AF0:   020000d1 b9000007 00030000 16020200 0051ba00  ...Ñ¹............Qº.
0000009E36FF6B04:   00060003 00001602 02000051 ba000007 00030000  ...........Qº.......
0000009E36FF6B18:   16020200 00b1ba00 00060003 00001602 020000b1  .....±º............±
0000009E36FF6B2C:   ba000007 00030000 16020200 0011bb00 00060003  º.............».....
0000009E36FF6B40:   00001602 02000011 bb000007 00030000 16020200  ........»...........
0000009E36FF6B54:   0067bb00 00060003 00001602 02000067 bb000007  .g»............g»...
0000009E36FF6B68:   00030000 16020200 00bbbb00 00060003 00001602  .........»».........
0000009E36FF6B7C:   020000bb bb000007 00030000 16020200 0013bc00  ...»».............¼.
0000009E36FF6B90:   00060003 00001602 02000013 bc000007 00030000  ............¼.......
0000009E36FF6BA4:   16020200 0069bc00 00060003 00001602 02000069  .....i¼............i
0000009E36FF6BB8:   bc000007 00030000 16020200 00c4bc00 00060003  ¼............Ä¼.....
0000009E36FF6BCC:   00001602 020000c4 bc000007 00030000 16020200  .......Ä¼...........
0000009E36FF6BE0:   0029bd00 00060003 00001602 02000029 bd000007  .)½............)½...
0000009E36FF6BF4:   00030000 16020200 007ebd00 00060003 00001602  .........~½.........
0000009E36FF6C08:   0200007e bd000007 00030000 16020200 00c8bd00  ...~½............È½.
0000009E36FF6C1C:   00060003 00001602 020000c8 bd000007 00030000  ...........È½.......
0000009E36FF6C30:   16020200 0023be00 00060003 00001602 02000023  .....#¾............#
0000009E36FF6C44:   be000007 00030000 16020200 0083be00 00060003  ¾............¾.....
0000009E36FF6C58:   00001602 02000083 be000007 00030000 16020200  .......¾...........
0000009E36FF6C6C:   00e4be00 00060003 00001602 020000e4 be000007  .ä¾............ä¾...
0000009E36FF6C80:   00030000 16020200 0042bf00 00060003 00001602  .........B¿.........
0000009E36FF6C94:   02000042 bf000007 00030000 16020200 009fbf00  ...B¿............¿.
0000009E36FF6CA8:   00060003 00001602 0200009f bf000007 00030000  ...........¿.......
0000009E36FF6CBC:   16020200 00fdbf00 00060003 00001602 020000fd  .....ý¿............ý
0000009E36FF6CD0:   bf000007 00030000 16020200 00a8c000 00060003  ¿............¨À.....
0000009E36FF6CE4:   00001602 020000a8 c0000007 00030000 16020200  .......¨À...........
0000009E36FF6CF8:   0001c100 00060003 00001602 02000001 c1000007  ..Á.............Á...
0000009E36FF6D0C:   00030000 16020200 0065c100 00060003 00001602  .........eÁ.........
0000009E36FF6D20:   02000065 c1000007 00030000 16020200 00c4c100  ...eÁ............ÄÁ.
0000009E36FF6D34:   00060003 00001602 020000c4 c1000007 00030000  ...........ÄÁ.......
0000009E36FF6D48:   16020200 001bc200 00060003 00001602 0200001b  ......Â.............
0000009E36FF6D5C:   c2000007 00030000 16020200 0074c200 00060003  Â............tÂ.....
0000009E36FF6D70:   00001602 02000074 c2000007 00030000 16020200  .......tÂ...........
0000009E36FF6D84:   00cbc200 00060003 00001602 020000cb c2000007  .ËÂ............ËÂ...
0000009E36FF6D98:   00030000 16020200 0026c300 00060003 00001602  .........&Ã.........
0000009E36FF6DAC:   02000026 c3000007 00030000 16020200 0088c300  ...&Ã.............Ã.
0000009E36FF6DC0:   00060003 00001602 02000088 c3000007 00030000  ............Ã.......
0000009E36FF6DD4:   16020200 00e9c300 00060003 00001602 020000e9  .....éÃ............é
0000009E36FF6DE8:   c3000007 00030000 16020200 004cc400 00060003  Ã............LÄ.....
0000009E36FF6DFC:   00001602 0200004c c4000007 00030000 16020200  .......LÄ...........
0000009E36FF6E10:   0008c500 00060003 00001602 02000008 c5000007  ..Å.............Å...
0000009E36FF6E24:   00030000 16020200 008ec500 00060003 00001602  .........Å.........
0000009E36FF6E38:   0200008e c5000007 00030000 16020200 00fcc500  ...Å............üÅ.
0000009E36FF6E4C:   00060003 00001602 020000fc c5000007 00030000  ...........üÅ.......
0000009E36FF6E60:   16020200 0070c600 00060003 00001602 02000070  .....pÆ............p
0000009E36FF6E74:   c6000007 00030000 16020200 00e2c600 00060003  Æ............âÆ.....
0000009E36FF6E88:   00001602 020000e2 c6000007 00030000 16020200  .......âÆ...........
0000009E36FF6E9C:   0057c700 00060003 00001602 02000057 c7000007  .WÇ............WÇ...
0000009E36FF6EB0:   00030000 16020200 00cac700 00060003 00001602  .........ÊÇ.........
0000009E36FF6EC4:   020000ca c7000007 00030000 16020200 0033c800  ...ÊÇ............3È.
0000009E36FF6ED8:   00060003 00001602 02000033 c8000007 00030000  ...........3È.......
0000009E36FF6EEC:   16020200 0095c800 00060003 00001602 02000095  .....È............
0000009E36FF6F00:   c8000007 00030000 16020200 00f2c800 00060003  È............òÈ.....
0000009E36FF6F14:   00001602 020000f2 c8000007 00030000 16020200  .......òÈ...........
0000009E36FF6F28:   004ec900 00060003 00001602 0200004e c9000007  .NÉ............NÉ...
0000009E36FF6F3C:   00030000 16020200 00b8c900 00060003 00001602  .........¸É.........
0000009E36FF6F50:   020000b8 c9000007 00030000 16020200 0022ca00  ...¸É............"Ê.
0000009E36FF6F64:   00060003 00001602 02000022 ca000007 00030000  ..........."Ê.......
0000009E36FF6F78:   16020200 00edca00 00060003 00001602 020000ed  .....íÊ............í
0000009E36FF6F8C:   ca000007 00030000 16020200 004dcb00 00060003  Ê............MË.....
0000009E36FF6FA0:   00001602 0200004d cb000007 00030000 16020200  .......MË...........
0000009E36FF6FB4:   00b1cb00 00060003 00001602 020000b1 cb000007  .±Ë............±Ë...
0000009E36FF6FC8:   00030000 16020200 001ecc00 00060003 00001602  ..........Ì.........
0000009E36FF6FDC:   0200001e cc000007 00030000 16020200 008ecc00  ....Ì............Ì.
0000009E36FF6FF0:   00060003 00001602 0200008e cc000007 00030000  ...........Ì.......
0000009E36FF7004:   16020200 00f9cc00 00060003 00001602 020000f9  .....ùÌ............ù
0000009E36FF7018:   cc000007 00030000 16020200 0065cd00 00060003  Ì............eÍ.....
0000009E36FF702C:   00001602 02000065 cd000007 00030000 16020200  .......eÍ...........
0000009E36FF7040:   00c3cd00 00060003 00001602 020000c3 cd000007  .ÃÍ............ÃÍ...
0000009E36FF7054:   00030000 16020200 0020ce00 00060003 00001602  ......... Î.........
0000009E36FF7068:   02000020 ce000007 00030000 16020200 0087ce00  ... Î............Î.
0000009E36FF707C:   00060003 00001602 02000087 ce000007 00030000  ...........Î.......
0000009E36FF7090:   16020200 00f1ce00 00060003 00001602 020000f1  .....ñÎ............ñ
0000009E36FF70A4:   ce000007 00030000 16020200 0062cf00 00060003  Î............bÏ.....
0000009E36FF70B8:   00001602 02000062 cf000007 00030000 16020200  .......bÏ...........
0000009E36FF70CC:   002ed000 00060003 00001602 0200002e d0000007  ..Ð.............Ð...
0000009E36FF70E0:   00030000 16020200 0098d000 00060003 00001602  ..........Ð.........
0000009E36FF70F4:   02000098 d0000007 00030000 16020200 00fdd000  ....Ð............ýÐ.
0000009E36FF7108:   00060003 00001602 020000fd d0000007 00030000  ...........ýÐ.......
0000009E36FF711C:   16020200 0060d100 00060003 00001602 02000060  .....`Ñ............`
0000009E36FF7130:   d1000007 00030000 16020200 000dd200 00060003  Ñ.............Ò.....
0000009E36FF7144:   00001602 0200000d d2000007 00030000 16020200  ........Ò...........
0000009E36FF7158:   008ed200 00060003 00001602 0200008e d2000007  .Ò............Ò...
0000009E36FF716C:   00030000 16020200 003ad300 00060003 00001602  .........:Ó.........
0000009E36FF7180:   0200003a d3000007 00030000 16020200 009ad300  ...:Ó............Ó.
0000009E36FF7194:   00060003 00001602 0200009a d3000007 00030000  ...........Ó.......
0000009E36FF71A8:   16020200 00f2d300 00060003 00001602 020000f2  .....òÓ............ò
0000009E36FF71BC:   d3000007 00030000 16020200 00acd400 00060003  Ó............¬Ô.....
0000009E36FF71D0:   00001602 020000ac d4000007 00030000 16020200  .......¬Ô...........
0000009E36FF71E4:   000ad500 00060003 00001602 0200000a d5000007  ..Õ.............Õ...
0000009E36FF71F8:   00030000 16020200 0064d500 00060003 00001602  .........dÕ.........
0000009E36FF720C:   02000064 d5000007 00030000 16020200 00bed500  ...dÕ............¾Õ.
0000009E36FF7220:   00060003 00001602 020000be d5000007 00030000  ...........¾Õ.......
0000009E36FF7234:   16020200 001ed600 00060003 00001602 0200001e  ......Ö.............
0000009E36FF7248:   d6000007 00030000 16020200 0080d600 00060003  Ö.............Ö.....
0000009E36FF725C:   00001602 02000080 d6000007 00030000 16020200  ........Ö...........
0000009E36FF7270:   00ded600 00060003 00001602 020000de d6000007  .ÞÖ............ÞÖ...
0000009E36FF7284:   00030000 16020200 0046d700 00060003 00001602  .........F×.........
0000009E36FF7298:   02000046 d7000007 00030000 16020200 00afd700  ...F×............¯×.
0000009E36FF72AC:   00060003 00001602 020000af d7000007 00030000  ...........¯×.......
0000009E36FF72C0:   16020200 000ed800 00060003 00001602 0200000e  ......Ø.............
0000009E36FF72D4:   d8000007 00030000 16020200 0065d800 00060003  Ø............eØ.....
0000009E36FF72E8:   00001602 02000065 d8000007 00030000 16020200  .......eØ...........
0000009E36FF72FC:   00bcd800 00060003 00001602 020000bc d8000007  .¼Ø............¼Ø...
0000009E36FF7310:   00030000 16020200 001ad900 00060003 00001602  ..........Ù.........
0000009E36FF7324:   0200001a d9000007 00030000 16020200 00d7d900  ....Ù............×Ù.
0000009E36FF7338:   00060003 00001602 020000d7 d9000007 00030000  ...........×Ù.......
0000009E36FF734C:   16020200 002dda00 00060003 00001602 0200002d  .....-Ú............-
0000009E36FF7360:   da000007 00030000 16020200 0089da00 00060003  Ú............Ú.....
0000009E36FF7374:   00001602 02000089 da000007 00030000 16020200  .......Ú...........
0000009E36FF7388:   00eeda00 00060003 00001602 020000ee da000007  .îÚ............îÚ...
0000009E36FF739C:   00030000 16020200 004fdb00 00060003 00001602  .........OÛ.........
0000009E36FF73B0:   0200004f db000007 00030000 16020200 00b1db00  ...OÛ............±Û.
0000009E36FF73C4:   00060003 00001602 020000b1 db000007 00030000  ...........±Û.......
0000009E36FF73D8:   16020200 0010dc00 00060003 00001602 02000010  ......Ü.............
0000009E36FF73EC:   dc000007 00030000 16020200 006cdc00 00060003  Ü............lÜ.....
0000009E36FF7400:   00001602 0200006c dc000007 00030000 16020200  .......lÜ...........
0000009E36FF7414:   00c8dc00 00060003 00001602 020000c8 dc000007  .ÈÜ............ÈÜ...
0000009E36FF7428:   00030000 16020200 0022dd00 00060003 00001602  ........."Ý.........
0000009E36FF743C:   02000022 dd000007 00030000 16020200 00d0dd00  ..."Ý............ÐÝ.
0000009E36FF7450:   00060003 00001602 020000d0 dd000007 00030000  ...........ÐÝ.......
0000009E36FF7464:   16020200 0056de00 00060003 00001602 02000056  .....VÞ............V
0000009E36FF7478:   de000007 00030000 16020200 00b6de00 00060003  Þ............¶Þ.....
0000009E36FF748C:   00001602 020000b6 de000007 00030000 16020200  .......¶Þ...........
0000009E36FF74A0:   0015df00 00060003 00001602 02000015 df000007  ..ß.............ß...
0000009E36FF74B4:   00030000 16020200 0075df00 00060003 00001602  .........uß.........
0000009E36FF74C8:   02000075 df000007 00030000 16020200 00d9df00  ...uß............Ùß.
0000009E36FF74DC:   00060003 00001602 020000d9 df000007 00030000  ...........Ùß.......
0000009E36FF74F0:   16020200 0040e000 00060003 00001602 02000040  .....@à............@
0000009E36FF7504:   e0000007 00030000 16020200 00ade000 00060003  à............­à.....
0000009E36FF7518:   00001602 020000ad e0000007 00030000 16020200  .......­à...........
0000009E36FF752C:   0016e100 00060003 00001602 02000016 e1000007  ..á.............á...
0000009E36FF7540:   00030000 16020200 0079e100 00060003 00001602  .........yá.........
0000009E36FF7554:   02000079 e1000007 00030000 16020200 00dce100  ...yá............Üá.
0000009E36FF7568:   00060003 00001602 020000dc e1000007 00030000  ...........Üá.......
0000009E36FF757C:   16020200 003be200 00060003 00001602 0200003b  .....;â............;
0000009E36FF7590:   e2000007 00030000 16020200 009be200 00060003  â............â.....
0000009E36FF75A4:   00001602 0200009b e2000007 00030000 16020200  .......â...........
0000009E36FF75B8:   00fce200 00060003 00001602 020000fc e2000007  .üâ............üâ...
0000009E36FF75CC:   00030000 16020200 005ce300 00060003 00001602  .........\ã.........
0000009E36FF75E0:   0200005c e3000007 00030000 16020200 001ce400  ...\ã.............ä.
0000009E36FF75F4:   00060003 00001602 0200001c e4000007 00030000  ............ä.......
0000009E36FF7608:   16020200 0082e400 00060003 00001602 02000082  .....ä............
0000009E36FF761C:   e4000007 00030000 16020200 00e6e400 00060003  ä............æä.....
0000009E36FF7630:   00001602 020000e6 e4000007 00030000 16020200  .......æä...........
0000009E36FF7644:   0047e500 00060003 00001602 02000047 e5000007  .Gå............Gå...
0000009E36FF7658:   00030000 16020200 00abe500 00060003 00001602  .........«å.........
0000009E36FF766C:   020000ab e5000007 00030000 16020200 0009e600  ...«å............	æ.
0000009E36FF7680:   00060003 00001602 02000009 e6000007 00030000  ...........	æ.......
0000009E36FF7694:   16020200 0068e600 00060003 00001602 02000068  .....hæ............h
0000009E36FF76A8:   e6000007 00030000 16020200 00c8e600 00060003  æ............Èæ.....
0000009E36FF76BC:   00001602 020000c8 e6000007 00030000 16020200  .......Èæ...........
0000009E36FF76D0:   0027e700 00060003 00001602 02000027 e7000007  .'ç............'ç...
0000009E36FF76E4:   00030000 16020200 0083e700 00060003 00001602  .........ç.........
0000009E36FF76F8:   02000083 e7000007 00030000 16020200 0045e800  ...ç............Eè.
0000009E36FF770C:   00060003 00001602 02000045 e8000007 00030000  ...........Eè.......
0000009E36FF7720:   16020200 00a7e800 00060003 00001602 020000a7  .....§è............§
0000009E36FF7734:   e8000007 00030000 16020200 004be900 00060003  è............Ké.....
0000009E36FF7748:   00001602 0200004b e9000007 00030000 16020200  .......Ké...........
0000009E36FF775C:   00cde900 00060003 00001602 020000cd e9000007  .Íé............Íé...
0000009E36FF7770:   00030000 16020200 002eea00 00060003 00001602  ..........ê.........
0000009E36FF7784:   0200002e ea000007 00030000 16020200 008fea00  ....ê.............ê.
0000009E36FF7798:   00060003 00001602 0200008f ea000007 00030000  ............ê.......
0000009E36FF77AC:   16020200 00eaea00 00060003 00001602 020000ea  .....êê............ê
0000009E36FF77C0:   ea000007 00030000 16020200 0044eb00 00060003  ê............Dë.....
0000009E36FF77D4:   00001602 02000044 eb000007 00030000 16020200  .......Dë...........
0000009E36FF77E8:   00a0eb00 00060003 00001602 020000a0 eb000007  . ë............ ë...
0000009E36FF77FC:   00030000 16020200 0000ec00 00060003 00001602  ..........ì.........
0000009E36FF7810:   02000000 ec000007 00030000 16020200 0062ec00  ....ì............bì.
0000009E36FF7824:   00060003 00001602 02000062 ec000007 00030000  ...........bì.......
0000009E36FF7838:   16020200 00c5ec00 00060003 00001602 020000c5  .....Åì............Å
0000009E36FF784C:   ec000007 00030000 16020200 0020ed00 00060003  ì............ í.....
0000009E36FF7860:   00001602 02000020 ed000007 00030000 16020200  ....... í...........
0000009E36FF7874:   007eed00 00060003 00001602 0200007e ed000007  .~í............~í...
0000009E36FF7888:   00030000 16020200 00e6ed00 00060003 00001602  .........æí.........
0000009E36FF789C:   020000e6 ed000007 00030000 16020200 004cee00  ...æí............Lî.
0000009E36FF78B0:   00060003 00001602 0200004c ee000007 00030000  ...........Lî.......
0000009E36FF78C4:   16020200 00acee00 00060003 00001602 020000ac  .....¬î............¬
0000009E36FF78D8:   ee000007 00030000 16020200 000bef00 00060003  î.............ï.....
0000009E36FF78EC:   00001602 0200000b ef000007 00030000 16020200  ........ï...........
0000009E36FF7900:   006aef00 00060003 00001602 0200006a ef000007  .jï............jï...
0000009E36FF7914:   00030000 16020200 00d8ef00 00060003 00001602  .........Øï.........
0000009E36FF7928:   020000d8 ef000007 00030000 16020200 0042f000  ...Øï............Bð.
0000009E36FF793C:   00060003 00001602 02000042 f0000007 00030000  ...........Bð.......
0000009E36FF7950:   16020200 00a6f000 00060003 00001602 020000a6  .....¦ð............¦
0000009E36FF7964:   f0000007 00030000 16020200 000df100 00060003  ð.............ñ.....
0000009E36FF7978:   00001602 0200000d f1000007 00030000 16020200  ........ñ...........
0000009E36FF798C:   0070f100 00060003 00001602 02000070 f1000007  .pñ............pñ...
0000009E36FF79A0:   00030000 16020200 00d8f100 00060003 00001602  .........Øñ.........
0000009E36FF79B4:   020000d8 f1000007 00030000 16020200 0044f200  ...Øñ............Dò.
0000009E36FF79C8:   00060003 00001602 02000044 f2000007 00030000  ...........Dò.......
0000009E36FF79DC:   16020200 00a7f200 00060003 00001602 020000a7  .....§ò............§
0000009E36FF79F0:   f2000007 00030000 16020200 0006f300 00060003  ò.............ó.....
0000009E36FF7A04:   00001602 02000006 f3000007 00030000 16020200  ........ó...........
0000009E36FF7A18:   006cf300 00060003 00001602 0200006c f3000007  .ló............ló...
0000009E36FF7A2C:   00030000 16020200 00cff300 00060003 00001602  .........Ïó.........
0000009E36FF7A40:   020000cf f3000007 00030000 16020200 0028f400  ...Ïó............(ô.
0000009E36FF7A54:   00060003 00001602 02000028 f4000007 00030000  ...........(ô.......
0000009E36FF7A68:   16020200 0081f400 00060003 00001602 02000081  ......ô.............
0000009E36FF7A7C:   f4000007 00030000 16020200 00e9f400 00060003  ô............éô.....
0000009E36FF7A90:   00001602 020000e9 f4000007 00030000 16020200  .......éô...........
0000009E36FF7AA4:   00a1f500 00060003 00001602 020000a1 f5000007  .¡õ............¡õ...
0000009E36FF7AB8:   00030000 16020200 002af600 00060003 00001602  .........*ö.........
0000009E36FF7ACC:   0200002a f6000007 00030000 16020200 009af600  ...*ö............ö.
0000009E36FF7AE0:   00060003 00001602 0200009a f6000007 00030000  ...........ö.......
0000009E36FF7AF4:   16020200 000af700 00060003 00001602 0200000a  ......÷.............
0000009E36FF7B08:   f7000007 00030000 16020200 00c2f700 00060003  ÷............Â÷.....
0000009E36FF7B1C:   00001602 020000c2 f7000007 00030000 16020200  .......Â÷...........
0000009E36FF7B30:   0024f800 00060003 00001602 02000024 f8000007  .$ø............$ø...
0000009E36FF7B44:   00030000 16020200 0088f800 00060003 00001602  ..........ø.........
0000009E36FF7B58:   02000088 f8000007 00030000 16020200 00a8f900  ....ø............¨ù.
0000009E36FF7B6C:   00060003 00001602 020000a8 f9000007 00030000  ...........¨ù.......
0000009E36FF7B80:   16020200 000cfa00 00060003 00001602 0200000c  ......ú.............
0000009E36FF7B94:   fa000007 00030000 16020200 0065fa00 00060003  ú............eú.....
0000009E36FF7BA8:   00001602 02000065 fa000007 00030000 16020200  .......eú...........
0000009E36FF7BBC:   00befa00 00060003 00001602 020000be fa000007  .¾ú............¾ú...
0000009E36FF7BD0:   00030000 16020200 0020fb00 00060003 00001602  ......... û.........
0000009E36FF7BE4:   02000020 fb000007 00030000 16020200 0080fb00  ... û.............û.
0000009E36FF7BF8:   00060003 00001602 02000080 fb000007 00030000  ............û.......
0000009E36FF7C0C:   fe1bf01b e21bd41b c61bb81b aa1b9c1b 8e1b801b  þ.ð.â.Ô.Æ.¸.ª.....
0000009E36FF7C20:   721b641b 561b481b 3a1b2c1b 1e1b101b 021bf41a  r.d.V.H.:.,.......ô.
0000009E36FF7C34:   e61ad81a ca1abc1a ae1aa01a 921a841a 761a681a  æ.Ø.Ê.¼.®. ...v.h.
0000009E36FF7C48:   5a1a4c1a 3e1a301a 221a141a 061af819 ea19dc19  Z.L.>.0.".....ø.ê.Ü.
0000009E36FF7C5C:   ce19c019 b219a419 96198819 7a196c19 5e195019  Î.À.².¤....z.l.^.P.
0000009E36FF7C70:   42193419 26191819 0a19fc18 ee18e018 d218c418  B.4.&.....ü.î.à.Ò.Ä.
0000009E36FF7C84:   b618a818 9a188c18 7e187018 62185418 46183818  ¶.¨...~.p.b.T.F.8.
0000009E36FF7C98:   2a181c18 0e180018 f217e417 d617c817 ba17ac17  *.......ò.ä.Ö.È.º.¬.
0000009E36FF7CAC:   9e179017 82177417 66175817 4a173c17 2e172017  ....t.f.X.J.<... .
0000009E36FF7CC0:   12170417 f616e816 da16cc16 be16b016 a2169416  ....ö.è.Ú.Ì.¾.°.¢..
0000009E36FF7CD4:   86167816 6a165c16 4e164016 32162416 16160816  .x.j.\.N.@.2.$.....
0000009E36FF7CE8:   fa15ec15 de15d015 c215b415 a6159815 8a157c15  ú.ì.Þ.Ð.Â.´.¦....|.
0000009E36FF7CFC:   6e156015 52154415 36152815 1a150c15 fe14f014  n.`.R.D.6.(.....þ.ð.
0000009E36FF7D10:   e214d414 c614b814 aa149c14 8e148014 72146414  â.Ô.Æ.¸.ª.....r.d.
0000009E36FF7D24:   56144814 3a142c14 1e141014 0214f413 e613d813  V.H.:.,.......ô.æ.Ø.
0000009E36FF7D38:   ca13bc13 ae13a013 92138413 76136813 5a134c13  Ê.¼.®. ...v.h.Z.L.
0000009E36FF7D4C:   3e133013 22131413 0613f812 ea12dc12 ce12c012  >.0.".....ø.ê.Ü.Î.À.
0000009E36FF7D60:   b212a412 96128812 7a126c12 5e125012 42123412  ².¤....z.l.^.P.B.4.
0000009E36FF7D74:   26121812 0a12fc11 ee11e011 d211c411 b611a811  &.....ü.î.à.Ò.Ä.¶.¨.
0000009E36FF7D88:   9a118c11 7e117011 62115411 46113811 2a111c11  ..~.p.b.T.F.8.*...
0000009E36FF7D9C:   0e110011 f210e410 d610c810 ba10ac10 9e109010  ....ò.ä.Ö.È.º.¬....
0000009E36FF7DB0:   82107410 66105810 4a103c10 2e102010 12100410  .t.f.X.J.<... .....
0000009E36FF7DC4:   f60fe80f da0fcc0f be0fb00f a20f940f 860f780f  ö.è.Ú.Ì.¾.°.¢...x.
0000009E36FF7DD8:   6a0f5c0f 4e0f400f 320f240f 160f080f fa0eec0e  j.\.N.@.2.$.....ú.ì.
0000009E36FF7DEC:   de0ed00e c20eb40e a60e980e 8a0e7c0e 6e0e600e  Þ.Ð.Â.´.¦....|.n.`.
0000009E36FF7E00:   520e440e 360e280e 1a0e0c0e fe0df00d e20dd40d  R.D.6.(.....þ.ð.â.Ô.
0000009E36FF7E14:   c60db80d aa0d9c0d 8e0d800d 720d640d 560d480d  Æ.¸.ª.....r.d.V.H.
0000009E36FF7E28:   3a0d2c0d 1e0d100d 020df40c e60cd80c ca0cbc0c  :.,.......ô.æ.Ø.Ê.¼.
0000009E36FF7E3C:   ae0ca00c 920c840c 760c680c 5a0c4c0c 3e0c300c  ®. ...v.h.Z.L.>.0.
0000009E36FF7E50:   220c140c 060cf80b ea0bdc0b ce0bc00b b20ba40b  ".....ø.ê.Ü.Î.À.².¤.
0000009E36FF7E64:   960b880b 7a0b6c0b 5e0b500b 420b340b 260b180b  ...z.l.^.P.B.4.&...
0000009E36FF7E78:   0a0bfc0a ee0ae00a d20ac40a b60aa80a 9a0a8c0a  ..ü.î.à.Ò.Ä.¶.¨...
0000009E36FF7E8C:   7e0a700a 620a540a 460a380a 2a0a1c0a 0e0a000a  ~.p.b.T.F.8.*.......
0000009E36FF7EA0:   f209e409 d609c809 ba09ac09 9e099009 82097409  ò	ä	Ö	È	º	¬		.		t	
0000009E36FF7EB4:   66095809 4a093c09 2e092009 12090409 f608e808  f	X	J	<	.	 	.	.	ö.è.
0000009E36FF7EC8:   da08cc08 be08b008 a2089408 86087808 6a085c08  Ú.Ì.¾.°.¢...x.j.\.
0000009E36FF7EDC:   4e084008 32082408 16080808 fa07ec07 de07d007  N.@.2.$.....ú.ì.Þ.Ð.
0000009E36FF7EF0:   c207b407 a6079807 8a077c07 6e076007 52074407  Â.´.¦....|.n.`.R.D.
0000009E36FF7F04:   36072807 1a070c07 fe06f006 e206d406 c606b806  6.(.....þ.ð.â.Ô.Æ.¸.
0000009E36FF7F18:   aa069c06 8e068006 72066406 56064806 3a062c06  ª.....r.d.V.H.:.,.
0000009E36FF7F2C:   1e061006 0206f405 e605d805 ca05bc05 ae05a005  ......ô.æ.Ø.Ê.¼.®. .
0000009E36FF7F40:   92058405 76056805 5a054c05 3e053005 22051405  ..v.h.Z.L.>.0."...
0000009E36FF7F54:   0605f804 ea04dc04 ce04c004 b204a404 96048804  ..ø.ê.Ü.Î.À.².¤....
0000009E36FF7F68:   7a046c04 5e045004 42043404 26041804 0a04fc03  z.l.^.P.B.4.&.....ü.
0000009E36FF7F7C:   ee03e003 d203c403 b603a803 9a038c03 7e037003  î.à.Ò.Ä.¶.¨...~.p.
0000009E36FF7F90:   62035403 46033803 2a031c03 0e030003 f202e402  b.T.F.8.*.......ò.ä.
0000009E36FF7FA4:   d602c802 ba02ac02 9e029002 82027402 66025802  Ö.È.º.¬.....t.f.X.
0000009E36FF7FB8:   4a023c02 2e022002 12020402 f601e801 da01cc01  J.<... .....ö.è.Ú.Ì.
0000009E36FF7FCC:   be01b001 a2019401 86017801 6a015c01 4e014001  ¾.°.¢...x.j.\.N.@.
0000009E36FF7FE0:   32012401 16010801 fa00ec00 de00d000 c200b400  2.$.....ú.ì.Þ.Ð.Â.´.
0000009E36FF7FF4:   a6009800 8a007c00 6e006000                    ¦....|.n.`.

OFFSET TABLE:

Row - Offset                        
505 (0x1f9) - 7166 (0x1bfe)         
504 (0x1f8) - 7152 (0x1bf0)         
503 (0x1f7) - 7138 (0x1be2)         
502 (0x1f6) - 7124 (0x1bd4)         
501 (0x1f5) - 7110 (0x1bc6)         
500 (0x1f4) - 7096 (0x1bb8)         
499 (0x1f3) - 7082 (0x1baa)         
498 (0x1f2) - 7068 (0x1b9c)         
497 (0x1f1) - 7054 (0x1b8e)         
496 (0x1f0) - 7040 (0x1b80)         
495 (0x1ef) - 7026 (0x1b72)         
494 (0x1ee) - 7012 (0x1b64)         
493 (0x1ed) - 6998 (0x1b56)         
492 (0x1ec) - 6984 (0x1b48)         
491 (0x1eb) - 6970 (0x1b3a)         
490 (0x1ea) - 6956 (0x1b2c)         
489 (0x1e9) - 6942 (0x1b1e)         
488 (0x1e8) - 6928 (0x1b10)         
487 (0x1e7) - 6914 (0x1b02)         
486 (0x1e6) - 6900 (0x1af4)         
485 (0x1e5) - 6886 (0x1ae6)         
484 (0x1e4) - 6872 (0x1ad8)         
483 (0x1e3) - 6858 (0x1aca)         
482 (0x1e2) - 6844 (0x1abc)         
481 (0x1e1) - 6830 (0x1aae)         
480 (0x1e0) - 6816 (0x1aa0)         
479 (0x1df) - 6802 (0x1a92)         
478 (0x1de) - 6788 (0x1a84)         
477 (0x1dd) - 6774 (0x1a76)         
476 (0x1dc) - 6760 (0x1a68)         
475 (0x1db) - 6746 (0x1a5a)         
474 (0x1da) - 6732 (0x1a4c)         
473 (0x1d9) - 6718 (0x1a3e)         
472 (0x1d8) - 6704 (0x1a30)         
471 (0x1d7) - 6690 (0x1a22)         
470 (0x1d6) - 6676 (0x1a14)         
469 (0x1d5) - 6662 (0x1a06)         
468 (0x1d4) - 6648 (0x19f8)         
467 (0x1d3) - 6634 (0x19ea)         
466 (0x1d2) - 6620 (0x19dc)         
465 (0x1d1) - 6606 (0x19ce)         
464 (0x1d0) - 6592 (0x19c0)         
463 (0x1cf) - 6578 (0x19b2)         
462 (0x1ce) - 6564 (0x19a4)         
461 (0x1cd) - 6550 (0x1996)         
460 (0x1cc) - 6536 (0x1988)         
459 (0x1cb) - 6522 (0x197a)         
458 (0x1ca) - 6508 (0x196c)         
457 (0x1c9) - 6494 (0x195e)         
456 (0x1c8) - 6480 (0x1950)         
455 (0x1c7) - 6466 (0x1942)         
454 (0x1c6) - 6452 (0x1934)         
453 (0x1c5) - 6438 (0x1926)         
452 (0x1c4) - 6424 (0x1918)         
451 (0x1c3) - 6410 (0x190a)         
450 (0x1c2) - 6396 (0x18fc)         
449 (0x1c1) - 6382 (0x18ee)         
448 (0x1c0) - 6368 (0x18e0)         
447 (0x1bf) - 6354 (0x18d2)         
446 (0x1be) - 6340 (0x18c4)         
445 (0x1bd) - 6326 (0x18b6)         
444 (0x1bc) - 6312 (0x18a8)         
443 (0x1bb) - 6298 (0x189a)         
442 (0x1ba) - 6284 (0x188c)         
441 (0x1b9) - 6270 (0x187e)         
440 (0x1b8) - 6256 (0x1870)         
439 (0x1b7) - 6242 (0x1862)         
438 (0x1b6) - 6228 (0x1854)         
437 (0x1b5) - 6214 (0x1846)         
436 (0x1b4) - 6200 (0x1838)         
435 (0x1b3) - 6186 (0x182a)         
434 (0x1b2) - 6172 (0x181c)         
433 (0x1b1) - 6158 (0x180e)         
432 (0x1b0) - 6144 (0x1800)         
431 (0x1af) - 6130 (0x17f2)         
430 (0x1ae) - 6116 (0x17e4)         
429 (0x1ad) - 6102 (0x17d6)         
428 (0x1ac) - 6088 (0x17c8)         
427 (0x1ab) - 6074 (0x17ba)         
426 (0x1aa) - 6060 (0x17ac)         
425 (0x1a9) - 6046 (0x179e)         
424 (0x1a8) - 6032 (0x1790)         
423 (0x1a7) - 6018 (0x1782)         
422 (0x1a6) - 6004 (0x1774)         
421 (0x1a5) - 5990 (0x1766)         
420 (0x1a4) - 5976 (0x1758)         
419 (0x1a3) - 5962 (0x174a)         
418 (0x1a2) - 5948 (0x173c)         
417 (0x1a1) - 5934 (0x172e)         
416 (0x1a0) - 5920 (0x1720)         
415 (0x19f) - 5906 (0x1712)         
414 (0x19e) - 5892 (0x1704)         
413 (0x19d) - 5878 (0x16f6)         
412 (0x19c) - 5864 (0x16e8)         
411 (0x19b) - 5850 (0x16da)         
410 (0x19a) - 5836 (0x16cc)         
409 (0x199) - 5822 (0x16be)         
408 (0x198) - 5808 (0x16b0)         
407 (0x197) - 5794 (0x16a2)         
406 (0x196) - 5780 (0x1694)         
405 (0x195) - 5766 (0x1686)         
404 (0x194) - 5752 (0x1678)         
403 (0x193) - 5738 (0x166a)         
402 (0x192) - 5724 (0x165c)         
401 (0x191) - 5710 (0x164e)         
400 (0x190) - 5696 (0x1640)         
399 (0x18f) - 5682 (0x1632)         
398 (0x18e) - 5668 (0x1624)         
397 (0x18d) - 5654 (0x1616)         
396 (0x18c) - 5640 (0x1608)         
395 (0x18b) - 5626 (0x15fa)         
394 (0x18a) - 5612 (0x15ec)         
393 (0x189) - 5598 (0x15de)         
392 (0x188) - 5584 (0x15d0)         
391 (0x187) - 5570 (0x15c2)         
390 (0x186) - 5556 (0x15b4)         
389 (0x185) - 5542 (0x15a6)         
388 (0x184) - 5528 (0x1598)         
387 (0x183) - 5514 (0x158a)         
386 (0x182) - 5500 (0x157c)         
385 (0x181) - 5486 (0x156e)         
384 (0x180) - 5472 (0x1560)         
383 (0x17f) - 5458 (0x1552)         
382 (0x17e) - 5444 (0x1544)         
381 (0x17d) - 5430 (0x1536)         
380 (0x17c) - 5416 (0x1528)         
379 (0x17b) - 5402 (0x151a)         
378 (0x17a) - 5388 (0x150c)         
377 (0x179) - 5374 (0x14fe)         
376 (0x178) - 5360 (0x14f0)         
375 (0x177) - 5346 (0x14e2)         
374 (0x176) - 5332 (0x14d4)         
373 (0x175) - 5318 (0x14c6)         
372 (0x174) - 5304 (0x14b8)         
371 (0x173) - 5290 (0x14aa)         
370 (0x172) - 5276 (0x149c)         
369 (0x171) - 5262 (0x148e)         
368 (0x170) - 5248 (0x1480)         
367 (0x16f) - 5234 (0x1472)         
366 (0x16e) - 5220 (0x1464)         
365 (0x16d) - 5206 (0x1456)         
364 (0x16c) - 5192 (0x1448)         
363 (0x16b) - 5178 (0x143a)         
362 (0x16a) - 5164 (0x142c)         
361 (0x169) - 5150 (0x141e)         
360 (0x168) - 5136 (0x1410)         
359 (0x167) - 5122 (0x1402)         
358 (0x166) - 5108 (0x13f4)         
357 (0x165) - 5094 (0x13e6)         
356 (0x164) - 5080 (0x13d8)         
355 (0x163) - 5066 (0x13ca)         
354 (0x162) - 5052 (0x13bc)         
353 (0x161) - 5038 (0x13ae)         
352 (0x160) - 5024 (0x13a0)         
351 (0x15f) - 5010 (0x1392)         
350 (0x15e) - 4996 (0x1384)         
349 (0x15d) - 4982 (0x1376)         
348 (0x15c) - 4968 (0x1368)         
347 (0x15b) - 4954 (0x135a)         
346 (0x15a) - 4940 (0x134c)         
345 (0x159) - 4926 (0x133e)         
344 (0x158) - 4912 (0x1330)         
343 (0x157) - 4898 (0x1322)         
342 (0x156) - 4884 (0x1314)         
341 (0x155) - 4870 (0x1306)         
340 (0x154) - 4856 (0x12f8)         
339 (0x153) - 4842 (0x12ea)         
338 (0x152) - 4828 (0x12dc)         
337 (0x151) - 4814 (0x12ce)         
336 (0x150) - 4800 (0x12c0)         
335 (0x14f) - 4786 (0x12b2)         
334 (0x14e) - 4772 (0x12a4)         
333 (0x14d) - 4758 (0x1296)         
332 (0x14c) - 4744 (0x1288)         
331 (0x14b) - 4730 (0x127a)         
330 (0x14a) - 4716 (0x126c)         
329 (0x149) - 4702 (0x125e)         
328 (0x148) - 4688 (0x1250)         
327 (0x147) - 4674 (0x1242)         
326 (0x146) - 4660 (0x1234)         
325 (0x145) - 4646 (0x1226)         
324 (0x144) - 4632 (0x1218)         
323 (0x143) - 4618 (0x120a)         
322 (0x142) - 4604 (0x11fc)         
321 (0x141) - 4590 (0x11ee)         
320 (0x140) - 4576 (0x11e0)         
319 (0x13f) - 4562 (0x11d2)         
318 (0x13e) - 4548 (0x11c4)         
317 (0x13d) - 4534 (0x11b6)         
316 (0x13c) - 4520 (0x11a8)         
315 (0x13b) - 4506 (0x119a)         
314 (0x13a) - 4492 (0x118c)         
313 (0x139) - 4478 (0x117e)         
312 (0x138) - 4464 (0x1170)         
311 (0x137) - 4450 (0x1162)         
310 (0x136) - 4436 (0x1154)         
309 (0x135) - 4422 (0x1146)         
308 (0x134) - 4408 (0x1138)         
307 (0x133) - 4394 (0x112a)         
306 (0x132) - 4380 (0x111c)         
305 (0x131) - 4366 (0x110e)         
304 (0x130) - 4352 (0x1100)         
303 (0x12f) - 4338 (0x10f2)         
302 (0x12e) - 4324 (0x10e4)         
301 (0x12d) - 4310 (0x10d6)         
300 (0x12c) - 4296 (0x10c8)         
299 (0x12b) - 4282 (0x10ba)         
298 (0x12a) - 4268 (0x10ac)         
297 (0x129) - 4254 (0x109e)         
296 (0x128) - 4240 (0x1090)         
295 (0x127) - 4226 (0x1082)         
294 (0x126) - 4212 (0x1074)         
293 (0x125) - 4198 (0x1066)         
292 (0x124) - 4184 (0x1058)         
291 (0x123) - 4170 (0x104a)         
290 (0x122) - 4156 (0x103c)         
289 (0x121) - 4142 (0x102e)         
288 (0x120) - 4128 (0x1020)         
287 (0x11f) - 4114 (0x1012)         
286 (0x11e) - 4100 (0x1004)         
285 (0x11d) - 4086 (0xff6)          
284 (0x11c) - 4072 (0xfe8)          
283 (0x11b) - 4058 (0xfda)          
282 (0x11a) - 4044 (0xfcc)          
281 (0x119) - 4030 (0xfbe)          
280 (0x118) - 4016 (0xfb0)          
279 (0x117) - 4002 (0xfa2)          
278 (0x116) - 3988 (0xf94)          
277 (0x115) - 3974 (0xf86)          
276 (0x114) - 3960 (0xf78)          
275 (0x113) - 3946 (0xf6a)          
274 (0x112) - 3932 (0xf5c)          
273 (0x111) - 3918 (0xf4e)          
272 (0x110) - 3904 (0xf40)          
271 (0x10f) - 3890 (0xf32)          
270 (0x10e) - 3876 (0xf24)          
269 (0x10d) - 3862 (0xf16)          
268 (0x10c) - 3848 (0xf08)          
267 (0x10b) - 3834 (0xefa)          
266 (0x10a) - 3820 (0xeec)          
265 (0x109) - 3806 (0xede)          
264 (0x108) - 3792 (0xed0)          
263 (0x107) - 3778 (0xec2)          
262 (0x106) - 3764 (0xeb4)          
261 (0x105) - 3750 (0xea6)          
260 (0x104) - 3736 (0xe98)          
259 (0x103) - 3722 (0xe8a)          
258 (0x102) - 3708 (0xe7c)          
257 (0x101) - 3694 (0xe6e)          
256 (0x100) - 3680 (0xe60)          
255 (0xff) - 3666 (0xe52)           
254 (0xfe) - 3652 (0xe44)           
253 (0xfd) - 3638 (0xe36)           
252 (0xfc) - 3624 (0xe28)           
251 (0xfb) - 3610 (0xe1a)           
250 (0xfa) - 3596 (0xe0c)           
249 (0xf9) - 3582 (0xdfe)           
248 (0xf8) - 3568 (0xdf0)           
247 (0xf7) - 3554 (0xde2)           
246 (0xf6) - 3540 (0xdd4)           
245 (0xf5) - 3526 (0xdc6)           
244 (0xf4) - 3512 (0xdb8)           
243 (0xf3) - 3498 (0xdaa)           
242 (0xf2) - 3484 (0xd9c)           
241 (0xf1) - 3470 (0xd8e)           
240 (0xf0) - 3456 (0xd80)           
239 (0xef) - 3442 (0xd72)           
238 (0xee) - 3428 (0xd64)           
237 (0xed) - 3414 (0xd56)           
236 (0xec) - 3400 (0xd48)           
235 (0xeb) - 3386 (0xd3a)           
234 (0xea) - 3372 (0xd2c)           
233 (0xe9) - 3358 (0xd1e)           
232 (0xe8) - 3344 (0xd10)           
231 (0xe7) - 3330 (0xd02)           
230 (0xe6) - 3316 (0xcf4)           
229 (0xe5) - 3302 (0xce6)           
228 (0xe4) - 3288 (0xcd8)           
227 (0xe3) - 3274 (0xcca)           
226 (0xe2) - 3260 (0xcbc)           
225 (0xe1) - 3246 (0xcae)           
224 (0xe0) - 3232 (0xca0)           
223 (0xdf) - 3218 (0xc92)           
222 (0xde) - 3204 (0xc84)           
221 (0xdd) - 3190 (0xc76)           
220 (0xdc) - 3176 (0xc68)           
219 (0xdb) - 3162 (0xc5a)           
218 (0xda) - 3148 (0xc4c)           
217 (0xd9) - 3134 (0xc3e)           
216 (0xd8) - 3120 (0xc30)           
215 (0xd7) - 3106 (0xc22)           
214 (0xd6) - 3092 (0xc14)           
213 (0xd5) - 3078 (0xc06)           
212 (0xd4) - 3064 (0xbf8)           
211 (0xd3) - 3050 (0xbea)           
210 (0xd2) - 3036 (0xbdc)           
209 (0xd1) - 3022 (0xbce)           
208 (0xd0) - 3008 (0xbc0)           
207 (0xcf) - 2994 (0xbb2)           
206 (0xce) - 2980 (0xba4)           
205 (0xcd) - 2966 (0xb96)           
204 (0xcc) - 2952 (0xb88)           
203 (0xcb) - 2938 (0xb7a)           
202 (0xca) - 2924 (0xb6c)           
201 (0xc9) - 2910 (0xb5e)           
200 (0xc8) - 2896 (0xb50)           
199 (0xc7) - 2882 (0xb42)           
198 (0xc6) - 2868 (0xb34)           
197 (0xc5) - 2854 (0xb26)           
196 (0xc4) - 2840 (0xb18)           
195 (0xc3) - 2826 (0xb0a)           
194 (0xc2) - 2812 (0xafc)           
193 (0xc1) - 2798 (0xaee)           
192 (0xc0) - 2784 (0xae0)           
191 (0xbf) - 2770 (0xad2)           
190 (0xbe) - 2756 (0xac4)           
189 (0xbd) - 2742 (0xab6)           
188 (0xbc) - 2728 (0xaa8)           
187 (0xbb) - 2714 (0xa9a)           
186 (0xba) - 2700 (0xa8c)           
185 (0xb9) - 2686 (0xa7e)           
184 (0xb8) - 2672 (0xa70)           
183 (0xb7) - 2658 (0xa62)           
182 (0xb6) - 2644 (0xa54)           
181 (0xb5) - 2630 (0xa46)           
180 (0xb4) - 2616 (0xa38)           
179 (0xb3) - 2602 (0xa2a)           
178 (0xb2) - 2588 (0xa1c)           
177 (0xb1) - 2574 (0xa0e)           
176 (0xb0) - 2560 (0xa00)           
175 (0xaf) - 2546 (0x9f2)           
174 (0xae) - 2532 (0x9e4)           
173 (0xad) - 2518 (0x9d6)           
172 (0xac) - 2504 (0x9c8)           
171 (0xab) - 2490 (0x9ba)           
170 (0xaa) - 2476 (0x9ac)           
169 (0xa9) - 2462 (0x99e)           
168 (0xa8) - 2448 (0x990)           
167 (0xa7) - 2434 (0x982)           
166 (0xa6) - 2420 (0x974)           
165 (0xa5) - 2406 (0x966)           
164 (0xa4) - 2392 (0x958)           
163 (0xa3) - 2378 (0x94a)           
162 (0xa2) - 2364 (0x93c)           
161 (0xa1) - 2350 (0x92e)           
160 (0xa0) - 2336 (0x920)           
159 (0x9f) - 2322 (0x912)           
158 (0x9e) - 2308 (0x904)           
157 (0x9d) - 2294 (0x8f6)           
156 (0x9c) - 2280 (0x8e8)           
155 (0x9b) - 2266 (0x8da)           
154 (0x9a) - 2252 (0x8cc)           
153 (0x99) - 2238 (0x8be)           
152 (0x98) - 2224 (0x8b0)           
151 (0x97) - 2210 (0x8a2)           
150 (0x96) - 2196 (0x894)           
149 (0x95) - 2182 (0x886)           
148 (0x94) - 2168 (0x878)           
147 (0x93) - 2154 (0x86a)           
146 (0x92) - 2140 (0x85c)           
145 (0x91) - 2126 (0x84e)           
144 (0x90) - 2112 (0x840)           
143 (0x8f) - 2098 (0x832)           
142 (0x8e) - 2084 (0x824)           
141 (0x8d) - 2070 (0x816)           
140 (0x8c) - 2056 (0x808)           
139 (0x8b) - 2042 (0x7fa)           
138 (0x8a) - 2028 (0x7ec)           
137 (0x89) - 2014 (0x7de)           
136 (0x88) - 2000 (0x7d0)           
135 (0x87) - 1986 (0x7c2)           
134 (0x86) - 1972 (0x7b4)           
133 (0x85) - 1958 (0x7a6)           
132 (0x84) - 1944 (0x798)           
131 (0x83) - 1930 (0x78a)           
130 (0x82) - 1916 (0x77c)           
129 (0x81) - 1902 (0x76e)           
128 (0x80) - 1888 (0x760)           
127 (0x7f) - 1874 (0x752)           
126 (0x7e) - 1860 (0x744)           
125 (0x7d) - 1846 (0x736)           
124 (0x7c) - 1832 (0x728)           
123 (0x7b) - 1818 (0x71a)           
122 (0x7a) - 1804 (0x70c)           
121 (0x79) - 1790 (0x6fe)           
120 (0x78) - 1776 (0x6f0)           
119 (0x77) - 1762 (0x6e2)           
118 (0x76) - 1748 (0x6d4)           
117 (0x75) - 1734 (0x6c6)           
116 (0x74) - 1720 (0x6b8)           
115 (0x73) - 1706 (0x6aa)           
114 (0x72) - 1692 (0x69c)           
113 (0x71) - 1678 (0x68e)           
112 (0x70) - 1664 (0x680)           
111 (0x6f) - 1650 (0x672)           
110 (0x6e) - 1636 (0x664)           
109 (0x6d) - 1622 (0x656)           
108 (0x6c) - 1608 (0x648)           
107 (0x6b) - 1594 (0x63a)           
106 (0x6a) - 1580 (0x62c)           
105 (0x69) - 1566 (0x61e)           
104 (0x68) - 1552 (0x610)           
103 (0x67) - 1538 (0x602)           
102 (0x66) - 1524 (0x5f4)           
101 (0x65) - 1510 (0x5e6)           
100 (0x64) - 1496 (0x5d8)           
99 (0x63) - 1482 (0x5ca)            
98 (0x62) - 1468 (0x5bc)            
97 (0x61) - 1454 (0x5ae)            
96 (0x60) - 1440 (0x5a0)            
95 (0x5f) - 1426 (0x592)            
94 (0x5e) - 1412 (0x584)            
93 (0x5d) - 1398 (0x576)            
92 (0x5c) - 1384 (0x568)            
91 (0x5b) - 1370 (0x55a)            
90 (0x5a) - 1356 (0x54c)            
89 (0x59) - 1342 (0x53e)            
88 (0x58) - 1328 (0x530)            
87 (0x57) - 1314 (0x522)            
86 (0x56) - 1300 (0x514)            
85 (0x55) - 1286 (0x506)            
84 (0x54) - 1272 (0x4f8)            
83 (0x53) - 1258 (0x4ea)            
82 (0x52) - 1244 (0x4dc)            
81 (0x51) - 1230 (0x4ce)            
80 (0x50) - 1216 (0x4c0)            
79 (0x4f) - 1202 (0x4b2)            
78 (0x4e) - 1188 (0x4a4)            
77 (0x4d) - 1174 (0x496)            
76 (0x4c) - 1160 (0x488)            
75 (0x4b) - 1146 (0x47a)            
74 (0x4a) - 1132 (0x46c)            
73 (0x49) - 1118 (0x45e)            
72 (0x48) - 1104 (0x450)            
71 (0x47) - 1090 (0x442)            
70 (0x46) - 1076 (0x434)            
69 (0x45) - 1062 (0x426)            
68 (0x44) - 1048 (0x418)            
67 (0x43) - 1034 (0x40a)            
66 (0x42) - 1020 (0x3fc)            
65 (0x41) - 1006 (0x3ee)            
64 (0x40) - 992 (0x3e0)             
63 (0x3f) - 978 (0x3d2)             
62 (0x3e) - 964 (0x3c4)             
61 (0x3d) - 950 (0x3b6)             
60 (0x3c) - 936 (0x3a8)             
59 (0x3b) - 922 (0x39a)             
58 (0x3a) - 908 (0x38c)             
57 (0x39) - 894 (0x37e)             
56 (0x38) - 880 (0x370)             
55 (0x37) - 866 (0x362)             
54 (0x36) - 852 (0x354)             
53 (0x35) - 838 (0x346)             
52 (0x34) - 824 (0x338)             
51 (0x33) - 810 (0x32a)             
50 (0x32) - 796 (0x31c)             
49 (0x31) - 782 (0x30e)             
48 (0x30) - 768 (0x300)             
47 (0x2f) - 754 (0x2f2)             
46 (0x2e) - 740 (0x2e4)             
45 (0x2d) - 726 (0x2d6)             
44 (0x2c) - 712 (0x2c8)             
43 (0x2b) - 698 (0x2ba)             
42 (0x2a) - 684 (0x2ac)             
41 (0x29) - 670 (0x29e)             
40 (0x28) - 656 (0x290)             
39 (0x27) - 642 (0x282)             
38 (0x26) - 628 (0x274)             
37 (0x25) - 614 (0x266)             
36 (0x24) - 600 (0x258)             
35 (0x23) - 586 (0x24a)             
34 (0x22) - 572 (0x23c)             
33 (0x21) - 558 (0x22e)             
32 (0x20) - 544 (0x220)             
31 (0x1f) - 530 (0x212)             
30 (0x1e) - 516 (0x204)             
29 (0x1d) - 502 (0x1f6)             
28 (0x1c) - 488 (0x1e8)             
27 (0x1b) - 474 (0x1da)             
26 (0x1a) - 460 (0x1cc)             
25 (0x19) - 446 (0x1be)             
24 (0x18) - 432 (0x1b0)             
23 (0x17) - 418 (0x1a2)             
22 (0x16) - 404 (0x194)             
21 (0x15) - 390 (0x186)             
20 (0x14) - 376 (0x178)             
19 (0x13) - 362 (0x16a)             
18 (0x12) - 348 (0x15c)             
17 (0x11) - 334 (0x14e)             
16 (0x10) - 320 (0x140)             
15 (0xf) - 306 (0x132)              
14 (0xe) - 292 (0x124)              
13 (0xd) - 278 (0x116)              
12 (0xc) - 264 (0x108)              
11 (0xb) - 250 (0xfa)               
10 (0xa) - 236 (0xec)               
9 (0x9) - 222 (0xde)                
8 (0x8) - 208 (0xd0)                
7 (0x7) - 194 (0xc2)                
6 (0x6) - 180 (0xb4)                
5 (0x5) - 166 (0xa6)                
4 (0x4) - 152 (0x98)                
3 (0x3) - 138 (0x8a)                
2 (0x2) - 124 (0x7c)                
1 (0x1) - 110 (0x6e)                
0 (0x0) - 96 (0x60)                 
