DBCC execution completed. If DBCC printed error messages, contact your system administrator.

PAGE: (1:9)


BUFFER:


BUF @0x000001B686000000

bpage = 0x000001AA7F740000          bPmmpage = 0x0000000000000000       bsort_r_nextbP = 0x0000000000000000
bsort_r_prevbP = 0x0000000000000000 bhash = 0x0000000000000000          bpageno = (1:9)
bpart = 15                          bstat = 0x109                       breferences = 0
berrcode = 0                        bUse1 = 5655                        bstat2 = 0x0
blog = 0x5a9a9a9a                   bsampleCount = 0                    bIoCount = 0
resPoolId = 0                       bcputicks = 0                       bReadMicroSec = 145
bDirtyPendingCount = 0              bDirtyContext = 0x0000000000000000  bDbPageBroker = 0x0000000000000000
bdbid = 9                           bpru = 0x000001AA6E9A0040           

PAGE HEADER:


Page @0x000001AA7F740000

m_pageId = (1:9)                    m_headerVersion = 1                 m_type = 13
m_typeFlagBits = 0x0                m_level = 0                         m_flagBits = 0x200
m_objId (AllocUnitId.idObj) = 99    m_indexId (AllocUnitId.idInd) = 0   Metadata: AllocUnitId = 6488064
Metadata: PartitionId = 0           Metadata: IndexId = 0               Metadata: ObjectId = 99
m_prevPage = (0:0)                  m_nextPage = (0:0)                  pminlen = 0
m_slotCnt = 1                       m_freeCnt = 6308                    m_freeData = 1882
m_reservedCnt = 0                   m_lsn = (53:31289:3)                m_xactReserved = 0
m_xdesId = (0:0)                    m_ghostRecCnt = 0                   m_tornBits = -2078194704
DB Frag ID = 1                      

Allocation Status

GAM (1:2) = ALLOCATED               SGAM (1:3) = NOT ALLOCATED          PFS (1:1) = 0x64 MIXED_EXT ALLOCATED 100_PCT_FULL
DIFF (1:6) = CHANGED                ML (1:7) = NOT MIN_LOGGED           

DATA:


Memory Dump @0x0000005128DF6000

0000005128DF6000:   010d0000 00020000 00000000 00000000 00000000  ....................
0000005128DF6014:   00000100 63000000 a4185a07 09000000 01000000  ....c...¤.Z.	.......
0000005128DF6028:   35000000 397a0000 03000000 00000000 00000000  5...9z..............
0000005128DF603C:   f0432184 00000000 00000000 00000000 00000000  ðC!................
0000005128DF6050:   00000000 00000000 00000000 00000000 0000fa06  ..................ú.
0000005128DF6064:   bd038803 00000000 00000000 00000000 00000000  ½...................
0000005128DF6078:   00000000 00000000 00000000 08008100 755c907b  ................u\.{
0000005128DF608C:   e1f7cc00 d6b00000 41006400 76006500 6e007400  á÷Ì.Ö°..A.d.v.e.n.t.
0000005128DF60A0:   75007200 65005700 6f007200 6b007300 32003000  u.r.e.W.o.r.k.s.2.0.
0000005128DF60B4:   32003200 20002000 20002000 20002000 20002000  2.2. . . . . . . . .
0000005128DF60C8:   20002000 20002000 20002000 20002000 20002000   . . . . . . . . . .
0000005128DF60DC:   20002000 20002000 20002000 20002000 20002000   . . . . . . . . . .
0000005128DF60F0:   20002000 20002000 20002000 20002000 20002000   . . . . . . . . . .
0000005128DF6104:   20002000 20002000 20002000 20002000 20002000   . . . . . . . . . .
0000005128DF6118:   20002000 20002000 20002000 20002000 20002000   . . . . . . . . . .
0000005128DF612C:   20002000 20002000 20002000 20002000 20002000   . . . . . . . . . .
0000005128DF6140:   20002000 20002000 20002000 20002000 20002000   . . . . . . . . . .
0000005128DF6154:   20002000 20002000 20002000 20002000 20002000   . . . . . . . . . .
0000005128DF6168:   20002000 20002000 20002000 20002000 20002000   . . . . . . . . . .
0000005128DF617C:   20002000 20002000 20002000 20002000 20002000   . . . . . . . . . .
0000005128DF6190:   20002000 24000000 0900a000 00fa0000 00000000   . .$...	. ..ú......
0000005128DF61A4:   00000000 00000000 00000000 35000000 257a0000  ............5...%z..
0000005128DF61B8:   25000600 35000000 257a0000 25000200 00000000  %...5...%z..%.......
0000005128DF61CC:   00000000 00000000 35000000 257a0000 25000000  ........5...%z..%...
0000005128DF61E0:   48190000 00000000 08d00034 00000000 00308175  H........Ð.4.....0.u
0000005128DF61F4:   00000000 bdfe943e ca984f42 87875dd2 4a6e3976  ....½þ>Ê.OB]ÒJn9v
0000005128DF6208:   00702701 00000000 00000000 00000000 00000000  .p'.................
0000005128DF621C:   35000000 10740000 01000000 a4c551c3 867c4640  5....t......¤ÅQÃ|F@
0000005128DF6230:   bbcdee04 9c76d65a 35000000 10740000 01000000  »Íî.vÖZ5....t......
0000005128DF6244:   c3d2c7d1 a343584f 9c7254f3 d075ed90 40f597d1  ÃÒÇÑ£CXOrTóÐuí.@õÑ
0000005128DF6258:   6119f841 a0b85402 01f9dcf2 14000000 01006302  a.øA ¸T..ùÜò......c.
0000005128DF626C:   00000000 00000000 00000000 35000000 98680000  ............5....h..
0000005128DF6280:   58000400 00000000 00000000 00000000 00000000  X...................
0000005128DF6294:   00000000 00000000 00000000 00000000 00000000  ....................
0000005128DF62A8:   00000000 00000000 00000000 00000000 00000000  ....................
0000005128DF62BC:   00000000 00000000 00000000 00000000 00000000  ....................
0000005128DF62D0:   00000000 00000000 00000000 00000000 24000000  ................$...
0000005128DF62E4:   33060000 01000000 00000000 00000000 00000000  3...................
0000005128DF62F8:   00000000 00000000 00000000 3ccfc700 fcaf0000  ............<ÏÇ.ü¯..
0000005128DF630C:   51040010 00000000 e5d14b10 29571c48 818b04c0  Q.......åÑK.)W.H..À
0000005128DF6320:   e3216e68 00000000 00000000 00000000 00000000  ã!nh................
0000005128DF6334:   00000000 00000000 00000000 45020000 00010000  ............E.......
0000005128DF6348:   00000000 00000000 00000000 00000000 00000000  ....................
0000005128DF635C:   00000000 00000000 00000000 00000000 00000000  ....................
0000005128DF6370:   00000000 00000000 00000000 00000000 00000000  ....................
0000005128DF6384:   00000000 00000000 00000000 00000000 00000000  ....................
0000005128DF6398:   00000000 00000000 00000000 00000000 00000000  ....................
0000005128DF63AC:   00000000 00000000 00000000 00000000 00000000  ....................
0000005128DF63C0:   00000000 00000000 00000000 00000000 00000000  ....................
0000005128DF63D4:   00000000 00000000 00000000 00000000 00000000  ....................
0000005128DF63E8:   00000000 00000000 00000000 00000000 00000000  ....................
0000005128DF63FC:   00000000 00000000 00000000 00000000 00000000  ....................
0000005128DF6410:   00000000 00000000 00000000 00000000 00000000  ....................
0000005128DF6424:   00000000 00000000 00000000 00000000 00000000  ....................
0000005128DF6438:   00000000 00000000 00000000 00000000 00000000  ....................
0000005128DF644C:   00000000 00000000 00000000 00000000 00000000  ....................
0000005128DF6460:   00000000 00000000 00000000 00000000 00000000  ....................
0000005128DF6474:   00000000 00000000 00000000 00000000 00000000  ....................
0000005128DF6488:   00000000 00000000 00000000 00000000 00000000  ....................
0000005128DF649C:   00000000 00000000 00000000 00000000 00000000  ....................
0000005128DF64B0:   00000000 00000000 00000000 00000000 00000000  ....................
0000005128DF64C4:   00000000 00000000 00000000 00000000 00000000  ....................
0000005128DF64D8:   00000000 00000000 00000000 00000000 00000000  ....................
0000005128DF64EC:   00000000 00000000 00000000 00000000 00000000  ....................
0000005128DF6500:   00000000 00000000 00000000 00000000 00000000  ....................
0000005128DF6514:   00000000 00000000 00000000 00000000 00000000  ....................
0000005128DF6528:   00000000 00000000 00000000 00000000 00000000  ....................
0000005128DF653C:   00000000 00000000 00000000 00000000 00000000  ....................
0000005128DF6550:   00000000 00000000 00000000 00000000 00000000  ....................
0000005128DF6564:   00000000 00000000 00000000 00000000 00000000  ....................
0000005128DF6578:   00000000 00000000 00000000 00000000 00000000  ....................
0000005128DF658C:   00000000 00000000 00000000 00000000 00000000  ....................
0000005128DF65A0:   00000000 00000000 00000000 00000000 00000000  ....................
0000005128DF65B4:   00000000 00000000 00000000 00000000 00000000  ....................
0000005128DF65C8:   00000000 00000000 00000000 00000000 00000000  ....................
0000005128DF65DC:   00000000 00000000 00000000 00000000 00000000  ....................
0000005128DF65F0:   00000000 00000000 00000000 00000000 00000000  ....................
0000005128DF6604:   00000000 00000000 12000000 41000000 45000000  ............A...E...
0000005128DF6618:   00000000 00000000 00000000 00000000 00000000  ....................
0000005128DF662C:   00000000 00000000 00000000 00000000 00000000  ....................
0000005128DF6640:   00000000 00000000 00000000 00000000 00000000  ....................
0000005128DF6654:   00000000 00000000 00000000 00000000 00000000  ....................
0000005128DF6668:   00000000 00000000 00000000 00000000 00000000  ....................
0000005128DF667C:   00000000 00000000 00000000 00000000 00000000  ....................
0000005128DF6690:   00000000 00000000 00000000 00000000 00000000  ....................
0000005128DF66A4:   00000000 00000000 00000000 00000000 00000000  ....................
0000005128DF66B8:   00000000 00000000 00000000 00000000 00000000  ....................
0000005128DF66CC:   00004c00 00000001 00004d00 00000001 00000000  ..L.......M.........
0000005128DF66E0:   00000000 00000000 00000000 00000000 00000000  ....................
0000005128DF66F4:   00000000 00000000 00000000 00000000 00000000  ....................
0000005128DF6708:   00000000 00000000 00000000 00000000 00000000  ....................
0000005128DF671C:   00000000 00000000 00000000 00000000 00000000  ....................
0000005128DF6730:   00000000 00000000 00000000 00000000 00000000  ....................
0000005128DF6744:   00000000 00000000 00000000 00000000 00000000  ....................
0000005128DF6758:   00000000 00000000 00000000 00000000 00000000  ....................
0000005128DF676C:   00000000 00000000 00000000 00000000 00000000  ....................
0000005128DF6780:   00000000 00000000 00000000 00000000 00000000  ....................
0000005128DF6794:   00000000 00000000 00000000 00000000 00000000  ....................
0000005128DF67A8:   00000000 00000000 00000000 00000000 00000000  ....................
0000005128DF67BC:   00000000 00000000 00000000 00000000 00000000  ....................
0000005128DF67D0:   00000000 00000000 00000000 00000000 00000000  ....................
0000005128DF67E4:   00000000 00000000 00000000 00000000 00000000  ....................
0000005128DF67F8:   00000000 00000000 00000000 00000000 00000000  ....................
0000005128DF680C:   00000000 00000000 00000000 00000000 00000000  ....................
0000005128DF6820:   00000000 00000000 00000000 00000000 00000000  ....................
0000005128DF6834:   00000000 00000000 00000000 00000000 00000000  ....................
0000005128DF6848:   00000000 00000000 00000000 00000000 00000000  ....................
0000005128DF685C:   00000000 00000000 00000000 00000000 00000000  ....................
0000005128DF6870:   00000000 00000000 00000000 00000000 00000000  ....................
0000005128DF6884:   00000000 00000000 00000000 00000000 00000000  ....................
0000005128DF6898:   00000000 00000000 00000000 00000000 00000000  ....................
0000005128DF68AC:   00000000 00000000 00000000 00000000 00000000  ....................
0000005128DF68C0:   00000000 00000000 00000000 00000000 00000000  ....................
0000005128DF68D4:   00000000 00000000 00000000 00000000 00000000  ....................
0000005128DF68E8:   00000000 00000000 00000000 00000000 00000000  ....................
0000005128DF68FC:   00000000 00000000 00000000 00000000 00000000  ....................
0000005128DF6910:   00000000 00000000 00000000 00000000 00000000  ....................
0000005128DF6924:   00000000 00000000 00000000 00000000 00000000  ....................
0000005128DF6938:   00000000 00000000 00000000 00000000 00000000  ....................
0000005128DF694C:   00000000 00000000 00000000 00000000 00000000  ....................
0000005128DF6960:   00000000 00000000 00000000 00000000 00000000  ....................
0000005128DF6974:   00000000 00000000 00000000 00000000 00000000  ....................
0000005128DF6988:   00000000 00000000 00000000 00000000 00000000  ....................
0000005128DF699C:   00000000 00000000 00000000 00000000 00000000  ....................
0000005128DF69B0:   00000000 00000000 00000000 00000000 00000000  ....................
0000005128DF69C4:   00000000 00000000 00000000 00000000 00000000  ....................
0000005128DF69D8:   00000000 00000000 00000000 00000000 00000000  ....................
0000005128DF69EC:   00000000 00000000 00000000 00000000 00000000  ....................
0000005128DF6A00:   00000000 00000000 00000000 00000000 00000000  ....................
0000005128DF6A14:   00000000 00000000 00000000 00000000 00000000  ....................
0000005128DF6A28:   00000000 00000000 00000000 00000000 00000000  ....................
0000005128DF6A3C:   00000000 00000000 00000000 00000000 00000000  ....................
0000005128DF6A50:   00000000 00000000 00000000 00000000 00000000  ....................
0000005128DF6A64:   00000000 00000000 00000000 00000000 00000000  ....................
0000005128DF6A78:   00000000 00000000 00000000 00000000 00000000  ....................
0000005128DF6A8C:   00000000 00000000 00000000 00000000 00000000  ....................
0000005128DF6AA0:   00000000 00000000 00000000 00000000 00000000  ....................
0000005128DF6AB4:   00000000 00000000 00000000 00000000 00000000  ....................
0000005128DF6AC8:   00000000 00000000 00000000 00000000 00000000  ....................
0000005128DF6ADC:   00000000 00000000 00000000 00000000 00000000  ....................
0000005128DF6AF0:   00000000 00000000 00000000 00000000 00000000  ....................
0000005128DF6B04:   00000000 00000000 00000000 00000000 00000000  ....................
0000005128DF6B18:   00000000 00000000 00000000 00000000 00000000  ....................
0000005128DF6B2C:   00000000 00000000 00000000 00000000 00000000  ....................
0000005128DF6B40:   00000000 00000000 00000000 00000000 00000000  ....................
0000005128DF6B54:   00000000 00000000 00000000 00000000 00000000  ....................
0000005128DF6B68:   00000000 00000000 00000000 00000000 00000000  ....................
0000005128DF6B7C:   00000000 00000000 00000000 00000000 00000000  ....................
0000005128DF6B90:   00000000 00000000 00000000 00000000 00000000  ....................
0000005128DF6BA4:   00000000 00000000 00000000 00000000 00000000  ....................
0000005128DF6BB8:   00000000 00000000 00000000 00000000 00000000  ....................
0000005128DF6BCC:   00000000 00000000 00000000 00000000 00000000  ....................
0000005128DF6BE0:   00000000 00000000 00000000 00000000 00000000  ....................
0000005128DF6BF4:   00000000 00000000 00000000 00000000 00000000  ....................
0000005128DF6C08:   00000000 00000000 00000000 00000000 00000000  ....................
0000005128DF6C1C:   00000000 00000000 00000000 00000000 00000000  ....................
0000005128DF6C30:   00000000 00000000 00000000 00000000 00000000  ....................
0000005128DF6C44:   00000000 00000000 00000000 00000000 00000000  ....................
0000005128DF6C58:   00000000 00000000 00000000 00000000 00000000  ....................
0000005128DF6C6C:   00000000 00000000 00000000 00000000 00000000  ....................
0000005128DF6C80:   00000000 00000000 00000000 00000000 00000000  ....................
0000005128DF6C94:   00000000 00000000 00000000 00000000 00000000  ....................
0000005128DF6CA8:   00000000 00000000 00000000 00000000 00000000  ....................
0000005128DF6CBC:   00000000 00000000 00000000 00000000 00000000  ....................
0000005128DF6CD0:   00000000 00000000 00000000 00000000 00000000  ....................
0000005128DF6CE4:   00000000 00000000 00000000 00000000 00000000  ....................
0000005128DF6CF8:   00000000 00000000 00000000 00000000 00000000  ....................
0000005128DF6D0C:   00000000 00000000 00000000 00000000 00000000  ....................
0000005128DF6D20:   00000000 00000000 00000000 00000000 00000000  ....................
0000005128DF6D34:   00000000 00000000 00000000 00000000 00000000  ....................
0000005128DF6D48:   00000000 00000000 00000000 00000000 00000000  ....................
0000005128DF6D5C:   00000000 00000000 00000000 00000000 00000000  ....................
0000005128DF6D70:   00000000 00000000 00000000 00000000 00000000  ....................
0000005128DF6D84:   00000000 00000000 00000000 00000000 00000000  ....................
0000005128DF6D98:   00000000 00000000 00000000 00000000 00000000  ....................
0000005128DF6DAC:   00000000 00000000 00000000 00000000 00000000  ....................
0000005128DF6DC0:   00000000 00000000 00000000 00000000 00000000  ....................
0000005128DF6DD4:   00000000 00000000 00000000 00000000 00000000  ....................
0000005128DF6DE8:   00000000 00000000 00000000 00000000 00000000  ....................
0000005128DF6DFC:   00000000 00000000 00000000 00000000 00000000  ....................
0000005128DF6E10:   00000000 00000000 00000000 00000000 00000000  ....................
0000005128DF6E24:   00000000 00000000 00000000 00000000 00000000  ....................
0000005128DF6E38:   00000000 00000000 00000000 00000000 00000000  ....................
0000005128DF6E4C:   00000000 00000000 00000000 00000000 00000000  ....................
0000005128DF6E60:   00000000 00000000 00000000 00000000 00000000  ....................
0000005128DF6E74:   00000000 00000000 00000000 00000000 00000000  ....................
0000005128DF6E88:   00000000 00000000 00000000 00000000 00000000  ....................
0000005128DF6E9C:   00000000 00000000 00000000 00000000 00000000  ....................
0000005128DF6EB0:   00000000 00000000 00000000 00000000 00000000  ....................
0000005128DF6EC4:   00000000 00000000 00000000 00000000 00000000  ....................
0000005128DF6ED8:   00000000 00000000 00000000 00000000 00000000  ....................
0000005128DF6EEC:   00000000 00000000 00000000 00000000 00000000  ....................
0000005128DF6F00:   00000000 00000000 00000000 00000000 00000000  ....................
0000005128DF6F14:   00000000 00000000 00000000 00000000 00000000  ....................
0000005128DF6F28:   00000000 00000000 00000000 00000000 00000000  ....................
0000005128DF6F3C:   00000000 00000000 00000000 00000000 00000000  ....................
0000005128DF6F50:   00000000 00000000 00000000 00000000 00000000  ....................
0000005128DF6F64:   00000000 00000000 00000000 00000000 00000000  ....................
0000005128DF6F78:   00000000 00000000 00000000 00000000 00000000  ....................
0000005128DF6F8C:   00000000 00000000 00000000 00000000 00000000  ....................
0000005128DF6FA0:   00000000 00000000 00000000 00000000 00000000  ....................
0000005128DF6FB4:   00000000 00000000 00000000 00000000 00000000  ....................
0000005128DF6FC8:   00000000 00000000 00000000 00000000 00000000  ....................
0000005128DF6FDC:   00000000 00000000 00000000 00000000 00000000  ....................
0000005128DF6FF0:   00000000 00000000 00000000 00000000 00000000  ....................
0000005128DF7004:   00000000 00000000 00000000 00000000 00000000  ....................
0000005128DF7018:   00000000 00000000 00000000 00000000 00000000  ....................
0000005128DF702C:   00000000 00000000 00000000 00000000 00000000  ....................
0000005128DF7040:   00000000 00000000 00000000 00000000 00000000  ....................
0000005128DF7054:   00000000 00000000 00000000 00000000 00000000  ....................
0000005128DF7068:   00000000 00000000 00000000 00000000 00000000  ....................
0000005128DF707C:   00000000 00000000 00000000 00000000 00000000  ....................
0000005128DF7090:   00000000 00000000 00000000 00000000 00000000  ....................
0000005128DF70A4:   00000000 00000000 00000000 00000000 00000000  ....................
0000005128DF70B8:   00000000 00000000 00000000 00000000 00000000  ....................
0000005128DF70CC:   00000000 00000000 00000000 00000000 00000000  ....................
0000005128DF70E0:   00000000 00000000 00000000 00000000 00000000  ....................
0000005128DF70F4:   00000000 00000000 00000000 00000000 00000000  ....................
0000005128DF7108:   00000000 00000000 00000000 00000000 00000000  ....................
0000005128DF711C:   00000000 00000000 00000000 00000000 00000000  ....................
0000005128DF7130:   00000000 00000000 00000000 00000000 00000000  ....................
0000005128DF7144:   00000000 00000000 00000000 00000000 00000000  ....................
0000005128DF7158:   00000000 00000000 00000000 00000000 00000000  ....................
0000005128DF716C:   00000000 00000000 00000000 00000000 00000000  ....................
0000005128DF7180:   00000000 00000000 00000000 00000000 00000000  ....................
0000005128DF7194:   00000000 00000000 00000000 00000000 00000000  ....................
0000005128DF71A8:   00000000 00000000 00000000 00000000 00000000  ....................
0000005128DF71BC:   00000000 00000000 00000000 00000000 00000000  ....................
0000005128DF71D0:   00000000 00000000 00000000 00000000 00000000  ....................
0000005128DF71E4:   00000000 00000000 00000000 00000000 00000000  ....................
0000005128DF71F8:   00000000 00000000 00000000 00000000 00000000  ....................
0000005128DF720C:   00000000 00000000 00000000 00000000 00000000  ....................
0000005128DF7220:   00000000 00000000 00000000 00000000 00000000  ....................
0000005128DF7234:   00000000 00000000 00000000 00000000 00000000  ....................
0000005128DF7248:   00000000 00000000 00000000 00000000 00000000  ....................
0000005128DF725C:   00000000 00000000 00000000 00000000 00000000  ....................
0000005128DF7270:   00000000 00000000 00000000 00000000 00000000  ....................
0000005128DF7284:   00000000 00000000 00000000 00000000 00000000  ....................
0000005128DF7298:   00000000 00000000 00000000 00000000 00000000  ....................
0000005128DF72AC:   00000000 00000000 00000000 00000000 00000000  ....................
0000005128DF72C0:   00000000 00000000 00000000 00000000 00000000  ....................
0000005128DF72D4:   00000000 00000000 00000000 00000000 00000000  ....................
0000005128DF72E8:   00000000 00000000 00000000 00000000 00000000  ....................
0000005128DF72FC:   00000000 00000000 00000000 00000000 00000000  ....................
0000005128DF7310:   00000000 00000000 00000000 00000000 00000000  ....................
0000005128DF7324:   00000000 00000000 00000000 00000000 00000000  ....................
0000005128DF7338:   00000000 00000000 00000000 00000000 00000000  ....................
0000005128DF734C:   00000000 00000000 00000000 00000000 00000000  ....................
0000005128DF7360:   00000000 00000000 00000000 00000000 00000000  ....................
0000005128DF7374:   00000000 00000000 00000000 00000000 00000000  ....................
0000005128DF7388:   00000000 00000000 00000000 00000000 00000000  ....................
0000005128DF739C:   00000000 00000000 00000000 00000000 00000000  ....................
0000005128DF73B0:   00000000 00000000 00000000 00000000 00000000  ....................
0000005128DF73C4:   00000000 00000000 00000000 00000000 00000000  ....................
0000005128DF73D8:   00000000 00000000 00000000 00000000 00000000  ....................
0000005128DF73EC:   00000000 00000000 00000000 00000000 00000000  ....................
0000005128DF7400:   00000000 00000000 00000000 00000000 00000000  ....................
0000005128DF7414:   00000000 00000000 00000000 00000000 00000000  ....................
0000005128DF7428:   00000000 00000000 00000000 00000000 00000000  ....................
0000005128DF743C:   00000000 00000000 00000000 00000000 00000000  ....................
0000005128DF7450:   00000000 00000000 00000000 00000000 00000000  ....................
0000005128DF7464:   00000000 00000000 00000000 00000000 00000000  ....................
0000005128DF7478:   00000000 00000000 00000000 00000000 00000000  ....................
0000005128DF748C:   00000000 00000000 00000000 00000000 00000000  ....................
0000005128DF74A0:   00000000 00000000 00000000 00000000 00000000  ....................
0000005128DF74B4:   00000000 00000000 00000000 00000000 00000000  ....................
0000005128DF74C8:   00000000 00000000 00000000 00000000 00000000  ....................
0000005128DF74DC:   00000000 00000000 00000000 00000000 00000000  ....................
0000005128DF74F0:   00000000 00000000 00000000 00000000 00000000  ....................
0000005128DF7504:   00000000 00000000 00000000 00000000 00000000  ....................
0000005128DF7518:   00000000 00000000 00000000 00000000 00000000  ....................
0000005128DF752C:   00000000 00000000 00000000 00000000 00000000  ....................
0000005128DF7540:   00000000 00000000 00000000 00000000 00000000  ....................
0000005128DF7554:   00000000 00000000 00000000 00000000 00000000  ....................
0000005128DF7568:   00000000 00000000 00000000 00000000 00000000  ....................
0000005128DF757C:   00000000 00000000 00000000 00000000 00000000  ....................
0000005128DF7590:   00000000 00000000 00000000 00000000 00000000  ....................
0000005128DF75A4:   00000000 00000000 00000000 00000000 00000000  ....................
0000005128DF75B8:   00000000 00000000 00000000 00000000 00000000  ....................
0000005128DF75CC:   00000000 00000000 00000000 00000000 00000000  ....................
0000005128DF75E0:   00000000 00000000 00000000 00000000 00000000  ....................
0000005128DF75F4:   00000000 00000000 00000000 00000000 00000000  ....................
0000005128DF7608:   00000000 00000000 00000000 00000000 00000000  ....................
0000005128DF761C:   00000000 00000000 00000000 00000000 00000000  ....................
0000005128DF7630:   00000000 00000000 00000000 00000000 00000000  ....................
0000005128DF7644:   00000000 00000000 00000000 00000000 00000000  ....................
0000005128DF7658:   00000000 00000000 00000000 00000000 00000000  ....................
0000005128DF766C:   00000000 00000000 00000000 00000000 00000000  ....................
0000005128DF7680:   00000000 00000000 00000000 00000000 00000000  ....................
0000005128DF7694:   00000000 00000000 00000000 00000000 00000000  ....................
0000005128DF76A8:   00000000 00000000 00000000 00000000 00000000  ....................
0000005128DF76BC:   00000000 00000000 00000000 00000000 00000000  ....................
0000005128DF76D0:   00000000 00000000 00000000 00000000 00000000  ....................
0000005128DF76E4:   00000000 00000000 00000000 00000000 00000000  ....................
0000005128DF76F8:   00000000 00000000 00000000 00000000 00000000  ....................
0000005128DF770C:   00000000 00000000 00000000 00000000 00000000  ....................
0000005128DF7720:   00000000 00000000 00000000 00000000 00000000  ....................
0000005128DF7734:   00000000 00000000 00000000 00000000 00000000  ....................
0000005128DF7748:   00000000 00000000 00000000 00000000 00000000  ....................
0000005128DF775C:   00000000 00000000 00000000 00000000 00000000  ....................
0000005128DF7770:   00000000 00000000 00000000 00000000 00000000  ....................
0000005128DF7784:   00000000 00000000 00000000 00000000 00000000  ....................
0000005128DF7798:   00000000 00000000 00000000 00000000 00000000  ....................
0000005128DF77AC:   00000000 00000000 00000000 00000000 00000000  ....................
0000005128DF77C0:   00000000 00000000 00000000 00000000 00000000  ....................
0000005128DF77D4:   00000000 00000000 00000000 00000000 00000000  ....................
0000005128DF77E8:   00000000 00000000 00000000 00000000 00000000  ....................
0000005128DF77FC:   00000000 00000000 00000000 00000000 00000000  ....................
0000005128DF7810:   00000000 00000000 00000000 00000000 00000000  ....................
0000005128DF7824:   00000000 00000000 00000000 00000000 00000000  ....................
0000005128DF7838:   00000000 00000000 00000000 00000000 00000000  ....................
0000005128DF784C:   00000000 00000000 00000000 00000000 00000000  ....................
0000005128DF7860:   00000000 00000000 00000000 00000000 00000000  ....................
0000005128DF7874:   00000000 00000000 00000000 00000000 00000000  ....................
0000005128DF7888:   00000000 00000000 00000000 00000000 00000000  ....................
0000005128DF789C:   00000000 00000000 00000000 00000000 00000000  ....................
0000005128DF78B0:   00000000 00000000 00000000 00000000 00000000  ....................
0000005128DF78C4:   00000000 00000000 00000000 00000000 00000000  ....................
0000005128DF78D8:   00000000 00000000 00000000 00000000 00000000  ....................
0000005128DF78EC:   00000000 00000000 00000000 00000000 00000000  ....................
0000005128DF7900:   00000000 00000000 00000000 00000000 00000000  ....................
0000005128DF7914:   00000000 00000000 00000000 00000000 00000000  ....................
0000005128DF7928:   00000000 00000000 00000000 00000000 00000000  ....................
0000005128DF793C:   00000000 00000000 00000000 00000000 00000000  ....................
0000005128DF7950:   00000000 00000000 00000000 00000000 00000000  ....................
0000005128DF7964:   00000000 00000000 00000000 00000000 00000000  ....................
0000005128DF7978:   00000000 00000000 00000000 00000000 00000000  ....................
0000005128DF798C:   00000000 00000000 00000000 00000000 00000000  ....................
0000005128DF79A0:   00000000 00000000 00000000 00000000 00000000  ....................
0000005128DF79B4:   00000000 00000000 00000000 00000000 00000000  ....................
0000005128DF79C8:   00000000 00000000 00000000 00000000 00000000  ....................
0000005128DF79DC:   00000000 00000000 00000000 00000000 00000000  ....................
0000005128DF79F0:   00000000 00000000 00000000 00000000 00000000  ....................
0000005128DF7A04:   00000000 00000000 00000000 00000000 00000000  ....................
0000005128DF7A18:   00000000 00000000 00000000 00000000 00000000  ....................
0000005128DF7A2C:   00000000 00000000 00000000 00000000 00000000  ....................
0000005128DF7A40:   00000000 00000000 00000000 00000000 00000000  ....................
0000005128DF7A54:   00000000 00000000 00000000 00000000 00000000  ....................
0000005128DF7A68:   00000000 00000000 00000000 00000000 00000000  ....................
0000005128DF7A7C:   00000000 00000000 00000000 00000000 00000000  ....................
0000005128DF7A90:   00000000 00000000 00000000 00000000 00000000  ....................
0000005128DF7AA4:   00000000 00000000 00000000 00000000 00000000  ....................
0000005128DF7AB8:   00000000 00000000 00000000 00000000 00000000  ....................
0000005128DF7ACC:   00000000 00000000 00000000 00000000 00000000  ....................
0000005128DF7AE0:   00000000 00000000 00000000 00000000 00000000  ....................
0000005128DF7AF4:   00000000 00000000 00000000 00000000 00000000  ....................
0000005128DF7B08:   00000000 00000000 00000000 00000000 00000000  ....................
0000005128DF7B1C:   00000000 00000000 00000000 00000000 00000000  ....................
0000005128DF7B30:   00000000 00000000 00000000 00000000 00000000  ....................
0000005128DF7B44:   00000000 00000000 00000000 00000000 00000000  ....................
0000005128DF7B58:   00000000 00000000 00000000 00000000 00000000  ....................
0000005128DF7B6C:   00000000 00000000 00000000 00000000 00000000  ....................
0000005128DF7B80:   00000000 00000000 00000000 00000000 00000000  ....................
0000005128DF7B94:   00000000 00000000 00000000 00000000 00000000  ....................
0000005128DF7BA8:   00000000 00000000 00000000 00000000 00000000  ....................
0000005128DF7BBC:   00000000 00000000 00000000 00000000 00000000  ....................
0000005128DF7BD0:   00000000 00000000 00000000 00000000 00000000  ....................
0000005128DF7BE4:   00000000 00000000 00000000 00000000 00000000  ....................
0000005128DF7BF8:   00000000 00000000 00000000 00000000 00000000  ....................
0000005128DF7C0C:   00000000 00000000 00000000 00000000 00000000  ....................
0000005128DF7C20:   00000000 00000000 00000000 00000000 00000000  ....................
0000005128DF7C34:   00000000 00000000 00000000 00000000 00000000  ....................
0000005128DF7C48:   00000000 00000000 00000000 00000000 00000000  ....................
0000005128DF7C5C:   00000000 00000000 00000000 00000000 00000000  ....................
0000005128DF7C70:   00000000 00000000 00000000 00000000 00000000  ....................
0000005128DF7C84:   00000000 00000000 00000000 00000000 00000000  ....................
0000005128DF7C98:   00000000 00000000 00000000 00000000 00000000  ....................
0000005128DF7CAC:   00000000 00000000 00000000 00000000 00000000  ....................
0000005128DF7CC0:   00000000 00000000 00000000 00000000 00000000  ....................
0000005128DF7CD4:   00000000 00000000 00000000 00000000 00000000  ....................
0000005128DF7CE8:   00000000 00000000 00000000 00000000 00000000  ....................
0000005128DF7CFC:   00000000 00000000 00000000 00000000 00000000  ....................
0000005128DF7D10:   00000000 00000000 00000000 00000000 00000000  ....................
0000005128DF7D24:   00000000 00000000 00000000 00000000 00000000  ....................
0000005128DF7D38:   00000000 00000000 00000000 00000000 00000000  ....................
0000005128DF7D4C:   00000000 00000000 00000000 00000000 00000000  ....................
0000005128DF7D60:   00000000 00000000 00000000 00000000 00000000  ....................
0000005128DF7D74:   00000000 00000000 00000000 00000000 00000000  ....................
0000005128DF7D88:   00000000 00000000 00000000 00000000 00000000  ....................
0000005128DF7D9C:   00000000 00000000 00000000 00000000 00000000  ....................
0000005128DF7DB0:   00000000 00000000 00000000 00000000 00000000  ....................
0000005128DF7DC4:   00000000 00000000 00000000 00000000 00000000  ....................
0000005128DF7DD8:   00000000 00000000 00000000 00000000 00000000  ....................
0000005128DF7DEC:   00000000 00000000 00000000 00000000 00000000  ....................
0000005128DF7E00:   00000000 00000000 00000000 00000000 00000000  ....................
0000005128DF7E14:   00000000 00000000 00000000 00000000 00000000  ....................
0000005128DF7E28:   00000000 00000000 00000000 00000000 00000000  ....................
0000005128DF7E3C:   00000000 00000000 00000000 00000000 00000000  ....................
0000005128DF7E50:   00000000 00000000 00000000 00000000 00000000  ....................
0000005128DF7E64:   00000000 00000000 00000000 00000000 00000000  ....................
0000005128DF7E78:   00000000 00000000 00000000 00000000 00000000  ....................
0000005128DF7E8C:   00000000 00000000 00000000 00000000 00000000  ....................
0000005128DF7EA0:   00000000 00000000 00000000 00000000 00000000  ....................
0000005128DF7EB4:   00000000 00000000 00000000 00000000 00000000  ....................
0000005128DF7EC8:   00000000 00000000 00000000 00000000 00000000  ....................
0000005128DF7EDC:   00000000 00000000 00000000 00000000 00000000  ....................
0000005128DF7EF0:   00000000 00000000 00000000 00000000 00000000  ....................
0000005128DF7F04:   00000000 00000000 00000000 00000000 00000000  ....................
0000005128DF7F18:   00000000 00000000 00000000 00000000 00000000  ....................
0000005128DF7F2C:   00000000 00000000 00000000 00000000 00000000  ....................
0000005128DF7F40:   00000000 00000000 00000000 00000000 00000000  ....................
0000005128DF7F54:   00000000 00000000 00000000 00000000 00000000  ....................
0000005128DF7F68:   00000000 00000000 00000000 00000000 00000000  ....................
0000005128DF7F7C:   00000000 00000000 00000000 00000000 00000000  ....................
0000005128DF7F90:   00000000 00000000 00000000 00000000 00000000  ....................
0000005128DF7FA4:   00000000 00000000 00000000 00000000 00000000  ....................
0000005128DF7FB8:   00000000 00000000 00000000 00000000 00000000  ....................
0000005128DF7FCC:   00000000 00000000 00000000 00000000 00000000  ....................
0000005128DF7FE0:   00000000 00000000 00000000 00000000 00000000  ....................
0000005128DF7FF4:   00000000 00000000 00006000                    ..........`.


DBCC execution completed. If DBCC printed error messages, contact your system administrator.

Completion time: 2023-12-22T16:10:39.9590891+00:00
