-- Extracted from AdventureWorks2022 using:
--
-- DBCC TRACEON(3604);
-- DBCC PAGE('AdventureWorks2022', 1, 3, 2)

DBCC execution completed. If DBCC printed error messages, contact your system administrator.

PAGE: (1:3)


BUFFER:


BUF @0x000001D43E6F9B40

bpage = 0x000001C957634000          bPmmpage = 0x0000000000000000       bsort_r_nextbP = 0x000001D43E6F9190
bsort_r_prevbP = 0x0000000000000000 bhash = 0x0000000000000000          bpageno = (1:3)
bpart = 16                          bstat = 0x9                         breferences = 1
berrcode = 0                        bUse1 = 27693                       bstat2 = 0x8
blog = 0x15ab215a                   bsampleCount = 0                    bIoCount = 0
resPoolId = 0                       bcputicks = 0                       bReadMicroSec = 8910
bDirtyPendingCount = 0              bDirtyContext = 0x0000000000000000  bDbPageBroker = 0x0000000000000000
bdbid = 9                           bpru = 0x000001C93D728040           

PAGE HEADER:


Page @0x000001C957634000

m_pageId = (1:3)                    m_headerVersion = 1                 m_type = 9
m_typeFlagBits = 0x0                m_level = 0                         m_flagBits = 0x200
m_objId (AllocUnitId.idObj) = 99    m_indexId (AllocUnitId.idInd) = 0   Metadata: AllocUnitId = 6488064
Metadata: PartitionId = 0           Metadata: IndexId = 0               Metadata: ObjectId = 99
m_prevPage = (0:0)                  m_nextPage = (0:0)                  pminlen = 90
m_slotCnt = 2                       m_freeCnt = 6                       m_freeData = 8182
m_reservedCnt = 0                   m_lsn = (53:26208:440)              m_xactReserved = 0
m_xdesId = (0:0)                    m_ghostRecCnt = 0                   m_tornBits = 968466246
DB Frag ID = 1                      

Allocation Status

GAM (1:2) = ALLOCATED               SGAM (1:3) = NOT ALLOCATED          PFS (1:1) = 0x44 ALLOCATED 100_PCT_FULL
DIFF (1:6) = CHANGED                ML (1:7) = NOT MIN_LOGGED           

DATA:


Memory Dump @0x0000000740FF6000

0000000740FF6000:   01090000 00020000 00000000 00005a00 00000000  .	............Z.....
0000000740FF6014:   00000200 63000000 0600f61f 03000000 01000000  ....c.....ö.........
0000000740FF6028:   35000000 60660000 b8010000 00000000 00000000  5...`f..¸...........
0000000740FF603C:   469fb939 00000000 00000000 00000000 00000000  F¹9................
0000000740FF6050:   00000000 00000000 00000000 00000000 00005e00  ..................^.
0000000740FF6064:   00000000 00000000 00000000 00000000 00000000  ....................
0000000740FF6078:   00000000 00000000 00000000 00000000 00000000  ....................
0000000740FF608C:   00000000 00000000 00000000 00000000 00000000  ....................
0000000740FF60A0:   00000000 00000000 00000000 00000000 00000000  ....................
0000000740FF60B4:   00000000 00000000 00000000 381f0000 00000000  ............8.......
0000000740FF60C8:   00000000 00000000 00000000 00000000 00000000  ....................
0000000740FF60DC:   00000000 00000000 00000000 00000000 00000000  ....................
0000000740FF60F0:   00000000 00000000 00000000 00000000 00000000  ....................
0000000740FF6104:   00000000 00000000 00000000 00000000 00000000  ....................
0000000740FF6118:   00000000 00000000 00000000 00000000 00000000  ....................
0000000740FF612C:   00000000 00000000 00000000 00000000 00000000  ....................
0000000740FF6140:   00000000 00000000 00000000 00000000 00000000  ....................
0000000740FF6154:   00000000 00000000 00000000 00000000 00000000  ....................
0000000740FF6168:   00000000 00000000 00000000 00000000 00000000  ....................
0000000740FF617C:   00000000 00000000 00000000 00000000 00000000  ....................
0000000740FF6190:   00000000 00000000 00000000 00000000 00000000  ....................
0000000740FF61A4:   00000000 00000000 00000000 00000000 00000000  ....................
0000000740FF61B8:   00000000 00000000 00000000 00000000 00000000  ....................
0000000740FF61CC:   00000000 00000000 00000000 00000000 00000000  ....................
0000000740FF61E0:   00000000 00000000 00000000 00000000 00000020  ................... 
0000000740FF61F4:   00000000 00000000 00000000 00000000 00000000  ....................
0000000740FF6208:   00000000 00000000 00000000 00000000 00000000  ....................
0000000740FF621C:   00000000 00000000 00000000 00000000 00000000  ....................
0000000740FF6230:   00000000 00000000 00000000 00000000 00000000  ....................
0000000740FF6244:   00000000 00000000 00000000 00000000 00000000  ....................
0000000740FF6258:   00000000 00000000 00000000 00000000 00000000  ....................
0000000740FF626C:   00000000 00000000 00000000 00000000 00000000  ....................
0000000740FF6280:   00000000 00000000 00000000 00000000 00000000  ....................
0000000740FF6294:   00000000 00000000 00000000 00000000 00000000  ....................
0000000740FF62A8:   00000000 00000000 00000000 00000000 00000000  ....................
0000000740FF62BC:   00000000 00000000 00000000 00000000 00000000  ....................
0000000740FF62D0:   00000000 00000000 00000000 00000000 00000000  ....................
0000000740FF62E4:   00000000 00000000 00000000 00000000 00000000  ....................
0000000740FF62F8:   00000000 00000000 00000000 00000000 00000000  ....................
0000000740FF630C:   00000000 00000000 00000000 00000000 00000000  ....................
0000000740FF6320:   00000000 00000000 00000000 00000000 00000000  ....................
0000000740FF6334:   00000000 00000000 00000000 00000000 00000000  ....................
0000000740FF6348:   00000000 00000000 00000000 00000000 00000000  ....................
0000000740FF635C:   00000000 00000000 00000000 00000000 00000000  ....................
0000000740FF6370:   00000000 00000000 00000000 00000000 00000000  ....................
0000000740FF6384:   00000000 00000000 00000000 00000000 00000000  ....................
0000000740FF6398:   00000000 00000000 00000000 00000000 00000000  ....................
0000000740FF63AC:   00000000 00000000 00000000 00000000 00000000  ....................
0000000740FF63C0:   00000000 00000000 00000000 00000000 00000000  ....................
0000000740FF63D4:   00000000 00000000 00000000 00000000 00000000  ....................
0000000740FF63E8:   00000000 00000000 00000000 00000000 00000000  ....................
0000000740FF63FC:   00000000 00000000 00000000 00000000 00000000  ....................
0000000740FF6410:   00000000 00000000 00000000 00000000 00000000  ....................
0000000740FF6424:   00000000 00000000 00000000 00000000 00000000  ....................
0000000740FF6438:   00000000 00000000 00000000 00000000 00000000  ....................
0000000740FF644C:   00000000 00000000 00000000 00000000 00000000  ....................
0000000740FF6460:   00000000 00000000 00000000 00000000 00000000  ....................
0000000740FF6474:   00000000 00000000 00000000 00000000 00000000  ....................
0000000740FF6488:   00000000 00000000 00000000 00000000 00000000  ....................
0000000740FF649C:   00000000 00000000 00000000 00000000 00000000  ....................
0000000740FF64B0:   00000000 00000000 00000000 00000000 00000000  ....................
0000000740FF64C4:   00000000 00000000 00000000 00000000 00000000  ....................
0000000740FF64D8:   00000000 00000000 00000000 00000000 00000000  ....................
0000000740FF64EC:   00000000 00000000 00000000 00000000 00000000  ....................
0000000740FF6500:   00000000 00000000 00000000 00000000 00000000  ....................
0000000740FF6514:   00000000 00000000 00000000 00000000 00000000  ....................
0000000740FF6528:   00000000 00000000 00000000 00000000 00000000  ....................
0000000740FF653C:   00000000 00000000 00000000 00000000 00000000  ....................
0000000740FF6550:   00000000 00000000 00000000 00000000 00000000  ....................
0000000740FF6564:   00000000 00000000 00000000 00000000 00000000  ....................
0000000740FF6578:   00000000 00000000 00000000 00000000 00000000  ....................
0000000740FF658C:   00000000 00000000 00000000 00000000 00000000  ....................
0000000740FF65A0:   00000000 00000000 00000000 00000000 00000000  ....................
0000000740FF65B4:   00000000 00000000 00000000 00000000 00000000  ....................
0000000740FF65C8:   00000000 00000000 00000000 00000000 00000000  ....................
0000000740FF65DC:   00000000 00000000 00000000 00000000 00000000  ....................
0000000740FF65F0:   00000000 00000000 00000000 00000000 00000000  ....................
0000000740FF6604:   00000000 00000000 00000000 00000000 00000000  ....................
0000000740FF6618:   00000000 00000000 00000000 00000000 00000000  ....................
0000000740FF662C:   00000000 00000000 00000000 00000000 00000000  ....................
0000000740FF6640:   00000000 00000000 00000000 00000000 00000000  ....................
0000000740FF6654:   00000000 00000000 00000000 00000000 00000000  ....................
0000000740FF6668:   00000000 00000000 00000000 00000000 00000000  ....................
0000000740FF667C:   00000000 00000000 00000000 00000000 00000000  ....................
0000000740FF6690:   00000000 00000000 00000000 00000000 00000000  ....................
0000000740FF66A4:   00000000 00000000 00000000 00000000 00000000  ....................
0000000740FF66B8:   00000000 00000000 00000000 00000000 00000000  ....................
0000000740FF66CC:   00000000 00000000 00000000 00000000 00000000  ....................
0000000740FF66E0:   00000000 00000000 00000000 00000000 00000000  ....................
0000000740FF66F4:   00000000 00000000 00000000 00000000 00000000  ....................
0000000740FF6708:   00000000 00000000 00000000 00000000 00000000  ....................
0000000740FF671C:   00000000 00000000 00000000 00000000 00000000  ....................
0000000740FF6730:   00000000 00000000 00000000 00000000 00000000  ....................
0000000740FF6744:   00000000 00000000 00000000 00000000 00000000  ....................
0000000740FF6758:   00000000 00000000 00000000 00000000 00000000  ....................
0000000740FF676C:   00000000 00000000 00000000 00000000 00000000  ....................
0000000740FF6780:   00000000 00000000 00000000 00000000 00000000  ....................
0000000740FF6794:   00000000 00000000 00000000 00000000 00000000  ....................
0000000740FF67A8:   00000000 00000000 00000000 00000000 00000000  ....................
0000000740FF67BC:   00000000 00000000 00000000 00000000 00000000  ....................
0000000740FF67D0:   00000000 00000000 00000000 00000000 00000000  ....................
0000000740FF67E4:   00000000 00000000 00000000 00000000 00000000  ....................
0000000740FF67F8:   00000000 00000000 00000000 00000000 00000000  ....................
0000000740FF680C:   00000000 00000000 00000000 00000000 00000000  ....................
0000000740FF6820:   00000000 00000000 00000000 00000000 00000000  ....................
0000000740FF6834:   00000000 00000000 00000000 00000000 00000000  ....................
0000000740FF6848:   00000000 00000000 00000000 00000000 00000000  ....................
0000000740FF685C:   00000000 00000000 00000000 00000000 00000000  ....................
0000000740FF6870:   00000000 00000000 00000000 00000000 00000000  ....................
0000000740FF6884:   00000000 00000000 00000000 00000000 00000000  ....................
0000000740FF6898:   00000000 00000000 00000000 00000000 00000000  ....................
0000000740FF68AC:   00000000 00000000 00000000 00000000 00000000  ....................
0000000740FF68C0:   00000000 00000000 00000000 00000000 00000000  ....................
0000000740FF68D4:   00000000 00000000 00000000 00000000 00000000  ....................
0000000740FF68E8:   00000000 00000000 00000000 00000000 00000000  ....................
0000000740FF68FC:   00000000 00000000 00000000 00000000 00000000  ....................
0000000740FF6910:   00000000 00000000 00000000 00000000 00000000  ....................
0000000740FF6924:   00000000 00000000 00000000 00000000 00000000  ....................
0000000740FF6938:   00000000 00000000 00000000 00000000 00000000  ....................
0000000740FF694C:   00000000 00000000 00000000 00000000 00000000  ....................
0000000740FF6960:   00000000 00000000 00000000 00000000 00000000  ....................
0000000740FF6974:   00000000 00000000 00000000 00000000 00000000  ....................
0000000740FF6988:   00000000 00000000 00000000 00000000 00000000  ....................
0000000740FF699C:   00000000 00000000 00000000 00000000 00000000  ....................
0000000740FF69B0:   00000000 00000000 00000000 00000000 00000000  ....................
0000000740FF69C4:   00000000 00000000 00000000 00000000 00000000  ....................
0000000740FF69D8:   00000000 00000000 00000000 00000000 00000000  ....................
0000000740FF69EC:   00000000 00000000 00000000 00000000 00000000  ....................
0000000740FF6A00:   00000000 00000000 00000000 00000000 00000000  ....................
0000000740FF6A14:   00000000 00000000 00000000 00000000 00000000  ....................
0000000740FF6A28:   00000000 00000000 00000000 00000000 00000000  ....................
0000000740FF6A3C:   00000000 00000000 00000000 00000000 00000000  ....................
0000000740FF6A50:   00000000 00000000 00000000 00000000 00000000  ....................
0000000740FF6A64:   00000000 00000000 00000000 00000000 00000000  ....................
0000000740FF6A78:   00000000 00000000 00000000 00000000 00000000  ....................
0000000740FF6A8C:   00000000 00000000 00000000 00000000 00000000  ....................
0000000740FF6AA0:   00000000 00000000 00000000 00000000 00000000  ....................
0000000740FF6AB4:   00000000 00000000 00000000 00000000 00000000  ....................
0000000740FF6AC8:   00000000 00000000 00000000 00000000 00000000  ....................
0000000740FF6ADC:   00000000 00000000 00000000 00000000 00000000  ....................
0000000740FF6AF0:   00000000 00000000 00000000 00000000 00000000  ....................
0000000740FF6B04:   00000000 00000000 00000000 00000000 00000000  ....................
0000000740FF6B18:   00000000 00000000 00000000 00000000 00000000  ....................
0000000740FF6B2C:   00000000 00000000 00000000 00000000 00000000  ....................
0000000740FF6B40:   00000000 00000000 00000000 00000000 00000000  ....................
0000000740FF6B54:   00000000 00000000 00000000 00000000 00000000  ....................
0000000740FF6B68:   00000000 00000000 00000000 00000000 00000000  ....................
0000000740FF6B7C:   00000000 00000000 00000000 00000000 00000000  ....................
0000000740FF6B90:   00000000 00000000 00000000 00000000 00000000  ....................
0000000740FF6BA4:   00000000 00000000 00000000 00000000 00000000  ....................
0000000740FF6BB8:   00000000 00000000 00000000 00000000 00000000  ....................
0000000740FF6BCC:   00000000 00000000 00000000 00000000 00000000  ....................
0000000740FF6BE0:   00000000 00000000 00000000 00000000 00000000  ....................
0000000740FF6BF4:   00000000 00000000 00000000 00000000 00000000  ....................
0000000740FF6C08:   00000000 00000000 00000000 00000000 00000000  ....................
0000000740FF6C1C:   00000000 00000000 00000000 00000000 00000000  ....................
0000000740FF6C30:   00000000 00000000 00000000 00000000 00000000  ....................
0000000740FF6C44:   00000000 00000000 00000000 00000000 00000000  ....................
0000000740FF6C58:   00000000 00000000 00000000 00000000 00000000  ....................
0000000740FF6C6C:   00000000 00000000 00000000 00000000 00000000  ....................
0000000740FF6C80:   00000000 00000000 00000000 00000000 00000000  ....................
0000000740FF6C94:   00000000 00000000 00000000 00000000 00000000  ....................
0000000740FF6CA8:   00000000 00000000 00000000 00000000 00000000  ....................
0000000740FF6CBC:   00000000 00000000 00000000 00000000 00000000  ....................
0000000740FF6CD0:   00000000 00000000 00000000 00000000 00000000  ....................
0000000740FF6CE4:   00000000 00000000 00000000 00000000 00000000  ....................
0000000740FF6CF8:   00000000 00000000 00000000 00000000 00000000  ....................
0000000740FF6D0C:   00000000 00000000 00000000 00000000 00000000  ....................
0000000740FF6D20:   00000000 00000000 00000000 00000000 00000000  ....................
0000000740FF6D34:   00000000 00000000 00000000 00000000 00000000  ....................
0000000740FF6D48:   00000000 00000000 00000000 00000000 00000000  ....................
0000000740FF6D5C:   00000000 00000000 00000000 00000000 00000000  ....................
0000000740FF6D70:   00000000 00000000 00000000 00000000 00000000  ....................
0000000740FF6D84:   00000000 00000000 00000000 00000000 00000000  ....................
0000000740FF6D98:   00000000 00000000 00000000 00000000 00000000  ....................
0000000740FF6DAC:   00000000 00000000 00000000 00000000 00000000  ....................
0000000740FF6DC0:   00000000 00000000 00000000 00000000 00000000  ....................
0000000740FF6DD4:   00000000 00000000 00000000 00000000 00000000  ....................
0000000740FF6DE8:   00000000 00000000 00000000 00000000 00000000  ....................
0000000740FF6DFC:   00000000 00000000 00000000 00000000 00000000  ....................
0000000740FF6E10:   00000000 00000000 00000000 00000000 00000000  ....................
0000000740FF6E24:   00000000 00000000 00000000 00000000 00000000  ....................
0000000740FF6E38:   00000000 00000000 00000000 00000000 00000000  ....................
0000000740FF6E4C:   00000000 00000000 00000000 00000000 00000000  ....................
0000000740FF6E60:   00000000 00000000 00000000 00000000 00000000  ....................
0000000740FF6E74:   00000000 00000000 00000000 00000000 00000000  ....................
0000000740FF6E88:   00000000 00000000 00000000 00000000 00000000  ....................
0000000740FF6E9C:   00000000 00000000 00000000 00000000 00000000  ....................
0000000740FF6EB0:   00000000 00000000 00000000 00000000 00000000  ....................
0000000740FF6EC4:   00000000 00000000 00000000 00000000 00000000  ....................
0000000740FF6ED8:   00000000 00000000 00000000 00000000 00000000  ....................
0000000740FF6EEC:   00000000 00000000 00000000 00000000 00000000  ....................
0000000740FF6F00:   00000000 00000000 00000000 00000000 00000000  ....................
0000000740FF6F14:   00000000 00000000 00000000 00000000 00000000  ....................
0000000740FF6F28:   00000000 00000000 00000000 00000000 00000000  ....................
0000000740FF6F3C:   00000000 00000000 00000000 00000000 00000000  ....................
0000000740FF6F50:   00000000 00000000 00000000 00000000 00000000  ....................
0000000740FF6F64:   00000000 00000000 00000000 00000000 00000000  ....................
0000000740FF6F78:   00000000 00000000 00000000 00000000 00000000  ....................
0000000740FF6F8C:   00000000 00000000 00000000 00000000 00000000  ....................
0000000740FF6FA0:   00000000 00000000 00000000 00000000 00000000  ....................
0000000740FF6FB4:   00000000 00000000 00000000 00000000 00000000  ....................
0000000740FF6FC8:   00000000 00000000 00000000 00000000 00000000  ....................
0000000740FF6FDC:   00000000 00000000 00000000 00000000 00000000  ....................
0000000740FF6FF0:   00000000 00000000 00000000 00000000 00000000  ....................
0000000740FF7004:   00000000 00000000 00000000 00000000 00000000  ....................
0000000740FF7018:   00000000 00000000 00000000 00000000 00000000  ....................
0000000740FF702C:   00000000 00000000 00000000 00000000 00000000  ....................
0000000740FF7040:   00000000 00000000 00000000 00000000 00000000  ....................
0000000740FF7054:   00000000 00000000 00000000 00000000 00000000  ....................
0000000740FF7068:   00000000 00000000 00000000 00000000 00000000  ....................
0000000740FF707C:   00000000 00000000 00000000 00000000 00000000  ....................
0000000740FF7090:   00000000 00000000 00000000 00000000 00000000  ....................
0000000740FF70A4:   00000000 00000000 00000000 00000000 00000000  ....................
0000000740FF70B8:   00000000 00000000 00000000 00000000 00000000  ....................
0000000740FF70CC:   00000000 00000000 00000000 00000000 00000000  ....................
0000000740FF70E0:   00000000 00000000 00000000 00000000 00000000  ....................
0000000740FF70F4:   00000000 00000000 00000000 00000000 00000000  ....................
0000000740FF7108:   00000000 00000000 00000000 00000000 00000000  ....................
0000000740FF711C:   00000000 00000000 00000000 00000000 00000000  ....................
0000000740FF7130:   00000000 00000000 00000000 00000000 00000000  ....................
0000000740FF7144:   00000000 00000000 00000000 00000000 00000000  ....................
0000000740FF7158:   00000000 00000000 00000000 00000000 00000000  ....................
0000000740FF716C:   00000000 00000000 00000000 00000000 00000000  ....................
0000000740FF7180:   00000000 00000000 00000000 00000000 00000000  ....................
0000000740FF7194:   00000000 00000000 00000000 00000000 00000000  ....................
0000000740FF71A8:   00000000 00000000 00000000 00000000 00000000  ....................
0000000740FF71BC:   00000000 00000000 00000000 00000000 00000000  ....................
0000000740FF71D0:   00000000 00000000 00000000 00000000 00000000  ....................
0000000740FF71E4:   00000000 00000000 00000000 00000000 00000000  ....................
0000000740FF71F8:   00000000 00000000 00000000 00000000 00000000  ....................
0000000740FF720C:   00000000 00000000 00000000 00000000 00000000  ....................
0000000740FF7220:   00000000 00000000 00000000 00000000 00000000  ....................
0000000740FF7234:   00000000 00000000 00000000 00000000 00000000  ....................
0000000740FF7248:   00000000 00000000 00000000 00000000 00000000  ....................
0000000740FF725C:   00000000 00000000 00000000 00000000 00000000  ....................
0000000740FF7270:   00000000 00000000 00000000 00000000 00000000  ....................
0000000740FF7284:   00000000 00000000 00000000 00000000 00000000  ....................
0000000740FF7298:   00000000 00000000 00000000 00000000 00000000  ....................
0000000740FF72AC:   00000000 00000000 00000000 00000000 00000000  ....................
0000000740FF72C0:   00000000 00000000 00000000 00000000 00000000  ....................
0000000740FF72D4:   00000000 00000000 00000000 00000000 00000000  ....................
0000000740FF72E8:   00000000 00000000 00000000 00000000 00000000  ....................
0000000740FF72FC:   00000000 00000000 00000000 00000000 00000000  ....................
0000000740FF7310:   00000000 00000000 00000000 00000000 00000000  ....................
0000000740FF7324:   00000000 00000000 00000000 00000000 00000000  ....................
0000000740FF7338:   00000000 00000000 00000000 00000000 00000000  ....................
0000000740FF734C:   00000000 00000000 00000000 00000000 00000000  ....................
0000000740FF7360:   00000000 00000000 00000000 00000000 00000000  ....................
0000000740FF7374:   00000000 00000000 00000000 00000000 00000000  ....................
0000000740FF7388:   00000000 00000000 00000000 00000000 00000000  ....................
0000000740FF739C:   00000000 00000000 00000000 00000000 00000000  ....................
0000000740FF73B0:   00000000 00000000 00000000 00000000 00000000  ....................
0000000740FF73C4:   00000000 00000000 00000000 00000000 00000000  ....................
0000000740FF73D8:   00000000 00000000 00000000 00000000 00000000  ....................
0000000740FF73EC:   00000000 00000000 00000000 00000000 00000000  ....................
0000000740FF7400:   00000000 00000000 00000000 00000000 00000000  ....................
0000000740FF7414:   00000000 00000000 00000000 00000000 00000000  ....................
0000000740FF7428:   00000000 00000000 00000000 00000000 00000000  ....................
0000000740FF743C:   00000000 00000000 00000000 00000000 00000000  ....................
0000000740FF7450:   00000000 00000000 00000000 00000000 00000000  ....................
0000000740FF7464:   00000000 00000000 00000000 00000000 00000000  ....................
0000000740FF7478:   00000000 00000000 00000000 00000000 00000000  ....................
0000000740FF748C:   00000000 00000000 00000000 00000000 00000000  ....................
0000000740FF74A0:   00000000 00000000 00000000 00000000 00000000  ....................
0000000740FF74B4:   00000000 00000000 00000000 00000000 00000000  ....................
0000000740FF74C8:   00000000 00000000 00000000 00000000 00000000  ....................
0000000740FF74DC:   00000000 00000000 00000000 00000000 00000000  ....................
0000000740FF74F0:   00000000 00000000 00000000 00000000 00000000  ....................
0000000740FF7504:   00000000 00000000 00000000 00000000 00000000  ....................
0000000740FF7518:   00000000 00000000 00000000 00000000 00000000  ....................
0000000740FF752C:   00000000 00000000 00000000 00000000 00000000  ....................
0000000740FF7540:   00000000 00000000 00000000 00000000 00000000  ....................
0000000740FF7554:   00000000 00000000 00000000 00000000 00000000  ....................
0000000740FF7568:   00000000 00000000 00000000 00000000 00000000  ....................
0000000740FF757C:   00000000 00000000 00000000 00000000 00000000  ....................
0000000740FF7590:   00000000 00000000 00000000 00000000 00000000  ....................
0000000740FF75A4:   00000000 00000000 00000000 00000000 00000000  ....................
0000000740FF75B8:   00000000 00000000 00000000 00000000 00000000  ....................
0000000740FF75CC:   00000000 00000000 00000000 00000000 00000000  ....................
0000000740FF75E0:   00000000 00000000 00000000 00000000 00000000  ....................
0000000740FF75F4:   00000000 00000000 00000000 00000000 00000000  ....................
0000000740FF7608:   00000000 00000000 00000000 00000000 00000000  ....................
0000000740FF761C:   00000000 00000000 00000000 00000000 00000000  ....................
0000000740FF7630:   00000000 00000000 00000000 00000000 00000000  ....................
0000000740FF7644:   00000000 00000000 00000000 00000000 00000000  ....................
0000000740FF7658:   00000000 00000000 00000000 00000000 00000000  ....................
0000000740FF766C:   00000000 00000000 00000000 00000000 00000000  ....................
0000000740FF7680:   00000000 00000000 00000000 00000000 00000000  ....................
0000000740FF7694:   00000000 00000000 00000000 00000000 00000000  ....................
0000000740FF76A8:   00000000 00000000 00000000 00000000 00000000  ....................
0000000740FF76BC:   00000000 00000000 00000000 00000000 00000000  ....................
0000000740FF76D0:   00000000 00000000 00000000 00000000 00000000  ....................
0000000740FF76E4:   00000000 00000000 00000000 00000000 00000000  ....................
0000000740FF76F8:   00000000 00000000 00000000 00000000 00000000  ....................
0000000740FF770C:   00000000 00000000 00000000 00000000 00000000  ....................
0000000740FF7720:   00000000 00000000 00000000 00000000 00000000  ....................
0000000740FF7734:   00000000 00000000 00000000 00000000 00000000  ....................
0000000740FF7748:   00000000 00000000 00000000 00000000 00000000  ....................
0000000740FF775C:   00000000 00000000 00000000 00000000 00000000  ....................
0000000740FF7770:   00000000 00000000 00000000 00000000 00000000  ....................
0000000740FF7784:   00000000 00000000 00000000 00000000 00000000  ....................
0000000740FF7798:   00000000 00000000 00000000 00000000 00000000  ....................
0000000740FF77AC:   00000000 00000000 00000000 00000000 00000000  ....................
0000000740FF77C0:   00000000 00000000 00000000 00000000 00000000  ....................
0000000740FF77D4:   00000000 00000000 00000000 00000000 00000000  ....................
0000000740FF77E8:   00000000 00000000 00000000 00000000 00000000  ....................
0000000740FF77FC:   00000000 00000000 00000000 00000000 00000000  ....................
0000000740FF7810:   00000000 00000000 00000000 00000000 00000000  ....................
0000000740FF7824:   00000000 00000000 00000000 00000000 00000000  ....................
0000000740FF7838:   00000000 00000000 00000000 00000000 00000000  ....................
0000000740FF784C:   00000000 00000000 00000000 00000000 00000000  ....................
0000000740FF7860:   00000000 00000000 00000000 00000000 00000000  ....................
0000000740FF7874:   00000000 00000000 00000000 00000000 00000000  ....................
0000000740FF7888:   00000000 00000000 00000000 00000000 00000000  ....................
0000000740FF789C:   00000000 00000000 00000000 00000000 00000000  ....................
0000000740FF78B0:   00000000 00000000 00000000 00000000 00000000  ....................
0000000740FF78C4:   00000000 00000000 00000000 00000000 00000000  ....................
0000000740FF78D8:   00000000 00000000 00000000 00000000 00000000  ....................
0000000740FF78EC:   00000000 00000000 00000000 00000000 00000000  ....................
0000000740FF7900:   00000000 00000000 00000000 00000000 00000000  ....................
0000000740FF7914:   00000000 00000000 00000000 00000000 00000000  ....................
0000000740FF7928:   00000000 00000000 00000000 00000000 00000000  ....................
0000000740FF793C:   00000000 00000000 00000000 00000000 00000000  ....................
0000000740FF7950:   00000000 00000000 00000000 00000000 00000000  ....................
0000000740FF7964:   00000000 00000000 00000000 00000000 00000000  ....................
0000000740FF7978:   00000000 00000000 00000000 00000000 00000000  ....................
0000000740FF798C:   00000000 00000000 00000000 00000000 00000000  ....................
0000000740FF79A0:   00000000 00000000 00000000 00000000 00000000  ....................
0000000740FF79B4:   00000000 00000000 00000000 00000000 00000000  ....................
0000000740FF79C8:   00000000 00000000 00000000 00000000 00000000  ....................
0000000740FF79DC:   00000000 00000000 00000000 00000000 00000000  ....................
0000000740FF79F0:   00000000 00000000 00000000 00000000 00000000  ....................
0000000740FF7A04:   00000000 00000000 00000000 00000000 00000000  ....................
0000000740FF7A18:   00000000 00000000 00000000 00000000 00000000  ....................
0000000740FF7A2C:   00000000 00000000 00000000 00000000 00000000  ....................
0000000740FF7A40:   00000000 00000000 00000000 00000000 00000000  ....................
0000000740FF7A54:   00000000 00000000 00000000 00000000 00000000  ....................
0000000740FF7A68:   00000000 00000000 00000000 00000000 00000000  ....................
0000000740FF7A7C:   00000000 00000000 00000000 00000000 00000000  ....................
0000000740FF7A90:   00000000 00000000 00000000 00000000 00000000  ....................
0000000740FF7AA4:   00000000 00000000 00000000 00000000 00000000  ....................
0000000740FF7AB8:   00000000 00000000 00000000 00000000 00000000  ....................
0000000740FF7ACC:   00000000 00000000 00000000 00000000 00000000  ....................
0000000740FF7AE0:   00000000 00000000 00000000 00000000 00000000  ....................
0000000740FF7AF4:   00000000 00000000 00000000 00000000 00000000  ....................
0000000740FF7B08:   00000000 00000000 00000000 00000000 00000000  ....................
0000000740FF7B1C:   00000000 00000000 00000000 00000000 00000000  ....................
0000000740FF7B30:   00000000 00000000 00000000 00000000 00000000  ....................
0000000740FF7B44:   00000000 00000000 00000000 00000000 00000000  ....................
0000000740FF7B58:   00000000 00000000 00000000 00000000 00000000  ....................
0000000740FF7B6C:   00000000 00000000 00000000 00000000 00000000  ....................
0000000740FF7B80:   00000000 00000000 00000000 00000000 00000000  ....................
0000000740FF7B94:   00000000 00000000 00000000 00000000 00000000  ....................
0000000740FF7BA8:   00000000 00000000 00000000 00000000 00000000  ....................
0000000740FF7BBC:   00000000 00000000 00000000 00000000 00000000  ....................
0000000740FF7BD0:   00000000 00000000 00000000 00000000 00000000  ....................
0000000740FF7BE4:   00000000 00000000 00000000 00000000 00000000  ....................
0000000740FF7BF8:   00000000 00000000 00000000 00000000 00000000  ....................
0000000740FF7C0C:   00000000 00000000 00000000 00000000 00000000  ....................
0000000740FF7C20:   00000000 00000000 00000000 00000000 00000000  ....................
0000000740FF7C34:   00000000 00000000 00000000 00000000 00000000  ....................
0000000740FF7C48:   00000000 00000000 00000000 00000000 00000000  ....................
0000000740FF7C5C:   00000000 00000000 00000000 00000000 00000000  ....................
0000000740FF7C70:   00000000 00000000 00000000 00000000 00000000  ....................
0000000740FF7C84:   00000000 00000000 00000000 00000000 00000000  ....................
0000000740FF7C98:   00000000 00000000 00000000 00000000 00000000  ....................
0000000740FF7CAC:   00000000 00000000 00000000 00000000 00000000  ....................
0000000740FF7CC0:   00000000 00000000 00000000 00000000 00000000  ....................
0000000740FF7CD4:   00000000 00000000 00000000 00000000 00000000  ....................
0000000740FF7CE8:   00000000 00000000 00000000 00000000 00000000  ....................
0000000740FF7CFC:   00000000 00000000 00000000 00000000 00000000  ....................
0000000740FF7D10:   00000000 00000000 00000000 00000000 00000000  ....................
0000000740FF7D24:   00000000 00000000 00000000 00000000 00000000  ....................
0000000740FF7D38:   00000000 00000000 00000000 00000000 00000000  ....................
0000000740FF7D4C:   00000000 00000000 00000000 00000000 00000000  ....................
0000000740FF7D60:   00000000 00000000 00000000 00000000 00000000  ....................
0000000740FF7D74:   00000000 00000000 00000000 00000000 00000000  ....................
0000000740FF7D88:   00000000 00000000 00000000 00000000 00000000  ....................
0000000740FF7D9C:   00000000 00000000 00000000 00000000 00000000  ....................
0000000740FF7DB0:   00000000 00000000 00000000 00000000 00000000  ....................
0000000740FF7DC4:   00000000 00000000 00000000 00000000 00000000  ....................
0000000740FF7DD8:   00000000 00000000 00000000 00000000 00000000  ....................
0000000740FF7DEC:   00000000 00000000 00000000 00000000 00000000  ....................
0000000740FF7E00:   00000000 00000000 00000000 00000000 00000000  ....................
0000000740FF7E14:   00000000 00000000 00000000 00000000 00000000  ....................
0000000740FF7E28:   00000000 00000000 00000000 00000000 00000000  ....................
0000000740FF7E3C:   00000000 00000000 00000000 00000000 00000000  ....................
0000000740FF7E50:   00000000 00000000 00000000 00000000 00000000  ....................
0000000740FF7E64:   00000000 00000000 00000000 00000000 00000000  ....................
0000000740FF7E78:   00000000 00000000 00000000 00000000 00000000  ....................
0000000740FF7E8C:   00000000 00000000 00000000 00000000 00000000  ....................
0000000740FF7EA0:   00000000 00000000 00000000 00000000 00000000  ....................
0000000740FF7EB4:   00000000 00000000 00000000 00000000 00000000  ....................
0000000740FF7EC8:   00000000 00000000 00000000 00000000 00000000  ....................
0000000740FF7EDC:   00000000 00000000 00000000 00000000 00000000  ....................
0000000740FF7EF0:   00000000 00000000 00000000 00000000 00000000  ....................
0000000740FF7F04:   00000000 00000000 00000000 00000000 00000000  ....................
0000000740FF7F18:   00000000 00000000 00000000 00000000 00000000  ....................
0000000740FF7F2C:   00000000 00000000 00000000 00000000 00000000  ....................
0000000740FF7F40:   00000000 00000000 00000000 00000000 00000000  ....................
0000000740FF7F54:   00000000 00000000 00000000 00000000 00000000  ....................
0000000740FF7F68:   00000000 00000000 00000000 00000000 00000000  ....................
0000000740FF7F7C:   00000000 00000000 00000000 00000000 00000000  ....................
0000000740FF7F90:   00000000 00000000 00000000 00000000 00000000  ....................
0000000740FF7FA4:   00000000 00000000 00000000 00000000 00000000  ....................
0000000740FF7FB8:   00000000 00000000 00000000 00000000 00000000  ....................
0000000740FF7FCC:   00000000 00000000 00000000 00000000 00000000  ....................
0000000740FF7FE0:   00000000 00000000 00000000 00000000 00000000  ....................
0000000740FF7FF4:   00000000 00000000 be006000                    ........¾.`.
